{
	"contracts/LinkShield.sol": {
		"LinkShield": {
			"abi": [
				{
					"inputs": [
						{
							"internalType": "string",
							"name": "url",
							"type": "string"
						},
						{
							"internalType": "string",
							"name": "linkId",
							"type": "string"
						},
						{
							"internalType": "uint256",
							"name": "fee",
							"type": "uint256"
						}
					],
					"name": "addLink",
					"outputs": [],
					"stateMutability": "nonpayable",
					"type": "function"
				},
				{
					"inputs": [],
					"name": "comission",
					"outputs": [
						{
							"internalType": "uint256",
							"name": "",
							"type": "uint256"
						}
					],
					"stateMutability": "view",
					"type": "function"
				},
				{
					"inputs": [
						{
							"internalType": "string",
							"name": "linkId",
							"type": "string"
						}
					],
					"name": "getLink",
					"outputs": [
						{
							"components": [
								{
									"internalType": "string",
									"name": "url",
									"type": "string"
								},
								{
									"internalType": "address",
									"name": "owner",
									"type": "address"
								},
								{
									"internalType": "uint256",
									"name": "fee",
									"type": "uint256"
								}
							],
							"internalType": "struct LinkShield.Link",
							"name": "",
							"type": "tuple"
						}
					],
					"stateMutability": "view",
					"type": "function"
				},
				{
					"inputs": [
						{
							"internalType": "string",
							"name": "",
							"type": "string"
						},
						{
							"internalType": "address",
							"name": "",
							"type": "address"
						}
					],
					"name": "hasAccess",
					"outputs": [
						{
							"internalType": "bool",
							"name": "",
							"type": "bool"
						}
					],
					"stateMutability": "view",
					"type": "function"
				},
				{
					"inputs": [
						{
							"internalType": "string",
							"name": "linkId",
							"type": "string"
						}
					],
					"name": "payLink",
					"outputs": [],
					"stateMutability": "payable",
					"type": "function"
				}
			],
			"devdoc": {
				"kind": "dev",
				"methods": {},
				"version": 1
			},
			"evm": {
				"assembly": "    /* \"contracts/LinkShield.sol\":61:1969  contract LinkShield {... */\n  mstore(0x40, 0x80)\n    /* \"contracts/LinkShield.sol\":375:376  1 */\n  0x01\n    /* \"contracts/LinkShield.sol\":348:376  uint256 public comission = 1 */\n  0x00\n  sstore\n    /* \"contracts/LinkShield.sol\":61:1969  contract LinkShield {... */\n  callvalue\n  dup1\n  iszero\n  tag_1\n  jumpi\n  revert(0x00, 0x00)\ntag_1:\n  pop\n  dataSize(sub_0)\n  dup1\n  dataOffset(sub_0)\n  0x00\n  codecopy\n  0x00\n  return\nstop\n\nsub_0: assembly {\n        /* \"contracts/LinkShield.sol\":61:1969  contract LinkShield {... */\n      mstore(0x40, 0x80)\n      jumpi(tag_1, lt(calldatasize, 0x04))\n      shr(0xe0, calldataload(0x00))\n      dup1\n      0x13bd20e2\n      eq\n      tag_2\n      jumpi\n      dup1\n      0x3a4b4532\n      eq\n      tag_3\n      jumpi\n      dup1\n      0x429cad86\n      eq\n      tag_4\n      jumpi\n      dup1\n      0x7476452a\n      eq\n      tag_5\n      jumpi\n      dup1\n      0xfc5f2b78\n      eq\n      tag_6\n      jumpi\n    tag_1:\n      revert(0x00, 0x00)\n        /* \"contracts/LinkShield.sol\":473:535  mapping(string => mapping (address => bool)) public  hasAccess */\n    tag_2:\n      callvalue\n      dup1\n      iszero\n      tag_7\n      jumpi\n      revert(0x00, 0x00)\n    tag_7:\n      pop\n      tag_8\n      0x04\n      dup1\n      calldatasize\n      sub\n      dup2\n      add\n      swap1\n      tag_9\n      swap2\n      swap1\n      tag_10\n      jump\t// in\n    tag_9:\n      tag_11\n      jump\t// in\n    tag_8:\n      mload(0x40)\n      tag_12\n      swap2\n      swap1\n      tag_13\n      jump\t// in\n    tag_12:\n      mload(0x40)\n      dup1\n      swap2\n      sub\n      swap1\n      return\n        /* \"contracts/LinkShield.sol\":348:376  uint256 public comission = 1 */\n    tag_3:\n      callvalue\n      dup1\n      iszero\n      tag_14\n      jumpi\n      revert(0x00, 0x00)\n    tag_14:\n      pop\n      tag_15\n      tag_16\n      jump\t// in\n    tag_15:\n      mload(0x40)\n      tag_17\n      swap2\n      swap1\n      tag_18\n      jump\t// in\n    tag_17:\n      mload(0x40)\n      dup1\n      swap2\n      sub\n      swap1\n      return\n        /* \"contracts/LinkShield.sol\":1474:1963  function payLink(string calldata linkId) public payable // payable are functions that receive cryptocurrencys ... */\n    tag_4:\n      tag_19\n      0x04\n      dup1\n      calldatasize\n      sub\n      dup2\n      add\n      swap1\n      tag_20\n      swap2\n      swap1\n      tag_21\n      jump\t// in\n    tag_20:\n      tag_22\n      jump\t// in\n    tag_19:\n      stop\n        /* \"contracts/LinkShield.sol\":1141:1466  function getLink(string calldata linkId) public view returns (Link memory) {... */\n    tag_5:\n      callvalue\n      dup1\n      iszero\n      tag_23\n      jumpi\n      revert(0x00, 0x00)\n    tag_23:\n      pop\n      tag_24\n      0x04\n      dup1\n      calldatasize\n      sub\n      dup2\n      add\n      swap1\n      tag_25\n      swap2\n      swap1\n      tag_21\n      jump\t// in\n    tag_25:\n      tag_26\n      jump\t// in\n    tag_24:\n      mload(0x40)\n      tag_27\n      swap2\n      swap1\n      tag_28\n      jump\t// in\n    tag_27:\n      mload(0x40)\n      dup1\n      swap2\n      sub\n      swap1\n      return\n        /* \"contracts/LinkShield.sol\":605:1135  function addLink(string calldata url, string calldata linkId, uint256 fee) public {... */\n    tag_6:\n      callvalue\n      dup1\n      iszero\n      tag_29\n      jumpi\n      revert(0x00, 0x00)\n    tag_29:\n      pop\n      tag_30\n      0x04\n      dup1\n      calldatasize\n      sub\n      dup2\n      add\n      swap1\n      tag_31\n      swap2\n      swap1\n      tag_32\n      jump\t// in\n    tag_31:\n      tag_33\n      jump\t// in\n    tag_30:\n      stop\n        /* \"contracts/LinkShield.sol\":473:535  mapping(string => mapping (address => bool)) public  hasAccess */\n    tag_11:\n      0x02\n      dup3\n      dup1\n      mload\n      0x20\n      dup2\n      add\n      dup3\n      add\n      dup1\n      mload\n      dup5\n      dup3\n      mstore\n      0x20\n      dup4\n      add\n      0x20\n      dup6\n      add\n      keccak256\n      dup2\n      dup4\n      mstore\n      dup1\n      swap6\n      pop\n      pop\n      pop\n      pop\n      pop\n      pop\n      0x20\n      mstore\n      dup1\n      0x00\n      mstore\n      keccak256(0x00, 0x40)\n      0x00\n      swap2\n      pop\n      swap2\n      pop\n      swap1\n      sload\n      swap1\n      0x0100\n      exp\n      swap1\n      div\n      0xff\n      and\n      dup2\n      jump\t// out\n        /* \"contracts/LinkShield.sol\":348:376  uint256 public comission = 1 */\n    tag_16:\n      sload(0x00)\n      dup2\n      jump\t// out\n        /* \"contracts/LinkShield.sol\":1474:1963  function payLink(string calldata linkId) public payable // payable are functions that receive cryptocurrencys ... */\n    tag_22:\n        /* \"contracts/LinkShield.sol\":1601:1617  Link memory link */\n      0x00\n        /* \"contracts/LinkShield.sol\":1620:1625  links */\n      0x01\n        /* \"contracts/LinkShield.sol\":1626:1632  linkId */\n      dup4\n      dup4\n        /* \"contracts/LinkShield.sol\":1620:1633  links[linkId] */\n      mload(0x40)\n      tag_35\n      swap3\n      swap2\n      swap1\n      tag_36\n      jump\t// in\n    tag_35:\n      swap1\n      dup2\n      mstore\n      0x20\n      add\n      mload(0x40)\n      dup1\n      swap2\n      sub\n      swap1\n      keccak256\n        /* \"contracts/LinkShield.sol\":1601:1633  Link memory link = links[linkId] */\n      mload(0x40)\n      dup1\n      0x60\n      add\n      0x40\n      mstore\n      swap1\n      dup2\n      0x00\n      dup3\n      add\n      dup1\n      sload\n      tag_37\n      swap1\n      tag_38\n      jump\t// in\n    tag_37:\n      dup1\n      0x1f\n      add\n      0x20\n      dup1\n      swap2\n      div\n      mul\n      0x20\n      add\n      mload(0x40)\n      swap1\n      dup2\n      add\n      0x40\n      mstore\n      dup1\n      swap3\n      swap2\n      swap1\n      dup2\n      dup2\n      mstore\n      0x20\n      add\n      dup3\n      dup1\n      sload\n      tag_39\n      swap1\n      tag_38\n      jump\t// in\n    tag_39:\n      dup1\n      iszero\n      tag_40\n      jumpi\n      dup1\n      0x1f\n      lt\n      tag_41\n      jumpi\n      0x0100\n      dup1\n      dup4\n      sload\n      div\n      mul\n      dup4\n      mstore\n      swap2\n      0x20\n      add\n      swap2\n      jump(tag_40)\n    tag_41:\n      dup3\n      add\n      swap2\n      swap1\n      0x00\n      mstore\n      keccak256(0x00, 0x20)\n      swap1\n    tag_42:\n      dup2\n      sload\n      dup2\n      mstore\n      swap1\n      0x01\n      add\n      swap1\n      0x20\n      add\n      dup1\n      dup4\n      gt\n      tag_42\n      jumpi\n      dup3\n      swap1\n      sub\n      0x1f\n      and\n      dup3\n      add\n      swap2\n    tag_40:\n      pop\n      pop\n      pop\n      pop\n      pop\n      dup2\n      mstore\n      0x20\n      add\n      0x01\n      dup3\n      add\n      0x00\n      swap1\n      sload\n      swap1\n      0x0100\n      exp\n      swap1\n      div\n      0xffffffffffffffffffffffffffffffffffffffff\n      and\n      0xffffffffffffffffffffffffffffffffffffffff\n      and\n      0xffffffffffffffffffffffffffffffffffffffff\n      and\n      dup2\n      mstore\n      0x20\n      add\n      0x02\n      dup3\n      add\n      sload\n      dup2\n      mstore\n      pop\n      pop\n      swap1\n      pop\n        /* \"contracts/LinkShield.sol\":1674:1675  0 */\n      0x00\n        /* \"contracts/LinkShield.sol\":1652:1676  link.owner != address(0) */\n      0xffffffffffffffffffffffffffffffffffffffff\n      and\n        /* \"contracts/LinkShield.sol\":1652:1656  link */\n      dup2\n        /* \"contracts/LinkShield.sol\":1652:1662  link.owner */\n      0x20\n      add\n      mload\n        /* \"contracts/LinkShield.sol\":1652:1676  link.owner != address(0) */\n      0xffffffffffffffffffffffffffffffffffffffff\n      and\n      sub\n        /* \"contracts/LinkShield.sol\":1644:1695  require(link.owner != address(0), \"Link not found\") */\n      tag_43\n      jumpi\n      mload(0x40)\n      0x08c379a000000000000000000000000000000000000000000000000000000000\n      dup2\n      mstore\n      0x04\n      add\n      tag_44\n      swap1\n      tag_45\n      jump\t// in\n    tag_44:\n      mload(0x40)\n      dup1\n      swap2\n      sub\n      swap1\n      revert\n    tag_43:\n        /* \"contracts/LinkShield.sol\":1748:1753  false */\n      0x00\n        /* \"contracts/LinkShield.sol\":1715:1753  hasAccess[linkId][msg.sender] == false */\n      iszero\n      iszero\n        /* \"contracts/LinkShield.sol\":1715:1724  hasAccess */\n      0x02\n        /* \"contracts/LinkShield.sol\":1725:1731  linkId */\n      dup5\n      dup5\n        /* \"contracts/LinkShield.sol\":1715:1732  hasAccess[linkId] */\n      mload(0x40)\n      tag_46\n      swap3\n      swap2\n      swap1\n      tag_36\n      jump\t// in\n    tag_46:\n      swap1\n      dup2\n      mstore\n      0x20\n      add\n      mload(0x40)\n      dup1\n      swap2\n      sub\n      swap1\n      keccak256\n        /* \"contracts/LinkShield.sol\":1715:1744  hasAccess[linkId][msg.sender] */\n      0x00\n        /* \"contracts/LinkShield.sol\":1733:1743  msg.sender */\n      caller\n        /* \"contracts/LinkShield.sol\":1715:1744  hasAccess[linkId][msg.sender] */\n      0xffffffffffffffffffffffffffffffffffffffff\n      and\n      0xffffffffffffffffffffffffffffffffffffffff\n      and\n      dup2\n      mstore\n      0x20\n      add\n      swap1\n      dup2\n      mstore\n      0x20\n      add\n      0x00\n      keccak256\n      0x00\n      swap1\n      sload\n      swap1\n      0x0100\n      exp\n      swap1\n      div\n      0xff\n      and\n        /* \"contracts/LinkShield.sol\":1715:1753  hasAccess[linkId][msg.sender] == false */\n      iszero\n      iszero\n      eq\n        /* \"contracts/LinkShield.sol\":1706:1780  require((hasAccess[linkId][msg.sender] == false), \"You alredy has access\") */\n      tag_47\n      jumpi\n      mload(0x40)\n      0x08c379a000000000000000000000000000000000000000000000000000000000\n      dup2\n      mstore\n      0x04\n      add\n      tag_48\n      swap1\n      tag_49\n      jump\t// in\n    tag_48:\n      mload(0x40)\n      dup1\n      swap2\n      sub\n      swap1\n      revert\n    tag_47:\n        /* \"contracts/LinkShield.sol\":1812:1816  link */\n      dup1\n        /* \"contracts/LinkShield.sol\":1812:1820  link.fee */\n      0x40\n      add\n      mload\n        /* \"contracts/LinkShield.sol\":1799:1808  msg.value */\n      callvalue\n        /* \"contracts/LinkShield.sol\":1799:1820  msg.value >= link.fee */\n      lt\n      iszero\n        /* \"contracts/LinkShield.sol\":1791:1844  require(msg.value >= link.fee, \"Insuficient payment\") */\n      tag_50\n      jumpi\n      mload(0x40)\n      0x08c379a000000000000000000000000000000000000000000000000000000000\n      dup2\n      mstore\n      0x04\n      add\n      tag_51\n      swap1\n      tag_52\n      jump\t// in\n    tag_51:\n      mload(0x40)\n      dup1\n      swap2\n      sub\n      swap1\n      revert\n    tag_50:\n        /* \"contracts/LinkShield.sol\":1889:1893  true */\n      0x01\n        /* \"contracts/LinkShield.sol\":1857:1866  hasAccess */\n      0x02\n        /* \"contracts/LinkShield.sol\":1867:1873  linkId */\n      dup5\n      dup5\n        /* \"contracts/LinkShield.sol\":1857:1874  hasAccess[linkId] */\n      mload(0x40)\n      tag_53\n      swap3\n      swap2\n      swap1\n      tag_36\n      jump\t// in\n    tag_53:\n      swap1\n      dup2\n      mstore\n      0x20\n      add\n      mload(0x40)\n      dup1\n      swap2\n      sub\n      swap1\n      keccak256\n        /* \"contracts/LinkShield.sol\":1857:1886  hasAccess[linkId][msg.sender] */\n      0x00\n        /* \"contracts/LinkShield.sol\":1875:1885  msg.sender */\n      caller\n        /* \"contracts/LinkShield.sol\":1857:1886  hasAccess[linkId][msg.sender] */\n      0xffffffffffffffffffffffffffffffffffffffff\n      and\n      0xffffffffffffffffffffffffffffffffffffffff\n      and\n      dup2\n      mstore\n      0x20\n      add\n      swap1\n      dup2\n      mstore\n      0x20\n      add\n      0x00\n      keccak256\n      0x00\n        /* \"contracts/LinkShield.sol\":1857:1893  hasAccess[linkId][msg.sender] = true */\n      0x0100\n      exp\n      dup2\n      sload\n      dup2\n      0xff\n      mul\n      not\n      and\n      swap1\n      dup4\n      iszero\n      iszero\n      mul\n      or\n      swap1\n      sstore\n      pop\n        /* \"contracts/LinkShield.sol\":1912:1916  link */\n      dup1\n        /* \"contracts/LinkShield.sol\":1912:1922  link.owner */\n      0x20\n      add\n      mload\n        /* \"contracts/LinkShield.sol\":1904:1932  payable(link.owner).transfer */\n      0xffffffffffffffffffffffffffffffffffffffff\n      and\n        /* \"contracts/LinkShield.sol\":1904:1955  payable(link.owner).transfer(msg.value - comission) */\n      0x08fc\n        /* \"contracts/LinkShield.sol\":1945:1954  comission */\n      sload(0x00)\n        /* \"contracts/LinkShield.sol\":1933:1942  msg.value */\n      callvalue\n        /* \"contracts/LinkShield.sol\":1933:1954  msg.value - comission */\n      tag_54\n      swap2\n      swap1\n      tag_55\n      jump\t// in\n    tag_54:\n        /* \"contracts/LinkShield.sol\":1904:1955  payable(link.owner).transfer(msg.value - comission) */\n      swap1\n      dup2\n      iszero\n      mul\n      swap1\n      mload(0x40)\n      0x00\n      mload(0x40)\n      dup1\n      dup4\n      sub\n      dup2\n      dup6\n      dup9\n      dup9\n      call\n      swap4\n      pop\n      pop\n      pop\n      pop\n      iszero\n      dup1\n      iszero\n      tag_57\n      jumpi\n      returndatacopy(0x00, 0x00, returndatasize)\n      revert(0x00, returndatasize)\n    tag_57:\n      pop\n        /* \"contracts/LinkShield.sol\":1590:1963  {... */\n      pop\n        /* \"contracts/LinkShield.sol\":1474:1963  function payLink(string calldata linkId) public payable // payable are functions that receive cryptocurrencys ... */\n      pop\n      pop\n      jump\t// out\n        /* \"contracts/LinkShield.sol\":1141:1466  function getLink(string calldata linkId) public view returns (Link memory) {... */\n    tag_26:\n        /* \"contracts/LinkShield.sol\":1203:1214  Link memory */\n      tag_58\n      tag_59\n      jump\t// in\n    tag_58:\n        /* \"contracts/LinkShield.sol\":1227:1243  Link memory link */\n      0x00\n        /* \"contracts/LinkShield.sol\":1246:1251  links */\n      0x01\n        /* \"contracts/LinkShield.sol\":1252:1258  linkId */\n      dup5\n      dup5\n        /* \"contracts/LinkShield.sol\":1246:1259  links[linkId] */\n      mload(0x40)\n      tag_61\n      swap3\n      swap2\n      swap1\n      tag_36\n      jump\t// in\n    tag_61:\n      swap1\n      dup2\n      mstore\n      0x20\n      add\n      mload(0x40)\n      dup1\n      swap2\n      sub\n      swap1\n      keccak256\n        /* \"contracts/LinkShield.sol\":1227:1259  Link memory link = links[linkId] */\n      mload(0x40)\n      dup1\n      0x60\n      add\n      0x40\n      mstore\n      swap1\n      dup2\n      0x00\n      dup3\n      add\n      dup1\n      sload\n      tag_62\n      swap1\n      tag_38\n      jump\t// in\n    tag_62:\n      dup1\n      0x1f\n      add\n      0x20\n      dup1\n      swap2\n      div\n      mul\n      0x20\n      add\n      mload(0x40)\n      swap1\n      dup2\n      add\n      0x40\n      mstore\n      dup1\n      swap3\n      swap2\n      swap1\n      dup2\n      dup2\n      mstore\n      0x20\n      add\n      dup3\n      dup1\n      sload\n      tag_63\n      swap1\n      tag_38\n      jump\t// in\n    tag_63:\n      dup1\n      iszero\n      tag_64\n      jumpi\n      dup1\n      0x1f\n      lt\n      tag_65\n      jumpi\n      0x0100\n      dup1\n      dup4\n      sload\n      div\n      mul\n      dup4\n      mstore\n      swap2\n      0x20\n      add\n      swap2\n      jump(tag_64)\n    tag_65:\n      dup3\n      add\n      swap2\n      swap1\n      0x00\n      mstore\n      keccak256(0x00, 0x20)\n      swap1\n    tag_66:\n      dup2\n      sload\n      dup2\n      mstore\n      swap1\n      0x01\n      add\n      swap1\n      0x20\n      add\n      dup1\n      dup4\n      gt\n      tag_66\n      jumpi\n      dup3\n      swap1\n      sub\n      0x1f\n      and\n      dup3\n      add\n      swap2\n    tag_64:\n      pop\n      pop\n      pop\n      pop\n      pop\n      dup2\n      mstore\n      0x20\n      add\n      0x01\n      dup3\n      add\n      0x00\n      swap1\n      sload\n      swap1\n      0x0100\n      exp\n      swap1\n      div\n      0xffffffffffffffffffffffffffffffffffffffff\n      and\n      0xffffffffffffffffffffffffffffffffffffffff\n      and\n      0xffffffffffffffffffffffffffffffffffffffff\n      and\n      dup2\n      mstore\n      0x20\n      add\n      0x02\n      dup3\n      add\n      sload\n      dup2\n      mstore\n      pop\n      pop\n      swap1\n      pop\n        /* \"contracts/LinkShield.sol\":1285:1286  0 */\n      0x00\n        /* \"contracts/LinkShield.sol\":1273:1277  link */\n      dup2\n        /* \"contracts/LinkShield.sol\":1273:1281  link.fee */\n      0x40\n      add\n      mload\n        /* \"contracts/LinkShield.sol\":1273:1286  link.fee == 0 */\n      sub\n        /* \"contracts/LinkShield.sol\":1270:1299  if(link.fee == 0) return link */\n      tag_67\n      jumpi\n        /* \"contracts/LinkShield.sol\":1295:1299  link */\n      dup1\n        /* \"contracts/LinkShield.sol\":1288:1299  return link */\n      swap2\n      pop\n      pop\n      jump(tag_60)\n        /* \"contracts/LinkShield.sol\":1270:1299  if(link.fee == 0) return link */\n    tag_67:\n        /* \"contracts/LinkShield.sol\":1346:1351  false */\n      0x00\n        /* \"contracts/LinkShield.sol\":1313:1351  hasAccess[linkId][msg.sender] == false */\n      iszero\n      iszero\n        /* \"contracts/LinkShield.sol\":1313:1322  hasAccess */\n      0x02\n        /* \"contracts/LinkShield.sol\":1323:1329  linkId */\n      dup6\n      dup6\n        /* \"contracts/LinkShield.sol\":1313:1330  hasAccess[linkId] */\n      mload(0x40)\n      tag_68\n      swap3\n      swap2\n      swap1\n      tag_36\n      jump\t// in\n    tag_68:\n      swap1\n      dup2\n      mstore\n      0x20\n      add\n      mload(0x40)\n      dup1\n      swap2\n      sub\n      swap1\n      keccak256\n        /* \"contracts/LinkShield.sol\":1313:1342  hasAccess[linkId][msg.sender] */\n      0x00\n        /* \"contracts/LinkShield.sol\":1331:1341  msg.sender */\n      caller\n        /* \"contracts/LinkShield.sol\":1313:1342  hasAccess[linkId][msg.sender] */\n      0xffffffffffffffffffffffffffffffffffffffff\n      and\n      0xffffffffffffffffffffffffffffffffffffffff\n      and\n      dup2\n      mstore\n      0x20\n      add\n      swap1\n      dup2\n      mstore\n      0x20\n      add\n      0x00\n      keccak256\n      0x00\n      swap1\n      sload\n      swap1\n      0x0100\n      exp\n      swap1\n      div\n      0xff\n      and\n        /* \"contracts/LinkShield.sol\":1313:1351  hasAccess[linkId][msg.sender] == false */\n      iszero\n      iszero\n      sub\n        /* \"contracts/LinkShield.sol\":1310:1379  if(hasAccess[linkId][msg.sender] == false)... */\n      tag_69\n      jumpi\n        /* \"contracts/LinkShield.sol\":1366:1379  link.url = \"\" */\n      mload(0x40)\n      dup1\n      0x20\n      add\n      0x40\n      mstore\n      dup1\n      0x00\n      dup2\n      mstore\n      pop\n        /* \"contracts/LinkShield.sol\":1366:1370  link */\n      dup2\n        /* \"contracts/LinkShield.sol\":1366:1374  link.url */\n      0x00\n      add\n        /* \"contracts/LinkShield.sol\":1366:1379  link.url = \"\" */\n      dup2\n      swap1\n      mstore\n      pop\n        /* \"contracts/LinkShield.sol\":1310:1379  if(hasAccess[linkId][msg.sender] == false)... */\n    tag_69:\n        /* \"contracts/LinkShield.sol\":1454:1458  link */\n      dup1\n        /* \"contracts/LinkShield.sol\":1447:1458  return link */\n      swap2\n      pop\n      pop\n        /* \"contracts/LinkShield.sol\":1141:1466  function getLink(string calldata linkId) public view returns (Link memory) {... */\n    tag_60:\n      swap3\n      swap2\n      pop\n      pop\n      jump\t// out\n        /* \"contracts/LinkShield.sol\":605:1135  function addLink(string calldata url, string calldata linkId, uint256 fee) public {... */\n    tag_33:\n        /* \"contracts/LinkShield.sol\":698:714  Link memory link */\n      0x00\n        /* \"contracts/LinkShield.sol\":717:722  links */\n      0x01\n        /* \"contracts/LinkShield.sol\":723:729  linkId */\n      dup5\n      dup5\n        /* \"contracts/LinkShield.sol\":717:730  links[linkId] */\n      mload(0x40)\n      tag_71\n      swap3\n      swap2\n      swap1\n      tag_36\n      jump\t// in\n    tag_71:\n      swap1\n      dup2\n      mstore\n      0x20\n      add\n      mload(0x40)\n      dup1\n      swap2\n      sub\n      swap1\n      keccak256\n        /* \"contracts/LinkShield.sol\":698:730  Link memory link = links[linkId] */\n      mload(0x40)\n      dup1\n      0x60\n      add\n      0x40\n      mstore\n      swap1\n      dup2\n      0x00\n      dup3\n      add\n      dup1\n      sload\n      tag_72\n      swap1\n      tag_38\n      jump\t// in\n    tag_72:\n      dup1\n      0x1f\n      add\n      0x20\n      dup1\n      swap2\n      div\n      mul\n      0x20\n      add\n      mload(0x40)\n      swap1\n      dup2\n      add\n      0x40\n      mstore\n      dup1\n      swap3\n      swap2\n      swap1\n      dup2\n      dup2\n      mstore\n      0x20\n      add\n      dup3\n      dup1\n      sload\n      tag_73\n      swap1\n      tag_38\n      jump\t// in\n    tag_73:\n      dup1\n      iszero\n      tag_74\n      jumpi\n      dup1\n      0x1f\n      lt\n      tag_75\n      jumpi\n      0x0100\n      dup1\n      dup4\n      sload\n      div\n      mul\n      dup4\n      mstore\n      swap2\n      0x20\n      add\n      swap2\n      jump(tag_74)\n    tag_75:\n      dup3\n      add\n      swap2\n      swap1\n      0x00\n      mstore\n      keccak256(0x00, 0x20)\n      swap1\n    tag_76:\n      dup2\n      sload\n      dup2\n      mstore\n      swap1\n      0x01\n      add\n      swap1\n      0x20\n      add\n      dup1\n      dup4\n      gt\n      tag_76\n      jumpi\n      dup3\n      swap1\n      sub\n      0x1f\n      and\n      dup3\n      add\n      swap2\n    tag_74:\n      pop\n      pop\n      pop\n      pop\n      pop\n      dup2\n      mstore\n      0x20\n      add\n      0x01\n      dup3\n      add\n      0x00\n      swap1\n      sload\n      swap1\n      0x0100\n      exp\n      swap1\n      div\n      0xffffffffffffffffffffffffffffffffffffffff\n      and\n      0xffffffffffffffffffffffffffffffffffffffff\n      and\n      0xffffffffffffffffffffffffffffffffffffffff\n      and\n      dup2\n      mstore\n      0x20\n      add\n      0x02\n      dup3\n      add\n      sload\n      dup2\n      mstore\n      pop\n      pop\n      swap1\n      pop\n        /* \"contracts/LinkShield.sol\":771:772  0 */\n      0x00\n        /* \"contracts/LinkShield.sol\":749:773  link.owner == address(0) */\n      0xffffffffffffffffffffffffffffffffffffffff\n      and\n        /* \"contracts/LinkShield.sol\":749:753  link */\n      dup2\n        /* \"contracts/LinkShield.sol\":749:759  link.owner */\n      0x20\n      add\n      mload\n        /* \"contracts/LinkShield.sol\":749:773  link.owner == address(0) */\n      0xffffffffffffffffffffffffffffffffffffffff\n      and\n      eq\n        /* \"contracts/LinkShield.sol\":749:801  link.owner == address(0) || link.owner == msg.sender */\n      dup1\n      tag_77\n      jumpi\n      pop\n        /* \"contracts/LinkShield.sol\":791:801  msg.sender */\n      caller\n        /* \"contracts/LinkShield.sol\":777:801  link.owner == msg.sender */\n      0xffffffffffffffffffffffffffffffffffffffff\n      and\n        /* \"contracts/LinkShield.sol\":777:781  link */\n      dup2\n        /* \"contracts/LinkShield.sol\":777:787  link.owner */\n      0x20\n      add\n      mload\n        /* \"contracts/LinkShield.sol\":777:801  link.owner == msg.sender */\n      0xffffffffffffffffffffffffffffffffffffffff\n      and\n      eq\n        /* \"contracts/LinkShield.sol\":749:801  link.owner == address(0) || link.owner == msg.sender */\n    tag_77:\n        /* \"contracts/LinkShield.sol\":741:837  require(link.owner == address(0) || link.owner == msg.sender, \"This linkId alread has an owner\") */\n      tag_78\n      jumpi\n      mload(0x40)\n      0x08c379a000000000000000000000000000000000000000000000000000000000\n      dup2\n      mstore\n      0x04\n      add\n      tag_79\n      swap1\n      tag_80\n      jump\t// in\n    tag_79:\n      mload(0x40)\n      dup1\n      swap2\n      sub\n      swap1\n      revert\n    tag_78:\n        /* \"contracts/LinkShield.sol\":863:864  0 */\n      0x00\n        /* \"contracts/LinkShield.sol\":856:859  fee */\n      dup3\n        /* \"contracts/LinkShield.sol\":856:864  fee == 0 */\n      eq\n        /* \"contracts/LinkShield.sol\":856:884  fee == 0 || fee >= comission */\n      dup1\n      tag_81\n      jumpi\n      pop\n        /* \"contracts/LinkShield.sol\":875:884  comission */\n      sload(0x00)\n        /* \"contracts/LinkShield.sol\":868:871  fee */\n      dup3\n        /* \"contracts/LinkShield.sol\":868:884  fee >= comission */\n      lt\n      iszero\n        /* \"contracts/LinkShield.sol\":856:884  fee == 0 || fee >= comission */\n    tag_81:\n        /* \"contracts/LinkShield.sol\":848:900  require(fee == 0 || fee >= comission, \"Fee too low\") */\n      tag_82\n      jumpi\n      mload(0x40)\n      0x08c379a000000000000000000000000000000000000000000000000000000000\n      dup2\n      mstore\n      0x04\n      add\n      tag_83\n      swap1\n      tag_84\n      jump\t// in\n    tag_83:\n      mload(0x40)\n      dup1\n      swap2\n      sub\n      swap1\n      revert\n    tag_82:\n        /* \"contracts/LinkShield.sol\":983:986  url */\n      dup6\n      dup6\n        /* \"contracts/LinkShield.sol\":972:986  link.url = url */\n      dup1\n      dup1\n      0x1f\n      add\n      0x20\n      dup1\n      swap2\n      div\n      mul\n      0x20\n      add\n      mload(0x40)\n      swap1\n      dup2\n      add\n      0x40\n      mstore\n      dup1\n      swap4\n      swap3\n      swap2\n      swap1\n      dup2\n      dup2\n      mstore\n      0x20\n      add\n      dup4\n      dup4\n      dup1\n      dup3\n      dup5\n      calldatacopy\n      0x00\n      dup2\n      dup5\n      add\n      mstore\n      not(0x1f)\n      0x1f\n      dup3\n      add\n      and\n      swap1\n      pop\n      dup1\n      dup4\n      add\n      swap3\n      pop\n      pop\n      pop\n      pop\n      pop\n      pop\n      pop\n        /* \"contracts/LinkShield.sol\":972:976  link */\n      dup2\n        /* \"contracts/LinkShield.sol\":972:980  link.url */\n      0x00\n      add\n        /* \"contracts/LinkShield.sol\":972:986  link.url = url */\n      dup2\n      swap1\n      mstore\n      pop\n        /* \"contracts/LinkShield.sol\":1008:1011  fee */\n      dup2\n        /* \"contracts/LinkShield.sol\":997:1001  link */\n      dup2\n        /* \"contracts/LinkShield.sol\":997:1005  link.fee */\n      0x40\n      add\n        /* \"contracts/LinkShield.sol\":997:1011  link.fee = fee */\n      dup2\n      dup2\n      mstore\n      pop\n      pop\n        /* \"contracts/LinkShield.sol\":1035:1045  msg.sender */\n      caller\n        /* \"contracts/LinkShield.sol\":1022:1026  link */\n      dup2\n        /* \"contracts/LinkShield.sol\":1022:1032  link.owner */\n      0x20\n      add\n        /* \"contracts/LinkShield.sol\":1022:1045  link.owner = msg.sender */\n      swap1\n      0xffffffffffffffffffffffffffffffffffffffff\n      and\n      swap1\n      dup2\n      0xffffffffffffffffffffffffffffffffffffffff\n      and\n      dup2\n      mstore\n      pop\n      pop\n        /* \"contracts/LinkShield.sol\":1074:1078  link */\n      dup1\n        /* \"contracts/LinkShield.sol\":1058:1063  links */\n      0x01\n        /* \"contracts/LinkShield.sol\":1064:1070  linkId */\n      dup6\n      dup6\n        /* \"contracts/LinkShield.sol\":1058:1071  links[linkId] */\n      mload(0x40)\n      tag_85\n      swap3\n      swap2\n      swap1\n      tag_36\n      jump\t// in\n    tag_85:\n      swap1\n      dup2\n      mstore\n      0x20\n      add\n      mload(0x40)\n      dup1\n      swap2\n      sub\n      swap1\n      keccak256\n        /* \"contracts/LinkShield.sol\":1058:1078  links[linkId] = link */\n      0x00\n      dup3\n      add\n      mload\n      dup2\n      0x00\n      add\n      swap1\n      dup2\n      tag_86\n      swap2\n      swap1\n      tag_87\n      jump\t// in\n    tag_86:\n      pop\n      0x20\n      dup3\n      add\n      mload\n      dup2\n      0x01\n      add\n      exp(0x0100, 0x00)\n      dup2\n      sload\n      dup2\n      0xffffffffffffffffffffffffffffffffffffffff\n      mul\n      not\n      and\n      swap1\n      dup4\n      0xffffffffffffffffffffffffffffffffffffffff\n      and\n      mul\n      or\n      swap1\n      sstore\n      pop\n      0x40\n      dup3\n      add\n      mload\n      dup2\n      0x02\n      add\n      sstore\n      swap1\n      pop\n      pop\n        /* \"contracts/LinkShield.sol\":1123:1127  true */\n      0x01\n        /* \"contracts/LinkShield.sol\":1091:1100  hasAccess */\n      0x02\n        /* \"contracts/LinkShield.sol\":1101:1107  linkId */\n      dup6\n      dup6\n        /* \"contracts/LinkShield.sol\":1091:1108  hasAccess[linkId] */\n      mload(0x40)\n      tag_88\n      swap3\n      swap2\n      swap1\n      tag_36\n      jump\t// in\n    tag_88:\n      swap1\n      dup2\n      mstore\n      0x20\n      add\n      mload(0x40)\n      dup1\n      swap2\n      sub\n      swap1\n      keccak256\n        /* \"contracts/LinkShield.sol\":1091:1120  hasAccess[linkId][msg.sender] */\n      0x00\n        /* \"contracts/LinkShield.sol\":1109:1119  msg.sender */\n      caller\n        /* \"contracts/LinkShield.sol\":1091:1120  hasAccess[linkId][msg.sender] */\n      0xffffffffffffffffffffffffffffffffffffffff\n      and\n      0xffffffffffffffffffffffffffffffffffffffff\n      and\n      dup2\n      mstore\n      0x20\n      add\n      swap1\n      dup2\n      mstore\n      0x20\n      add\n      0x00\n      keccak256\n      0x00\n        /* \"contracts/LinkShield.sol\":1091:1127  hasAccess[linkId][msg.sender] = true */\n      0x0100\n      exp\n      dup2\n      sload\n      dup2\n      0xff\n      mul\n      not\n      and\n      swap1\n      dup4\n      iszero\n      iszero\n      mul\n      or\n      swap1\n      sstore\n      pop\n        /* \"contracts/LinkShield.sol\":687:1135  {... */\n      pop\n        /* \"contracts/LinkShield.sol\":605:1135  function addLink(string calldata url, string calldata linkId, uint256 fee) public {... */\n      pop\n      pop\n      pop\n      pop\n      pop\n      jump\t// out\n    tag_59:\n      mload(0x40)\n      dup1\n      0x60\n      add\n      0x40\n      mstore\n      dup1\n      0x60\n      dup2\n      mstore\n      0x20\n      add\n      and(0xffffffffffffffffffffffffffffffffffffffff, 0x00)\n      dup2\n      mstore\n      0x20\n      add\n      0x00\n      dup2\n      mstore\n      pop\n      swap1\n      jump\t// out\n        /* \"#utility.yul\":7:82   */\n    tag_89:\n        /* \"#utility.yul\":40:46   */\n      0x00\n        /* \"#utility.yul\":73:75   */\n      0x40\n        /* \"#utility.yul\":67:76   */\n      mload\n        /* \"#utility.yul\":57:76   */\n      swap1\n      pop\n        /* \"#utility.yul\":7:82   */\n      swap1\n      jump\t// out\n        /* \"#utility.yul\":88:205   */\n    tag_90:\n        /* \"#utility.yul\":197:198   */\n      0x00\n        /* \"#utility.yul\":194:195   */\n      0x00\n        /* \"#utility.yul\":187:199   */\n      revert\n        /* \"#utility.yul\":211:328   */\n    tag_91:\n        /* \"#utility.yul\":320:321   */\n      0x00\n        /* \"#utility.yul\":317:318   */\n      0x00\n        /* \"#utility.yul\":310:322   */\n      revert\n        /* \"#utility.yul\":334:451   */\n    tag_92:\n        /* \"#utility.yul\":443:444   */\n      0x00\n        /* \"#utility.yul\":440:441   */\n      0x00\n        /* \"#utility.yul\":433:445   */\n      revert\n        /* \"#utility.yul\":457:574   */\n    tag_93:\n        /* \"#utility.yul\":566:567   */\n      0x00\n        /* \"#utility.yul\":563:564   */\n      0x00\n        /* \"#utility.yul\":556:568   */\n      revert\n        /* \"#utility.yul\":580:682   */\n    tag_94:\n        /* \"#utility.yul\":621:627   */\n      0x00\n        /* \"#utility.yul\":672:674   */\n      0x1f\n        /* \"#utility.yul\":668:675   */\n      not\n        /* \"#utility.yul\":663:665   */\n      0x1f\n        /* \"#utility.yul\":656:661   */\n      dup4\n        /* \"#utility.yul\":652:666   */\n      add\n        /* \"#utility.yul\":648:676   */\n      and\n        /* \"#utility.yul\":638:676   */\n      swap1\n      pop\n        /* \"#utility.yul\":580:682   */\n      swap2\n      swap1\n      pop\n      jump\t// out\n        /* \"#utility.yul\":688:868   */\n    tag_95:\n        /* \"#utility.yul\":736:813   */\n      0x4e487b7100000000000000000000000000000000000000000000000000000000\n        /* \"#utility.yul\":733:734   */\n      0x00\n        /* \"#utility.yul\":726:814   */\n      mstore\n        /* \"#utility.yul\":833:837   */\n      0x41\n        /* \"#utility.yul\":830:831   */\n      0x04\n        /* \"#utility.yul\":823:838   */\n      mstore\n        /* \"#utility.yul\":857:861   */\n      0x24\n        /* \"#utility.yul\":854:855   */\n      0x00\n        /* \"#utility.yul\":847:862   */\n      revert\n        /* \"#utility.yul\":874:1155   */\n    tag_96:\n        /* \"#utility.yul\":957:984   */\n      tag_161\n        /* \"#utility.yul\":979:983   */\n      dup3\n        /* \"#utility.yul\":957:984   */\n      tag_94\n      jump\t// in\n    tag_161:\n        /* \"#utility.yul\":949:955   */\n      dup2\n        /* \"#utility.yul\":945:985   */\n      add\n        /* \"#utility.yul\":1087:1093   */\n      dup2\n        /* \"#utility.yul\":1075:1085   */\n      dup2\n        /* \"#utility.yul\":1072:1094   */\n      lt\n        /* \"#utility.yul\":1051:1069   */\n      0xffffffffffffffff\n        /* \"#utility.yul\":1039:1049   */\n      dup3\n        /* \"#utility.yul\":1036:1070   */\n      gt\n        /* \"#utility.yul\":1033:1095   */\n      or\n        /* \"#utility.yul\":1030:1118   */\n      iszero\n      tag_162\n      jumpi\n        /* \"#utility.yul\":1098:1116   */\n      tag_163\n      tag_95\n      jump\t// in\n    tag_163:\n        /* \"#utility.yul\":1030:1118   */\n    tag_162:\n        /* \"#utility.yul\":1138:1148   */\n      dup1\n        /* \"#utility.yul\":1134:1136   */\n      0x40\n        /* \"#utility.yul\":1127:1149   */\n      mstore\n        /* \"#utility.yul\":917:1155   */\n      pop\n        /* \"#utility.yul\":874:1155   */\n      pop\n      pop\n      jump\t// out\n        /* \"#utility.yul\":1161:1290   */\n    tag_97:\n        /* \"#utility.yul\":1195:1201   */\n      0x00\n        /* \"#utility.yul\":1222:1242   */\n      tag_165\n      tag_89\n      jump\t// in\n    tag_165:\n        /* \"#utility.yul\":1212:1242   */\n      swap1\n      pop\n        /* \"#utility.yul\":1251:1284   */\n      tag_166\n        /* \"#utility.yul\":1279:1283   */\n      dup3\n        /* \"#utility.yul\":1271:1277   */\n      dup3\n        /* \"#utility.yul\":1251:1284   */\n      tag_96\n      jump\t// in\n    tag_166:\n        /* \"#utility.yul\":1161:1290   */\n      swap2\n      swap1\n      pop\n      jump\t// out\n        /* \"#utility.yul\":1296:1604   */\n    tag_98:\n        /* \"#utility.yul\":1358:1362   */\n      0x00\n        /* \"#utility.yul\":1448:1466   */\n      0xffffffffffffffff\n        /* \"#utility.yul\":1440:1446   */\n      dup3\n        /* \"#utility.yul\":1437:1467   */\n      gt\n        /* \"#utility.yul\":1434:1490   */\n      iszero\n      tag_168\n      jumpi\n        /* \"#utility.yul\":1470:1488   */\n      tag_169\n      tag_95\n      jump\t// in\n    tag_169:\n        /* \"#utility.yul\":1434:1490   */\n    tag_168:\n        /* \"#utility.yul\":1508:1537   */\n      tag_170\n        /* \"#utility.yul\":1530:1536   */\n      dup3\n        /* \"#utility.yul\":1508:1537   */\n      tag_94\n      jump\t// in\n    tag_170:\n        /* \"#utility.yul\":1500:1537   */\n      swap1\n      pop\n        /* \"#utility.yul\":1592:1596   */\n      0x20\n        /* \"#utility.yul\":1586:1590   */\n      dup2\n        /* \"#utility.yul\":1582:1597   */\n      add\n        /* \"#utility.yul\":1574:1597   */\n      swap1\n      pop\n        /* \"#utility.yul\":1296:1604   */\n      swap2\n      swap1\n      pop\n      jump\t// out\n        /* \"#utility.yul\":1610:1758   */\n    tag_99:\n        /* \"#utility.yul\":1708:1714   */\n      dup3\n        /* \"#utility.yul\":1703:1706   */\n      dup2\n        /* \"#utility.yul\":1698:1701   */\n      dup4\n        /* \"#utility.yul\":1685:1715   */\n      calldatacopy\n        /* \"#utility.yul\":1749:1750   */\n      0x00\n        /* \"#utility.yul\":1740:1746   */\n      dup4\n        /* \"#utility.yul\":1735:1738   */\n      dup4\n        /* \"#utility.yul\":1731:1747   */\n      add\n        /* \"#utility.yul\":1724:1751   */\n      mstore\n        /* \"#utility.yul\":1610:1758   */\n      pop\n      pop\n      pop\n      jump\t// out\n        /* \"#utility.yul\":1764:2189   */\n    tag_100:\n        /* \"#utility.yul\":1842:1847   */\n      0x00\n        /* \"#utility.yul\":1867:1933   */\n      tag_173\n        /* \"#utility.yul\":1883:1932   */\n      tag_174\n        /* \"#utility.yul\":1925:1931   */\n      dup5\n        /* \"#utility.yul\":1883:1932   */\n      tag_98\n      jump\t// in\n    tag_174:\n        /* \"#utility.yul\":1867:1933   */\n      tag_97\n      jump\t// in\n    tag_173:\n        /* \"#utility.yul\":1858:1933   */\n      swap1\n      pop\n        /* \"#utility.yul\":1956:1962   */\n      dup3\n        /* \"#utility.yul\":1949:1954   */\n      dup2\n        /* \"#utility.yul\":1942:1963   */\n      mstore\n        /* \"#utility.yul\":1994:1998   */\n      0x20\n        /* \"#utility.yul\":1987:1992   */\n      dup2\n        /* \"#utility.yul\":1983:1999   */\n      add\n        /* \"#utility.yul\":2032:2035   */\n      dup5\n        /* \"#utility.yul\":2023:2029   */\n      dup5\n        /* \"#utility.yul\":2018:2021   */\n      dup5\n        /* \"#utility.yul\":2014:2030   */\n      add\n        /* \"#utility.yul\":2011:2036   */\n      gt\n        /* \"#utility.yul\":2008:2120   */\n      iszero\n      tag_175\n      jumpi\n        /* \"#utility.yul\":2039:2118   */\n      tag_176\n      tag_93\n      jump\t// in\n    tag_176:\n        /* \"#utility.yul\":2008:2120   */\n    tag_175:\n        /* \"#utility.yul\":2129:2183   */\n      tag_177\n        /* \"#utility.yul\":2176:2182   */\n      dup5\n        /* \"#utility.yul\":2171:2174   */\n      dup3\n        /* \"#utility.yul\":2166:2169   */\n      dup6\n        /* \"#utility.yul\":2129:2183   */\n      tag_99\n      jump\t// in\n    tag_177:\n        /* \"#utility.yul\":1848:2189   */\n      pop\n        /* \"#utility.yul\":1764:2189   */\n      swap4\n      swap3\n      pop\n      pop\n      pop\n      jump\t// out\n        /* \"#utility.yul\":2209:2549   */\n    tag_101:\n        /* \"#utility.yul\":2265:2270   */\n      0x00\n        /* \"#utility.yul\":2314:2317   */\n      dup3\n        /* \"#utility.yul\":2307:2311   */\n      0x1f\n        /* \"#utility.yul\":2299:2305   */\n      dup4\n        /* \"#utility.yul\":2295:2312   */\n      add\n        /* \"#utility.yul\":2291:2318   */\n      slt\n        /* \"#utility.yul\":2281:2403   */\n      tag_179\n      jumpi\n        /* \"#utility.yul\":2322:2401   */\n      tag_180\n      tag_92\n      jump\t// in\n    tag_180:\n        /* \"#utility.yul\":2281:2403   */\n    tag_179:\n        /* \"#utility.yul\":2439:2445   */\n      dup2\n        /* \"#utility.yul\":2426:2446   */\n      calldataload\n        /* \"#utility.yul\":2464:2543   */\n      tag_181\n        /* \"#utility.yul\":2539:2542   */\n      dup5\n        /* \"#utility.yul\":2531:2537   */\n      dup3\n        /* \"#utility.yul\":2524:2528   */\n      0x20\n        /* \"#utility.yul\":2516:2522   */\n      dup7\n        /* \"#utility.yul\":2512:2529   */\n      add\n        /* \"#utility.yul\":2464:2543   */\n      tag_100\n      jump\t// in\n    tag_181:\n        /* \"#utility.yul\":2455:2543   */\n      swap2\n      pop\n        /* \"#utility.yul\":2271:2549   */\n      pop\n        /* \"#utility.yul\":2209:2549   */\n      swap3\n      swap2\n      pop\n      pop\n      jump\t// out\n        /* \"#utility.yul\":2555:2681   */\n    tag_102:\n        /* \"#utility.yul\":2592:2599   */\n      0x00\n        /* \"#utility.yul\":2632:2674   */\n      0xffffffffffffffffffffffffffffffffffffffff\n        /* \"#utility.yul\":2625:2630   */\n      dup3\n        /* \"#utility.yul\":2621:2675   */\n      and\n        /* \"#utility.yul\":2610:2675   */\n      swap1\n      pop\n        /* \"#utility.yul\":2555:2681   */\n      swap2\n      swap1\n      pop\n      jump\t// out\n        /* \"#utility.yul\":2687:2783   */\n    tag_103:\n        /* \"#utility.yul\":2724:2731   */\n      0x00\n        /* \"#utility.yul\":2753:2777   */\n      tag_184\n        /* \"#utility.yul\":2771:2776   */\n      dup3\n        /* \"#utility.yul\":2753:2777   */\n      tag_102\n      jump\t// in\n    tag_184:\n        /* \"#utility.yul\":2742:2777   */\n      swap1\n      pop\n        /* \"#utility.yul\":2687:2783   */\n      swap2\n      swap1\n      pop\n      jump\t// out\n        /* \"#utility.yul\":2789:2911   */\n    tag_104:\n        /* \"#utility.yul\":2862:2886   */\n      tag_186\n        /* \"#utility.yul\":2880:2885   */\n      dup2\n        /* \"#utility.yul\":2862:2886   */\n      tag_103\n      jump\t// in\n    tag_186:\n        /* \"#utility.yul\":2855:2860   */\n      dup2\n        /* \"#utility.yul\":2852:2887   */\n      eq\n        /* \"#utility.yul\":2842:2905   */\n      tag_187\n      jumpi\n        /* \"#utility.yul\":2901:2902   */\n      0x00\n        /* \"#utility.yul\":2898:2899   */\n      0x00\n        /* \"#utility.yul\":2891:2903   */\n      revert\n        /* \"#utility.yul\":2842:2905   */\n    tag_187:\n        /* \"#utility.yul\":2789:2911   */\n      pop\n      jump\t// out\n        /* \"#utility.yul\":2917:3056   */\n    tag_105:\n        /* \"#utility.yul\":2963:2968   */\n      0x00\n        /* \"#utility.yul\":3001:3007   */\n      dup2\n        /* \"#utility.yul\":2988:3008   */\n      calldataload\n        /* \"#utility.yul\":2979:3008   */\n      swap1\n      pop\n        /* \"#utility.yul\":3017:3050   */\n      tag_189\n        /* \"#utility.yul\":3044:3049   */\n      dup2\n        /* \"#utility.yul\":3017:3050   */\n      tag_104\n      jump\t// in\n    tag_189:\n        /* \"#utility.yul\":2917:3056   */\n      swap3\n      swap2\n      pop\n      pop\n      jump\t// out\n        /* \"#utility.yul\":3062:3716   */\n    tag_10:\n        /* \"#utility.yul\":3140:3146   */\n      0x00\n        /* \"#utility.yul\":3148:3154   */\n      0x00\n        /* \"#utility.yul\":3197:3199   */\n      0x40\n        /* \"#utility.yul\":3185:3194   */\n      dup4\n        /* \"#utility.yul\":3176:3183   */\n      dup6\n        /* \"#utility.yul\":3172:3195   */\n      sub\n        /* \"#utility.yul\":3168:3200   */\n      slt\n        /* \"#utility.yul\":3165:3284   */\n      iszero\n      tag_191\n      jumpi\n        /* \"#utility.yul\":3203:3282   */\n      tag_192\n      tag_90\n      jump\t// in\n    tag_192:\n        /* \"#utility.yul\":3165:3284   */\n    tag_191:\n        /* \"#utility.yul\":3351:3352   */\n      0x00\n        /* \"#utility.yul\":3340:3349   */\n      dup4\n        /* \"#utility.yul\":3336:3353   */\n      add\n        /* \"#utility.yul\":3323:3354   */\n      calldataload\n        /* \"#utility.yul\":3381:3399   */\n      0xffffffffffffffff\n        /* \"#utility.yul\":3373:3379   */\n      dup2\n        /* \"#utility.yul\":3370:3400   */\n      gt\n        /* \"#utility.yul\":3367:3484   */\n      iszero\n      tag_193\n      jumpi\n        /* \"#utility.yul\":3403:3482   */\n      tag_194\n      tag_91\n      jump\t// in\n    tag_194:\n        /* \"#utility.yul\":3367:3484   */\n    tag_193:\n        /* \"#utility.yul\":3508:3571   */\n      tag_195\n        /* \"#utility.yul\":3563:3570   */\n      dup6\n        /* \"#utility.yul\":3554:3560   */\n      dup3\n        /* \"#utility.yul\":3543:3552   */\n      dup7\n        /* \"#utility.yul\":3539:3561   */\n      add\n        /* \"#utility.yul\":3508:3571   */\n      tag_101\n      jump\t// in\n    tag_195:\n        /* \"#utility.yul\":3498:3571   */\n      swap3\n      pop\n        /* \"#utility.yul\":3294:3581   */\n      pop\n        /* \"#utility.yul\":3620:3622   */\n      0x20\n        /* \"#utility.yul\":3646:3699   */\n      tag_196\n        /* \"#utility.yul\":3691:3698   */\n      dup6\n        /* \"#utility.yul\":3682:3688   */\n      dup3\n        /* \"#utility.yul\":3671:3680   */\n      dup7\n        /* \"#utility.yul\":3667:3689   */\n      add\n        /* \"#utility.yul\":3646:3699   */\n      tag_105\n      jump\t// in\n    tag_196:\n        /* \"#utility.yul\":3636:3699   */\n      swap2\n      pop\n        /* \"#utility.yul\":3591:3709   */\n      pop\n        /* \"#utility.yul\":3062:3716   */\n      swap3\n      pop\n      swap3\n      swap1\n      pop\n      jump\t// out\n        /* \"#utility.yul\":3722:3812   */\n    tag_106:\n        /* \"#utility.yul\":3756:3763   */\n      0x00\n        /* \"#utility.yul\":3799:3804   */\n      dup2\n        /* \"#utility.yul\":3792:3805   */\n      iszero\n        /* \"#utility.yul\":3785:3806   */\n      iszero\n        /* \"#utility.yul\":3774:3806   */\n      swap1\n      pop\n        /* \"#utility.yul\":3722:3812   */\n      swap2\n      swap1\n      pop\n      jump\t// out\n        /* \"#utility.yul\":3818:3927   */\n    tag_107:\n        /* \"#utility.yul\":3899:3920   */\n      tag_199\n        /* \"#utility.yul\":3914:3919   */\n      dup2\n        /* \"#utility.yul\":3899:3920   */\n      tag_106\n      jump\t// in\n    tag_199:\n        /* \"#utility.yul\":3894:3897   */\n      dup3\n        /* \"#utility.yul\":3887:3921   */\n      mstore\n        /* \"#utility.yul\":3818:3927   */\n      pop\n      pop\n      jump\t// out\n        /* \"#utility.yul\":3933:4143   */\n    tag_13:\n        /* \"#utility.yul\":4020:4024   */\n      0x00\n        /* \"#utility.yul\":4058:4060   */\n      0x20\n        /* \"#utility.yul\":4047:4056   */\n      dup3\n        /* \"#utility.yul\":4043:4061   */\n      add\n        /* \"#utility.yul\":4035:4061   */\n      swap1\n      pop\n        /* \"#utility.yul\":4071:4136   */\n      tag_201\n        /* \"#utility.yul\":4133:4134   */\n      0x00\n        /* \"#utility.yul\":4122:4131   */\n      dup4\n        /* \"#utility.yul\":4118:4135   */\n      add\n        /* \"#utility.yul\":4109:4115   */\n      dup5\n        /* \"#utility.yul\":4071:4136   */\n      tag_107\n      jump\t// in\n    tag_201:\n        /* \"#utility.yul\":3933:4143   */\n      swap3\n      swap2\n      pop\n      pop\n      jump\t// out\n        /* \"#utility.yul\":4149:4226   */\n    tag_108:\n        /* \"#utility.yul\":4186:4193   */\n      0x00\n        /* \"#utility.yul\":4215:4220   */\n      dup2\n        /* \"#utility.yul\":4204:4220   */\n      swap1\n      pop\n        /* \"#utility.yul\":4149:4226   */\n      swap2\n      swap1\n      pop\n      jump\t// out\n        /* \"#utility.yul\":4232:4350   */\n    tag_109:\n        /* \"#utility.yul\":4319:4343   */\n      tag_204\n        /* \"#utility.yul\":4337:4342   */\n      dup2\n        /* \"#utility.yul\":4319:4343   */\n      tag_108\n      jump\t// in\n    tag_204:\n        /* \"#utility.yul\":4314:4317   */\n      dup3\n        /* \"#utility.yul\":4307:4344   */\n      mstore\n        /* \"#utility.yul\":4232:4350   */\n      pop\n      pop\n      jump\t// out\n        /* \"#utility.yul\":4356:4578   */\n    tag_18:\n        /* \"#utility.yul\":4449:4453   */\n      0x00\n        /* \"#utility.yul\":4487:4489   */\n      0x20\n        /* \"#utility.yul\":4476:4485   */\n      dup3\n        /* \"#utility.yul\":4472:4490   */\n      add\n        /* \"#utility.yul\":4464:4490   */\n      swap1\n      pop\n        /* \"#utility.yul\":4500:4571   */\n      tag_206\n        /* \"#utility.yul\":4568:4569   */\n      0x00\n        /* \"#utility.yul\":4557:4566   */\n      dup4\n        /* \"#utility.yul\":4553:4570   */\n      add\n        /* \"#utility.yul\":4544:4550   */\n      dup5\n        /* \"#utility.yul\":4500:4571   */\n      tag_109\n      jump\t// in\n    tag_206:\n        /* \"#utility.yul\":4356:4578   */\n      swap3\n      swap2\n      pop\n      pop\n      jump\t// out\n        /* \"#utility.yul\":4584:4701   */\n    tag_110:\n        /* \"#utility.yul\":4693:4694   */\n      0x00\n        /* \"#utility.yul\":4690:4691   */\n      0x00\n        /* \"#utility.yul\":4683:4695   */\n      revert\n        /* \"#utility.yul\":4707:4824   */\n    tag_111:\n        /* \"#utility.yul\":4816:4817   */\n      0x00\n        /* \"#utility.yul\":4813:4814   */\n      0x00\n        /* \"#utility.yul\":4806:4818   */\n      revert\n        /* \"#utility.yul\":4844:5397   */\n    tag_112:\n        /* \"#utility.yul\":4902:4910   */\n      0x00\n        /* \"#utility.yul\":4912:4918   */\n      0x00\n        /* \"#utility.yul\":4962:4965   */\n      dup4\n        /* \"#utility.yul\":4955:4959   */\n      0x1f\n        /* \"#utility.yul\":4947:4953   */\n      dup5\n        /* \"#utility.yul\":4943:4960   */\n      add\n        /* \"#utility.yul\":4939:4966   */\n      slt\n        /* \"#utility.yul\":4929:5051   */\n      tag_210\n      jumpi\n        /* \"#utility.yul\":4970:5049   */\n      tag_211\n      tag_92\n      jump\t// in\n    tag_211:\n        /* \"#utility.yul\":4929:5051   */\n    tag_210:\n        /* \"#utility.yul\":5083:5089   */\n      dup3\n        /* \"#utility.yul\":5070:5090   */\n      calldataload\n        /* \"#utility.yul\":5060:5090   */\n      swap1\n      pop\n        /* \"#utility.yul\":5113:5131   */\n      0xffffffffffffffff\n        /* \"#utility.yul\":5105:5111   */\n      dup2\n        /* \"#utility.yul\":5102:5132   */\n      gt\n        /* \"#utility.yul\":5099:5216   */\n      iszero\n      tag_212\n      jumpi\n        /* \"#utility.yul\":5135:5214   */\n      tag_213\n      tag_110\n      jump\t// in\n    tag_213:\n        /* \"#utility.yul\":5099:5216   */\n    tag_212:\n        /* \"#utility.yul\":5249:5253   */\n      0x20\n        /* \"#utility.yul\":5241:5247   */\n      dup4\n        /* \"#utility.yul\":5237:5254   */\n      add\n        /* \"#utility.yul\":5225:5254   */\n      swap2\n      pop\n        /* \"#utility.yul\":5303:5306   */\n      dup4\n        /* \"#utility.yul\":5295:5299   */\n      0x01\n        /* \"#utility.yul\":5287:5293   */\n      dup3\n        /* \"#utility.yul\":5283:5300   */\n      mul\n        /* \"#utility.yul\":5273:5281   */\n      dup4\n        /* \"#utility.yul\":5269:5301   */\n      add\n        /* \"#utility.yul\":5266:5307   */\n      gt\n        /* \"#utility.yul\":5263:5391   */\n      iszero\n      tag_214\n      jumpi\n        /* \"#utility.yul\":5310:5389   */\n      tag_215\n      tag_111\n      jump\t// in\n    tag_215:\n        /* \"#utility.yul\":5263:5391   */\n    tag_214:\n        /* \"#utility.yul\":4844:5397   */\n      swap3\n      pop\n      swap3\n      swap1\n      pop\n      jump\t// out\n        /* \"#utility.yul\":5403:5932   */\n    tag_21:\n        /* \"#utility.yul\":5474:5480   */\n      0x00\n        /* \"#utility.yul\":5482:5488   */\n      0x00\n        /* \"#utility.yul\":5531:5533   */\n      0x20\n        /* \"#utility.yul\":5519:5528   */\n      dup4\n        /* \"#utility.yul\":5510:5517   */\n      dup6\n        /* \"#utility.yul\":5506:5529   */\n      sub\n        /* \"#utility.yul\":5502:5534   */\n      slt\n        /* \"#utility.yul\":5499:5618   */\n      iszero\n      tag_217\n      jumpi\n        /* \"#utility.yul\":5537:5616   */\n      tag_218\n      tag_90\n      jump\t// in\n    tag_218:\n        /* \"#utility.yul\":5499:5618   */\n    tag_217:\n        /* \"#utility.yul\":5685:5686   */\n      0x00\n        /* \"#utility.yul\":5674:5683   */\n      dup4\n        /* \"#utility.yul\":5670:5687   */\n      add\n        /* \"#utility.yul\":5657:5688   */\n      calldataload\n        /* \"#utility.yul\":5715:5733   */\n      0xffffffffffffffff\n        /* \"#utility.yul\":5707:5713   */\n      dup2\n        /* \"#utility.yul\":5704:5734   */\n      gt\n        /* \"#utility.yul\":5701:5818   */\n      iszero\n      tag_219\n      jumpi\n        /* \"#utility.yul\":5737:5816   */\n      tag_220\n      tag_91\n      jump\t// in\n    tag_220:\n        /* \"#utility.yul\":5701:5818   */\n    tag_219:\n        /* \"#utility.yul\":5850:5915   */\n      tag_221\n        /* \"#utility.yul\":5907:5914   */\n      dup6\n        /* \"#utility.yul\":5898:5904   */\n      dup3\n        /* \"#utility.yul\":5887:5896   */\n      dup7\n        /* \"#utility.yul\":5883:5905   */\n      add\n        /* \"#utility.yul\":5850:5915   */\n      tag_112\n      jump\t// in\n    tag_221:\n        /* \"#utility.yul\":5832:5915   */\n      swap3\n      pop\n      swap3\n      pop\n        /* \"#utility.yul\":5628:5925   */\n      pop\n        /* \"#utility.yul\":5403:5932   */\n      swap3\n      pop\n      swap3\n      swap1\n      pop\n      jump\t// out\n        /* \"#utility.yul\":5938:6037   */\n    tag_113:\n        /* \"#utility.yul\":5990:5996   */\n      0x00\n        /* \"#utility.yul\":6024:6029   */\n      dup2\n        /* \"#utility.yul\":6018:6030   */\n      mload\n        /* \"#utility.yul\":6008:6030   */\n      swap1\n      pop\n        /* \"#utility.yul\":5938:6037   */\n      swap2\n      swap1\n      pop\n      jump\t// out\n        /* \"#utility.yul\":6043:6202   */\n    tag_114:\n        /* \"#utility.yul\":6117:6128   */\n      0x00\n        /* \"#utility.yul\":6151:6157   */\n      dup3\n        /* \"#utility.yul\":6146:6149   */\n      dup3\n        /* \"#utility.yul\":6139:6158   */\n      mstore\n        /* \"#utility.yul\":6191:6195   */\n      0x20\n        /* \"#utility.yul\":6186:6189   */\n      dup3\n        /* \"#utility.yul\":6182:6196   */\n      add\n        /* \"#utility.yul\":6167:6196   */\n      swap1\n      pop\n        /* \"#utility.yul\":6043:6202   */\n      swap3\n      swap2\n      pop\n      pop\n      jump\t// out\n        /* \"#utility.yul\":6208:6347   */\n    tag_115:\n        /* \"#utility.yul\":6297:6303   */\n      dup3\n        /* \"#utility.yul\":6292:6295   */\n      dup2\n        /* \"#utility.yul\":6287:6290   */\n      dup4\n        /* \"#utility.yul\":6281:6304   */\n      mcopy\n        /* \"#utility.yul\":6338:6339   */\n      0x00\n        /* \"#utility.yul\":6329:6335   */\n      dup4\n        /* \"#utility.yul\":6324:6327   */\n      dup4\n        /* \"#utility.yul\":6320:6336   */\n      add\n        /* \"#utility.yul\":6313:6340   */\n      mstore\n        /* \"#utility.yul\":6208:6347   */\n      pop\n      pop\n      pop\n      jump\t// out\n        /* \"#utility.yul\":6353:6710   */\n    tag_116:\n        /* \"#utility.yul\":6431:6434   */\n      0x00\n        /* \"#utility.yul\":6459:6498   */\n      tag_226\n        /* \"#utility.yul\":6492:6497   */\n      dup3\n        /* \"#utility.yul\":6459:6498   */\n      tag_113\n      jump\t// in\n    tag_226:\n        /* \"#utility.yul\":6514:6575   */\n      tag_227\n        /* \"#utility.yul\":6568:6574   */\n      dup2\n        /* \"#utility.yul\":6563:6566   */\n      dup6\n        /* \"#utility.yul\":6514:6575   */\n      tag_114\n      jump\t// in\n    tag_227:\n        /* \"#utility.yul\":6507:6575   */\n      swap4\n      pop\n        /* \"#utility.yul\":6584:6649   */\n      tag_228\n        /* \"#utility.yul\":6642:6648   */\n      dup2\n        /* \"#utility.yul\":6637:6640   */\n      dup6\n        /* \"#utility.yul\":6630:6634   */\n      0x20\n        /* \"#utility.yul\":6623:6628   */\n      dup7\n        /* \"#utility.yul\":6619:6635   */\n      add\n        /* \"#utility.yul\":6584:6649   */\n      tag_115\n      jump\t// in\n    tag_228:\n        /* \"#utility.yul\":6674:6703   */\n      tag_229\n        /* \"#utility.yul\":6696:6702   */\n      dup2\n        /* \"#utility.yul\":6674:6703   */\n      tag_94\n      jump\t// in\n    tag_229:\n        /* \"#utility.yul\":6669:6672   */\n      dup5\n        /* \"#utility.yul\":6665:6704   */\n      add\n        /* \"#utility.yul\":6658:6704   */\n      swap2\n      pop\n        /* \"#utility.yul\":6435:6710   */\n      pop\n        /* \"#utility.yul\":6353:6710   */\n      swap3\n      swap2\n      pop\n      pop\n      jump\t// out\n        /* \"#utility.yul\":6716:6824   */\n    tag_117:\n        /* \"#utility.yul\":6793:6817   */\n      tag_231\n        /* \"#utility.yul\":6811:6816   */\n      dup2\n        /* \"#utility.yul\":6793:6817   */\n      tag_103\n      jump\t// in\n    tag_231:\n        /* \"#utility.yul\":6788:6791   */\n      dup3\n        /* \"#utility.yul\":6781:6818   */\n      mstore\n        /* \"#utility.yul\":6716:6824   */\n      pop\n      pop\n      jump\t// out\n        /* \"#utility.yul\":6830:6938   */\n    tag_118:\n        /* \"#utility.yul\":6907:6931   */\n      tag_233\n        /* \"#utility.yul\":6925:6930   */\n      dup2\n        /* \"#utility.yul\":6907:6931   */\n      tag_108\n      jump\t// in\n    tag_233:\n        /* \"#utility.yul\":6902:6905   */\n      dup3\n        /* \"#utility.yul\":6895:6932   */\n      mstore\n        /* \"#utility.yul\":6830:6938   */\n      pop\n      pop\n      jump\t// out\n        /* \"#utility.yul\":7000:7767   */\n    tag_119:\n        /* \"#utility.yul\":7107:7110   */\n      0x00\n        /* \"#utility.yul\":7143:7147   */\n      0x60\n        /* \"#utility.yul\":7138:7141   */\n      dup4\n        /* \"#utility.yul\":7134:7148   */\n      add\n        /* \"#utility.yul\":7229:7233   */\n      0x00\n        /* \"#utility.yul\":7222:7227   */\n      dup4\n        /* \"#utility.yul\":7218:7234   */\n      add\n        /* \"#utility.yul\":7212:7235   */\n      mload\n        /* \"#utility.yul\":7282:7285   */\n      dup5\n        /* \"#utility.yul\":7276:7280   */\n      dup3\n        /* \"#utility.yul\":7272:7286   */\n      sub\n        /* \"#utility.yul\":7265:7269   */\n      0x00\n        /* \"#utility.yul\":7260:7263   */\n      dup7\n        /* \"#utility.yul\":7256:7270   */\n      add\n        /* \"#utility.yul\":7249:7287   */\n      mstore\n        /* \"#utility.yul\":7308:7381   */\n      tag_235\n        /* \"#utility.yul\":7376:7380   */\n      dup3\n        /* \"#utility.yul\":7362:7374   */\n      dup3\n        /* \"#utility.yul\":7308:7381   */\n      tag_116\n      jump\t// in\n    tag_235:\n        /* \"#utility.yul\":7300:7381   */\n      swap2\n      pop\n        /* \"#utility.yul\":7158:7392   */\n      pop\n        /* \"#utility.yul\":7475:7479   */\n      0x20\n        /* \"#utility.yul\":7468:7473   */\n      dup4\n        /* \"#utility.yul\":7464:7480   */\n      add\n        /* \"#utility.yul\":7458:7481   */\n      mload\n        /* \"#utility.yul\":7494:7557   */\n      tag_236\n        /* \"#utility.yul\":7551:7555   */\n      0x20\n        /* \"#utility.yul\":7546:7549   */\n      dup7\n        /* \"#utility.yul\":7542:7556   */\n      add\n        /* \"#utility.yul\":7528:7540   */\n      dup3\n        /* \"#utility.yul\":7494:7557   */\n      tag_117\n      jump\t// in\n    tag_236:\n        /* \"#utility.yul\":7402:7567   */\n      pop\n        /* \"#utility.yul\":7648:7652   */\n      0x40\n        /* \"#utility.yul\":7641:7646   */\n      dup4\n        /* \"#utility.yul\":7637:7653   */\n      add\n        /* \"#utility.yul\":7631:7654   */\n      mload\n        /* \"#utility.yul\":7667:7730   */\n      tag_237\n        /* \"#utility.yul\":7724:7728   */\n      0x40\n        /* \"#utility.yul\":7719:7722   */\n      dup7\n        /* \"#utility.yul\":7715:7729   */\n      add\n        /* \"#utility.yul\":7701:7713   */\n      dup3\n        /* \"#utility.yul\":7667:7730   */\n      tag_118\n      jump\t// in\n    tag_237:\n        /* \"#utility.yul\":7577:7740   */\n      pop\n        /* \"#utility.yul\":7757:7761   */\n      dup1\n        /* \"#utility.yul\":7750:7761   */\n      swap2\n      pop\n        /* \"#utility.yul\":7112:7767   */\n      pop\n        /* \"#utility.yul\":7000:7767   */\n      swap3\n      swap2\n      pop\n      pop\n      jump\t// out\n        /* \"#utility.yul\":7773:8122   */\n    tag_28:\n        /* \"#utility.yul\":7904:7908   */\n      0x00\n        /* \"#utility.yul\":7942:7944   */\n      0x20\n        /* \"#utility.yul\":7931:7940   */\n      dup3\n        /* \"#utility.yul\":7927:7945   */\n      add\n        /* \"#utility.yul\":7919:7945   */\n      swap1\n      pop\n        /* \"#utility.yul\":7991:8000   */\n      dup2\n        /* \"#utility.yul\":7985:7989   */\n      dup2\n        /* \"#utility.yul\":7981:8001   */\n      sub\n        /* \"#utility.yul\":7977:7978   */\n      0x00\n        /* \"#utility.yul\":7966:7975   */\n      dup4\n        /* \"#utility.yul\":7962:7979   */\n      add\n        /* \"#utility.yul\":7955:8002   */\n      mstore\n        /* \"#utility.yul\":8019:8115   */\n      tag_239\n        /* \"#utility.yul\":8110:8114   */\n      dup2\n        /* \"#utility.yul\":8101:8107   */\n      dup5\n        /* \"#utility.yul\":8019:8115   */\n      tag_119\n      jump\t// in\n    tag_239:\n        /* \"#utility.yul\":8011:8115   */\n      swap1\n      pop\n        /* \"#utility.yul\":7773:8122   */\n      swap3\n      swap2\n      pop\n      pop\n      jump\t// out\n        /* \"#utility.yul\":8128:8250   */\n    tag_120:\n        /* \"#utility.yul\":8201:8225   */\n      tag_241\n        /* \"#utility.yul\":8219:8224   */\n      dup2\n        /* \"#utility.yul\":8201:8225   */\n      tag_108\n      jump\t// in\n    tag_241:\n        /* \"#utility.yul\":8194:8199   */\n      dup2\n        /* \"#utility.yul\":8191:8226   */\n      eq\n        /* \"#utility.yul\":8181:8244   */\n      tag_242\n      jumpi\n        /* \"#utility.yul\":8240:8241   */\n      0x00\n        /* \"#utility.yul\":8237:8238   */\n      0x00\n        /* \"#utility.yul\":8230:8242   */\n      revert\n        /* \"#utility.yul\":8181:8244   */\n    tag_242:\n        /* \"#utility.yul\":8128:8250   */\n      pop\n      jump\t// out\n        /* \"#utility.yul\":8256:8395   */\n    tag_121:\n        /* \"#utility.yul\":8302:8307   */\n      0x00\n        /* \"#utility.yul\":8340:8346   */\n      dup2\n        /* \"#utility.yul\":8327:8347   */\n      calldataload\n        /* \"#utility.yul\":8318:8347   */\n      swap1\n      pop\n        /* \"#utility.yul\":8356:8389   */\n      tag_244\n        /* \"#utility.yul\":8383:8388   */\n      dup2\n        /* \"#utility.yul\":8356:8389   */\n      tag_120\n      jump\t// in\n    tag_244:\n        /* \"#utility.yul\":8256:8395   */\n      swap3\n      swap2\n      pop\n      pop\n      jump\t// out\n        /* \"#utility.yul\":8401:9420   */\n    tag_32:\n        /* \"#utility.yul\":8502:8508   */\n      0x00\n        /* \"#utility.yul\":8510:8516   */\n      0x00\n        /* \"#utility.yul\":8518:8524   */\n      0x00\n        /* \"#utility.yul\":8526:8532   */\n      0x00\n        /* \"#utility.yul\":8534:8540   */\n      0x00\n        /* \"#utility.yul\":8583:8585   */\n      0x60\n        /* \"#utility.yul\":8571:8580   */\n      dup7\n        /* \"#utility.yul\":8562:8569   */\n      dup9\n        /* \"#utility.yul\":8558:8581   */\n      sub\n        /* \"#utility.yul\":8554:8586   */\n      slt\n        /* \"#utility.yul\":8551:8670   */\n      iszero\n      tag_246\n      jumpi\n        /* \"#utility.yul\":8589:8668   */\n      tag_247\n      tag_90\n      jump\t// in\n    tag_247:\n        /* \"#utility.yul\":8551:8670   */\n    tag_246:\n        /* \"#utility.yul\":8737:8738   */\n      0x00\n        /* \"#utility.yul\":8726:8735   */\n      dup7\n        /* \"#utility.yul\":8722:8739   */\n      add\n        /* \"#utility.yul\":8709:8740   */\n      calldataload\n        /* \"#utility.yul\":8767:8785   */\n      0xffffffffffffffff\n        /* \"#utility.yul\":8759:8765   */\n      dup2\n        /* \"#utility.yul\":8756:8786   */\n      gt\n        /* \"#utility.yul\":8753:8870   */\n      iszero\n      tag_248\n      jumpi\n        /* \"#utility.yul\":8789:8868   */\n      tag_249\n      tag_91\n      jump\t// in\n    tag_249:\n        /* \"#utility.yul\":8753:8870   */\n    tag_248:\n        /* \"#utility.yul\":8902:8967   */\n      tag_250\n        /* \"#utility.yul\":8959:8966   */\n      dup9\n        /* \"#utility.yul\":8950:8956   */\n      dup3\n        /* \"#utility.yul\":8939:8948   */\n      dup10\n        /* \"#utility.yul\":8935:8957   */\n      add\n        /* \"#utility.yul\":8902:8967   */\n      tag_112\n      jump\t// in\n    tag_250:\n        /* \"#utility.yul\":8884:8967   */\n      swap6\n      pop\n      swap6\n      pop\n        /* \"#utility.yul\":8680:8977   */\n      pop\n        /* \"#utility.yul\":9044:9046   */\n      0x20\n        /* \"#utility.yul\":9033:9042   */\n      dup7\n        /* \"#utility.yul\":9029:9047   */\n      add\n        /* \"#utility.yul\":9016:9048   */\n      calldataload\n        /* \"#utility.yul\":9075:9093   */\n      0xffffffffffffffff\n        /* \"#utility.yul\":9067:9073   */\n      dup2\n        /* \"#utility.yul\":9064:9094   */\n      gt\n        /* \"#utility.yul\":9061:9178   */\n      iszero\n      tag_251\n      jumpi\n        /* \"#utility.yul\":9097:9176   */\n      tag_252\n      tag_91\n      jump\t// in\n    tag_252:\n        /* \"#utility.yul\":9061:9178   */\n    tag_251:\n        /* \"#utility.yul\":9210:9275   */\n      tag_253\n        /* \"#utility.yul\":9267:9274   */\n      dup9\n        /* \"#utility.yul\":9258:9264   */\n      dup3\n        /* \"#utility.yul\":9247:9256   */\n      dup10\n        /* \"#utility.yul\":9243:9265   */\n      add\n        /* \"#utility.yul\":9210:9275   */\n      tag_112\n      jump\t// in\n    tag_253:\n        /* \"#utility.yul\":9192:9275   */\n      swap4\n      pop\n      swap4\n      pop\n        /* \"#utility.yul\":8987:9285   */\n      pop\n        /* \"#utility.yul\":9324:9326   */\n      0x40\n        /* \"#utility.yul\":9350:9403   */\n      tag_254\n        /* \"#utility.yul\":9395:9402   */\n      dup9\n        /* \"#utility.yul\":9386:9392   */\n      dup3\n        /* \"#utility.yul\":9375:9384   */\n      dup10\n        /* \"#utility.yul\":9371:9393   */\n      add\n        /* \"#utility.yul\":9350:9403   */\n      tag_121\n      jump\t// in\n    tag_254:\n        /* \"#utility.yul\":9340:9403   */\n      swap2\n      pop\n        /* \"#utility.yul\":9295:9413   */\n      pop\n        /* \"#utility.yul\":8401:9420   */\n      swap3\n      swap6\n      pop\n      swap3\n      swap6\n      swap1\n      swap4\n      pop\n      jump\t// out\n        /* \"#utility.yul\":9426:9574   */\n    tag_122:\n        /* \"#utility.yul\":9528:9539   */\n      0x00\n        /* \"#utility.yul\":9565:9568   */\n      dup2\n        /* \"#utility.yul\":9550:9568   */\n      swap1\n      pop\n        /* \"#utility.yul\":9426:9574   */\n      swap3\n      swap2\n      pop\n      pop\n      jump\t// out\n        /* \"#utility.yul\":9604:9934   */\n    tag_123:\n        /* \"#utility.yul\":9720:9723   */\n      0x00\n        /* \"#utility.yul\":9741:9830   */\n      tag_257\n        /* \"#utility.yul\":9823:9829   */\n      dup4\n        /* \"#utility.yul\":9818:9821   */\n      dup6\n        /* \"#utility.yul\":9741:9830   */\n      tag_122\n      jump\t// in\n    tag_257:\n        /* \"#utility.yul\":9734:9830   */\n      swap4\n      pop\n        /* \"#utility.yul\":9840:9896   */\n      tag_258\n        /* \"#utility.yul\":9889:9895   */\n      dup4\n        /* \"#utility.yul\":9884:9887   */\n      dup6\n        /* \"#utility.yul\":9877:9882   */\n      dup5\n        /* \"#utility.yul\":9840:9896   */\n      tag_99\n      jump\t// in\n    tag_258:\n        /* \"#utility.yul\":9921:9927   */\n      dup3\n        /* \"#utility.yul\":9916:9919   */\n      dup5\n        /* \"#utility.yul\":9912:9928   */\n      add\n        /* \"#utility.yul\":9905:9928   */\n      swap1\n      pop\n        /* \"#utility.yul\":9604:9934   */\n      swap4\n      swap3\n      pop\n      pop\n      pop\n      jump\t// out\n        /* \"#utility.yul\":9940:10235   */\n    tag_36:\n        /* \"#utility.yul\":10082:10085   */\n      0x00\n        /* \"#utility.yul\":10104:10209   */\n      tag_260\n        /* \"#utility.yul\":10205:10208   */\n      dup3\n        /* \"#utility.yul\":10196:10202   */\n      dup5\n        /* \"#utility.yul\":10188:10194   */\n      dup7\n        /* \"#utility.yul\":10104:10209   */\n      tag_123\n      jump\t// in\n    tag_260:\n        /* \"#utility.yul\":10097:10209   */\n      swap2\n      pop\n        /* \"#utility.yul\":10226:10229   */\n      dup2\n        /* \"#utility.yul\":10219:10229   */\n      swap1\n      pop\n        /* \"#utility.yul\":9940:10235   */\n      swap4\n      swap3\n      pop\n      pop\n      pop\n      jump\t// out\n        /* \"#utility.yul\":10241:10421   */\n    tag_124:\n        /* \"#utility.yul\":10289:10366   */\n      0x4e487b7100000000000000000000000000000000000000000000000000000000\n        /* \"#utility.yul\":10286:10287   */\n      0x00\n        /* \"#utility.yul\":10279:10367   */\n      mstore\n        /* \"#utility.yul\":10386:10390   */\n      0x22\n        /* \"#utility.yul\":10383:10384   */\n      0x04\n        /* \"#utility.yul\":10376:10391   */\n      mstore\n        /* \"#utility.yul\":10410:10414   */\n      0x24\n        /* \"#utility.yul\":10407:10408   */\n      0x00\n        /* \"#utility.yul\":10400:10415   */\n      revert\n        /* \"#utility.yul\":10427:10747   */\n    tag_38:\n        /* \"#utility.yul\":10471:10477   */\n      0x00\n        /* \"#utility.yul\":10508:10509   */\n      0x02\n        /* \"#utility.yul\":10502:10506   */\n      dup3\n        /* \"#utility.yul\":10498:10510   */\n      div\n        /* \"#utility.yul\":10488:10510   */\n      swap1\n      pop\n        /* \"#utility.yul\":10555:10556   */\n      0x01\n        /* \"#utility.yul\":10549:10553   */\n      dup3\n        /* \"#utility.yul\":10545:10557   */\n      and\n        /* \"#utility.yul\":10576:10594   */\n      dup1\n        /* \"#utility.yul\":10566:10647   */\n      tag_263\n      jumpi\n        /* \"#utility.yul\":10632:10636   */\n      0x7f\n        /* \"#utility.yul\":10624:10630   */\n      dup3\n        /* \"#utility.yul\":10620:10637   */\n      and\n        /* \"#utility.yul\":10610:10637   */\n      swap2\n      pop\n        /* \"#utility.yul\":10566:10647   */\n    tag_263:\n        /* \"#utility.yul\":10694:10696   */\n      0x20\n        /* \"#utility.yul\":10686:10692   */\n      dup3\n        /* \"#utility.yul\":10683:10697   */\n      lt\n        /* \"#utility.yul\":10663:10681   */\n      dup2\n        /* \"#utility.yul\":10660:10698   */\n      sub\n        /* \"#utility.yul\":10657:10741   */\n      tag_264\n      jumpi\n        /* \"#utility.yul\":10713:10731   */\n      tag_265\n      tag_124\n      jump\t// in\n    tag_265:\n        /* \"#utility.yul\":10657:10741   */\n    tag_264:\n        /* \"#utility.yul\":10478:10747   */\n      pop\n        /* \"#utility.yul\":10427:10747   */\n      swap2\n      swap1\n      pop\n      jump\t// out\n        /* \"#utility.yul\":10753:10922   */\n    tag_125:\n        /* \"#utility.yul\":10837:10848   */\n      0x00\n        /* \"#utility.yul\":10871:10877   */\n      dup3\n        /* \"#utility.yul\":10866:10869   */\n      dup3\n        /* \"#utility.yul\":10859:10878   */\n      mstore\n        /* \"#utility.yul\":10911:10915   */\n      0x20\n        /* \"#utility.yul\":10906:10909   */\n      dup3\n        /* \"#utility.yul\":10902:10916   */\n      add\n        /* \"#utility.yul\":10887:10916   */\n      swap1\n      pop\n        /* \"#utility.yul\":10753:10922   */\n      swap3\n      swap2\n      pop\n      pop\n      jump\t// out\n        /* \"#utility.yul\":10928:11092   */\n    tag_126:\n        /* \"#utility.yul\":11068:11084   */\n      0x4c696e6b206e6f7420666f756e64000000000000000000000000000000000000\n        /* \"#utility.yul\":11064:11065   */\n      0x00\n        /* \"#utility.yul\":11056:11062   */\n      dup3\n        /* \"#utility.yul\":11052:11066   */\n      add\n        /* \"#utility.yul\":11045:11085   */\n      mstore\n        /* \"#utility.yul\":10928:11092   */\n      pop\n      jump\t// out\n        /* \"#utility.yul\":11098:11464   */\n    tag_127:\n        /* \"#utility.yul\":11240:11243   */\n      0x00\n        /* \"#utility.yul\":11261:11328   */\n      tag_269\n        /* \"#utility.yul\":11325:11327   */\n      0x0e\n        /* \"#utility.yul\":11320:11323   */\n      dup4\n        /* \"#utility.yul\":11261:11328   */\n      tag_125\n      jump\t// in\n    tag_269:\n        /* \"#utility.yul\":11254:11328   */\n      swap2\n      pop\n        /* \"#utility.yul\":11337:11430   */\n      tag_270\n        /* \"#utility.yul\":11426:11429   */\n      dup3\n        /* \"#utility.yul\":11337:11430   */\n      tag_126\n      jump\t// in\n    tag_270:\n        /* \"#utility.yul\":11455:11457   */\n      0x20\n        /* \"#utility.yul\":11450:11453   */\n      dup3\n        /* \"#utility.yul\":11446:11458   */\n      add\n        /* \"#utility.yul\":11439:11458   */\n      swap1\n      pop\n        /* \"#utility.yul\":11098:11464   */\n      swap2\n      swap1\n      pop\n      jump\t// out\n        /* \"#utility.yul\":11470:11889   */\n    tag_45:\n        /* \"#utility.yul\":11636:11640   */\n      0x00\n        /* \"#utility.yul\":11674:11676   */\n      0x20\n        /* \"#utility.yul\":11663:11672   */\n      dup3\n        /* \"#utility.yul\":11659:11677   */\n      add\n        /* \"#utility.yul\":11651:11677   */\n      swap1\n      pop\n        /* \"#utility.yul\":11723:11732   */\n      dup2\n        /* \"#utility.yul\":11717:11721   */\n      dup2\n        /* \"#utility.yul\":11713:11733   */\n      sub\n        /* \"#utility.yul\":11709:11710   */\n      0x00\n        /* \"#utility.yul\":11698:11707   */\n      dup4\n        /* \"#utility.yul\":11694:11711   */\n      add\n        /* \"#utility.yul\":11687:11734   */\n      mstore\n        /* \"#utility.yul\":11751:11882   */\n      tag_272\n        /* \"#utility.yul\":11877:11881   */\n      dup2\n        /* \"#utility.yul\":11751:11882   */\n      tag_127\n      jump\t// in\n    tag_272:\n        /* \"#utility.yul\":11743:11882   */\n      swap1\n      pop\n        /* \"#utility.yul\":11470:11889   */\n      swap2\n      swap1\n      pop\n      jump\t// out\n        /* \"#utility.yul\":11895:12066   */\n    tag_128:\n        /* \"#utility.yul\":12035:12058   */\n      0x596f7520616c7265647920686173206163636573730000000000000000000000\n        /* \"#utility.yul\":12031:12032   */\n      0x00\n        /* \"#utility.yul\":12023:12029   */\n      dup3\n        /* \"#utility.yul\":12019:12033   */\n      add\n        /* \"#utility.yul\":12012:12059   */\n      mstore\n        /* \"#utility.yul\":11895:12066   */\n      pop\n      jump\t// out\n        /* \"#utility.yul\":12072:12438   */\n    tag_129:\n        /* \"#utility.yul\":12214:12217   */\n      0x00\n        /* \"#utility.yul\":12235:12302   */\n      tag_275\n        /* \"#utility.yul\":12299:12301   */\n      0x15\n        /* \"#utility.yul\":12294:12297   */\n      dup4\n        /* \"#utility.yul\":12235:12302   */\n      tag_125\n      jump\t// in\n    tag_275:\n        /* \"#utility.yul\":12228:12302   */\n      swap2\n      pop\n        /* \"#utility.yul\":12311:12404   */\n      tag_276\n        /* \"#utility.yul\":12400:12403   */\n      dup3\n        /* \"#utility.yul\":12311:12404   */\n      tag_128\n      jump\t// in\n    tag_276:\n        /* \"#utility.yul\":12429:12431   */\n      0x20\n        /* \"#utility.yul\":12424:12427   */\n      dup3\n        /* \"#utility.yul\":12420:12432   */\n      add\n        /* \"#utility.yul\":12413:12432   */\n      swap1\n      pop\n        /* \"#utility.yul\":12072:12438   */\n      swap2\n      swap1\n      pop\n      jump\t// out\n        /* \"#utility.yul\":12444:12863   */\n    tag_49:\n        /* \"#utility.yul\":12610:12614   */\n      0x00\n        /* \"#utility.yul\":12648:12650   */\n      0x20\n        /* \"#utility.yul\":12637:12646   */\n      dup3\n        /* \"#utility.yul\":12633:12651   */\n      add\n        /* \"#utility.yul\":12625:12651   */\n      swap1\n      pop\n        /* \"#utility.yul\":12697:12706   */\n      dup2\n        /* \"#utility.yul\":12691:12695   */\n      dup2\n        /* \"#utility.yul\":12687:12707   */\n      sub\n        /* \"#utility.yul\":12683:12684   */\n      0x00\n        /* \"#utility.yul\":12672:12681   */\n      dup4\n        /* \"#utility.yul\":12668:12685   */\n      add\n        /* \"#utility.yul\":12661:12708   */\n      mstore\n        /* \"#utility.yul\":12725:12856   */\n      tag_278\n        /* \"#utility.yul\":12851:12855   */\n      dup2\n        /* \"#utility.yul\":12725:12856   */\n      tag_129\n      jump\t// in\n    tag_278:\n        /* \"#utility.yul\":12717:12856   */\n      swap1\n      pop\n        /* \"#utility.yul\":12444:12863   */\n      swap2\n      swap1\n      pop\n      jump\t// out\n        /* \"#utility.yul\":12869:13038   */\n    tag_130:\n        /* \"#utility.yul\":13009:13030   */\n      0x496e737566696369656e74207061796d656e7400000000000000000000000000\n        /* \"#utility.yul\":13005:13006   */\n      0x00\n        /* \"#utility.yul\":12997:13003   */\n      dup3\n        /* \"#utility.yul\":12993:13007   */\n      add\n        /* \"#utility.yul\":12986:13031   */\n      mstore\n        /* \"#utility.yul\":12869:13038   */\n      pop\n      jump\t// out\n        /* \"#utility.yul\":13044:13410   */\n    tag_131:\n        /* \"#utility.yul\":13186:13189   */\n      0x00\n        /* \"#utility.yul\":13207:13274   */\n      tag_281\n        /* \"#utility.yul\":13271:13273   */\n      0x13\n        /* \"#utility.yul\":13266:13269   */\n      dup4\n        /* \"#utility.yul\":13207:13274   */\n      tag_125\n      jump\t// in\n    tag_281:\n        /* \"#utility.yul\":13200:13274   */\n      swap2\n      pop\n        /* \"#utility.yul\":13283:13376   */\n      tag_282\n        /* \"#utility.yul\":13372:13375   */\n      dup3\n        /* \"#utility.yul\":13283:13376   */\n      tag_130\n      jump\t// in\n    tag_282:\n        /* \"#utility.yul\":13401:13403   */\n      0x20\n        /* \"#utility.yul\":13396:13399   */\n      dup3\n        /* \"#utility.yul\":13392:13404   */\n      add\n        /* \"#utility.yul\":13385:13404   */\n      swap1\n      pop\n        /* \"#utility.yul\":13044:13410   */\n      swap2\n      swap1\n      pop\n      jump\t// out\n        /* \"#utility.yul\":13416:13835   */\n    tag_52:\n        /* \"#utility.yul\":13582:13586   */\n      0x00\n        /* \"#utility.yul\":13620:13622   */\n      0x20\n        /* \"#utility.yul\":13609:13618   */\n      dup3\n        /* \"#utility.yul\":13605:13623   */\n      add\n        /* \"#utility.yul\":13597:13623   */\n      swap1\n      pop\n        /* \"#utility.yul\":13669:13678   */\n      dup2\n        /* \"#utility.yul\":13663:13667   */\n      dup2\n        /* \"#utility.yul\":13659:13679   */\n      sub\n        /* \"#utility.yul\":13655:13656   */\n      0x00\n        /* \"#utility.yul\":13644:13653   */\n      dup4\n        /* \"#utility.yul\":13640:13657   */\n      add\n        /* \"#utility.yul\":13633:13680   */\n      mstore\n        /* \"#utility.yul\":13697:13828   */\n      tag_284\n        /* \"#utility.yul\":13823:13827   */\n      dup2\n        /* \"#utility.yul\":13697:13828   */\n      tag_131\n      jump\t// in\n    tag_284:\n        /* \"#utility.yul\":13689:13828   */\n      swap1\n      pop\n        /* \"#utility.yul\":13416:13835   */\n      swap2\n      swap1\n      pop\n      jump\t// out\n        /* \"#utility.yul\":13841:14021   */\n    tag_132:\n        /* \"#utility.yul\":13889:13966   */\n      0x4e487b7100000000000000000000000000000000000000000000000000000000\n        /* \"#utility.yul\":13886:13887   */\n      0x00\n        /* \"#utility.yul\":13879:13967   */\n      mstore\n        /* \"#utility.yul\":13986:13990   */\n      0x11\n        /* \"#utility.yul\":13983:13984   */\n      0x04\n        /* \"#utility.yul\":13976:13991   */\n      mstore\n        /* \"#utility.yul\":14010:14014   */\n      0x24\n        /* \"#utility.yul\":14007:14008   */\n      0x00\n        /* \"#utility.yul\":14000:14015   */\n      revert\n        /* \"#utility.yul\":14027:14221   */\n    tag_55:\n        /* \"#utility.yul\":14067:14071   */\n      0x00\n        /* \"#utility.yul\":14087:14107   */\n      tag_287\n        /* \"#utility.yul\":14105:14106   */\n      dup3\n        /* \"#utility.yul\":14087:14107   */\n      tag_108\n      jump\t// in\n    tag_287:\n        /* \"#utility.yul\":14082:14107   */\n      swap2\n      pop\n        /* \"#utility.yul\":14121:14141   */\n      tag_288\n        /* \"#utility.yul\":14139:14140   */\n      dup4\n        /* \"#utility.yul\":14121:14141   */\n      tag_108\n      jump\t// in\n    tag_288:\n        /* \"#utility.yul\":14116:14141   */\n      swap3\n      pop\n        /* \"#utility.yul\":14165:14166   */\n      dup3\n        /* \"#utility.yul\":14162:14163   */\n      dup3\n        /* \"#utility.yul\":14158:14167   */\n      sub\n        /* \"#utility.yul\":14150:14167   */\n      swap1\n      pop\n        /* \"#utility.yul\":14189:14190   */\n      dup2\n        /* \"#utility.yul\":14183:14187   */\n      dup2\n        /* \"#utility.yul\":14180:14191   */\n      gt\n        /* \"#utility.yul\":14177:14214   */\n      iszero\n      tag_289\n      jumpi\n        /* \"#utility.yul\":14194:14212   */\n      tag_290\n      tag_132\n      jump\t// in\n    tag_290:\n        /* \"#utility.yul\":14177:14214   */\n    tag_289:\n        /* \"#utility.yul\":14027:14221   */\n      swap3\n      swap2\n      pop\n      pop\n      jump\t// out\n        /* \"#utility.yul\":14227:14408   */\n    tag_133:\n        /* \"#utility.yul\":14367:14400   */\n      0x54686973206c696e6b496420616c726561642068617320616e206f776e657200\n        /* \"#utility.yul\":14363:14364   */\n      0x00\n        /* \"#utility.yul\":14355:14361   */\n      dup3\n        /* \"#utility.yul\":14351:14365   */\n      add\n        /* \"#utility.yul\":14344:14401   */\n      mstore\n        /* \"#utility.yul\":14227:14408   */\n      pop\n      jump\t// out\n        /* \"#utility.yul\":14414:14780   */\n    tag_134:\n        /* \"#utility.yul\":14556:14559   */\n      0x00\n        /* \"#utility.yul\":14577:14644   */\n      tag_293\n        /* \"#utility.yul\":14641:14643   */\n      0x1f\n        /* \"#utility.yul\":14636:14639   */\n      dup4\n        /* \"#utility.yul\":14577:14644   */\n      tag_125\n      jump\t// in\n    tag_293:\n        /* \"#utility.yul\":14570:14644   */\n      swap2\n      pop\n        /* \"#utility.yul\":14653:14746   */\n      tag_294\n        /* \"#utility.yul\":14742:14745   */\n      dup3\n        /* \"#utility.yul\":14653:14746   */\n      tag_133\n      jump\t// in\n    tag_294:\n        /* \"#utility.yul\":14771:14773   */\n      0x20\n        /* \"#utility.yul\":14766:14769   */\n      dup3\n        /* \"#utility.yul\":14762:14774   */\n      add\n        /* \"#utility.yul\":14755:14774   */\n      swap1\n      pop\n        /* \"#utility.yul\":14414:14780   */\n      swap2\n      swap1\n      pop\n      jump\t// out\n        /* \"#utility.yul\":14786:15205   */\n    tag_80:\n        /* \"#utility.yul\":14952:14956   */\n      0x00\n        /* \"#utility.yul\":14990:14992   */\n      0x20\n        /* \"#utility.yul\":14979:14988   */\n      dup3\n        /* \"#utility.yul\":14975:14993   */\n      add\n        /* \"#utility.yul\":14967:14993   */\n      swap1\n      pop\n        /* \"#utility.yul\":15039:15048   */\n      dup2\n        /* \"#utility.yul\":15033:15037   */\n      dup2\n        /* \"#utility.yul\":15029:15049   */\n      sub\n        /* \"#utility.yul\":15025:15026   */\n      0x00\n        /* \"#utility.yul\":15014:15023   */\n      dup4\n        /* \"#utility.yul\":15010:15027   */\n      add\n        /* \"#utility.yul\":15003:15050   */\n      mstore\n        /* \"#utility.yul\":15067:15198   */\n      tag_296\n        /* \"#utility.yul\":15193:15197   */\n      dup2\n        /* \"#utility.yul\":15067:15198   */\n      tag_134\n      jump\t// in\n    tag_296:\n        /* \"#utility.yul\":15059:15198   */\n      swap1\n      pop\n        /* \"#utility.yul\":14786:15205   */\n      swap2\n      swap1\n      pop\n      jump\t// out\n        /* \"#utility.yul\":15211:15372   */\n    tag_135:\n        /* \"#utility.yul\":15351:15364   */\n      0x46656520746f6f206c6f77000000000000000000000000000000000000000000\n        /* \"#utility.yul\":15347:15348   */\n      0x00\n        /* \"#utility.yul\":15339:15345   */\n      dup3\n        /* \"#utility.yul\":15335:15349   */\n      add\n        /* \"#utility.yul\":15328:15365   */\n      mstore\n        /* \"#utility.yul\":15211:15372   */\n      pop\n      jump\t// out\n        /* \"#utility.yul\":15378:15744   */\n    tag_136:\n        /* \"#utility.yul\":15520:15523   */\n      0x00\n        /* \"#utility.yul\":15541:15608   */\n      tag_299\n        /* \"#utility.yul\":15605:15607   */\n      0x0b\n        /* \"#utility.yul\":15600:15603   */\n      dup4\n        /* \"#utility.yul\":15541:15608   */\n      tag_125\n      jump\t// in\n    tag_299:\n        /* \"#utility.yul\":15534:15608   */\n      swap2\n      pop\n        /* \"#utility.yul\":15617:15710   */\n      tag_300\n        /* \"#utility.yul\":15706:15709   */\n      dup3\n        /* \"#utility.yul\":15617:15710   */\n      tag_135\n      jump\t// in\n    tag_300:\n        /* \"#utility.yul\":15735:15737   */\n      0x20\n        /* \"#utility.yul\":15730:15733   */\n      dup3\n        /* \"#utility.yul\":15726:15738   */\n      add\n        /* \"#utility.yul\":15719:15738   */\n      swap1\n      pop\n        /* \"#utility.yul\":15378:15744   */\n      swap2\n      swap1\n      pop\n      jump\t// out\n        /* \"#utility.yul\":15750:16169   */\n    tag_84:\n        /* \"#utility.yul\":15916:15920   */\n      0x00\n        /* \"#utility.yul\":15954:15956   */\n      0x20\n        /* \"#utility.yul\":15943:15952   */\n      dup3\n        /* \"#utility.yul\":15939:15957   */\n      add\n        /* \"#utility.yul\":15931:15957   */\n      swap1\n      pop\n        /* \"#utility.yul\":16003:16012   */\n      dup2\n        /* \"#utility.yul\":15997:16001   */\n      dup2\n        /* \"#utility.yul\":15993:16013   */\n      sub\n        /* \"#utility.yul\":15989:15990   */\n      0x00\n        /* \"#utility.yul\":15978:15987   */\n      dup4\n        /* \"#utility.yul\":15974:15991   */\n      add\n        /* \"#utility.yul\":15967:16014   */\n      mstore\n        /* \"#utility.yul\":16031:16162   */\n      tag_302\n        /* \"#utility.yul\":16157:16161   */\n      dup2\n        /* \"#utility.yul\":16031:16162   */\n      tag_136\n      jump\t// in\n    tag_302:\n        /* \"#utility.yul\":16023:16162   */\n      swap1\n      pop\n        /* \"#utility.yul\":15750:16169   */\n      swap2\n      swap1\n      pop\n      jump\t// out\n        /* \"#utility.yul\":16175:16316   */\n    tag_137:\n        /* \"#utility.yul\":16224:16228   */\n      0x00\n        /* \"#utility.yul\":16247:16250   */\n      dup2\n        /* \"#utility.yul\":16239:16250   */\n      swap1\n      pop\n        /* \"#utility.yul\":16270:16273   */\n      dup2\n        /* \"#utility.yul\":16267:16268   */\n      0x00\n        /* \"#utility.yul\":16260:16274   */\n      mstore\n        /* \"#utility.yul\":16304:16308   */\n      0x20\n        /* \"#utility.yul\":16301:16302   */\n      0x00\n        /* \"#utility.yul\":16291:16309   */\n      keccak256\n        /* \"#utility.yul\":16283:16309   */\n      swap1\n      pop\n        /* \"#utility.yul\":16175:16316   */\n      swap2\n      swap1\n      pop\n      jump\t// out\n        /* \"#utility.yul\":16322:16415   */\n    tag_138:\n        /* \"#utility.yul\":16359:16365   */\n      0x00\n        /* \"#utility.yul\":16406:16408   */\n      0x20\n        /* \"#utility.yul\":16401:16403   */\n      0x1f\n        /* \"#utility.yul\":16394:16399   */\n      dup4\n        /* \"#utility.yul\":16390:16404   */\n      add\n        /* \"#utility.yul\":16386:16409   */\n      div\n        /* \"#utility.yul\":16376:16409   */\n      swap1\n      pop\n        /* \"#utility.yul\":16322:16415   */\n      swap2\n      swap1\n      pop\n      jump\t// out\n        /* \"#utility.yul\":16421:16528   */\n    tag_139:\n        /* \"#utility.yul\":16465:16473   */\n      0x00\n        /* \"#utility.yul\":16515:16520   */\n      dup3\n        /* \"#utility.yul\":16509:16513   */\n      dup3\n        /* \"#utility.yul\":16505:16521   */\n      shl\n        /* \"#utility.yul\":16484:16521   */\n      swap1\n      pop\n        /* \"#utility.yul\":16421:16528   */\n      swap3\n      swap2\n      pop\n      pop\n      jump\t// out\n        /* \"#utility.yul\":16534:16927   */\n    tag_140:\n        /* \"#utility.yul\":16603:16609   */\n      0x00\n        /* \"#utility.yul\":16653:16654   */\n      0x08\n        /* \"#utility.yul\":16641:16651   */\n      dup4\n        /* \"#utility.yul\":16637:16655   */\n      mul\n        /* \"#utility.yul\":16676:16773   */\n      tag_307\n        /* \"#utility.yul\":16706:16772   */\n      0xffffffffffffffffffffffffffffffffffffffffffffffffffffffffffffffff\n        /* \"#utility.yul\":16695:16704   */\n      dup3\n        /* \"#utility.yul\":16676:16773   */\n      tag_139\n      jump\t// in\n    tag_307:\n        /* \"#utility.yul\":16794:16833   */\n      tag_308\n        /* \"#utility.yul\":16824:16832   */\n      dup7\n        /* \"#utility.yul\":16813:16822   */\n      dup4\n        /* \"#utility.yul\":16794:16833   */\n      tag_139\n      jump\t// in\n    tag_308:\n        /* \"#utility.yul\":16782:16833   */\n      swap6\n      pop\n        /* \"#utility.yul\":16866:16870   */\n      dup1\n        /* \"#utility.yul\":16862:16871   */\n      not\n        /* \"#utility.yul\":16855:16860   */\n      dup5\n        /* \"#utility.yul\":16851:16872   */\n      and\n        /* \"#utility.yul\":16842:16872   */\n      swap4\n      pop\n        /* \"#utility.yul\":16915:16919   */\n      dup1\n        /* \"#utility.yul\":16905:16913   */\n      dup7\n        /* \"#utility.yul\":16901:16920   */\n      and\n        /* \"#utility.yul\":16894:16899   */\n      dup5\n        /* \"#utility.yul\":16891:16921   */\n      or\n        /* \"#utility.yul\":16881:16921   */\n      swap3\n      pop\n        /* \"#utility.yul\":16610:16927   */\n      pop\n      pop\n        /* \"#utility.yul\":16534:16927   */\n      swap4\n      swap3\n      pop\n      pop\n      pop\n      jump\t// out\n        /* \"#utility.yul\":16933:16993   */\n    tag_141:\n        /* \"#utility.yul\":16961:16964   */\n      0x00\n        /* \"#utility.yul\":16982:16987   */\n      dup2\n        /* \"#utility.yul\":16975:16987   */\n      swap1\n      pop\n        /* \"#utility.yul\":16933:16993   */\n      swap2\n      swap1\n      pop\n      jump\t// out\n        /* \"#utility.yul\":16999:17141   */\n    tag_142:\n        /* \"#utility.yul\":17049:17058   */\n      0x00\n        /* \"#utility.yul\":17082:17135   */\n      tag_311\n        /* \"#utility.yul\":17100:17134   */\n      tag_312\n        /* \"#utility.yul\":17109:17133   */\n      tag_313\n        /* \"#utility.yul\":17127:17132   */\n      dup5\n        /* \"#utility.yul\":17109:17133   */\n      tag_108\n      jump\t// in\n    tag_313:\n        /* \"#utility.yul\":17100:17134   */\n      tag_141\n      jump\t// in\n    tag_312:\n        /* \"#utility.yul\":17082:17135   */\n      tag_108\n      jump\t// in\n    tag_311:\n        /* \"#utility.yul\":17069:17135   */\n      swap1\n      pop\n        /* \"#utility.yul\":16999:17141   */\n      swap2\n      swap1\n      pop\n      jump\t// out\n        /* \"#utility.yul\":17147:17222   */\n    tag_143:\n        /* \"#utility.yul\":17190:17193   */\n      0x00\n        /* \"#utility.yul\":17211:17216   */\n      dup2\n        /* \"#utility.yul\":17204:17216   */\n      swap1\n      pop\n        /* \"#utility.yul\":17147:17222   */\n      swap2\n      swap1\n      pop\n      jump\t// out\n        /* \"#utility.yul\":17228:17497   */\n    tag_144:\n        /* \"#utility.yul\":17338:17377   */\n      tag_316\n        /* \"#utility.yul\":17369:17376   */\n      dup4\n        /* \"#utility.yul\":17338:17377   */\n      tag_142\n      jump\t// in\n    tag_316:\n        /* \"#utility.yul\":17399:17490   */\n      tag_317\n        /* \"#utility.yul\":17448:17489   */\n      tag_318\n        /* \"#utility.yul\":17472:17488   */\n      dup3\n        /* \"#utility.yul\":17448:17489   */\n      tag_143\n      jump\t// in\n    tag_318:\n        /* \"#utility.yul\":17440:17446   */\n      dup5\n        /* \"#utility.yul\":17433:17437   */\n      dup5\n        /* \"#utility.yul\":17427:17438   */\n      sload\n        /* \"#utility.yul\":17399:17490   */\n      tag_140\n      jump\t// in\n    tag_317:\n        /* \"#utility.yul\":17393:17397   */\n      dup3\n        /* \"#utility.yul\":17386:17491   */\n      sstore\n        /* \"#utility.yul\":17304:17497   */\n      pop\n        /* \"#utility.yul\":17228:17497   */\n      pop\n      pop\n      pop\n      jump\t// out\n        /* \"#utility.yul\":17503:17576   */\n    tag_145:\n        /* \"#utility.yul\":17548:17551   */\n      0x00\n        /* \"#utility.yul\":17569:17570   */\n      0x00\n        /* \"#utility.yul\":17562:17570   */\n      swap1\n      pop\n        /* \"#utility.yul\":17503:17576   */\n      swap1\n      jump\t// out\n        /* \"#utility.yul\":17582:17771   */\n    tag_146:\n        /* \"#utility.yul\":17659:17691   */\n      tag_321\n      tag_145\n      jump\t// in\n    tag_321:\n        /* \"#utility.yul\":17700:17765   */\n      tag_322\n        /* \"#utility.yul\":17758:17764   */\n      dup2\n        /* \"#utility.yul\":17750:17756   */\n      dup5\n        /* \"#utility.yul\":17744:17748   */\n      dup5\n        /* \"#utility.yul\":17700:17765   */\n      tag_144\n      jump\t// in\n    tag_322:\n        /* \"#utility.yul\":17635:17771   */\n      pop\n        /* \"#utility.yul\":17582:17771   */\n      pop\n      pop\n      jump\t// out\n        /* \"#utility.yul\":17777:17963   */\n    tag_147:\n        /* \"#utility.yul\":17837:17957   */\n    tag_324:\n        /* \"#utility.yul\":17854:17857   */\n      dup2\n        /* \"#utility.yul\":17847:17852   */\n      dup2\n        /* \"#utility.yul\":17844:17858   */\n      lt\n        /* \"#utility.yul\":17837:17957   */\n      iszero\n      tag_326\n      jumpi\n        /* \"#utility.yul\":17908:17947   */\n      tag_327\n        /* \"#utility.yul\":17945:17946   */\n      0x00\n        /* \"#utility.yul\":17938:17943   */\n      dup3\n        /* \"#utility.yul\":17908:17947   */\n      tag_146\n      jump\t// in\n    tag_327:\n        /* \"#utility.yul\":17881:17882   */\n      0x01\n        /* \"#utility.yul\":17874:17879   */\n      dup2\n        /* \"#utility.yul\":17870:17883   */\n      add\n        /* \"#utility.yul\":17861:17883   */\n      swap1\n      pop\n        /* \"#utility.yul\":17837:17957   */\n      jump(tag_324)\n    tag_326:\n        /* \"#utility.yul\":17777:17963   */\n      pop\n      pop\n      jump\t// out\n        /* \"#utility.yul\":17969:18512   */\n    tag_148:\n        /* \"#utility.yul\":18070:18072   */\n      0x1f\n        /* \"#utility.yul\":18065:18068   */\n      dup3\n        /* \"#utility.yul\":18062:18073   */\n      gt\n        /* \"#utility.yul\":18059:18505   */\n      iszero\n      tag_329\n      jumpi\n        /* \"#utility.yul\":18104:18142   */\n      tag_330\n        /* \"#utility.yul\":18136:18141   */\n      dup2\n        /* \"#utility.yul\":18104:18142   */\n      tag_137\n      jump\t// in\n    tag_330:\n        /* \"#utility.yul\":18188:18217   */\n      tag_331\n        /* \"#utility.yul\":18206:18216   */\n      dup5\n        /* \"#utility.yul\":18188:18217   */\n      tag_138\n      jump\t// in\n    tag_331:\n        /* \"#utility.yul\":18178:18186   */\n      dup2\n        /* \"#utility.yul\":18174:18218   */\n      add\n        /* \"#utility.yul\":18371:18373   */\n      0x20\n        /* \"#utility.yul\":18359:18369   */\n      dup6\n        /* \"#utility.yul\":18356:18374   */\n      lt\n        /* \"#utility.yul\":18353:18402   */\n      iszero\n      tag_332\n      jumpi\n        /* \"#utility.yul\":18392:18400   */\n      dup2\n        /* \"#utility.yul\":18377:18400   */\n      swap1\n      pop\n        /* \"#utility.yul\":18353:18402   */\n    tag_332:\n        /* \"#utility.yul\":18415:18495   */\n      tag_333\n        /* \"#utility.yul\":18471:18493   */\n      tag_334\n        /* \"#utility.yul\":18489:18492   */\n      dup6\n        /* \"#utility.yul\":18471:18493   */\n      tag_138\n      jump\t// in\n    tag_334:\n        /* \"#utility.yul\":18461:18469   */\n      dup4\n        /* \"#utility.yul\":18457:18494   */\n      add\n        /* \"#utility.yul\":18444:18455   */\n      dup3\n        /* \"#utility.yul\":18415:18495   */\n      tag_147\n      jump\t// in\n    tag_333:\n        /* \"#utility.yul\":18074:18505   */\n      pop\n      pop\n        /* \"#utility.yul\":18059:18505   */\n    tag_329:\n        /* \"#utility.yul\":17969:18512   */\n      pop\n      pop\n      pop\n      jump\t// out\n        /* \"#utility.yul\":18518:18635   */\n    tag_149:\n        /* \"#utility.yul\":18572:18580   */\n      0x00\n        /* \"#utility.yul\":18622:18627   */\n      dup3\n        /* \"#utility.yul\":18616:18620   */\n      dup3\n        /* \"#utility.yul\":18612:18628   */\n      shr\n        /* \"#utility.yul\":18591:18628   */\n      swap1\n      pop\n        /* \"#utility.yul\":18518:18635   */\n      swap3\n      swap2\n      pop\n      pop\n      jump\t// out\n        /* \"#utility.yul\":18641:18810   */\n    tag_150:\n        /* \"#utility.yul\":18685:18691   */\n      0x00\n        /* \"#utility.yul\":18718:18769   */\n      tag_337\n        /* \"#utility.yul\":18766:18767   */\n      0x00\n        /* \"#utility.yul\":18762:18768   */\n      not\n        /* \"#utility.yul\":18754:18759   */\n      dup5\n        /* \"#utility.yul\":18751:18752   */\n      0x08\n        /* \"#utility.yul\":18747:18760   */\n      mul\n        /* \"#utility.yul\":18718:18769   */\n      tag_149\n      jump\t// in\n    tag_337:\n        /* \"#utility.yul\":18714:18770   */\n      not\n        /* \"#utility.yul\":18799:18803   */\n      dup1\n        /* \"#utility.yul\":18793:18797   */\n      dup4\n        /* \"#utility.yul\":18789:18804   */\n      and\n        /* \"#utility.yul\":18779:18804   */\n      swap2\n      pop\n        /* \"#utility.yul\":18692:18810   */\n      pop\n        /* \"#utility.yul\":18641:18810   */\n      swap3\n      swap2\n      pop\n      pop\n      jump\t// out\n        /* \"#utility.yul\":18815:19110   */\n    tag_151:\n        /* \"#utility.yul\":18891:18895   */\n      0x00\n        /* \"#utility.yul\":19037:19066   */\n      tag_339\n        /* \"#utility.yul\":19062:19065   */\n      dup4\n        /* \"#utility.yul\":19056:19060   */\n      dup4\n        /* \"#utility.yul\":19037:19066   */\n      tag_150\n      jump\t// in\n    tag_339:\n        /* \"#utility.yul\":19029:19066   */\n      swap2\n      pop\n        /* \"#utility.yul\":19099:19102   */\n      dup3\n        /* \"#utility.yul\":19096:19097   */\n      0x02\n        /* \"#utility.yul\":19092:19103   */\n      mul\n        /* \"#utility.yul\":19086:19090   */\n      dup3\n        /* \"#utility.yul\":19083:19104   */\n      or\n        /* \"#utility.yul\":19075:19104   */\n      swap1\n      pop\n        /* \"#utility.yul\":18815:19110   */\n      swap3\n      swap2\n      pop\n      pop\n      jump\t// out\n        /* \"#utility.yul\":19115:20510   */\n    tag_87:\n        /* \"#utility.yul\":19232:19269   */\n      tag_341\n        /* \"#utility.yul\":19265:19268   */\n      dup3\n        /* \"#utility.yul\":19232:19269   */\n      tag_113\n      jump\t// in\n    tag_341:\n        /* \"#utility.yul\":19334:19352   */\n      0xffffffffffffffff\n        /* \"#utility.yul\":19326:19332   */\n      dup2\n        /* \"#utility.yul\":19323:19353   */\n      gt\n        /* \"#utility.yul\":19320:19376   */\n      iszero\n      tag_342\n      jumpi\n        /* \"#utility.yul\":19356:19374   */\n      tag_343\n      tag_95\n      jump\t// in\n    tag_343:\n        /* \"#utility.yul\":19320:19376   */\n    tag_342:\n        /* \"#utility.yul\":19400:19438   */\n      tag_344\n        /* \"#utility.yul\":19432:19436   */\n      dup3\n        /* \"#utility.yul\":19426:19437   */\n      sload\n        /* \"#utility.yul\":19400:19438   */\n      tag_38\n      jump\t// in\n    tag_344:\n        /* \"#utility.yul\":19485:19552   */\n      tag_345\n        /* \"#utility.yul\":19545:19551   */\n      dup3\n        /* \"#utility.yul\":19537:19543   */\n      dup3\n        /* \"#utility.yul\":19531:19535   */\n      dup6\n        /* \"#utility.yul\":19485:19552   */\n      tag_148\n      jump\t// in\n    tag_345:\n        /* \"#utility.yul\":19579:19580   */\n      0x00\n        /* \"#utility.yul\":19603:19607   */\n      0x20\n        /* \"#utility.yul\":19590:19607   */\n      swap1\n      pop\n        /* \"#utility.yul\":19635:19637   */\n      0x1f\n        /* \"#utility.yul\":19627:19633   */\n      dup4\n        /* \"#utility.yul\":19624:19638   */\n      gt\n        /* \"#utility.yul\":19652:19653   */\n      0x01\n        /* \"#utility.yul\":19647:20265   */\n      dup2\n      eq\n      tag_347\n      jumpi\n        /* \"#utility.yul\":20309:20310   */\n      0x00\n        /* \"#utility.yul\":20326:20332   */\n      dup5\n        /* \"#utility.yul\":20323:20400   */\n      iszero\n      tag_348\n      jumpi\n        /* \"#utility.yul\":20375:20384   */\n      dup3\n        /* \"#utility.yul\":20370:20373   */\n      dup8\n        /* \"#utility.yul\":20366:20385   */\n      add\n        /* \"#utility.yul\":20360:20386   */\n      mload\n        /* \"#utility.yul\":20351:20386   */\n      swap1\n      pop\n        /* \"#utility.yul\":20323:20400   */\n    tag_348:\n        /* \"#utility.yul\":20426:20493   */\n      tag_349\n        /* \"#utility.yul\":20486:20492   */\n      dup6\n        /* \"#utility.yul\":20479:20484   */\n      dup3\n        /* \"#utility.yul\":20426:20493   */\n      tag_151\n      jump\t// in\n    tag_349:\n        /* \"#utility.yul\":20420:20424   */\n      dup7\n        /* \"#utility.yul\":20413:20494   */\n      sstore\n        /* \"#utility.yul\":20282:20504   */\n      pop\n        /* \"#utility.yul\":19617:20504   */\n      jump(tag_346)\n        /* \"#utility.yul\":19647:20265   */\n    tag_347:\n        /* \"#utility.yul\":19699:19703   */\n      0x1f\n        /* \"#utility.yul\":19695:19704   */\n      not\n        /* \"#utility.yul\":19687:19693   */\n      dup5\n        /* \"#utility.yul\":19683:19705   */\n      and\n        /* \"#utility.yul\":19733:19770   */\n      tag_350\n        /* \"#utility.yul\":19765:19769   */\n      dup7\n        /* \"#utility.yul\":19733:19770   */\n      tag_137\n      jump\t// in\n    tag_350:\n        /* \"#utility.yul\":19792:19793   */\n      0x00\n        /* \"#utility.yul\":19806:20014   */\n    tag_351:\n        /* \"#utility.yul\":19820:19827   */\n      dup3\n        /* \"#utility.yul\":19817:19818   */\n      dup2\n        /* \"#utility.yul\":19814:19828   */\n      lt\n        /* \"#utility.yul\":19806:20014   */\n      iszero\n      tag_353\n      jumpi\n        /* \"#utility.yul\":19899:19908   */\n      dup5\n        /* \"#utility.yul\":19894:19897   */\n      dup10\n        /* \"#utility.yul\":19890:19909   */\n      add\n        /* \"#utility.yul\":19884:19910   */\n      mload\n        /* \"#utility.yul\":19876:19882   */\n      dup3\n        /* \"#utility.yul\":19869:19911   */\n      sstore\n        /* \"#utility.yul\":19950:19951   */\n      0x01\n        /* \"#utility.yul\":19942:19948   */\n      dup3\n        /* \"#utility.yul\":19938:19952   */\n      add\n        /* \"#utility.yul\":19928:19952   */\n      swap2\n      pop\n        /* \"#utility.yul\":19997:19999   */\n      0x20\n        /* \"#utility.yul\":19986:19995   */\n      dup6\n        /* \"#utility.yul\":19982:20000   */\n      add\n        /* \"#utility.yul\":19969:20000   */\n      swap5\n      pop\n        /* \"#utility.yul\":19843:19847   */\n      0x20\n        /* \"#utility.yul\":19840:19841   */\n      dup2\n        /* \"#utility.yul\":19836:19848   */\n      add\n        /* \"#utility.yul\":19831:19848   */\n      swap1\n      pop\n        /* \"#utility.yul\":19806:20014   */\n      jump(tag_351)\n    tag_353:\n        /* \"#utility.yul\":20042:20048   */\n      dup7\n        /* \"#utility.yul\":20033:20040   */\n      dup4\n        /* \"#utility.yul\":20030:20049   */\n      lt\n        /* \"#utility.yul\":20027:20206   */\n      iszero\n      tag_354\n      jumpi\n        /* \"#utility.yul\":20100:20109   */\n      dup5\n        /* \"#utility.yul\":20095:20098   */\n      dup10\n        /* \"#utility.yul\":20091:20110   */\n      add\n        /* \"#utility.yul\":20085:20111   */\n      mload\n        /* \"#utility.yul\":20143:20191   */\n      tag_355\n        /* \"#utility.yul\":20185:20189   */\n      0x1f\n        /* \"#utility.yul\":20177:20183   */\n      dup10\n        /* \"#utility.yul\":20173:20190   */\n      and\n        /* \"#utility.yul\":20162:20171   */\n      dup3\n        /* \"#utility.yul\":20143:20191   */\n      tag_150\n      jump\t// in\n    tag_355:\n        /* \"#utility.yul\":20135:20141   */\n      dup4\n        /* \"#utility.yul\":20128:20192   */\n      sstore\n        /* \"#utility.yul\":20050:20206   */\n      pop\n        /* \"#utility.yul\":20027:20206   */\n    tag_354:\n        /* \"#utility.yul\":20252:20253   */\n      0x01\n        /* \"#utility.yul\":20248:20249   */\n      0x02\n        /* \"#utility.yul\":20240:20246   */\n      dup9\n        /* \"#utility.yul\":20236:20250   */\n      mul\n        /* \"#utility.yul\":20232:20254   */\n      add\n        /* \"#utility.yul\":20226:20230   */\n      dup9\n        /* \"#utility.yul\":20219:20255   */\n      sstore\n        /* \"#utility.yul\":19654:20265   */\n      pop\n      pop\n      pop\n        /* \"#utility.yul\":19617:20504   */\n    tag_346:\n      pop\n        /* \"#utility.yul\":19207:20510   */\n      pop\n      pop\n      pop\n        /* \"#utility.yul\":19115:20510   */\n      pop\n      pop\n      jump\t// out\n\n    auxdata: 0xa2646970667358221220aa8973ce7b2af800597f46d9873fd6fc41f3c7f032e78e8d2c4a6b646299fb8064736f6c634300081e0033\n}\n",
				"bytecode": {
					"linkReferences": {},
					"object": "608060405260015f553480156012575f5ffd5b506114e2806100205f395ff3fe608060405260043610610049575f3560e01c806313bd20e21461004d5780633a4b453214610089578063429cad86146100b35780637476452a146100cf578063fc5f2b781461010b575b5f5ffd5b348015610058575f5ffd5b50610073600480360381019061006e9190610c16565b610133565b6040516100809190610c8a565b60405180910390f35b348015610094575f5ffd5b5061009d610175565b6040516100aa9190610cbb565b60405180910390f35b6100cd60048036038101906100c89190610d31565b61017a565b005b3480156100da575f5ffd5b506100f560048036038101906100f09190610d31565b6104c8565b6040516101029190610e47565b60405180910390f35b348015610116575f5ffd5b50610131600480360381019061012c9190610e91565b610694565b005b600282805160208101820180518482526020830160208501208183528095505050505050602052805f5260405f205f915091509054906101000a900460ff1681565b5f5481565b5f6001838360405161018d929190610f50565b90815260200160405180910390206040518060600160405290815f820180546101b590610f95565b80601f01602080910402602001604051908101604052809291908181526020018280546101e190610f95565b801561022c5780601f106102035761010080835404028352916020019161022c565b820191905f5260205f20905b81548152906001019060200180831161020f57829003601f168201915b50505050508152602001600182015f9054906101000a900473ffffffffffffffffffffffffffffffffffffffff1673ffffffffffffffffffffffffffffffffffffffff1673ffffffffffffffffffffffffffffffffffffffff16815260200160028201548152505090505f73ffffffffffffffffffffffffffffffffffffffff16816020015173ffffffffffffffffffffffffffffffffffffffff1603610308576040517f08c379a00000000000000000000000000000000000000000000000000000000081526004016102ff9061101f565b60405180910390fd5b5f15156002848460405161031d929190610f50565b90815260200160405180910390205f3373ffffffffffffffffffffffffffffffffffffffff1673ffffffffffffffffffffffffffffffffffffffff1681526020019081526020015f205f9054906101000a900460ff161515146103b5576040517f08c379a00000000000000000000000000000000000000000000000000000000081526004016103ac90611087565b60405180910390fd5b80604001513410156103fc576040517f08c379a00000000000000000000000000000000000000000000000000000000081526004016103f3906110ef565b60405180910390fd5b600160028484604051610410929190610f50565b90815260200160405180910390205f3373ffffffffffffffffffffffffffffffffffffffff1673ffffffffffffffffffffffffffffffffffffffff1681526020019081526020015f205f6101000a81548160ff021916908315150217905550806020015173ffffffffffffffffffffffffffffffffffffffff166108fc5f543461049a919061113a565b90811502906040515f60405180830381858888f193505050501580156104c2573d5f5f3e3d5ffd5b50505050565b6104d0610a3a565b5f600184846040516104e3929190610f50565b90815260200160405180910390206040518060600160405290815f8201805461050b90610f95565b80601f016020809104026020016040519081016040528092919081815260200182805461053790610f95565b80156105825780601f1061055957610100808354040283529160200191610582565b820191905f5260205f20905b81548152906001019060200180831161056557829003601f168201915b50505050508152602001600182015f9054906101000a900473ffffffffffffffffffffffffffffffffffffffff1673ffffffffffffffffffffffffffffffffffffffff1673ffffffffffffffffffffffffffffffffffffffff16815260200160028201548152505090505f816040015103610600578091505061068e565b5f151560028585604051610615929190610f50565b90815260200160405180910390205f3373ffffffffffffffffffffffffffffffffffffffff1673ffffffffffffffffffffffffffffffffffffffff1681526020019081526020015f205f9054906101000a900460ff161515036106895760405180602001604052805f815250815f01819052505b809150505b92915050565b5f600184846040516106a7929190610f50565b90815260200160405180910390206040518060600160405290815f820180546106cf90610f95565b80601f01602080910402602001604051908101604052809291908181526020018280546106fb90610f95565b80156107465780601f1061071d57610100808354040283529160200191610746565b820191905f5260205f20905b81548152906001019060200180831161072957829003601f168201915b50505050508152602001600182015f9054906101000a900473ffffffffffffffffffffffffffffffffffffffff1673ffffffffffffffffffffffffffffffffffffffff1673ffffffffffffffffffffffffffffffffffffffff16815260200160028201548152505090505f73ffffffffffffffffffffffffffffffffffffffff16816020015173ffffffffffffffffffffffffffffffffffffffff16148061081d57503373ffffffffffffffffffffffffffffffffffffffff16816020015173ffffffffffffffffffffffffffffffffffffffff16145b61085c576040517f08c379a0000000000000000000000000000000000000000000000000000000008152600401610853906111b7565b60405180910390fd5b5f82148061086b57505f548210155b6108aa576040517f08c379a00000000000000000000000000000000000000000000000000000000081526004016108a19061121f565b60405180910390fd5b85858080601f0160208091040260200160405190810160405280939291908181526020018383808284375f81840152601f19601f82011690508083019250505050505050815f01819052508181604001818152505033816020019073ffffffffffffffffffffffffffffffffffffffff16908173ffffffffffffffffffffffffffffffffffffffff1681525050806001858560405161094a929190610f50565b90815260200160405180910390205f820151815f01908161096b91906113dd565b506020820151816001015f6101000a81548173ffffffffffffffffffffffffffffffffffffffff021916908373ffffffffffffffffffffffffffffffffffffffff160217905550604082015181600201559050506001600285856040516109d3929190610f50565b90815260200160405180910390205f3373ffffffffffffffffffffffffffffffffffffffff1673ffffffffffffffffffffffffffffffffffffffff1681526020019081526020015f205f6101000a81548160ff021916908315150217905550505050505050565b6040518060600160405280606081526020015f73ffffffffffffffffffffffffffffffffffffffff1681526020015f81525090565b5f604051905090565b5f5ffd5b5f5ffd5b5f5ffd5b5f5ffd5b5f601f19601f8301169050919050565b7f4e487b71000000000000000000000000000000000000000000000000000000005f52604160045260245ffd5b610ace82610a88565b810181811067ffffffffffffffff82111715610aed57610aec610a98565b5b80604052505050565b5f610aff610a6f565b9050610b0b8282610ac5565b919050565b5f67ffffffffffffffff821115610b2a57610b29610a98565b5b610b3382610a88565b9050602081019050919050565b828183375f83830152505050565b5f610b60610b5b84610b10565b610af6565b905082815260208101848484011115610b7c57610b7b610a84565b5b610b87848285610b40565b509392505050565b5f82601f830112610ba357610ba2610a80565b5b8135610bb3848260208601610b4e565b91505092915050565b5f73ffffffffffffffffffffffffffffffffffffffff82169050919050565b5f610be582610bbc565b9050919050565b610bf581610bdb565b8114610bff575f5ffd5b50565b5f81359050610c1081610bec565b92915050565b5f5f60408385031215610c2c57610c2b610a78565b5b5f83013567ffffffffffffffff811115610c4957610c48610a7c565b5b610c5585828601610b8f565b9250506020610c6685828601610c02565b9150509250929050565b5f8115159050919050565b610c8481610c70565b82525050565b5f602082019050610c9d5f830184610c7b565b92915050565b5f819050919050565b610cb581610ca3565b82525050565b5f602082019050610cce5f830184610cac565b92915050565b5f5ffd5b5f5ffd5b5f5f83601f840112610cf157610cf0610a80565b5b8235905067ffffffffffffffff811115610d0e57610d0d610cd4565b5b602083019150836001820283011115610d2a57610d29610cd8565b5b9250929050565b5f5f60208385031215610d4757610d46610a78565b5b5f83013567ffffffffffffffff811115610d6457610d63610a7c565b5b610d7085828601610cdc565b92509250509250929050565b5f81519050919050565b5f82825260208201905092915050565b8281835e5f83830152505050565b5f610dae82610d7c565b610db88185610d86565b9350610dc8818560208601610d96565b610dd181610a88565b840191505092915050565b610de581610bdb565b82525050565b610df481610ca3565b82525050565b5f606083015f8301518482035f860152610e148282610da4565b9150506020830151610e296020860182610ddc565b506040830151610e3c6040860182610deb565b508091505092915050565b5f6020820190508181035f830152610e5f8184610dfa565b905092915050565b610e7081610ca3565b8114610e7a575f5ffd5b50565b5f81359050610e8b81610e67565b92915050565b5f5f5f5f5f60608688031215610eaa57610ea9610a78565b5b5f86013567ffffffffffffffff811115610ec757610ec6610a7c565b5b610ed388828901610cdc565b9550955050602086013567ffffffffffffffff811115610ef657610ef5610a7c565b5b610f0288828901610cdc565b93509350506040610f1588828901610e7d565b9150509295509295909350565b5f81905092915050565b5f610f378385610f22565b9350610f44838584610b40565b82840190509392505050565b5f610f5c828486610f2c565b91508190509392505050565b7f4e487b71000000000000000000000000000000000000000000000000000000005f52602260045260245ffd5b5f6002820490506001821680610fac57607f821691505b602082108103610fbf57610fbe610f68565b5b50919050565b5f82825260208201905092915050565b7f4c696e6b206e6f7420666f756e640000000000000000000000000000000000005f82015250565b5f611009600e83610fc5565b915061101482610fd5565b602082019050919050565b5f6020820190508181035f83015261103681610ffd565b9050919050565b7f596f7520616c72656479206861732061636365737300000000000000000000005f82015250565b5f611071601583610fc5565b915061107c8261103d565b602082019050919050565b5f6020820190508181035f83015261109e81611065565b9050919050565b7f496e737566696369656e74207061796d656e74000000000000000000000000005f82015250565b5f6110d9601383610fc5565b91506110e4826110a5565b602082019050919050565b5f6020820190508181035f830152611106816110cd565b9050919050565b7f4e487b71000000000000000000000000000000000000000000000000000000005f52601160045260245ffd5b5f61114482610ca3565b915061114f83610ca3565b92508282039050818111156111675761116661110d565b5b92915050565b7f54686973206c696e6b496420616c726561642068617320616e206f776e6572005f82015250565b5f6111a1601f83610fc5565b91506111ac8261116d565b602082019050919050565b5f6020820190508181035f8301526111ce81611195565b9050919050565b7f46656520746f6f206c6f770000000000000000000000000000000000000000005f82015250565b5f611209600b83610fc5565b9150611214826111d5565b602082019050919050565b5f6020820190508181035f830152611236816111fd565b9050919050565b5f819050815f5260205f209050919050565b5f6020601f8301049050919050565b5f82821b905092915050565b5f600883026112997fffffffffffffffffffffffffffffffffffffffffffffffffffffffffffffffff8261125e565b6112a3868361125e565b95508019841693508086168417925050509392505050565b5f819050919050565b5f6112de6112d96112d484610ca3565b6112bb565b610ca3565b9050919050565b5f819050919050565b6112f7836112c4565b61130b611303826112e5565b84845461126a565b825550505050565b5f5f905090565b611322611313565b61132d8184846112ee565b505050565b5b81811015611350576113455f8261131a565b600181019050611333565b5050565b601f821115611395576113668161123d565b61136f8461124f565b8101602085101561137e578190505b61139261138a8561124f565b830182611332565b50505b505050565b5f82821c905092915050565b5f6113b55f198460080261139a565b1980831691505092915050565b5f6113cd83836113a6565b9150826002028217905092915050565b6113e682610d7c565b67ffffffffffffffff8111156113ff576113fe610a98565b5b6114098254610f95565b611414828285611354565b5f60209050601f831160018114611445575f8415611433578287015190505b61143d85826113c2565b8655506114a4565b601f1984166114538661123d565b5f5b8281101561147a57848901518255600182019150602085019450602081019050611455565b868310156114975784890151611493601f8916826113a6565b8355505b6001600288020188555050505b50505050505056fea2646970667358221220aa8973ce7b2af800597f46d9873fd6fc41f3c7f032e78e8d2c4a6b646299fb8064736f6c634300081e0033",
					"opcodes": "PUSH1 0x80 PUSH1 0x40 MSTORE PUSH1 0x1 PUSH0 SSTORE CALLVALUE DUP1 ISZERO PUSH1 0x12 JUMPI PUSH0 PUSH0 REVERT JUMPDEST POP PUSH2 0x14E2 DUP1 PUSH2 0x20 PUSH0 CODECOPY PUSH0 RETURN INVALID PUSH1 0x80 PUSH1 0x40 MSTORE PUSH1 0x4 CALLDATASIZE LT PUSH2 0x49 JUMPI PUSH0 CALLDATALOAD PUSH1 0xE0 SHR DUP1 PUSH4 0x13BD20E2 EQ PUSH2 0x4D JUMPI DUP1 PUSH4 0x3A4B4532 EQ PUSH2 0x89 JUMPI DUP1 PUSH4 0x429CAD86 EQ PUSH2 0xB3 JUMPI DUP1 PUSH4 0x7476452A EQ PUSH2 0xCF JUMPI DUP1 PUSH4 0xFC5F2B78 EQ PUSH2 0x10B JUMPI JUMPDEST PUSH0 PUSH0 REVERT JUMPDEST CALLVALUE DUP1 ISZERO PUSH2 0x58 JUMPI PUSH0 PUSH0 REVERT JUMPDEST POP PUSH2 0x73 PUSH1 0x4 DUP1 CALLDATASIZE SUB DUP2 ADD SWAP1 PUSH2 0x6E SWAP2 SWAP1 PUSH2 0xC16 JUMP JUMPDEST PUSH2 0x133 JUMP JUMPDEST PUSH1 0x40 MLOAD PUSH2 0x80 SWAP2 SWAP1 PUSH2 0xC8A JUMP JUMPDEST PUSH1 0x40 MLOAD DUP1 SWAP2 SUB SWAP1 RETURN JUMPDEST CALLVALUE DUP1 ISZERO PUSH2 0x94 JUMPI PUSH0 PUSH0 REVERT JUMPDEST POP PUSH2 0x9D PUSH2 0x175 JUMP JUMPDEST PUSH1 0x40 MLOAD PUSH2 0xAA SWAP2 SWAP1 PUSH2 0xCBB JUMP JUMPDEST PUSH1 0x40 MLOAD DUP1 SWAP2 SUB SWAP1 RETURN JUMPDEST PUSH2 0xCD PUSH1 0x4 DUP1 CALLDATASIZE SUB DUP2 ADD SWAP1 PUSH2 0xC8 SWAP2 SWAP1 PUSH2 0xD31 JUMP JUMPDEST PUSH2 0x17A JUMP JUMPDEST STOP JUMPDEST CALLVALUE DUP1 ISZERO PUSH2 0xDA JUMPI PUSH0 PUSH0 REVERT JUMPDEST POP PUSH2 0xF5 PUSH1 0x4 DUP1 CALLDATASIZE SUB DUP2 ADD SWAP1 PUSH2 0xF0 SWAP2 SWAP1 PUSH2 0xD31 JUMP JUMPDEST PUSH2 0x4C8 JUMP JUMPDEST PUSH1 0x40 MLOAD PUSH2 0x102 SWAP2 SWAP1 PUSH2 0xE47 JUMP JUMPDEST PUSH1 0x40 MLOAD DUP1 SWAP2 SUB SWAP1 RETURN JUMPDEST CALLVALUE DUP1 ISZERO PUSH2 0x116 JUMPI PUSH0 PUSH0 REVERT JUMPDEST POP PUSH2 0x131 PUSH1 0x4 DUP1 CALLDATASIZE SUB DUP2 ADD SWAP1 PUSH2 0x12C SWAP2 SWAP1 PUSH2 0xE91 JUMP JUMPDEST PUSH2 0x694 JUMP JUMPDEST STOP JUMPDEST PUSH1 0x2 DUP3 DUP1 MLOAD PUSH1 0x20 DUP2 ADD DUP3 ADD DUP1 MLOAD DUP5 DUP3 MSTORE PUSH1 0x20 DUP4 ADD PUSH1 0x20 DUP6 ADD KECCAK256 DUP2 DUP4 MSTORE DUP1 SWAP6 POP POP POP POP POP POP PUSH1 0x20 MSTORE DUP1 PUSH0 MSTORE PUSH1 0x40 PUSH0 KECCAK256 PUSH0 SWAP2 POP SWAP2 POP SWAP1 SLOAD SWAP1 PUSH2 0x100 EXP SWAP1 DIV PUSH1 0xFF AND DUP2 JUMP JUMPDEST PUSH0 SLOAD DUP2 JUMP JUMPDEST PUSH0 PUSH1 0x1 DUP4 DUP4 PUSH1 0x40 MLOAD PUSH2 0x18D SWAP3 SWAP2 SWAP1 PUSH2 0xF50 JUMP JUMPDEST SWAP1 DUP2 MSTORE PUSH1 0x20 ADD PUSH1 0x40 MLOAD DUP1 SWAP2 SUB SWAP1 KECCAK256 PUSH1 0x40 MLOAD DUP1 PUSH1 0x60 ADD PUSH1 0x40 MSTORE SWAP1 DUP2 PUSH0 DUP3 ADD DUP1 SLOAD PUSH2 0x1B5 SWAP1 PUSH2 0xF95 JUMP JUMPDEST DUP1 PUSH1 0x1F ADD PUSH1 0x20 DUP1 SWAP2 DIV MUL PUSH1 0x20 ADD PUSH1 0x40 MLOAD SWAP1 DUP2 ADD PUSH1 0x40 MSTORE DUP1 SWAP3 SWAP2 SWAP1 DUP2 DUP2 MSTORE PUSH1 0x20 ADD DUP3 DUP1 SLOAD PUSH2 0x1E1 SWAP1 PUSH2 0xF95 JUMP JUMPDEST DUP1 ISZERO PUSH2 0x22C JUMPI DUP1 PUSH1 0x1F LT PUSH2 0x203 JUMPI PUSH2 0x100 DUP1 DUP4 SLOAD DIV MUL DUP4 MSTORE SWAP2 PUSH1 0x20 ADD SWAP2 PUSH2 0x22C JUMP JUMPDEST DUP3 ADD SWAP2 SWAP1 PUSH0 MSTORE PUSH1 0x20 PUSH0 KECCAK256 SWAP1 JUMPDEST DUP2 SLOAD DUP2 MSTORE SWAP1 PUSH1 0x1 ADD SWAP1 PUSH1 0x20 ADD DUP1 DUP4 GT PUSH2 0x20F JUMPI DUP3 SWAP1 SUB PUSH1 0x1F AND DUP3 ADD SWAP2 JUMPDEST POP POP POP POP POP DUP2 MSTORE PUSH1 0x20 ADD PUSH1 0x1 DUP3 ADD PUSH0 SWAP1 SLOAD SWAP1 PUSH2 0x100 EXP SWAP1 DIV PUSH20 0xFFFFFFFFFFFFFFFFFFFFFFFFFFFFFFFFFFFFFFFF AND PUSH20 0xFFFFFFFFFFFFFFFFFFFFFFFFFFFFFFFFFFFFFFFF AND PUSH20 0xFFFFFFFFFFFFFFFFFFFFFFFFFFFFFFFFFFFFFFFF AND DUP2 MSTORE PUSH1 0x20 ADD PUSH1 0x2 DUP3 ADD SLOAD DUP2 MSTORE POP POP SWAP1 POP PUSH0 PUSH20 0xFFFFFFFFFFFFFFFFFFFFFFFFFFFFFFFFFFFFFFFF AND DUP2 PUSH1 0x20 ADD MLOAD PUSH20 0xFFFFFFFFFFFFFFFFFFFFFFFFFFFFFFFFFFFFFFFF AND SUB PUSH2 0x308 JUMPI PUSH1 0x40 MLOAD PUSH32 0x8C379A000000000000000000000000000000000000000000000000000000000 DUP2 MSTORE PUSH1 0x4 ADD PUSH2 0x2FF SWAP1 PUSH2 0x101F JUMP JUMPDEST PUSH1 0x40 MLOAD DUP1 SWAP2 SUB SWAP1 REVERT JUMPDEST PUSH0 ISZERO ISZERO PUSH1 0x2 DUP5 DUP5 PUSH1 0x40 MLOAD PUSH2 0x31D SWAP3 SWAP2 SWAP1 PUSH2 0xF50 JUMP JUMPDEST SWAP1 DUP2 MSTORE PUSH1 0x20 ADD PUSH1 0x40 MLOAD DUP1 SWAP2 SUB SWAP1 KECCAK256 PUSH0 CALLER PUSH20 0xFFFFFFFFFFFFFFFFFFFFFFFFFFFFFFFFFFFFFFFF AND PUSH20 0xFFFFFFFFFFFFFFFFFFFFFFFFFFFFFFFFFFFFFFFF AND DUP2 MSTORE PUSH1 0x20 ADD SWAP1 DUP2 MSTORE PUSH1 0x20 ADD PUSH0 KECCAK256 PUSH0 SWAP1 SLOAD SWAP1 PUSH2 0x100 EXP SWAP1 DIV PUSH1 0xFF AND ISZERO ISZERO EQ PUSH2 0x3B5 JUMPI PUSH1 0x40 MLOAD PUSH32 0x8C379A000000000000000000000000000000000000000000000000000000000 DUP2 MSTORE PUSH1 0x4 ADD PUSH2 0x3AC SWAP1 PUSH2 0x1087 JUMP JUMPDEST PUSH1 0x40 MLOAD DUP1 SWAP2 SUB SWAP1 REVERT JUMPDEST DUP1 PUSH1 0x40 ADD MLOAD CALLVALUE LT ISZERO PUSH2 0x3FC JUMPI PUSH1 0x40 MLOAD PUSH32 0x8C379A000000000000000000000000000000000000000000000000000000000 DUP2 MSTORE PUSH1 0x4 ADD PUSH2 0x3F3 SWAP1 PUSH2 0x10EF JUMP JUMPDEST PUSH1 0x40 MLOAD DUP1 SWAP2 SUB SWAP1 REVERT JUMPDEST PUSH1 0x1 PUSH1 0x2 DUP5 DUP5 PUSH1 0x40 MLOAD PUSH2 0x410 SWAP3 SWAP2 SWAP1 PUSH2 0xF50 JUMP JUMPDEST SWAP1 DUP2 MSTORE PUSH1 0x20 ADD PUSH1 0x40 MLOAD DUP1 SWAP2 SUB SWAP1 KECCAK256 PUSH0 CALLER PUSH20 0xFFFFFFFFFFFFFFFFFFFFFFFFFFFFFFFFFFFFFFFF AND PUSH20 0xFFFFFFFFFFFFFFFFFFFFFFFFFFFFFFFFFFFFFFFF AND DUP2 MSTORE PUSH1 0x20 ADD SWAP1 DUP2 MSTORE PUSH1 0x20 ADD PUSH0 KECCAK256 PUSH0 PUSH2 0x100 EXP DUP2 SLOAD DUP2 PUSH1 0xFF MUL NOT AND SWAP1 DUP4 ISZERO ISZERO MUL OR SWAP1 SSTORE POP DUP1 PUSH1 0x20 ADD MLOAD PUSH20 0xFFFFFFFFFFFFFFFFFFFFFFFFFFFFFFFFFFFFFFFF AND PUSH2 0x8FC PUSH0 SLOAD CALLVALUE PUSH2 0x49A SWAP2 SWAP1 PUSH2 0x113A JUMP JUMPDEST SWAP1 DUP2 ISZERO MUL SWAP1 PUSH1 0x40 MLOAD PUSH0 PUSH1 0x40 MLOAD DUP1 DUP4 SUB DUP2 DUP6 DUP9 DUP9 CALL SWAP4 POP POP POP POP ISZERO DUP1 ISZERO PUSH2 0x4C2 JUMPI RETURNDATASIZE PUSH0 PUSH0 RETURNDATACOPY RETURNDATASIZE PUSH0 REVERT JUMPDEST POP POP POP POP JUMP JUMPDEST PUSH2 0x4D0 PUSH2 0xA3A JUMP JUMPDEST PUSH0 PUSH1 0x1 DUP5 DUP5 PUSH1 0x40 MLOAD PUSH2 0x4E3 SWAP3 SWAP2 SWAP1 PUSH2 0xF50 JUMP JUMPDEST SWAP1 DUP2 MSTORE PUSH1 0x20 ADD PUSH1 0x40 MLOAD DUP1 SWAP2 SUB SWAP1 KECCAK256 PUSH1 0x40 MLOAD DUP1 PUSH1 0x60 ADD PUSH1 0x40 MSTORE SWAP1 DUP2 PUSH0 DUP3 ADD DUP1 SLOAD PUSH2 0x50B SWAP1 PUSH2 0xF95 JUMP JUMPDEST DUP1 PUSH1 0x1F ADD PUSH1 0x20 DUP1 SWAP2 DIV MUL PUSH1 0x20 ADD PUSH1 0x40 MLOAD SWAP1 DUP2 ADD PUSH1 0x40 MSTORE DUP1 SWAP3 SWAP2 SWAP1 DUP2 DUP2 MSTORE PUSH1 0x20 ADD DUP3 DUP1 SLOAD PUSH2 0x537 SWAP1 PUSH2 0xF95 JUMP JUMPDEST DUP1 ISZERO PUSH2 0x582 JUMPI DUP1 PUSH1 0x1F LT PUSH2 0x559 JUMPI PUSH2 0x100 DUP1 DUP4 SLOAD DIV MUL DUP4 MSTORE SWAP2 PUSH1 0x20 ADD SWAP2 PUSH2 0x582 JUMP JUMPDEST DUP3 ADD SWAP2 SWAP1 PUSH0 MSTORE PUSH1 0x20 PUSH0 KECCAK256 SWAP1 JUMPDEST DUP2 SLOAD DUP2 MSTORE SWAP1 PUSH1 0x1 ADD SWAP1 PUSH1 0x20 ADD DUP1 DUP4 GT PUSH2 0x565 JUMPI DUP3 SWAP1 SUB PUSH1 0x1F AND DUP3 ADD SWAP2 JUMPDEST POP POP POP POP POP DUP2 MSTORE PUSH1 0x20 ADD PUSH1 0x1 DUP3 ADD PUSH0 SWAP1 SLOAD SWAP1 PUSH2 0x100 EXP SWAP1 DIV PUSH20 0xFFFFFFFFFFFFFFFFFFFFFFFFFFFFFFFFFFFFFFFF AND PUSH20 0xFFFFFFFFFFFFFFFFFFFFFFFFFFFFFFFFFFFFFFFF AND PUSH20 0xFFFFFFFFFFFFFFFFFFFFFFFFFFFFFFFFFFFFFFFF AND DUP2 MSTORE PUSH1 0x20 ADD PUSH1 0x2 DUP3 ADD SLOAD DUP2 MSTORE POP POP SWAP1 POP PUSH0 DUP2 PUSH1 0x40 ADD MLOAD SUB PUSH2 0x600 JUMPI DUP1 SWAP2 POP POP PUSH2 0x68E JUMP JUMPDEST PUSH0 ISZERO ISZERO PUSH1 0x2 DUP6 DUP6 PUSH1 0x40 MLOAD PUSH2 0x615 SWAP3 SWAP2 SWAP1 PUSH2 0xF50 JUMP JUMPDEST SWAP1 DUP2 MSTORE PUSH1 0x20 ADD PUSH1 0x40 MLOAD DUP1 SWAP2 SUB SWAP1 KECCAK256 PUSH0 CALLER PUSH20 0xFFFFFFFFFFFFFFFFFFFFFFFFFFFFFFFFFFFFFFFF AND PUSH20 0xFFFFFFFFFFFFFFFFFFFFFFFFFFFFFFFFFFFFFFFF AND DUP2 MSTORE PUSH1 0x20 ADD SWAP1 DUP2 MSTORE PUSH1 0x20 ADD PUSH0 KECCAK256 PUSH0 SWAP1 SLOAD SWAP1 PUSH2 0x100 EXP SWAP1 DIV PUSH1 0xFF AND ISZERO ISZERO SUB PUSH2 0x689 JUMPI PUSH1 0x40 MLOAD DUP1 PUSH1 0x20 ADD PUSH1 0x40 MSTORE DUP1 PUSH0 DUP2 MSTORE POP DUP2 PUSH0 ADD DUP2 SWAP1 MSTORE POP JUMPDEST DUP1 SWAP2 POP POP JUMPDEST SWAP3 SWAP2 POP POP JUMP JUMPDEST PUSH0 PUSH1 0x1 DUP5 DUP5 PUSH1 0x40 MLOAD PUSH2 0x6A7 SWAP3 SWAP2 SWAP1 PUSH2 0xF50 JUMP JUMPDEST SWAP1 DUP2 MSTORE PUSH1 0x20 ADD PUSH1 0x40 MLOAD DUP1 SWAP2 SUB SWAP1 KECCAK256 PUSH1 0x40 MLOAD DUP1 PUSH1 0x60 ADD PUSH1 0x40 MSTORE SWAP1 DUP2 PUSH0 DUP3 ADD DUP1 SLOAD PUSH2 0x6CF SWAP1 PUSH2 0xF95 JUMP JUMPDEST DUP1 PUSH1 0x1F ADD PUSH1 0x20 DUP1 SWAP2 DIV MUL PUSH1 0x20 ADD PUSH1 0x40 MLOAD SWAP1 DUP2 ADD PUSH1 0x40 MSTORE DUP1 SWAP3 SWAP2 SWAP1 DUP2 DUP2 MSTORE PUSH1 0x20 ADD DUP3 DUP1 SLOAD PUSH2 0x6FB SWAP1 PUSH2 0xF95 JUMP JUMPDEST DUP1 ISZERO PUSH2 0x746 JUMPI DUP1 PUSH1 0x1F LT PUSH2 0x71D JUMPI PUSH2 0x100 DUP1 DUP4 SLOAD DIV MUL DUP4 MSTORE SWAP2 PUSH1 0x20 ADD SWAP2 PUSH2 0x746 JUMP JUMPDEST DUP3 ADD SWAP2 SWAP1 PUSH0 MSTORE PUSH1 0x20 PUSH0 KECCAK256 SWAP1 JUMPDEST DUP2 SLOAD DUP2 MSTORE SWAP1 PUSH1 0x1 ADD SWAP1 PUSH1 0x20 ADD DUP1 DUP4 GT PUSH2 0x729 JUMPI DUP3 SWAP1 SUB PUSH1 0x1F AND DUP3 ADD SWAP2 JUMPDEST POP POP POP POP POP DUP2 MSTORE PUSH1 0x20 ADD PUSH1 0x1 DUP3 ADD PUSH0 SWAP1 SLOAD SWAP1 PUSH2 0x100 EXP SWAP1 DIV PUSH20 0xFFFFFFFFFFFFFFFFFFFFFFFFFFFFFFFFFFFFFFFF AND PUSH20 0xFFFFFFFFFFFFFFFFFFFFFFFFFFFFFFFFFFFFFFFF AND PUSH20 0xFFFFFFFFFFFFFFFFFFFFFFFFFFFFFFFFFFFFFFFF AND DUP2 MSTORE PUSH1 0x20 ADD PUSH1 0x2 DUP3 ADD SLOAD DUP2 MSTORE POP POP SWAP1 POP PUSH0 PUSH20 0xFFFFFFFFFFFFFFFFFFFFFFFFFFFFFFFFFFFFFFFF AND DUP2 PUSH1 0x20 ADD MLOAD PUSH20 0xFFFFFFFFFFFFFFFFFFFFFFFFFFFFFFFFFFFFFFFF AND EQ DUP1 PUSH2 0x81D JUMPI POP CALLER PUSH20 0xFFFFFFFFFFFFFFFFFFFFFFFFFFFFFFFFFFFFFFFF AND DUP2 PUSH1 0x20 ADD MLOAD PUSH20 0xFFFFFFFFFFFFFFFFFFFFFFFFFFFFFFFFFFFFFFFF AND EQ JUMPDEST PUSH2 0x85C JUMPI PUSH1 0x40 MLOAD PUSH32 0x8C379A000000000000000000000000000000000000000000000000000000000 DUP2 MSTORE PUSH1 0x4 ADD PUSH2 0x853 SWAP1 PUSH2 0x11B7 JUMP JUMPDEST PUSH1 0x40 MLOAD DUP1 SWAP2 SUB SWAP1 REVERT JUMPDEST PUSH0 DUP3 EQ DUP1 PUSH2 0x86B JUMPI POP PUSH0 SLOAD DUP3 LT ISZERO JUMPDEST PUSH2 0x8AA JUMPI PUSH1 0x40 MLOAD PUSH32 0x8C379A000000000000000000000000000000000000000000000000000000000 DUP2 MSTORE PUSH1 0x4 ADD PUSH2 0x8A1 SWAP1 PUSH2 0x121F JUMP JUMPDEST PUSH1 0x40 MLOAD DUP1 SWAP2 SUB SWAP1 REVERT JUMPDEST DUP6 DUP6 DUP1 DUP1 PUSH1 0x1F ADD PUSH1 0x20 DUP1 SWAP2 DIV MUL PUSH1 0x20 ADD PUSH1 0x40 MLOAD SWAP1 DUP2 ADD PUSH1 0x40 MSTORE DUP1 SWAP4 SWAP3 SWAP2 SWAP1 DUP2 DUP2 MSTORE PUSH1 0x20 ADD DUP4 DUP4 DUP1 DUP3 DUP5 CALLDATACOPY PUSH0 DUP2 DUP5 ADD MSTORE PUSH1 0x1F NOT PUSH1 0x1F DUP3 ADD AND SWAP1 POP DUP1 DUP4 ADD SWAP3 POP POP POP POP POP POP POP DUP2 PUSH0 ADD DUP2 SWAP1 MSTORE POP DUP2 DUP2 PUSH1 0x40 ADD DUP2 DUP2 MSTORE POP POP CALLER DUP2 PUSH1 0x20 ADD SWAP1 PUSH20 0xFFFFFFFFFFFFFFFFFFFFFFFFFFFFFFFFFFFFFFFF AND SWAP1 DUP2 PUSH20 0xFFFFFFFFFFFFFFFFFFFFFFFFFFFFFFFFFFFFFFFF AND DUP2 MSTORE POP POP DUP1 PUSH1 0x1 DUP6 DUP6 PUSH1 0x40 MLOAD PUSH2 0x94A SWAP3 SWAP2 SWAP1 PUSH2 0xF50 JUMP JUMPDEST SWAP1 DUP2 MSTORE PUSH1 0x20 ADD PUSH1 0x40 MLOAD DUP1 SWAP2 SUB SWAP1 KECCAK256 PUSH0 DUP3 ADD MLOAD DUP2 PUSH0 ADD SWAP1 DUP2 PUSH2 0x96B SWAP2 SWAP1 PUSH2 0x13DD JUMP JUMPDEST POP PUSH1 0x20 DUP3 ADD MLOAD DUP2 PUSH1 0x1 ADD PUSH0 PUSH2 0x100 EXP DUP2 SLOAD DUP2 PUSH20 0xFFFFFFFFFFFFFFFFFFFFFFFFFFFFFFFFFFFFFFFF MUL NOT AND SWAP1 DUP4 PUSH20 0xFFFFFFFFFFFFFFFFFFFFFFFFFFFFFFFFFFFFFFFF AND MUL OR SWAP1 SSTORE POP PUSH1 0x40 DUP3 ADD MLOAD DUP2 PUSH1 0x2 ADD SSTORE SWAP1 POP POP PUSH1 0x1 PUSH1 0x2 DUP6 DUP6 PUSH1 0x40 MLOAD PUSH2 0x9D3 SWAP3 SWAP2 SWAP1 PUSH2 0xF50 JUMP JUMPDEST SWAP1 DUP2 MSTORE PUSH1 0x20 ADD PUSH1 0x40 MLOAD DUP1 SWAP2 SUB SWAP1 KECCAK256 PUSH0 CALLER PUSH20 0xFFFFFFFFFFFFFFFFFFFFFFFFFFFFFFFFFFFFFFFF AND PUSH20 0xFFFFFFFFFFFFFFFFFFFFFFFFFFFFFFFFFFFFFFFF AND DUP2 MSTORE PUSH1 0x20 ADD SWAP1 DUP2 MSTORE PUSH1 0x20 ADD PUSH0 KECCAK256 PUSH0 PUSH2 0x100 EXP DUP2 SLOAD DUP2 PUSH1 0xFF MUL NOT AND SWAP1 DUP4 ISZERO ISZERO MUL OR SWAP1 SSTORE POP POP POP POP POP POP POP JUMP JUMPDEST PUSH1 0x40 MLOAD DUP1 PUSH1 0x60 ADD PUSH1 0x40 MSTORE DUP1 PUSH1 0x60 DUP2 MSTORE PUSH1 0x20 ADD PUSH0 PUSH20 0xFFFFFFFFFFFFFFFFFFFFFFFFFFFFFFFFFFFFFFFF AND DUP2 MSTORE PUSH1 0x20 ADD PUSH0 DUP2 MSTORE POP SWAP1 JUMP JUMPDEST PUSH0 PUSH1 0x40 MLOAD SWAP1 POP SWAP1 JUMP JUMPDEST PUSH0 PUSH0 REVERT JUMPDEST PUSH0 PUSH0 REVERT JUMPDEST PUSH0 PUSH0 REVERT JUMPDEST PUSH0 PUSH0 REVERT JUMPDEST PUSH0 PUSH1 0x1F NOT PUSH1 0x1F DUP4 ADD AND SWAP1 POP SWAP2 SWAP1 POP JUMP JUMPDEST PUSH32 0x4E487B7100000000000000000000000000000000000000000000000000000000 PUSH0 MSTORE PUSH1 0x41 PUSH1 0x4 MSTORE PUSH1 0x24 PUSH0 REVERT JUMPDEST PUSH2 0xACE DUP3 PUSH2 0xA88 JUMP JUMPDEST DUP2 ADD DUP2 DUP2 LT PUSH8 0xFFFFFFFFFFFFFFFF DUP3 GT OR ISZERO PUSH2 0xAED JUMPI PUSH2 0xAEC PUSH2 0xA98 JUMP JUMPDEST JUMPDEST DUP1 PUSH1 0x40 MSTORE POP POP POP JUMP JUMPDEST PUSH0 PUSH2 0xAFF PUSH2 0xA6F JUMP JUMPDEST SWAP1 POP PUSH2 0xB0B DUP3 DUP3 PUSH2 0xAC5 JUMP JUMPDEST SWAP2 SWAP1 POP JUMP JUMPDEST PUSH0 PUSH8 0xFFFFFFFFFFFFFFFF DUP3 GT ISZERO PUSH2 0xB2A JUMPI PUSH2 0xB29 PUSH2 0xA98 JUMP JUMPDEST JUMPDEST PUSH2 0xB33 DUP3 PUSH2 0xA88 JUMP JUMPDEST SWAP1 POP PUSH1 0x20 DUP2 ADD SWAP1 POP SWAP2 SWAP1 POP JUMP JUMPDEST DUP3 DUP2 DUP4 CALLDATACOPY PUSH0 DUP4 DUP4 ADD MSTORE POP POP POP JUMP JUMPDEST PUSH0 PUSH2 0xB60 PUSH2 0xB5B DUP5 PUSH2 0xB10 JUMP JUMPDEST PUSH2 0xAF6 JUMP JUMPDEST SWAP1 POP DUP3 DUP2 MSTORE PUSH1 0x20 DUP2 ADD DUP5 DUP5 DUP5 ADD GT ISZERO PUSH2 0xB7C JUMPI PUSH2 0xB7B PUSH2 0xA84 JUMP JUMPDEST JUMPDEST PUSH2 0xB87 DUP5 DUP3 DUP6 PUSH2 0xB40 JUMP JUMPDEST POP SWAP4 SWAP3 POP POP POP JUMP JUMPDEST PUSH0 DUP3 PUSH1 0x1F DUP4 ADD SLT PUSH2 0xBA3 JUMPI PUSH2 0xBA2 PUSH2 0xA80 JUMP JUMPDEST JUMPDEST DUP2 CALLDATALOAD PUSH2 0xBB3 DUP5 DUP3 PUSH1 0x20 DUP7 ADD PUSH2 0xB4E JUMP JUMPDEST SWAP2 POP POP SWAP3 SWAP2 POP POP JUMP JUMPDEST PUSH0 PUSH20 0xFFFFFFFFFFFFFFFFFFFFFFFFFFFFFFFFFFFFFFFF DUP3 AND SWAP1 POP SWAP2 SWAP1 POP JUMP JUMPDEST PUSH0 PUSH2 0xBE5 DUP3 PUSH2 0xBBC JUMP JUMPDEST SWAP1 POP SWAP2 SWAP1 POP JUMP JUMPDEST PUSH2 0xBF5 DUP2 PUSH2 0xBDB JUMP JUMPDEST DUP2 EQ PUSH2 0xBFF JUMPI PUSH0 PUSH0 REVERT JUMPDEST POP JUMP JUMPDEST PUSH0 DUP2 CALLDATALOAD SWAP1 POP PUSH2 0xC10 DUP2 PUSH2 0xBEC JUMP JUMPDEST SWAP3 SWAP2 POP POP JUMP JUMPDEST PUSH0 PUSH0 PUSH1 0x40 DUP4 DUP6 SUB SLT ISZERO PUSH2 0xC2C JUMPI PUSH2 0xC2B PUSH2 0xA78 JUMP JUMPDEST JUMPDEST PUSH0 DUP4 ADD CALLDATALOAD PUSH8 0xFFFFFFFFFFFFFFFF DUP2 GT ISZERO PUSH2 0xC49 JUMPI PUSH2 0xC48 PUSH2 0xA7C JUMP JUMPDEST JUMPDEST PUSH2 0xC55 DUP6 DUP3 DUP7 ADD PUSH2 0xB8F JUMP JUMPDEST SWAP3 POP POP PUSH1 0x20 PUSH2 0xC66 DUP6 DUP3 DUP7 ADD PUSH2 0xC02 JUMP JUMPDEST SWAP2 POP POP SWAP3 POP SWAP3 SWAP1 POP JUMP JUMPDEST PUSH0 DUP2 ISZERO ISZERO SWAP1 POP SWAP2 SWAP1 POP JUMP JUMPDEST PUSH2 0xC84 DUP2 PUSH2 0xC70 JUMP JUMPDEST DUP3 MSTORE POP POP JUMP JUMPDEST PUSH0 PUSH1 0x20 DUP3 ADD SWAP1 POP PUSH2 0xC9D PUSH0 DUP4 ADD DUP5 PUSH2 0xC7B JUMP JUMPDEST SWAP3 SWAP2 POP POP JUMP JUMPDEST PUSH0 DUP2 SWAP1 POP SWAP2 SWAP1 POP JUMP JUMPDEST PUSH2 0xCB5 DUP2 PUSH2 0xCA3 JUMP JUMPDEST DUP3 MSTORE POP POP JUMP JUMPDEST PUSH0 PUSH1 0x20 DUP3 ADD SWAP1 POP PUSH2 0xCCE PUSH0 DUP4 ADD DUP5 PUSH2 0xCAC JUMP JUMPDEST SWAP3 SWAP2 POP POP JUMP JUMPDEST PUSH0 PUSH0 REVERT JUMPDEST PUSH0 PUSH0 REVERT JUMPDEST PUSH0 PUSH0 DUP4 PUSH1 0x1F DUP5 ADD SLT PUSH2 0xCF1 JUMPI PUSH2 0xCF0 PUSH2 0xA80 JUMP JUMPDEST JUMPDEST DUP3 CALLDATALOAD SWAP1 POP PUSH8 0xFFFFFFFFFFFFFFFF DUP2 GT ISZERO PUSH2 0xD0E JUMPI PUSH2 0xD0D PUSH2 0xCD4 JUMP JUMPDEST JUMPDEST PUSH1 0x20 DUP4 ADD SWAP2 POP DUP4 PUSH1 0x1 DUP3 MUL DUP4 ADD GT ISZERO PUSH2 0xD2A JUMPI PUSH2 0xD29 PUSH2 0xCD8 JUMP JUMPDEST JUMPDEST SWAP3 POP SWAP3 SWAP1 POP JUMP JUMPDEST PUSH0 PUSH0 PUSH1 0x20 DUP4 DUP6 SUB SLT ISZERO PUSH2 0xD47 JUMPI PUSH2 0xD46 PUSH2 0xA78 JUMP JUMPDEST JUMPDEST PUSH0 DUP4 ADD CALLDATALOAD PUSH8 0xFFFFFFFFFFFFFFFF DUP2 GT ISZERO PUSH2 0xD64 JUMPI PUSH2 0xD63 PUSH2 0xA7C JUMP JUMPDEST JUMPDEST PUSH2 0xD70 DUP6 DUP3 DUP7 ADD PUSH2 0xCDC JUMP JUMPDEST SWAP3 POP SWAP3 POP POP SWAP3 POP SWAP3 SWAP1 POP JUMP JUMPDEST PUSH0 DUP2 MLOAD SWAP1 POP SWAP2 SWAP1 POP JUMP JUMPDEST PUSH0 DUP3 DUP3 MSTORE PUSH1 0x20 DUP3 ADD SWAP1 POP SWAP3 SWAP2 POP POP JUMP JUMPDEST DUP3 DUP2 DUP4 MCOPY PUSH0 DUP4 DUP4 ADD MSTORE POP POP POP JUMP JUMPDEST PUSH0 PUSH2 0xDAE DUP3 PUSH2 0xD7C JUMP JUMPDEST PUSH2 0xDB8 DUP2 DUP6 PUSH2 0xD86 JUMP JUMPDEST SWAP4 POP PUSH2 0xDC8 DUP2 DUP6 PUSH1 0x20 DUP7 ADD PUSH2 0xD96 JUMP JUMPDEST PUSH2 0xDD1 DUP2 PUSH2 0xA88 JUMP JUMPDEST DUP5 ADD SWAP2 POP POP SWAP3 SWAP2 POP POP JUMP JUMPDEST PUSH2 0xDE5 DUP2 PUSH2 0xBDB JUMP JUMPDEST DUP3 MSTORE POP POP JUMP JUMPDEST PUSH2 0xDF4 DUP2 PUSH2 0xCA3 JUMP JUMPDEST DUP3 MSTORE POP POP JUMP JUMPDEST PUSH0 PUSH1 0x60 DUP4 ADD PUSH0 DUP4 ADD MLOAD DUP5 DUP3 SUB PUSH0 DUP7 ADD MSTORE PUSH2 0xE14 DUP3 DUP3 PUSH2 0xDA4 JUMP JUMPDEST SWAP2 POP POP PUSH1 0x20 DUP4 ADD MLOAD PUSH2 0xE29 PUSH1 0x20 DUP7 ADD DUP3 PUSH2 0xDDC JUMP JUMPDEST POP PUSH1 0x40 DUP4 ADD MLOAD PUSH2 0xE3C PUSH1 0x40 DUP7 ADD DUP3 PUSH2 0xDEB JUMP JUMPDEST POP DUP1 SWAP2 POP POP SWAP3 SWAP2 POP POP JUMP JUMPDEST PUSH0 PUSH1 0x20 DUP3 ADD SWAP1 POP DUP2 DUP2 SUB PUSH0 DUP4 ADD MSTORE PUSH2 0xE5F DUP2 DUP5 PUSH2 0xDFA JUMP JUMPDEST SWAP1 POP SWAP3 SWAP2 POP POP JUMP JUMPDEST PUSH2 0xE70 DUP2 PUSH2 0xCA3 JUMP JUMPDEST DUP2 EQ PUSH2 0xE7A JUMPI PUSH0 PUSH0 REVERT JUMPDEST POP JUMP JUMPDEST PUSH0 DUP2 CALLDATALOAD SWAP1 POP PUSH2 0xE8B DUP2 PUSH2 0xE67 JUMP JUMPDEST SWAP3 SWAP2 POP POP JUMP JUMPDEST PUSH0 PUSH0 PUSH0 PUSH0 PUSH0 PUSH1 0x60 DUP7 DUP9 SUB SLT ISZERO PUSH2 0xEAA JUMPI PUSH2 0xEA9 PUSH2 0xA78 JUMP JUMPDEST JUMPDEST PUSH0 DUP7 ADD CALLDATALOAD PUSH8 0xFFFFFFFFFFFFFFFF DUP2 GT ISZERO PUSH2 0xEC7 JUMPI PUSH2 0xEC6 PUSH2 0xA7C JUMP JUMPDEST JUMPDEST PUSH2 0xED3 DUP9 DUP3 DUP10 ADD PUSH2 0xCDC JUMP JUMPDEST SWAP6 POP SWAP6 POP POP PUSH1 0x20 DUP7 ADD CALLDATALOAD PUSH8 0xFFFFFFFFFFFFFFFF DUP2 GT ISZERO PUSH2 0xEF6 JUMPI PUSH2 0xEF5 PUSH2 0xA7C JUMP JUMPDEST JUMPDEST PUSH2 0xF02 DUP9 DUP3 DUP10 ADD PUSH2 0xCDC JUMP JUMPDEST SWAP4 POP SWAP4 POP POP PUSH1 0x40 PUSH2 0xF15 DUP9 DUP3 DUP10 ADD PUSH2 0xE7D JUMP JUMPDEST SWAP2 POP POP SWAP3 SWAP6 POP SWAP3 SWAP6 SWAP1 SWAP4 POP JUMP JUMPDEST PUSH0 DUP2 SWAP1 POP SWAP3 SWAP2 POP POP JUMP JUMPDEST PUSH0 PUSH2 0xF37 DUP4 DUP6 PUSH2 0xF22 JUMP JUMPDEST SWAP4 POP PUSH2 0xF44 DUP4 DUP6 DUP5 PUSH2 0xB40 JUMP JUMPDEST DUP3 DUP5 ADD SWAP1 POP SWAP4 SWAP3 POP POP POP JUMP JUMPDEST PUSH0 PUSH2 0xF5C DUP3 DUP5 DUP7 PUSH2 0xF2C JUMP JUMPDEST SWAP2 POP DUP2 SWAP1 POP SWAP4 SWAP3 POP POP POP JUMP JUMPDEST PUSH32 0x4E487B7100000000000000000000000000000000000000000000000000000000 PUSH0 MSTORE PUSH1 0x22 PUSH1 0x4 MSTORE PUSH1 0x24 PUSH0 REVERT JUMPDEST PUSH0 PUSH1 0x2 DUP3 DIV SWAP1 POP PUSH1 0x1 DUP3 AND DUP1 PUSH2 0xFAC JUMPI PUSH1 0x7F DUP3 AND SWAP2 POP JUMPDEST PUSH1 0x20 DUP3 LT DUP2 SUB PUSH2 0xFBF JUMPI PUSH2 0xFBE PUSH2 0xF68 JUMP JUMPDEST JUMPDEST POP SWAP2 SWAP1 POP JUMP JUMPDEST PUSH0 DUP3 DUP3 MSTORE PUSH1 0x20 DUP3 ADD SWAP1 POP SWAP3 SWAP2 POP POP JUMP JUMPDEST PUSH32 0x4C696E6B206E6F7420666F756E64000000000000000000000000000000000000 PUSH0 DUP3 ADD MSTORE POP JUMP JUMPDEST PUSH0 PUSH2 0x1009 PUSH1 0xE DUP4 PUSH2 0xFC5 JUMP JUMPDEST SWAP2 POP PUSH2 0x1014 DUP3 PUSH2 0xFD5 JUMP JUMPDEST PUSH1 0x20 DUP3 ADD SWAP1 POP SWAP2 SWAP1 POP JUMP JUMPDEST PUSH0 PUSH1 0x20 DUP3 ADD SWAP1 POP DUP2 DUP2 SUB PUSH0 DUP4 ADD MSTORE PUSH2 0x1036 DUP2 PUSH2 0xFFD JUMP JUMPDEST SWAP1 POP SWAP2 SWAP1 POP JUMP JUMPDEST PUSH32 0x596F7520616C7265647920686173206163636573730000000000000000000000 PUSH0 DUP3 ADD MSTORE POP JUMP JUMPDEST PUSH0 PUSH2 0x1071 PUSH1 0x15 DUP4 PUSH2 0xFC5 JUMP JUMPDEST SWAP2 POP PUSH2 0x107C DUP3 PUSH2 0x103D JUMP JUMPDEST PUSH1 0x20 DUP3 ADD SWAP1 POP SWAP2 SWAP1 POP JUMP JUMPDEST PUSH0 PUSH1 0x20 DUP3 ADD SWAP1 POP DUP2 DUP2 SUB PUSH0 DUP4 ADD MSTORE PUSH2 0x109E DUP2 PUSH2 0x1065 JUMP JUMPDEST SWAP1 POP SWAP2 SWAP1 POP JUMP JUMPDEST PUSH32 0x496E737566696369656E74207061796D656E7400000000000000000000000000 PUSH0 DUP3 ADD MSTORE POP JUMP JUMPDEST PUSH0 PUSH2 0x10D9 PUSH1 0x13 DUP4 PUSH2 0xFC5 JUMP JUMPDEST SWAP2 POP PUSH2 0x10E4 DUP3 PUSH2 0x10A5 JUMP JUMPDEST PUSH1 0x20 DUP3 ADD SWAP1 POP SWAP2 SWAP1 POP JUMP JUMPDEST PUSH0 PUSH1 0x20 DUP3 ADD SWAP1 POP DUP2 DUP2 SUB PUSH0 DUP4 ADD MSTORE PUSH2 0x1106 DUP2 PUSH2 0x10CD JUMP JUMPDEST SWAP1 POP SWAP2 SWAP1 POP JUMP JUMPDEST PUSH32 0x4E487B7100000000000000000000000000000000000000000000000000000000 PUSH0 MSTORE PUSH1 0x11 PUSH1 0x4 MSTORE PUSH1 0x24 PUSH0 REVERT JUMPDEST PUSH0 PUSH2 0x1144 DUP3 PUSH2 0xCA3 JUMP JUMPDEST SWAP2 POP PUSH2 0x114F DUP4 PUSH2 0xCA3 JUMP JUMPDEST SWAP3 POP DUP3 DUP3 SUB SWAP1 POP DUP2 DUP2 GT ISZERO PUSH2 0x1167 JUMPI PUSH2 0x1166 PUSH2 0x110D JUMP JUMPDEST JUMPDEST SWAP3 SWAP2 POP POP JUMP JUMPDEST PUSH32 0x54686973206C696E6B496420616C726561642068617320616E206F776E657200 PUSH0 DUP3 ADD MSTORE POP JUMP JUMPDEST PUSH0 PUSH2 0x11A1 PUSH1 0x1F DUP4 PUSH2 0xFC5 JUMP JUMPDEST SWAP2 POP PUSH2 0x11AC DUP3 PUSH2 0x116D JUMP JUMPDEST PUSH1 0x20 DUP3 ADD SWAP1 POP SWAP2 SWAP1 POP JUMP JUMPDEST PUSH0 PUSH1 0x20 DUP3 ADD SWAP1 POP DUP2 DUP2 SUB PUSH0 DUP4 ADD MSTORE PUSH2 0x11CE DUP2 PUSH2 0x1195 JUMP JUMPDEST SWAP1 POP SWAP2 SWAP1 POP JUMP JUMPDEST PUSH32 0x46656520746F6F206C6F77000000000000000000000000000000000000000000 PUSH0 DUP3 ADD MSTORE POP JUMP JUMPDEST PUSH0 PUSH2 0x1209 PUSH1 0xB DUP4 PUSH2 0xFC5 JUMP JUMPDEST SWAP2 POP PUSH2 0x1214 DUP3 PUSH2 0x11D5 JUMP JUMPDEST PUSH1 0x20 DUP3 ADD SWAP1 POP SWAP2 SWAP1 POP JUMP JUMPDEST PUSH0 PUSH1 0x20 DUP3 ADD SWAP1 POP DUP2 DUP2 SUB PUSH0 DUP4 ADD MSTORE PUSH2 0x1236 DUP2 PUSH2 0x11FD JUMP JUMPDEST SWAP1 POP SWAP2 SWAP1 POP JUMP JUMPDEST PUSH0 DUP2 SWAP1 POP DUP2 PUSH0 MSTORE PUSH1 0x20 PUSH0 KECCAK256 SWAP1 POP SWAP2 SWAP1 POP JUMP JUMPDEST PUSH0 PUSH1 0x20 PUSH1 0x1F DUP4 ADD DIV SWAP1 POP SWAP2 SWAP1 POP JUMP JUMPDEST PUSH0 DUP3 DUP3 SHL SWAP1 POP SWAP3 SWAP2 POP POP JUMP JUMPDEST PUSH0 PUSH1 0x8 DUP4 MUL PUSH2 0x1299 PUSH32 0xFFFFFFFFFFFFFFFFFFFFFFFFFFFFFFFFFFFFFFFFFFFFFFFFFFFFFFFFFFFFFFFF DUP3 PUSH2 0x125E JUMP JUMPDEST PUSH2 0x12A3 DUP7 DUP4 PUSH2 0x125E JUMP JUMPDEST SWAP6 POP DUP1 NOT DUP5 AND SWAP4 POP DUP1 DUP7 AND DUP5 OR SWAP3 POP POP POP SWAP4 SWAP3 POP POP POP JUMP JUMPDEST PUSH0 DUP2 SWAP1 POP SWAP2 SWAP1 POP JUMP JUMPDEST PUSH0 PUSH2 0x12DE PUSH2 0x12D9 PUSH2 0x12D4 DUP5 PUSH2 0xCA3 JUMP JUMPDEST PUSH2 0x12BB JUMP JUMPDEST PUSH2 0xCA3 JUMP JUMPDEST SWAP1 POP SWAP2 SWAP1 POP JUMP JUMPDEST PUSH0 DUP2 SWAP1 POP SWAP2 SWAP1 POP JUMP JUMPDEST PUSH2 0x12F7 DUP4 PUSH2 0x12C4 JUMP JUMPDEST PUSH2 0x130B PUSH2 0x1303 DUP3 PUSH2 0x12E5 JUMP JUMPDEST DUP5 DUP5 SLOAD PUSH2 0x126A JUMP JUMPDEST DUP3 SSTORE POP POP POP POP JUMP JUMPDEST PUSH0 PUSH0 SWAP1 POP SWAP1 JUMP JUMPDEST PUSH2 0x1322 PUSH2 0x1313 JUMP JUMPDEST PUSH2 0x132D DUP2 DUP5 DUP5 PUSH2 0x12EE JUMP JUMPDEST POP POP POP JUMP JUMPDEST JUMPDEST DUP2 DUP2 LT ISZERO PUSH2 0x1350 JUMPI PUSH2 0x1345 PUSH0 DUP3 PUSH2 0x131A JUMP JUMPDEST PUSH1 0x1 DUP2 ADD SWAP1 POP PUSH2 0x1333 JUMP JUMPDEST POP POP JUMP JUMPDEST PUSH1 0x1F DUP3 GT ISZERO PUSH2 0x1395 JUMPI PUSH2 0x1366 DUP2 PUSH2 0x123D JUMP JUMPDEST PUSH2 0x136F DUP5 PUSH2 0x124F JUMP JUMPDEST DUP2 ADD PUSH1 0x20 DUP6 LT ISZERO PUSH2 0x137E JUMPI DUP2 SWAP1 POP JUMPDEST PUSH2 0x1392 PUSH2 0x138A DUP6 PUSH2 0x124F JUMP JUMPDEST DUP4 ADD DUP3 PUSH2 0x1332 JUMP JUMPDEST POP POP JUMPDEST POP POP POP JUMP JUMPDEST PUSH0 DUP3 DUP3 SHR SWAP1 POP SWAP3 SWAP2 POP POP JUMP JUMPDEST PUSH0 PUSH2 0x13B5 PUSH0 NOT DUP5 PUSH1 0x8 MUL PUSH2 0x139A JUMP JUMPDEST NOT DUP1 DUP4 AND SWAP2 POP POP SWAP3 SWAP2 POP POP JUMP JUMPDEST PUSH0 PUSH2 0x13CD DUP4 DUP4 PUSH2 0x13A6 JUMP JUMPDEST SWAP2 POP DUP3 PUSH1 0x2 MUL DUP3 OR SWAP1 POP SWAP3 SWAP2 POP POP JUMP JUMPDEST PUSH2 0x13E6 DUP3 PUSH2 0xD7C JUMP JUMPDEST PUSH8 0xFFFFFFFFFFFFFFFF DUP2 GT ISZERO PUSH2 0x13FF JUMPI PUSH2 0x13FE PUSH2 0xA98 JUMP JUMPDEST JUMPDEST PUSH2 0x1409 DUP3 SLOAD PUSH2 0xF95 JUMP JUMPDEST PUSH2 0x1414 DUP3 DUP3 DUP6 PUSH2 0x1354 JUMP JUMPDEST PUSH0 PUSH1 0x20 SWAP1 POP PUSH1 0x1F DUP4 GT PUSH1 0x1 DUP2 EQ PUSH2 0x1445 JUMPI PUSH0 DUP5 ISZERO PUSH2 0x1433 JUMPI DUP3 DUP8 ADD MLOAD SWAP1 POP JUMPDEST PUSH2 0x143D DUP6 DUP3 PUSH2 0x13C2 JUMP JUMPDEST DUP7 SSTORE POP PUSH2 0x14A4 JUMP JUMPDEST PUSH1 0x1F NOT DUP5 AND PUSH2 0x1453 DUP7 PUSH2 0x123D JUMP JUMPDEST PUSH0 JUMPDEST DUP3 DUP2 LT ISZERO PUSH2 0x147A JUMPI DUP5 DUP10 ADD MLOAD DUP3 SSTORE PUSH1 0x1 DUP3 ADD SWAP2 POP PUSH1 0x20 DUP6 ADD SWAP5 POP PUSH1 0x20 DUP2 ADD SWAP1 POP PUSH2 0x1455 JUMP JUMPDEST DUP7 DUP4 LT ISZERO PUSH2 0x1497 JUMPI DUP5 DUP10 ADD MLOAD PUSH2 0x1493 PUSH1 0x1F DUP10 AND DUP3 PUSH2 0x13A6 JUMP JUMPDEST DUP4 SSTORE POP JUMPDEST PUSH1 0x1 PUSH1 0x2 DUP9 MUL ADD DUP9 SSTORE POP POP POP JUMPDEST POP POP POP POP POP POP JUMP INVALID LOG2 PUSH5 0x6970667358 0x22 SLT KECCAK256 0xAA DUP10 PUSH20 0xCE7B2AF800597F46D9873FD6FC41F3C7F032E78E DUP14 0x2C BLOBBASEFEE PUSH12 0x646299FB8064736F6C634300 ADDMOD 0x1E STOP CALLER "
				},
				"gasEstimates": {
					"creation": {
						"codeDepositCost": "1069200",
						"executionCost": "23217",
						"totalCost": "1092417"
					},
					"external": {
						"addLink(string,string,uint256)": "infinite",
						"comission()": "2424",
						"getLink(string)": "infinite",
						"hasAccess(string,address)": "infinite",
						"payLink(string)": "infinite"
					}
				},
				"methodIdentifiers": {
					"addLink(string,string,uint256)": "fc5f2b78",
					"comission()": "3a4b4532",
					"getLink(string)": "7476452a",
					"hasAccess(string,address)": "13bd20e2",
					"payLink(string)": "429cad86"
				}
			},
			"storageLayout": {
				"storage": [
					{
						"astId": 11,
						"contract": "contracts/LinkShield.sol:LinkShield",
						"label": "comission",
						"offset": 0,
						"slot": "0",
						"type": "t_uint256"
					},
					{
						"astId": 16,
						"contract": "contracts/LinkShield.sol:LinkShield",
						"label": "links",
						"offset": 0,
						"slot": "1",
						"type": "t_mapping(t_string_memory_ptr,t_struct(Link)8_storage)"
					},
					{
						"astId": 22,
						"contract": "contracts/LinkShield.sol:LinkShield",
						"label": "hasAccess",
						"offset": 0,
						"slot": "2",
						"type": "t_mapping(t_string_memory_ptr,t_mapping(t_address,t_bool))"
					}
				],
				"types": {
					"t_address": {
						"encoding": "inplace",
						"label": "address",
						"numberOfBytes": "20"
					},
					"t_bool": {
						"encoding": "inplace",
						"label": "bool",
						"numberOfBytes": "1"
					},
					"t_mapping(t_address,t_bool)": {
						"encoding": "mapping",
						"key": "t_address",
						"label": "mapping(address => bool)",
						"numberOfBytes": "32",
						"value": "t_bool"
					},
					"t_mapping(t_string_memory_ptr,t_mapping(t_address,t_bool))": {
						"encoding": "mapping",
						"key": "t_string_memory_ptr",
						"label": "mapping(string => mapping(address => bool))",
						"numberOfBytes": "32",
						"value": "t_mapping(t_address,t_bool)"
					},
					"t_mapping(t_string_memory_ptr,t_struct(Link)8_storage)": {
						"encoding": "mapping",
						"key": "t_string_memory_ptr",
						"label": "mapping(string => struct LinkShield.Link)",
						"numberOfBytes": "32",
						"value": "t_struct(Link)8_storage"
					},
					"t_string_memory_ptr": {
						"encoding": "bytes",
						"label": "string",
						"numberOfBytes": "32"
					},
					"t_string_storage": {
						"encoding": "bytes",
						"label": "string",
						"numberOfBytes": "32"
					},
					"t_struct(Link)8_storage": {
						"encoding": "inplace",
						"label": "struct LinkShield.Link",
						"members": [
							{
								"astId": 3,
								"contract": "contracts/LinkShield.sol:LinkShield",
								"label": "url",
								"offset": 0,
								"slot": "0",
								"type": "t_string_storage"
							},
							{
								"astId": 5,
								"contract": "contracts/LinkShield.sol:LinkShield",
								"label": "owner",
								"offset": 0,
								"slot": "1",
								"type": "t_address"
							},
							{
								"astId": 7,
								"contract": "contracts/LinkShield.sol:LinkShield",
								"label": "fee",
								"offset": 0,
								"slot": "2",
								"type": "t_uint256"
							}
						],
						"numberOfBytes": "96"
					},
					"t_uint256": {
						"encoding": "inplace",
						"label": "uint256",
						"numberOfBytes": "32"
					}
				}
			},
			"userdoc": {
				"kind": "user",
				"methods": {},
				"version": 1
			}
		}
	}
}