{
	"contracts/LinkShield.sol": {
		"LinkShield": {
			"abi": [
				{
					"inputs": [],
					"stateMutability": "nonpayable",
					"type": "constructor"
				},
				{
					"inputs": [
						{
							"internalType": "string",
							"name": "url",
							"type": "string"
						},
						{
							"internalType": "string",
							"name": "linkId",
							"type": "string"
						},
						{
							"internalType": "uint256",
							"name": "fee",
							"type": "uint256"
						}
					],
					"name": "addLink",
					"outputs": [],
					"stateMutability": "nonpayable",
					"type": "function"
				},
				{
					"inputs": [],
					"name": "admin",
					"outputs": [
						{
							"internalType": "address",
							"name": "",
							"type": "address"
						}
					],
					"stateMutability": "view",
					"type": "function"
				},
				{
					"inputs": [],
					"name": "comission",
					"outputs": [
						{
							"internalType": "uint256",
							"name": "",
							"type": "uint256"
						}
					],
					"stateMutability": "view",
					"type": "function"
				},
				{
					"inputs": [
						{
							"internalType": "string",
							"name": "linkId",
							"type": "string"
						}
					],
					"name": "deleteLink",
					"outputs": [],
					"stateMutability": "nonpayable",
					"type": "function"
				},
				{
					"inputs": [
						{
							"internalType": "string",
							"name": "linkId",
							"type": "string"
						},
						{
							"internalType": "uint256",
							"name": "newFee",
							"type": "uint256"
						}
					],
					"name": "editComission",
					"outputs": [],
					"stateMutability": "nonpayable",
					"type": "function"
				},
				{
					"inputs": [
						{
							"internalType": "string",
							"name": "linkId",
							"type": "string"
						}
					],
					"name": "getLink",
					"outputs": [
						{
							"components": [
								{
									"internalType": "string",
									"name": "url",
									"type": "string"
								},
								{
									"internalType": "address",
									"name": "owner",
									"type": "address"
								},
								{
									"internalType": "uint256",
									"name": "fee",
									"type": "uint256"
								},
								{
									"internalType": "uint256",
									"name": "timestamp",
									"type": "uint256"
								}
							],
							"internalType": "struct LinkShield.Link",
							"name": "",
							"type": "tuple"
						}
					],
					"stateMutability": "view",
					"type": "function"
				},
				{
					"inputs": [
						{
							"internalType": "string",
							"name": "",
							"type": "string"
						},
						{
							"internalType": "address",
							"name": "",
							"type": "address"
						}
					],
					"name": "hasAccess",
					"outputs": [
						{
							"internalType": "bool",
							"name": "",
							"type": "bool"
						}
					],
					"stateMutability": "view",
					"type": "function"
				},
				{
					"inputs": [
						{
							"internalType": "string",
							"name": "linkId",
							"type": "string"
						}
					],
					"name": "payLink",
					"outputs": [],
					"stateMutability": "payable",
					"type": "function"
				},
				{
					"inputs": [],
					"name": "withdraw",
					"outputs": [],
					"stateMutability": "nonpayable",
					"type": "function"
				}
			],
			"devdoc": {
				"kind": "dev",
				"methods": {},
				"version": 1
			},
			"evm": {
				"assembly": "    /* \"contracts/LinkShield.sol\":61:3231  contract LinkShield {... */\n  mstore(0x40, 0xa0)\n    /* \"contracts/LinkShield.sol\":403:404  1 */\n  0x01\n    /* \"contracts/LinkShield.sol\":376:404  uint256 public comission = 1 */\n  0x00\n  sstore\n    /* \"contracts/LinkShield.sol\":532:640  constructor() // constructor is a function executed after deploy;... */\n  callvalue\n  dup1\n  iszero\n  tag_1\n  jumpi\n  revert(0x00, 0x00)\ntag_1:\n  pop\n    /* \"contracts/LinkShield.sol\":622:632  msg.sender */\n  caller\n    /* \"contracts/LinkShield.sol\":614:632  admin = msg.sender */\n  0xffffffffffffffffffffffffffffffffffffffff\n  and\n  0x80\n  dup2\n  0xffffffffffffffffffffffffffffffffffffffff\n  and\n  dup2\n  mstore\n  pop\n  pop\n    /* \"contracts/LinkShield.sol\":61:3231  contract LinkShield {... */\n  mload(0x80)\n  codecopy(0x00, dataOffset(sub_0), dataSize(sub_0))\n  0x00\n  assignImmutable(\"0x1d3be50b2bb17407dd170f1d5da128d1def30c6b1598d6a629e79b4775265526\")\n  return(0x00, dataSize(sub_0))\nstop\n\nsub_0: assembly {\n        /* \"contracts/LinkShield.sol\":61:3231  contract LinkShield {... */\n      mstore(0x40, 0x80)\n      jumpi(tag_1, lt(calldatasize, 0x04))\n      shr(0xe0, calldataload(0x00))\n      dup1\n      0x721b72b0\n      gt\n      tag_11\n      jumpi\n      dup1\n      0x721b72b0\n      eq\n      tag_6\n      jumpi\n      dup1\n      0x7476452a\n      eq\n      tag_7\n      jumpi\n      dup1\n      0xb6dfd6f1\n      eq\n      tag_8\n      jumpi\n      dup1\n      0xf851a440\n      eq\n      tag_9\n      jumpi\n      dup1\n      0xfc5f2b78\n      eq\n      tag_10\n      jumpi\n      jump(tag_1)\n    tag_11:\n      dup1\n      0x13bd20e2\n      eq\n      tag_2\n      jumpi\n      dup1\n      0x3a4b4532\n      eq\n      tag_3\n      jumpi\n      dup1\n      0x3ccfd60b\n      eq\n      tag_4\n      jumpi\n      dup1\n      0x429cad86\n      eq\n      tag_5\n      jumpi\n    tag_1:\n      revert(0x00, 0x00)\n        /* \"contracts/LinkShield.sol\":736:798  mapping(string => mapping (address => bool)) public  hasAccess */\n    tag_2:\n      callvalue\n      dup1\n      iszero\n      tag_12\n      jumpi\n      revert(0x00, 0x00)\n    tag_12:\n      pop\n      tag_13\n      0x04\n      dup1\n      calldatasize\n      sub\n      dup2\n      add\n      swap1\n      tag_14\n      swap2\n      swap1\n      tag_15\n      jump\t// in\n    tag_14:\n      tag_16\n      jump\t// in\n    tag_13:\n      mload(0x40)\n      tag_17\n      swap2\n      swap1\n      tag_18\n      jump\t// in\n    tag_17:\n      mload(0x40)\n      dup1\n      swap2\n      sub\n      swap1\n      return\n        /* \"contracts/LinkShield.sol\":376:404  uint256 public comission = 1 */\n    tag_3:\n      callvalue\n      dup1\n      iszero\n      tag_19\n      jumpi\n      revert(0x00, 0x00)\n    tag_19:\n      pop\n      tag_20\n      tag_21\n      jump\t// in\n    tag_20:\n      mload(0x40)\n      tag_22\n      swap2\n      swap1\n      tag_23\n      jump\t// in\n    tag_22:\n      mload(0x40)\n      dup1\n      swap2\n      sub\n      swap1\n      return\n        /* \"contracts/LinkShield.sol\":2912:3226  function withdraw() public {... */\n    tag_4:\n      callvalue\n      dup1\n      iszero\n      tag_24\n      jumpi\n      revert(0x00, 0x00)\n    tag_24:\n      pop\n      tag_25\n      tag_26\n      jump\t// in\n    tag_25:\n      stop\n        /* \"contracts/LinkShield.sol\":1803:2292  function payLink(string calldata linkId) public payable // payable are functions that receive cryptocurrencys ... */\n    tag_5:\n      tag_27\n      0x04\n      dup1\n      calldatasize\n      sub\n      dup2\n      add\n      swap1\n      tag_28\n      swap2\n      swap1\n      tag_29\n      jump\t// in\n    tag_28:\n      tag_30\n      jump\t// in\n    tag_27:\n      stop\n        /* \"contracts/LinkShield.sol\":2300:2606  function editComission(string calldata linkId, uint256 newFee) public {... */\n    tag_6:\n      callvalue\n      dup1\n      iszero\n      tag_31\n      jumpi\n      revert(0x00, 0x00)\n    tag_31:\n      pop\n      tag_32\n      0x04\n      dup1\n      calldatasize\n      sub\n      dup2\n      add\n      swap1\n      tag_33\n      swap2\n      swap1\n      tag_34\n      jump\t// in\n    tag_33:\n      tag_35\n      jump\t// in\n    tag_32:\n      stop\n        /* \"contracts/LinkShield.sol\":1449:1795  function getLink(string calldata linkId) public view returns (Link memory) {... */\n    tag_7:\n      callvalue\n      dup1\n      iszero\n      tag_36\n      jumpi\n      revert(0x00, 0x00)\n    tag_36:\n      pop\n      tag_37\n      0x04\n      dup1\n      calldatasize\n      sub\n      dup2\n      add\n      swap1\n      tag_38\n      swap2\n      swap1\n      tag_29\n      jump\t// in\n    tag_38:\n      tag_39\n      jump\t// in\n    tag_37:\n      mload(0x40)\n      tag_40\n      swap2\n      swap1\n      tag_41\n      jump\t// in\n    tag_40:\n      mload(0x40)\n      dup1\n      swap2\n      sub\n      swap1\n      return\n        /* \"contracts/LinkShield.sol\":2614:2904  function deleteLink (string calldata linkId) public {... */\n    tag_8:\n      callvalue\n      dup1\n      iszero\n      tag_42\n      jumpi\n      revert(0x00, 0x00)\n    tag_42:\n      pop\n      tag_43\n      0x04\n      dup1\n      calldatasize\n      sub\n      dup2\n      add\n      swap1\n      tag_44\n      swap2\n      swap1\n      tag_29\n      jump\t// in\n    tag_44:\n      tag_45\n      jump\t// in\n    tag_43:\n      stop\n        /* \"contracts/LinkShield.sol\":411:441  address public immutable admin */\n    tag_9:\n      callvalue\n      dup1\n      iszero\n      tag_46\n      jumpi\n      revert(0x00, 0x00)\n    tag_46:\n      pop\n      tag_47\n      tag_48\n      jump\t// in\n    tag_47:\n      mload(0x40)\n      tag_49\n      swap2\n      swap1\n      tag_50\n      jump\t// in\n    tag_49:\n      mload(0x40)\n      dup1\n      swap2\n      sub\n      swap1\n      return\n        /* \"contracts/LinkShield.sol\":868:1441  function addLink(string calldata url, string calldata linkId, uint256 fee) public {... */\n    tag_10:\n      callvalue\n      dup1\n      iszero\n      tag_51\n      jumpi\n      revert(0x00, 0x00)\n    tag_51:\n      pop\n      tag_52\n      0x04\n      dup1\n      calldatasize\n      sub\n      dup2\n      add\n      swap1\n      tag_53\n      swap2\n      swap1\n      tag_54\n      jump\t// in\n    tag_53:\n      tag_55\n      jump\t// in\n    tag_52:\n      stop\n        /* \"contracts/LinkShield.sol\":736:798  mapping(string => mapping (address => bool)) public  hasAccess */\n    tag_16:\n      0x02\n      dup3\n      dup1\n      mload\n      0x20\n      dup2\n      add\n      dup3\n      add\n      dup1\n      mload\n      dup5\n      dup3\n      mstore\n      0x20\n      dup4\n      add\n      0x20\n      dup6\n      add\n      keccak256\n      dup2\n      dup4\n      mstore\n      dup1\n      swap6\n      pop\n      pop\n      pop\n      pop\n      pop\n      pop\n      0x20\n      mstore\n      dup1\n      0x00\n      mstore\n      keccak256(0x00, 0x40)\n      0x00\n      swap2\n      pop\n      swap2\n      pop\n      swap1\n      sload\n      swap1\n      0x0100\n      exp\n      swap1\n      div\n      0xff\n      and\n      dup2\n      jump\t// out\n        /* \"contracts/LinkShield.sol\":376:404  uint256 public comission = 1 */\n    tag_21:\n      sload(0x00)\n      dup2\n      jump\t// out\n        /* \"contracts/LinkShield.sol\":2912:3226  function withdraw() public {... */\n    tag_26:\n        /* \"contracts/LinkShield.sol\":2972:2977  admin */\n      immutable(\"0x1d3be50b2bb17407dd170f1d5da128d1def30c6b1598d6a629e79b4775265526\")\n        /* \"contracts/LinkShield.sol\":2958:2977  msg.sender == admin */\n      0xffffffffffffffffffffffffffffffffffffffff\n      and\n        /* \"contracts/LinkShield.sol\":2958:2968  msg.sender */\n      caller\n        /* \"contracts/LinkShield.sol\":2958:2977  msg.sender == admin */\n      0xffffffffffffffffffffffffffffffffffffffff\n      and\n      eq\n        /* \"contracts/LinkShield.sol\":2950:3018  require(msg.sender == admin, \"You don't permission for this action\") */\n      tag_57\n      jumpi\n      mload(0x40)\n      0x08c379a000000000000000000000000000000000000000000000000000000000\n      dup2\n      mstore\n      0x04\n      add\n      tag_58\n      swap1\n      tag_59\n      jump\t// in\n    tag_58:\n      mload(0x40)\n      dup1\n      swap2\n      sub\n      swap1\n      revert\n    tag_57:\n        /* \"contracts/LinkShield.sol\":3029:3043  uint256 amount */\n      0x00\n        /* \"contracts/LinkShield.sol\":3046:3067  address(this).balance */\n      selfbalance\n        /* \"contracts/LinkShield.sol\":3029:3067  uint256 amount = address(this).balance */\n      swap1\n      pop\n        /* \"contracts/LinkShield.sol\":3133:3138  admin */\n      immutable(\"0x1d3be50b2bb17407dd170f1d5da128d1def30c6b1598d6a629e79b4775265526\")\n        /* \"contracts/LinkShield.sol\":3125:3148  payable(admin).transfer */\n      0xffffffffffffffffffffffffffffffffffffffff\n      and\n        /* \"contracts/LinkShield.sol\":3125:3156  payable(admin).transfer(amount) */\n      0x08fc\n        /* \"contracts/LinkShield.sol\":3149:3155  amount */\n      dup3\n        /* \"contracts/LinkShield.sol\":3125:3156  payable(admin).transfer(amount) */\n      swap1\n      dup2\n      iszero\n      mul\n      swap1\n      mload(0x40)\n      0x00\n      mload(0x40)\n      dup1\n      dup4\n      sub\n      dup2\n      dup6\n      dup9\n      dup9\n      call\n      swap4\n      pop\n      pop\n      pop\n      pop\n      iszero\n      dup1\n      iszero\n      tag_61\n      jumpi\n      returndatacopy(0x00, 0x00, returndatasize)\n      revert(0x00, returndatasize)\n    tag_61:\n      pop\n        /* \"contracts/LinkShield.sol\":2939:3226  {... */\n      pop\n        /* \"contracts/LinkShield.sol\":2912:3226  function withdraw() public {... */\n      jump\t// out\n        /* \"contracts/LinkShield.sol\":1803:2292  function payLink(string calldata linkId) public payable // payable are functions that receive cryptocurrencys ... */\n    tag_30:\n        /* \"contracts/LinkShield.sol\":1930:1946  Link memory link */\n      0x00\n        /* \"contracts/LinkShield.sol\":1949:1954  links */\n      0x01\n        /* \"contracts/LinkShield.sol\":1955:1961  linkId */\n      dup4\n      dup4\n        /* \"contracts/LinkShield.sol\":1949:1962  links[linkId] */\n      mload(0x40)\n      tag_63\n      swap3\n      swap2\n      swap1\n      tag_64\n      jump\t// in\n    tag_63:\n      swap1\n      dup2\n      mstore\n      0x20\n      add\n      mload(0x40)\n      dup1\n      swap2\n      sub\n      swap1\n      keccak256\n        /* \"contracts/LinkShield.sol\":1930:1962  Link memory link = links[linkId] */\n      mload(0x40)\n      dup1\n      0x80\n      add\n      0x40\n      mstore\n      swap1\n      dup2\n      0x00\n      dup3\n      add\n      dup1\n      sload\n      tag_65\n      swap1\n      tag_66\n      jump\t// in\n    tag_65:\n      dup1\n      0x1f\n      add\n      0x20\n      dup1\n      swap2\n      div\n      mul\n      0x20\n      add\n      mload(0x40)\n      swap1\n      dup2\n      add\n      0x40\n      mstore\n      dup1\n      swap3\n      swap2\n      swap1\n      dup2\n      dup2\n      mstore\n      0x20\n      add\n      dup3\n      dup1\n      sload\n      tag_67\n      swap1\n      tag_66\n      jump\t// in\n    tag_67:\n      dup1\n      iszero\n      tag_68\n      jumpi\n      dup1\n      0x1f\n      lt\n      tag_69\n      jumpi\n      0x0100\n      dup1\n      dup4\n      sload\n      div\n      mul\n      dup4\n      mstore\n      swap2\n      0x20\n      add\n      swap2\n      jump(tag_68)\n    tag_69:\n      dup3\n      add\n      swap2\n      swap1\n      0x00\n      mstore\n      keccak256(0x00, 0x20)\n      swap1\n    tag_70:\n      dup2\n      sload\n      dup2\n      mstore\n      swap1\n      0x01\n      add\n      swap1\n      0x20\n      add\n      dup1\n      dup4\n      gt\n      tag_70\n      jumpi\n      dup3\n      swap1\n      sub\n      0x1f\n      and\n      dup3\n      add\n      swap2\n    tag_68:\n      pop\n      pop\n      pop\n      pop\n      pop\n      dup2\n      mstore\n      0x20\n      add\n      0x01\n      dup3\n      add\n      0x00\n      swap1\n      sload\n      swap1\n      0x0100\n      exp\n      swap1\n      div\n      0xffffffffffffffffffffffffffffffffffffffff\n      and\n      0xffffffffffffffffffffffffffffffffffffffff\n      and\n      0xffffffffffffffffffffffffffffffffffffffff\n      and\n      dup2\n      mstore\n      0x20\n      add\n      0x02\n      dup3\n      add\n      sload\n      dup2\n      mstore\n      0x20\n      add\n      0x03\n      dup3\n      add\n      sload\n      dup2\n      mstore\n      pop\n      pop\n      swap1\n      pop\n        /* \"contracts/LinkShield.sol\":2003:2004  0 */\n      0x00\n        /* \"contracts/LinkShield.sol\":1981:2005  link.owner != address(0) */\n      0xffffffffffffffffffffffffffffffffffffffff\n      and\n        /* \"contracts/LinkShield.sol\":1981:1985  link */\n      dup2\n        /* \"contracts/LinkShield.sol\":1981:1991  link.owner */\n      0x20\n      add\n      mload\n        /* \"contracts/LinkShield.sol\":1981:2005  link.owner != address(0) */\n      0xffffffffffffffffffffffffffffffffffffffff\n      and\n      sub\n        /* \"contracts/LinkShield.sol\":1973:2024  require(link.owner != address(0), \"Link not found\") */\n      tag_71\n      jumpi\n      mload(0x40)\n      0x08c379a000000000000000000000000000000000000000000000000000000000\n      dup2\n      mstore\n      0x04\n      add\n      tag_72\n      swap1\n      tag_73\n      jump\t// in\n    tag_72:\n      mload(0x40)\n      dup1\n      swap2\n      sub\n      swap1\n      revert\n    tag_71:\n        /* \"contracts/LinkShield.sol\":2077:2082  false */\n      0x00\n        /* \"contracts/LinkShield.sol\":2044:2082  hasAccess[linkId][msg.sender] == false */\n      iszero\n      iszero\n        /* \"contracts/LinkShield.sol\":2044:2053  hasAccess */\n      0x02\n        /* \"contracts/LinkShield.sol\":2054:2060  linkId */\n      dup5\n      dup5\n        /* \"contracts/LinkShield.sol\":2044:2061  hasAccess[linkId] */\n      mload(0x40)\n      tag_74\n      swap3\n      swap2\n      swap1\n      tag_64\n      jump\t// in\n    tag_74:\n      swap1\n      dup2\n      mstore\n      0x20\n      add\n      mload(0x40)\n      dup1\n      swap2\n      sub\n      swap1\n      keccak256\n        /* \"contracts/LinkShield.sol\":2044:2073  hasAccess[linkId][msg.sender] */\n      0x00\n        /* \"contracts/LinkShield.sol\":2062:2072  msg.sender */\n      caller\n        /* \"contracts/LinkShield.sol\":2044:2073  hasAccess[linkId][msg.sender] */\n      0xffffffffffffffffffffffffffffffffffffffff\n      and\n      0xffffffffffffffffffffffffffffffffffffffff\n      and\n      dup2\n      mstore\n      0x20\n      add\n      swap1\n      dup2\n      mstore\n      0x20\n      add\n      0x00\n      keccak256\n      0x00\n      swap1\n      sload\n      swap1\n      0x0100\n      exp\n      swap1\n      div\n      0xff\n      and\n        /* \"contracts/LinkShield.sol\":2044:2082  hasAccess[linkId][msg.sender] == false */\n      iszero\n      iszero\n      eq\n        /* \"contracts/LinkShield.sol\":2035:2109  require((hasAccess[linkId][msg.sender] == false), \"You alredy has access\") */\n      tag_75\n      jumpi\n      mload(0x40)\n      0x08c379a000000000000000000000000000000000000000000000000000000000\n      dup2\n      mstore\n      0x04\n      add\n      tag_76\n      swap1\n      tag_77\n      jump\t// in\n    tag_76:\n      mload(0x40)\n      dup1\n      swap2\n      sub\n      swap1\n      revert\n    tag_75:\n        /* \"contracts/LinkShield.sol\":2141:2145  link */\n      dup1\n        /* \"contracts/LinkShield.sol\":2141:2149  link.fee */\n      0x40\n      add\n      mload\n        /* \"contracts/LinkShield.sol\":2128:2137  msg.value */\n      callvalue\n        /* \"contracts/LinkShield.sol\":2128:2149  msg.value >= link.fee */\n      lt\n      iszero\n        /* \"contracts/LinkShield.sol\":2120:2173  require(msg.value >= link.fee, \"Insuficient payment\") */\n      tag_78\n      jumpi\n      mload(0x40)\n      0x08c379a000000000000000000000000000000000000000000000000000000000\n      dup2\n      mstore\n      0x04\n      add\n      tag_79\n      swap1\n      tag_80\n      jump\t// in\n    tag_79:\n      mload(0x40)\n      dup1\n      swap2\n      sub\n      swap1\n      revert\n    tag_78:\n        /* \"contracts/LinkShield.sol\":2218:2222  true */\n      0x01\n        /* \"contracts/LinkShield.sol\":2186:2195  hasAccess */\n      0x02\n        /* \"contracts/LinkShield.sol\":2196:2202  linkId */\n      dup5\n      dup5\n        /* \"contracts/LinkShield.sol\":2186:2203  hasAccess[linkId] */\n      mload(0x40)\n      tag_81\n      swap3\n      swap2\n      swap1\n      tag_64\n      jump\t// in\n    tag_81:\n      swap1\n      dup2\n      mstore\n      0x20\n      add\n      mload(0x40)\n      dup1\n      swap2\n      sub\n      swap1\n      keccak256\n        /* \"contracts/LinkShield.sol\":2186:2215  hasAccess[linkId][msg.sender] */\n      0x00\n        /* \"contracts/LinkShield.sol\":2204:2214  msg.sender */\n      caller\n        /* \"contracts/LinkShield.sol\":2186:2215  hasAccess[linkId][msg.sender] */\n      0xffffffffffffffffffffffffffffffffffffffff\n      and\n      0xffffffffffffffffffffffffffffffffffffffff\n      and\n      dup2\n      mstore\n      0x20\n      add\n      swap1\n      dup2\n      mstore\n      0x20\n      add\n      0x00\n      keccak256\n      0x00\n        /* \"contracts/LinkShield.sol\":2186:2222  hasAccess[linkId][msg.sender] = true */\n      0x0100\n      exp\n      dup2\n      sload\n      dup2\n      0xff\n      mul\n      not\n      and\n      swap1\n      dup4\n      iszero\n      iszero\n      mul\n      or\n      swap1\n      sstore\n      pop\n        /* \"contracts/LinkShield.sol\":2241:2245  link */\n      dup1\n        /* \"contracts/LinkShield.sol\":2241:2251  link.owner */\n      0x20\n      add\n      mload\n        /* \"contracts/LinkShield.sol\":2233:2261  payable(link.owner).transfer */\n      0xffffffffffffffffffffffffffffffffffffffff\n      and\n        /* \"contracts/LinkShield.sol\":2233:2284  payable(link.owner).transfer(msg.value - comission) */\n      0x08fc\n        /* \"contracts/LinkShield.sol\":2274:2283  comission */\n      sload(0x00)\n        /* \"contracts/LinkShield.sol\":2262:2271  msg.value */\n      callvalue\n        /* \"contracts/LinkShield.sol\":2262:2283  msg.value - comission */\n      tag_82\n      swap2\n      swap1\n      tag_83\n      jump\t// in\n    tag_82:\n        /* \"contracts/LinkShield.sol\":2233:2284  payable(link.owner).transfer(msg.value - comission) */\n      swap1\n      dup2\n      iszero\n      mul\n      swap1\n      mload(0x40)\n      0x00\n      mload(0x40)\n      dup1\n      dup4\n      sub\n      dup2\n      dup6\n      dup9\n      dup9\n      call\n      swap4\n      pop\n      pop\n      pop\n      pop\n      iszero\n      dup1\n      iszero\n      tag_85\n      jumpi\n      returndatacopy(0x00, 0x00, returndatasize)\n      revert(0x00, returndatasize)\n    tag_85:\n      pop\n        /* \"contracts/LinkShield.sol\":1919:2292  {... */\n      pop\n        /* \"contracts/LinkShield.sol\":1803:2292  function payLink(string calldata linkId) public payable // payable are functions that receive cryptocurrencys ... */\n      pop\n      pop\n      jump\t// out\n        /* \"contracts/LinkShield.sol\":2300:2606  function editComission(string calldata linkId, uint256 newFee) public {... */\n    tag_35:\n        /* \"contracts/LinkShield.sol\":2381:2398  Link storage link */\n      0x00\n        /* \"contracts/LinkShield.sol\":2401:2406  links */\n      0x01\n        /* \"contracts/LinkShield.sol\":2407:2413  linkId */\n      dup5\n      dup5\n        /* \"contracts/LinkShield.sol\":2401:2414  links[linkId] */\n      mload(0x40)\n      tag_87\n      swap3\n      swap2\n      swap1\n      tag_64\n      jump\t// in\n    tag_87:\n      swap1\n      dup2\n      mstore\n      0x20\n      add\n      mload(0x40)\n      dup1\n      swap2\n      sub\n      swap1\n      keccak256\n        /* \"contracts/LinkShield.sol\":2381:2414  Link storage link = links[linkId] */\n      swap1\n      pop\n        /* \"contracts/LinkShield.sol\":2455:2456  0 */\n      0x00\n        /* \"contracts/LinkShield.sol\":2433:2457  link.owner != address(0) */\n      0xffffffffffffffffffffffffffffffffffffffff\n      and\n        /* \"contracts/LinkShield.sol\":2433:2437  link */\n      dup2\n        /* \"contracts/LinkShield.sol\":2433:2443  link.owner */\n      0x01\n      add\n      0x00\n      swap1\n      sload\n      swap1\n      0x0100\n      exp\n      swap1\n      div\n      0xffffffffffffffffffffffffffffffffffffffff\n      and\n        /* \"contracts/LinkShield.sol\":2433:2457  link.owner != address(0) */\n      0xffffffffffffffffffffffffffffffffffffffff\n      and\n      sub\n        /* \"contracts/LinkShield.sol\":2425:2476  require(link.owner != address(0), \"Link not found\") */\n      tag_88\n      jumpi\n      mload(0x40)\n      0x08c379a000000000000000000000000000000000000000000000000000000000\n      dup2\n      mstore\n      0x04\n      add\n      tag_89\n      swap1\n      tag_73\n      jump\t// in\n    tag_89:\n      mload(0x40)\n      dup1\n      swap2\n      sub\n      swap1\n      revert\n    tag_88:\n        /* \"contracts/LinkShield.sol\":2509:2519  msg.sender */\n      caller\n        /* \"contracts/LinkShield.sol\":2495:2519  link.owner == msg.sender */\n      0xffffffffffffffffffffffffffffffffffffffff\n      and\n        /* \"contracts/LinkShield.sol\":2495:2499  link */\n      dup2\n        /* \"contracts/LinkShield.sol\":2495:2505  link.owner */\n      0x01\n      add\n      0x00\n      swap1\n      sload\n      swap1\n      0x0100\n      exp\n      swap1\n      div\n      0xffffffffffffffffffffffffffffffffffffffff\n      and\n        /* \"contracts/LinkShield.sol\":2495:2519  link.owner == msg.sender */\n      0xffffffffffffffffffffffffffffffffffffffff\n      and\n      eq\n        /* \"contracts/LinkShield.sol\":2487:2560  require(link.owner == msg.sender, \"You don't permission for this action\") */\n      tag_90\n      jumpi\n      mload(0x40)\n      0x08c379a000000000000000000000000000000000000000000000000000000000\n      dup2\n      mstore\n      0x04\n      add\n      tag_91\n      swap1\n      tag_59\n      jump\t// in\n    tag_91:\n      mload(0x40)\n      dup1\n      swap2\n      sub\n      swap1\n      revert\n    tag_90:\n        /* \"contracts/LinkShield.sol\":2592:2598  newFee */\n      dup2\n        /* \"contracts/LinkShield.sol\":2581:2585  link */\n      dup2\n        /* \"contracts/LinkShield.sol\":2581:2589  link.fee */\n      0x02\n      add\n        /* \"contracts/LinkShield.sol\":2581:2598  link.fee = newFee */\n      dup2\n      swap1\n      sstore\n      pop\n        /* \"contracts/LinkShield.sol\":2370:2606  {... */\n      pop\n        /* \"contracts/LinkShield.sol\":2300:2606  function editComission(string calldata linkId, uint256 newFee) public {... */\n      pop\n      pop\n      pop\n      jump\t// out\n        /* \"contracts/LinkShield.sol\":1449:1795  function getLink(string calldata linkId) public view returns (Link memory) {... */\n    tag_39:\n        /* \"contracts/LinkShield.sol\":1511:1522  Link memory */\n      tag_92\n      tag_93\n      jump\t// in\n    tag_92:\n        /* \"contracts/LinkShield.sol\":1535:1551  Link memory link */\n      0x00\n        /* \"contracts/LinkShield.sol\":1554:1559  links */\n      0x01\n        /* \"contracts/LinkShield.sol\":1560:1566  linkId */\n      dup5\n      dup5\n        /* \"contracts/LinkShield.sol\":1554:1567  links[linkId] */\n      mload(0x40)\n      tag_95\n      swap3\n      swap2\n      swap1\n      tag_64\n      jump\t// in\n    tag_95:\n      swap1\n      dup2\n      mstore\n      0x20\n      add\n      mload(0x40)\n      dup1\n      swap2\n      sub\n      swap1\n      keccak256\n        /* \"contracts/LinkShield.sol\":1535:1567  Link memory link = links[linkId] */\n      mload(0x40)\n      dup1\n      0x80\n      add\n      0x40\n      mstore\n      swap1\n      dup2\n      0x00\n      dup3\n      add\n      dup1\n      sload\n      tag_96\n      swap1\n      tag_66\n      jump\t// in\n    tag_96:\n      dup1\n      0x1f\n      add\n      0x20\n      dup1\n      swap2\n      div\n      mul\n      0x20\n      add\n      mload(0x40)\n      swap1\n      dup2\n      add\n      0x40\n      mstore\n      dup1\n      swap3\n      swap2\n      swap1\n      dup2\n      dup2\n      mstore\n      0x20\n      add\n      dup3\n      dup1\n      sload\n      tag_97\n      swap1\n      tag_66\n      jump\t// in\n    tag_97:\n      dup1\n      iszero\n      tag_98\n      jumpi\n      dup1\n      0x1f\n      lt\n      tag_99\n      jumpi\n      0x0100\n      dup1\n      dup4\n      sload\n      div\n      mul\n      dup4\n      mstore\n      swap2\n      0x20\n      add\n      swap2\n      jump(tag_98)\n    tag_99:\n      dup3\n      add\n      swap2\n      swap1\n      0x00\n      mstore\n      keccak256(0x00, 0x20)\n      swap1\n    tag_100:\n      dup2\n      sload\n      dup2\n      mstore\n      swap1\n      0x01\n      add\n      swap1\n      0x20\n      add\n      dup1\n      dup4\n      gt\n      tag_100\n      jumpi\n      dup3\n      swap1\n      sub\n      0x1f\n      and\n      dup3\n      add\n      swap2\n    tag_98:\n      pop\n      pop\n      pop\n      pop\n      pop\n      dup2\n      mstore\n      0x20\n      add\n      0x01\n      dup3\n      add\n      0x00\n      swap1\n      sload\n      swap1\n      0x0100\n      exp\n      swap1\n      div\n      0xffffffffffffffffffffffffffffffffffffffff\n      and\n      0xffffffffffffffffffffffffffffffffffffffff\n      and\n      0xffffffffffffffffffffffffffffffffffffffff\n      and\n      dup2\n      mstore\n      0x20\n      add\n      0x02\n      dup3\n      add\n      sload\n      dup2\n      mstore\n      0x20\n      add\n      0x03\n      dup3\n      add\n      sload\n      dup2\n      mstore\n      pop\n      pop\n      swap1\n      pop\n        /* \"contracts/LinkShield.sol\":1593:1594  0 */\n      0x00\n        /* \"contracts/LinkShield.sol\":1581:1585  link */\n      dup2\n        /* \"contracts/LinkShield.sol\":1581:1589  link.fee */\n      0x40\n      add\n      mload\n        /* \"contracts/LinkShield.sol\":1581:1594  link.fee == 0 */\n      sub\n        /* \"contracts/LinkShield.sol\":1578:1607  if(link.fee == 0) return link */\n      tag_101\n      jumpi\n        /* \"contracts/LinkShield.sol\":1603:1607  link */\n      dup1\n        /* \"contracts/LinkShield.sol\":1596:1607  return link */\n      swap2\n      pop\n      pop\n      jump(tag_94)\n        /* \"contracts/LinkShield.sol\":1578:1607  if(link.fee == 0) return link */\n    tag_101:\n        /* \"contracts/LinkShield.sol\":1654:1659  false */\n      0x00\n        /* \"contracts/LinkShield.sol\":1621:1659  hasAccess[linkId][msg.sender] == false */\n      iszero\n      iszero\n        /* \"contracts/LinkShield.sol\":1621:1630  hasAccess */\n      0x02\n        /* \"contracts/LinkShield.sol\":1631:1637  linkId */\n      dup6\n      dup6\n        /* \"contracts/LinkShield.sol\":1621:1638  hasAccess[linkId] */\n      mload(0x40)\n      tag_102\n      swap3\n      swap2\n      swap1\n      tag_64\n      jump\t// in\n    tag_102:\n      swap1\n      dup2\n      mstore\n      0x20\n      add\n      mload(0x40)\n      dup1\n      swap2\n      sub\n      swap1\n      keccak256\n        /* \"contracts/LinkShield.sol\":1621:1650  hasAccess[linkId][msg.sender] */\n      0x00\n        /* \"contracts/LinkShield.sol\":1639:1649  msg.sender */\n      caller\n        /* \"contracts/LinkShield.sol\":1621:1650  hasAccess[linkId][msg.sender] */\n      0xffffffffffffffffffffffffffffffffffffffff\n      and\n      0xffffffffffffffffffffffffffffffffffffffff\n      and\n      dup2\n      mstore\n      0x20\n      add\n      swap1\n      dup2\n      mstore\n      0x20\n      add\n      0x00\n      keccak256\n      0x00\n      swap1\n      sload\n      swap1\n      0x0100\n      exp\n      swap1\n      div\n      0xff\n      and\n        /* \"contracts/LinkShield.sol\":1621:1659  hasAccess[linkId][msg.sender] == false */\n      iszero\n      iszero\n      sub\n        /* \"contracts/LinkShield.sol\":1618:1687  if(hasAccess[linkId][msg.sender] == false)... */\n      tag_103\n      jumpi\n        /* \"contracts/LinkShield.sol\":1674:1687  link.url = \"\" */\n      mload(0x40)\n      dup1\n      0x20\n      add\n      0x40\n      mstore\n      dup1\n      0x00\n      dup2\n      mstore\n      pop\n        /* \"contracts/LinkShield.sol\":1674:1678  link */\n      dup2\n        /* \"contracts/LinkShield.sol\":1674:1682  link.url */\n      0x00\n      add\n        /* \"contracts/LinkShield.sol\":1674:1687  link.url = \"\" */\n      dup2\n      swap1\n      mstore\n      pop\n        /* \"contracts/LinkShield.sol\":1618:1687  if(hasAccess[linkId][msg.sender] == false)... */\n    tag_103:\n        /* \"contracts/LinkShield.sol\":1783:1787  link */\n      dup1\n        /* \"contracts/LinkShield.sol\":1776:1787  return link */\n      swap2\n      pop\n      pop\n        /* \"contracts/LinkShield.sol\":1449:1795  function getLink(string calldata linkId) public view returns (Link memory) {... */\n    tag_94:\n      swap3\n      swap2\n      pop\n      pop\n      jump\t// out\n        /* \"contracts/LinkShield.sol\":2614:2904  function deleteLink (string calldata linkId) public {... */\n    tag_45:\n        /* \"contracts/LinkShield.sol\":2677:2693  Link memory link */\n      0x00\n        /* \"contracts/LinkShield.sol\":2696:2701  links */\n      0x01\n        /* \"contracts/LinkShield.sol\":2702:2708  linkId */\n      dup4\n      dup4\n        /* \"contracts/LinkShield.sol\":2696:2709  links[linkId] */\n      mload(0x40)\n      tag_105\n      swap3\n      swap2\n      swap1\n      tag_64\n      jump\t// in\n    tag_105:\n      swap1\n      dup2\n      mstore\n      0x20\n      add\n      mload(0x40)\n      dup1\n      swap2\n      sub\n      swap1\n      keccak256\n        /* \"contracts/LinkShield.sol\":2677:2709  Link memory link = links[linkId] */\n      mload(0x40)\n      dup1\n      0x80\n      add\n      0x40\n      mstore\n      swap1\n      dup2\n      0x00\n      dup3\n      add\n      dup1\n      sload\n      tag_106\n      swap1\n      tag_66\n      jump\t// in\n    tag_106:\n      dup1\n      0x1f\n      add\n      0x20\n      dup1\n      swap2\n      div\n      mul\n      0x20\n      add\n      mload(0x40)\n      swap1\n      dup2\n      add\n      0x40\n      mstore\n      dup1\n      swap3\n      swap2\n      swap1\n      dup2\n      dup2\n      mstore\n      0x20\n      add\n      dup3\n      dup1\n      sload\n      tag_107\n      swap1\n      tag_66\n      jump\t// in\n    tag_107:\n      dup1\n      iszero\n      tag_108\n      jumpi\n      dup1\n      0x1f\n      lt\n      tag_109\n      jumpi\n      0x0100\n      dup1\n      dup4\n      sload\n      div\n      mul\n      dup4\n      mstore\n      swap2\n      0x20\n      add\n      swap2\n      jump(tag_108)\n    tag_109:\n      dup3\n      add\n      swap2\n      swap1\n      0x00\n      mstore\n      keccak256(0x00, 0x20)\n      swap1\n    tag_110:\n      dup2\n      sload\n      dup2\n      mstore\n      swap1\n      0x01\n      add\n      swap1\n      0x20\n      add\n      dup1\n      dup4\n      gt\n      tag_110\n      jumpi\n      dup3\n      swap1\n      sub\n      0x1f\n      and\n      dup3\n      add\n      swap2\n    tag_108:\n      pop\n      pop\n      pop\n      pop\n      pop\n      dup2\n      mstore\n      0x20\n      add\n      0x01\n      dup3\n      add\n      0x00\n      swap1\n      sload\n      swap1\n      0x0100\n      exp\n      swap1\n      div\n      0xffffffffffffffffffffffffffffffffffffffff\n      and\n      0xffffffffffffffffffffffffffffffffffffffff\n      and\n      0xffffffffffffffffffffffffffffffffffffffff\n      and\n      dup2\n      mstore\n      0x20\n      add\n      0x02\n      dup3\n      add\n      sload\n      dup2\n      mstore\n      0x20\n      add\n      0x03\n      dup3\n      add\n      sload\n      dup2\n      mstore\n      pop\n      pop\n      swap1\n      pop\n        /* \"contracts/LinkShield.sol\":2750:2751  0 */\n      0x00\n        /* \"contracts/LinkShield.sol\":2728:2752  link.owner != address(0) */\n      0xffffffffffffffffffffffffffffffffffffffff\n      and\n        /* \"contracts/LinkShield.sol\":2728:2732  link */\n      dup2\n        /* \"contracts/LinkShield.sol\":2728:2738  link.owner */\n      0x20\n      add\n      mload\n        /* \"contracts/LinkShield.sol\":2728:2752  link.owner != address(0) */\n      0xffffffffffffffffffffffffffffffffffffffff\n      and\n      sub\n        /* \"contracts/LinkShield.sol\":2720:2771  require(link.owner != address(0), \"Link not found\") */\n      tag_111\n      jumpi\n      mload(0x40)\n      0x08c379a000000000000000000000000000000000000000000000000000000000\n      dup2\n      mstore\n      0x04\n      add\n      tag_112\n      swap1\n      tag_73\n      jump\t// in\n    tag_112:\n      mload(0x40)\n      dup1\n      swap2\n      sub\n      swap1\n      revert\n    tag_111:\n        /* \"contracts/LinkShield.sol\":2804:2814  msg.sender */\n      caller\n        /* \"contracts/LinkShield.sol\":2790:2814  link.owner == msg.sender */\n      0xffffffffffffffffffffffffffffffffffffffff\n      and\n        /* \"contracts/LinkShield.sol\":2790:2794  link */\n      dup2\n        /* \"contracts/LinkShield.sol\":2790:2800  link.owner */\n      0x20\n      add\n      mload\n        /* \"contracts/LinkShield.sol\":2790:2814  link.owner == msg.sender */\n      0xffffffffffffffffffffffffffffffffffffffff\n      and\n      eq\n        /* \"contracts/LinkShield.sol\":2782:2855  require(link.owner == msg.sender, \"You don't permission for this action\") */\n      tag_113\n      jumpi\n      mload(0x40)\n      0x08c379a000000000000000000000000000000000000000000000000000000000\n      dup2\n      mstore\n      0x04\n      add\n      tag_114\n      swap1\n      tag_59\n      jump\t// in\n    tag_114:\n      mload(0x40)\n      dup1\n      swap2\n      sub\n      swap1\n      revert\n    tag_113:\n        /* \"contracts/LinkShield.sol\":2883:2888  links */\n      0x01\n        /* \"contracts/LinkShield.sol\":2889:2895  linkId */\n      dup4\n      dup4\n        /* \"contracts/LinkShield.sol\":2883:2896  links[linkId] */\n      mload(0x40)\n      tag_115\n      swap3\n      swap2\n      swap1\n      tag_64\n      jump\t// in\n    tag_115:\n      swap1\n      dup2\n      mstore\n      0x20\n      add\n      mload(0x40)\n      dup1\n      swap2\n      sub\n      swap1\n      keccak256\n      0x00\n        /* \"contracts/LinkShield.sol\":2876:2896  delete links[linkId] */\n      0x00\n      dup3\n      add\n      0x00\n      tag_116\n      swap2\n      swap1\n      tag_117\n      jump\t// in\n    tag_116:\n      0x01\n      dup3\n      add\n      exp(0x0100, 0x00)\n      dup2\n      sload\n      swap1\n      0xffffffffffffffffffffffffffffffffffffffff\n      mul\n      not\n      and\n      swap1\n      sstore\n      0x02\n      dup3\n      add\n      0x00\n      swap1\n      sstore\n      0x03\n      dup3\n      add\n      0x00\n      swap1\n      sstore\n      pop\n      pop\n        /* \"contracts/LinkShield.sol\":2666:2904  {... */\n      pop\n        /* \"contracts/LinkShield.sol\":2614:2904  function deleteLink (string calldata linkId) public {... */\n      pop\n      pop\n      jump\t// out\n        /* \"contracts/LinkShield.sol\":411:441  address public immutable admin */\n    tag_48:\n      immutable(\"0x1d3be50b2bb17407dd170f1d5da128d1def30c6b1598d6a629e79b4775265526\")\n      dup2\n      jump\t// out\n        /* \"contracts/LinkShield.sol\":868:1441  function addLink(string calldata url, string calldata linkId, uint256 fee) public {... */\n    tag_55:\n        /* \"contracts/LinkShield.sol\":961:977  Link memory link */\n      0x00\n        /* \"contracts/LinkShield.sol\":980:985  links */\n      0x01\n        /* \"contracts/LinkShield.sol\":986:992  linkId */\n      dup5\n      dup5\n        /* \"contracts/LinkShield.sol\":980:993  links[linkId] */\n      mload(0x40)\n      tag_119\n      swap3\n      swap2\n      swap1\n      tag_64\n      jump\t// in\n    tag_119:\n      swap1\n      dup2\n      mstore\n      0x20\n      add\n      mload(0x40)\n      dup1\n      swap2\n      sub\n      swap1\n      keccak256\n        /* \"contracts/LinkShield.sol\":961:993  Link memory link = links[linkId] */\n      mload(0x40)\n      dup1\n      0x80\n      add\n      0x40\n      mstore\n      swap1\n      dup2\n      0x00\n      dup3\n      add\n      dup1\n      sload\n      tag_120\n      swap1\n      tag_66\n      jump\t// in\n    tag_120:\n      dup1\n      0x1f\n      add\n      0x20\n      dup1\n      swap2\n      div\n      mul\n      0x20\n      add\n      mload(0x40)\n      swap1\n      dup2\n      add\n      0x40\n      mstore\n      dup1\n      swap3\n      swap2\n      swap1\n      dup2\n      dup2\n      mstore\n      0x20\n      add\n      dup3\n      dup1\n      sload\n      tag_121\n      swap1\n      tag_66\n      jump\t// in\n    tag_121:\n      dup1\n      iszero\n      tag_122\n      jumpi\n      dup1\n      0x1f\n      lt\n      tag_123\n      jumpi\n      0x0100\n      dup1\n      dup4\n      sload\n      div\n      mul\n      dup4\n      mstore\n      swap2\n      0x20\n      add\n      swap2\n      jump(tag_122)\n    tag_123:\n      dup3\n      add\n      swap2\n      swap1\n      0x00\n      mstore\n      keccak256(0x00, 0x20)\n      swap1\n    tag_124:\n      dup2\n      sload\n      dup2\n      mstore\n      swap1\n      0x01\n      add\n      swap1\n      0x20\n      add\n      dup1\n      dup4\n      gt\n      tag_124\n      jumpi\n      dup3\n      swap1\n      sub\n      0x1f\n      and\n      dup3\n      add\n      swap2\n    tag_122:\n      pop\n      pop\n      pop\n      pop\n      pop\n      dup2\n      mstore\n      0x20\n      add\n      0x01\n      dup3\n      add\n      0x00\n      swap1\n      sload\n      swap1\n      0x0100\n      exp\n      swap1\n      div\n      0xffffffffffffffffffffffffffffffffffffffff\n      and\n      0xffffffffffffffffffffffffffffffffffffffff\n      and\n      0xffffffffffffffffffffffffffffffffffffffff\n      and\n      dup2\n      mstore\n      0x20\n      add\n      0x02\n      dup3\n      add\n      sload\n      dup2\n      mstore\n      0x20\n      add\n      0x03\n      dup3\n      add\n      sload\n      dup2\n      mstore\n      pop\n      pop\n      swap1\n      pop\n        /* \"contracts/LinkShield.sol\":1034:1035  0 */\n      0x00\n        /* \"contracts/LinkShield.sol\":1012:1036  link.owner == address(0) */\n      0xffffffffffffffffffffffffffffffffffffffff\n      and\n        /* \"contracts/LinkShield.sol\":1012:1016  link */\n      dup2\n        /* \"contracts/LinkShield.sol\":1012:1022  link.owner */\n      0x20\n      add\n      mload\n        /* \"contracts/LinkShield.sol\":1012:1036  link.owner == address(0) */\n      0xffffffffffffffffffffffffffffffffffffffff\n      and\n      eq\n        /* \"contracts/LinkShield.sol\":1012:1064  link.owner == address(0) || link.owner == msg.sender */\n      dup1\n      tag_125\n      jumpi\n      pop\n        /* \"contracts/LinkShield.sol\":1054:1064  msg.sender */\n      caller\n        /* \"contracts/LinkShield.sol\":1040:1064  link.owner == msg.sender */\n      0xffffffffffffffffffffffffffffffffffffffff\n      and\n        /* \"contracts/LinkShield.sol\":1040:1044  link */\n      dup2\n        /* \"contracts/LinkShield.sol\":1040:1050  link.owner */\n      0x20\n      add\n      mload\n        /* \"contracts/LinkShield.sol\":1040:1064  link.owner == msg.sender */\n      0xffffffffffffffffffffffffffffffffffffffff\n      and\n      eq\n        /* \"contracts/LinkShield.sol\":1012:1064  link.owner == address(0) || link.owner == msg.sender */\n    tag_125:\n        /* \"contracts/LinkShield.sol\":1004:1100  require(link.owner == address(0) || link.owner == msg.sender, \"This linkId alread has an owner\") */\n      tag_126\n      jumpi\n      mload(0x40)\n      0x08c379a000000000000000000000000000000000000000000000000000000000\n      dup2\n      mstore\n      0x04\n      add\n      tag_127\n      swap1\n      tag_128\n      jump\t// in\n    tag_127:\n      mload(0x40)\n      dup1\n      swap2\n      sub\n      swap1\n      revert\n    tag_126:\n        /* \"contracts/LinkShield.sol\":1126:1127  0 */\n      0x00\n        /* \"contracts/LinkShield.sol\":1119:1122  fee */\n      dup3\n        /* \"contracts/LinkShield.sol\":1119:1127  fee == 0 */\n      eq\n        /* \"contracts/LinkShield.sol\":1119:1147  fee == 0 || fee >= comission */\n      dup1\n      tag_129\n      jumpi\n      pop\n        /* \"contracts/LinkShield.sol\":1138:1147  comission */\n      sload(0x00)\n        /* \"contracts/LinkShield.sol\":1131:1134  fee */\n      dup3\n        /* \"contracts/LinkShield.sol\":1131:1147  fee >= comission */\n      lt\n      iszero\n        /* \"contracts/LinkShield.sol\":1119:1147  fee == 0 || fee >= comission */\n    tag_129:\n        /* \"contracts/LinkShield.sol\":1111:1163  require(fee == 0 || fee >= comission, \"Fee too low\") */\n      tag_130\n      jumpi\n      mload(0x40)\n      0x08c379a000000000000000000000000000000000000000000000000000000000\n      dup2\n      mstore\n      0x04\n      add\n      tag_131\n      swap1\n      tag_132\n      jump\t// in\n    tag_131:\n      mload(0x40)\n      dup1\n      swap2\n      sub\n      swap1\n      revert\n    tag_130:\n        /* \"contracts/LinkShield.sol\":1246:1249  url */\n      dup6\n      dup6\n        /* \"contracts/LinkShield.sol\":1235:1249  link.url = url */\n      dup1\n      dup1\n      0x1f\n      add\n      0x20\n      dup1\n      swap2\n      div\n      mul\n      0x20\n      add\n      mload(0x40)\n      swap1\n      dup2\n      add\n      0x40\n      mstore\n      dup1\n      swap4\n      swap3\n      swap2\n      swap1\n      dup2\n      dup2\n      mstore\n      0x20\n      add\n      dup4\n      dup4\n      dup1\n      dup3\n      dup5\n      calldatacopy\n      0x00\n      dup2\n      dup5\n      add\n      mstore\n      not(0x1f)\n      0x1f\n      dup3\n      add\n      and\n      swap1\n      pop\n      dup1\n      dup4\n      add\n      swap3\n      pop\n      pop\n      pop\n      pop\n      pop\n      pop\n      pop\n        /* \"contracts/LinkShield.sol\":1235:1239  link */\n      dup2\n        /* \"contracts/LinkShield.sol\":1235:1243  link.url */\n      0x00\n      add\n        /* \"contracts/LinkShield.sol\":1235:1249  link.url = url */\n      dup2\n      swap1\n      mstore\n      pop\n        /* \"contracts/LinkShield.sol\":1271:1274  fee */\n      dup2\n        /* \"contracts/LinkShield.sol\":1260:1264  link */\n      dup2\n        /* \"contracts/LinkShield.sol\":1260:1268  link.fee */\n      0x40\n      add\n        /* \"contracts/LinkShield.sol\":1260:1274  link.fee = fee */\n      dup2\n      dup2\n      mstore\n      pop\n      pop\n        /* \"contracts/LinkShield.sol\":1298:1308  msg.sender */\n      caller\n        /* \"contracts/LinkShield.sol\":1285:1289  link */\n      dup2\n        /* \"contracts/LinkShield.sol\":1285:1295  link.owner */\n      0x20\n      add\n        /* \"contracts/LinkShield.sol\":1285:1308  link.owner = msg.sender */\n      swap1\n      0xffffffffffffffffffffffffffffffffffffffff\n      and\n      swap1\n      dup2\n      0xffffffffffffffffffffffffffffffffffffffff\n      and\n      dup2\n      mstore\n      pop\n      pop\n        /* \"contracts/LinkShield.sol\":1336:1351  block.timestamp */\n      timestamp\n        /* \"contracts/LinkShield.sol\":1319:1323  link */\n      dup2\n        /* \"contracts/LinkShield.sol\":1319:1333  link.timestamp */\n      0x60\n      add\n        /* \"contracts/LinkShield.sol\":1319:1351  link.timestamp = block.timestamp */\n      dup2\n      dup2\n      mstore\n      pop\n      pop\n        /* \"contracts/LinkShield.sol\":1380:1384  link */\n      dup1\n        /* \"contracts/LinkShield.sol\":1364:1369  links */\n      0x01\n        /* \"contracts/LinkShield.sol\":1370:1376  linkId */\n      dup6\n      dup6\n        /* \"contracts/LinkShield.sol\":1364:1377  links[linkId] */\n      mload(0x40)\n      tag_133\n      swap3\n      swap2\n      swap1\n      tag_64\n      jump\t// in\n    tag_133:\n      swap1\n      dup2\n      mstore\n      0x20\n      add\n      mload(0x40)\n      dup1\n      swap2\n      sub\n      swap1\n      keccak256\n        /* \"contracts/LinkShield.sol\":1364:1384  links[linkId] = link */\n      0x00\n      dup3\n      add\n      mload\n      dup2\n      0x00\n      add\n      swap1\n      dup2\n      tag_134\n      swap2\n      swap1\n      tag_135\n      jump\t// in\n    tag_134:\n      pop\n      0x20\n      dup3\n      add\n      mload\n      dup2\n      0x01\n      add\n      exp(0x0100, 0x00)\n      dup2\n      sload\n      dup2\n      0xffffffffffffffffffffffffffffffffffffffff\n      mul\n      not\n      and\n      swap1\n      dup4\n      0xffffffffffffffffffffffffffffffffffffffff\n      and\n      mul\n      or\n      swap1\n      sstore\n      pop\n      0x40\n      dup3\n      add\n      mload\n      dup2\n      0x02\n      add\n      sstore\n      0x60\n      dup3\n      add\n      mload\n      dup2\n      0x03\n      add\n      sstore\n      swap1\n      pop\n      pop\n        /* \"contracts/LinkShield.sol\":1429:1433  true */\n      0x01\n        /* \"contracts/LinkShield.sol\":1397:1406  hasAccess */\n      0x02\n        /* \"contracts/LinkShield.sol\":1407:1413  linkId */\n      dup6\n      dup6\n        /* \"contracts/LinkShield.sol\":1397:1414  hasAccess[linkId] */\n      mload(0x40)\n      tag_136\n      swap3\n      swap2\n      swap1\n      tag_64\n      jump\t// in\n    tag_136:\n      swap1\n      dup2\n      mstore\n      0x20\n      add\n      mload(0x40)\n      dup1\n      swap2\n      sub\n      swap1\n      keccak256\n        /* \"contracts/LinkShield.sol\":1397:1426  hasAccess[linkId][msg.sender] */\n      0x00\n        /* \"contracts/LinkShield.sol\":1415:1425  msg.sender */\n      caller\n        /* \"contracts/LinkShield.sol\":1397:1426  hasAccess[linkId][msg.sender] */\n      0xffffffffffffffffffffffffffffffffffffffff\n      and\n      0xffffffffffffffffffffffffffffffffffffffff\n      and\n      dup2\n      mstore\n      0x20\n      add\n      swap1\n      dup2\n      mstore\n      0x20\n      add\n      0x00\n      keccak256\n      0x00\n        /* \"contracts/LinkShield.sol\":1397:1433  hasAccess[linkId][msg.sender] = true */\n      0x0100\n      exp\n      dup2\n      sload\n      dup2\n      0xff\n      mul\n      not\n      and\n      swap1\n      dup4\n      iszero\n      iszero\n      mul\n      or\n      swap1\n      sstore\n      pop\n        /* \"contracts/LinkShield.sol\":950:1441  {... */\n      pop\n        /* \"contracts/LinkShield.sol\":868:1441  function addLink(string calldata url, string calldata linkId, uint256 fee) public {... */\n      pop\n      pop\n      pop\n      pop\n      pop\n      jump\t// out\n    tag_93:\n      mload(0x40)\n      dup1\n      0x80\n      add\n      0x40\n      mstore\n      dup1\n      0x60\n      dup2\n      mstore\n      0x20\n      add\n      and(0xffffffffffffffffffffffffffffffffffffffff, 0x00)\n      dup2\n      mstore\n      0x20\n      add\n      0x00\n      dup2\n      mstore\n      0x20\n      add\n      0x00\n      dup2\n      mstore\n      pop\n      swap1\n      jump\t// out\n    tag_117:\n      pop\n      dup1\n      sload\n      tag_137\n      swap1\n      tag_66\n      jump\t// in\n    tag_137:\n      0x00\n      dup3\n      sstore\n      dup1\n      0x1f\n      lt\n      tag_139\n      jumpi\n      pop\n      jump(tag_138)\n    tag_139:\n      0x1f\n      add\n      0x20\n      swap1\n      div\n      swap1\n      0x00\n      mstore\n      keccak256(0x00, 0x20)\n      swap1\n      dup2\n      add\n      swap1\n      tag_140\n      swap2\n      swap1\n      tag_141\n      jump\t// in\n    tag_140:\n    tag_138:\n      pop\n      jump\t// out\n    tag_141:\n    tag_142:\n      dup1\n      dup3\n      gt\n      iszero\n      tag_143\n      jumpi\n      0x00\n      dup2\n      0x00\n      swap1\n      sstore\n      pop\n      0x01\n      add\n      jump(tag_142)\n    tag_143:\n      pop\n      swap1\n      jump\t// out\n        /* \"#utility.yul\":7:82   */\n    tag_144:\n        /* \"#utility.yul\":40:46   */\n      0x00\n        /* \"#utility.yul\":73:75   */\n      0x40\n        /* \"#utility.yul\":67:76   */\n      mload\n        /* \"#utility.yul\":57:76   */\n      swap1\n      pop\n        /* \"#utility.yul\":7:82   */\n      swap1\n      jump\t// out\n        /* \"#utility.yul\":88:205   */\n    tag_145:\n        /* \"#utility.yul\":197:198   */\n      0x00\n        /* \"#utility.yul\":194:195   */\n      0x00\n        /* \"#utility.yul\":187:199   */\n      revert\n        /* \"#utility.yul\":211:328   */\n    tag_146:\n        /* \"#utility.yul\":320:321   */\n      0x00\n        /* \"#utility.yul\":317:318   */\n      0x00\n        /* \"#utility.yul\":310:322   */\n      revert\n        /* \"#utility.yul\":334:451   */\n    tag_147:\n        /* \"#utility.yul\":443:444   */\n      0x00\n        /* \"#utility.yul\":440:441   */\n      0x00\n        /* \"#utility.yul\":433:445   */\n      revert\n        /* \"#utility.yul\":457:574   */\n    tag_148:\n        /* \"#utility.yul\":566:567   */\n      0x00\n        /* \"#utility.yul\":563:564   */\n      0x00\n        /* \"#utility.yul\":556:568   */\n      revert\n        /* \"#utility.yul\":580:682   */\n    tag_149:\n        /* \"#utility.yul\":621:627   */\n      0x00\n        /* \"#utility.yul\":672:674   */\n      0x1f\n        /* \"#utility.yul\":668:675   */\n      not\n        /* \"#utility.yul\":663:665   */\n      0x1f\n        /* \"#utility.yul\":656:661   */\n      dup4\n        /* \"#utility.yul\":652:666   */\n      add\n        /* \"#utility.yul\":648:676   */\n      and\n        /* \"#utility.yul\":638:676   */\n      swap1\n      pop\n        /* \"#utility.yul\":580:682   */\n      swap2\n      swap1\n      pop\n      jump\t// out\n        /* \"#utility.yul\":688:868   */\n    tag_150:\n        /* \"#utility.yul\":736:813   */\n      0x4e487b7100000000000000000000000000000000000000000000000000000000\n        /* \"#utility.yul\":733:734   */\n      0x00\n        /* \"#utility.yul\":726:814   */\n      mstore\n        /* \"#utility.yul\":833:837   */\n      0x41\n        /* \"#utility.yul\":830:831   */\n      0x04\n        /* \"#utility.yul\":823:838   */\n      mstore\n        /* \"#utility.yul\":857:861   */\n      0x24\n        /* \"#utility.yul\":854:855   */\n      0x00\n        /* \"#utility.yul\":847:862   */\n      revert\n        /* \"#utility.yul\":874:1155   */\n    tag_151:\n        /* \"#utility.yul\":957:984   */\n      tag_219\n        /* \"#utility.yul\":979:983   */\n      dup3\n        /* \"#utility.yul\":957:984   */\n      tag_149\n      jump\t// in\n    tag_219:\n        /* \"#utility.yul\":949:955   */\n      dup2\n        /* \"#utility.yul\":945:985   */\n      add\n        /* \"#utility.yul\":1087:1093   */\n      dup2\n        /* \"#utility.yul\":1075:1085   */\n      dup2\n        /* \"#utility.yul\":1072:1094   */\n      lt\n        /* \"#utility.yul\":1051:1069   */\n      0xffffffffffffffff\n        /* \"#utility.yul\":1039:1049   */\n      dup3\n        /* \"#utility.yul\":1036:1070   */\n      gt\n        /* \"#utility.yul\":1033:1095   */\n      or\n        /* \"#utility.yul\":1030:1118   */\n      iszero\n      tag_220\n      jumpi\n        /* \"#utility.yul\":1098:1116   */\n      tag_221\n      tag_150\n      jump\t// in\n    tag_221:\n        /* \"#utility.yul\":1030:1118   */\n    tag_220:\n        /* \"#utility.yul\":1138:1148   */\n      dup1\n        /* \"#utility.yul\":1134:1136   */\n      0x40\n        /* \"#utility.yul\":1127:1149   */\n      mstore\n        /* \"#utility.yul\":917:1155   */\n      pop\n        /* \"#utility.yul\":874:1155   */\n      pop\n      pop\n      jump\t// out\n        /* \"#utility.yul\":1161:1290   */\n    tag_152:\n        /* \"#utility.yul\":1195:1201   */\n      0x00\n        /* \"#utility.yul\":1222:1242   */\n      tag_223\n      tag_144\n      jump\t// in\n    tag_223:\n        /* \"#utility.yul\":1212:1242   */\n      swap1\n      pop\n        /* \"#utility.yul\":1251:1284   */\n      tag_224\n        /* \"#utility.yul\":1279:1283   */\n      dup3\n        /* \"#utility.yul\":1271:1277   */\n      dup3\n        /* \"#utility.yul\":1251:1284   */\n      tag_151\n      jump\t// in\n    tag_224:\n        /* \"#utility.yul\":1161:1290   */\n      swap2\n      swap1\n      pop\n      jump\t// out\n        /* \"#utility.yul\":1296:1604   */\n    tag_153:\n        /* \"#utility.yul\":1358:1362   */\n      0x00\n        /* \"#utility.yul\":1448:1466   */\n      0xffffffffffffffff\n        /* \"#utility.yul\":1440:1446   */\n      dup3\n        /* \"#utility.yul\":1437:1467   */\n      gt\n        /* \"#utility.yul\":1434:1490   */\n      iszero\n      tag_226\n      jumpi\n        /* \"#utility.yul\":1470:1488   */\n      tag_227\n      tag_150\n      jump\t// in\n    tag_227:\n        /* \"#utility.yul\":1434:1490   */\n    tag_226:\n        /* \"#utility.yul\":1508:1537   */\n      tag_228\n        /* \"#utility.yul\":1530:1536   */\n      dup3\n        /* \"#utility.yul\":1508:1537   */\n      tag_149\n      jump\t// in\n    tag_228:\n        /* \"#utility.yul\":1500:1537   */\n      swap1\n      pop\n        /* \"#utility.yul\":1592:1596   */\n      0x20\n        /* \"#utility.yul\":1586:1590   */\n      dup2\n        /* \"#utility.yul\":1582:1597   */\n      add\n        /* \"#utility.yul\":1574:1597   */\n      swap1\n      pop\n        /* \"#utility.yul\":1296:1604   */\n      swap2\n      swap1\n      pop\n      jump\t// out\n        /* \"#utility.yul\":1610:1758   */\n    tag_154:\n        /* \"#utility.yul\":1708:1714   */\n      dup3\n        /* \"#utility.yul\":1703:1706   */\n      dup2\n        /* \"#utility.yul\":1698:1701   */\n      dup4\n        /* \"#utility.yul\":1685:1715   */\n      calldatacopy\n        /* \"#utility.yul\":1749:1750   */\n      0x00\n        /* \"#utility.yul\":1740:1746   */\n      dup4\n        /* \"#utility.yul\":1735:1738   */\n      dup4\n        /* \"#utility.yul\":1731:1747   */\n      add\n        /* \"#utility.yul\":1724:1751   */\n      mstore\n        /* \"#utility.yul\":1610:1758   */\n      pop\n      pop\n      pop\n      jump\t// out\n        /* \"#utility.yul\":1764:2189   */\n    tag_155:\n        /* \"#utility.yul\":1842:1847   */\n      0x00\n        /* \"#utility.yul\":1867:1933   */\n      tag_231\n        /* \"#utility.yul\":1883:1932   */\n      tag_232\n        /* \"#utility.yul\":1925:1931   */\n      dup5\n        /* \"#utility.yul\":1883:1932   */\n      tag_153\n      jump\t// in\n    tag_232:\n        /* \"#utility.yul\":1867:1933   */\n      tag_152\n      jump\t// in\n    tag_231:\n        /* \"#utility.yul\":1858:1933   */\n      swap1\n      pop\n        /* \"#utility.yul\":1956:1962   */\n      dup3\n        /* \"#utility.yul\":1949:1954   */\n      dup2\n        /* \"#utility.yul\":1942:1963   */\n      mstore\n        /* \"#utility.yul\":1994:1998   */\n      0x20\n        /* \"#utility.yul\":1987:1992   */\n      dup2\n        /* \"#utility.yul\":1983:1999   */\n      add\n        /* \"#utility.yul\":2032:2035   */\n      dup5\n        /* \"#utility.yul\":2023:2029   */\n      dup5\n        /* \"#utility.yul\":2018:2021   */\n      dup5\n        /* \"#utility.yul\":2014:2030   */\n      add\n        /* \"#utility.yul\":2011:2036   */\n      gt\n        /* \"#utility.yul\":2008:2120   */\n      iszero\n      tag_233\n      jumpi\n        /* \"#utility.yul\":2039:2118   */\n      tag_234\n      tag_148\n      jump\t// in\n    tag_234:\n        /* \"#utility.yul\":2008:2120   */\n    tag_233:\n        /* \"#utility.yul\":2129:2183   */\n      tag_235\n        /* \"#utility.yul\":2176:2182   */\n      dup5\n        /* \"#utility.yul\":2171:2174   */\n      dup3\n        /* \"#utility.yul\":2166:2169   */\n      dup6\n        /* \"#utility.yul\":2129:2183   */\n      tag_154\n      jump\t// in\n    tag_235:\n        /* \"#utility.yul\":1848:2189   */\n      pop\n        /* \"#utility.yul\":1764:2189   */\n      swap4\n      swap3\n      pop\n      pop\n      pop\n      jump\t// out\n        /* \"#utility.yul\":2209:2549   */\n    tag_156:\n        /* \"#utility.yul\":2265:2270   */\n      0x00\n        /* \"#utility.yul\":2314:2317   */\n      dup3\n        /* \"#utility.yul\":2307:2311   */\n      0x1f\n        /* \"#utility.yul\":2299:2305   */\n      dup4\n        /* \"#utility.yul\":2295:2312   */\n      add\n        /* \"#utility.yul\":2291:2318   */\n      slt\n        /* \"#utility.yul\":2281:2403   */\n      tag_237\n      jumpi\n        /* \"#utility.yul\":2322:2401   */\n      tag_238\n      tag_147\n      jump\t// in\n    tag_238:\n        /* \"#utility.yul\":2281:2403   */\n    tag_237:\n        /* \"#utility.yul\":2439:2445   */\n      dup2\n        /* \"#utility.yul\":2426:2446   */\n      calldataload\n        /* \"#utility.yul\":2464:2543   */\n      tag_239\n        /* \"#utility.yul\":2539:2542   */\n      dup5\n        /* \"#utility.yul\":2531:2537   */\n      dup3\n        /* \"#utility.yul\":2524:2528   */\n      0x20\n        /* \"#utility.yul\":2516:2522   */\n      dup7\n        /* \"#utility.yul\":2512:2529   */\n      add\n        /* \"#utility.yul\":2464:2543   */\n      tag_155\n      jump\t// in\n    tag_239:\n        /* \"#utility.yul\":2455:2543   */\n      swap2\n      pop\n        /* \"#utility.yul\":2271:2549   */\n      pop\n        /* \"#utility.yul\":2209:2549   */\n      swap3\n      swap2\n      pop\n      pop\n      jump\t// out\n        /* \"#utility.yul\":2555:2681   */\n    tag_157:\n        /* \"#utility.yul\":2592:2599   */\n      0x00\n        /* \"#utility.yul\":2632:2674   */\n      0xffffffffffffffffffffffffffffffffffffffff\n        /* \"#utility.yul\":2625:2630   */\n      dup3\n        /* \"#utility.yul\":2621:2675   */\n      and\n        /* \"#utility.yul\":2610:2675   */\n      swap1\n      pop\n        /* \"#utility.yul\":2555:2681   */\n      swap2\n      swap1\n      pop\n      jump\t// out\n        /* \"#utility.yul\":2687:2783   */\n    tag_158:\n        /* \"#utility.yul\":2724:2731   */\n      0x00\n        /* \"#utility.yul\":2753:2777   */\n      tag_242\n        /* \"#utility.yul\":2771:2776   */\n      dup3\n        /* \"#utility.yul\":2753:2777   */\n      tag_157\n      jump\t// in\n    tag_242:\n        /* \"#utility.yul\":2742:2777   */\n      swap1\n      pop\n        /* \"#utility.yul\":2687:2783   */\n      swap2\n      swap1\n      pop\n      jump\t// out\n        /* \"#utility.yul\":2789:2911   */\n    tag_159:\n        /* \"#utility.yul\":2862:2886   */\n      tag_244\n        /* \"#utility.yul\":2880:2885   */\n      dup2\n        /* \"#utility.yul\":2862:2886   */\n      tag_158\n      jump\t// in\n    tag_244:\n        /* \"#utility.yul\":2855:2860   */\n      dup2\n        /* \"#utility.yul\":2852:2887   */\n      eq\n        /* \"#utility.yul\":2842:2905   */\n      tag_245\n      jumpi\n        /* \"#utility.yul\":2901:2902   */\n      0x00\n        /* \"#utility.yul\":2898:2899   */\n      0x00\n        /* \"#utility.yul\":2891:2903   */\n      revert\n        /* \"#utility.yul\":2842:2905   */\n    tag_245:\n        /* \"#utility.yul\":2789:2911   */\n      pop\n      jump\t// out\n        /* \"#utility.yul\":2917:3056   */\n    tag_160:\n        /* \"#utility.yul\":2963:2968   */\n      0x00\n        /* \"#utility.yul\":3001:3007   */\n      dup2\n        /* \"#utility.yul\":2988:3008   */\n      calldataload\n        /* \"#utility.yul\":2979:3008   */\n      swap1\n      pop\n        /* \"#utility.yul\":3017:3050   */\n      tag_247\n        /* \"#utility.yul\":3044:3049   */\n      dup2\n        /* \"#utility.yul\":3017:3050   */\n      tag_159\n      jump\t// in\n    tag_247:\n        /* \"#utility.yul\":2917:3056   */\n      swap3\n      swap2\n      pop\n      pop\n      jump\t// out\n        /* \"#utility.yul\":3062:3716   */\n    tag_15:\n        /* \"#utility.yul\":3140:3146   */\n      0x00\n        /* \"#utility.yul\":3148:3154   */\n      0x00\n        /* \"#utility.yul\":3197:3199   */\n      0x40\n        /* \"#utility.yul\":3185:3194   */\n      dup4\n        /* \"#utility.yul\":3176:3183   */\n      dup6\n        /* \"#utility.yul\":3172:3195   */\n      sub\n        /* \"#utility.yul\":3168:3200   */\n      slt\n        /* \"#utility.yul\":3165:3284   */\n      iszero\n      tag_249\n      jumpi\n        /* \"#utility.yul\":3203:3282   */\n      tag_250\n      tag_145\n      jump\t// in\n    tag_250:\n        /* \"#utility.yul\":3165:3284   */\n    tag_249:\n        /* \"#utility.yul\":3351:3352   */\n      0x00\n        /* \"#utility.yul\":3340:3349   */\n      dup4\n        /* \"#utility.yul\":3336:3353   */\n      add\n        /* \"#utility.yul\":3323:3354   */\n      calldataload\n        /* \"#utility.yul\":3381:3399   */\n      0xffffffffffffffff\n        /* \"#utility.yul\":3373:3379   */\n      dup2\n        /* \"#utility.yul\":3370:3400   */\n      gt\n        /* \"#utility.yul\":3367:3484   */\n      iszero\n      tag_251\n      jumpi\n        /* \"#utility.yul\":3403:3482   */\n      tag_252\n      tag_146\n      jump\t// in\n    tag_252:\n        /* \"#utility.yul\":3367:3484   */\n    tag_251:\n        /* \"#utility.yul\":3508:3571   */\n      tag_253\n        /* \"#utility.yul\":3563:3570   */\n      dup6\n        /* \"#utility.yul\":3554:3560   */\n      dup3\n        /* \"#utility.yul\":3543:3552   */\n      dup7\n        /* \"#utility.yul\":3539:3561   */\n      add\n        /* \"#utility.yul\":3508:3571   */\n      tag_156\n      jump\t// in\n    tag_253:\n        /* \"#utility.yul\":3498:3571   */\n      swap3\n      pop\n        /* \"#utility.yul\":3294:3581   */\n      pop\n        /* \"#utility.yul\":3620:3622   */\n      0x20\n        /* \"#utility.yul\":3646:3699   */\n      tag_254\n        /* \"#utility.yul\":3691:3698   */\n      dup6\n        /* \"#utility.yul\":3682:3688   */\n      dup3\n        /* \"#utility.yul\":3671:3680   */\n      dup7\n        /* \"#utility.yul\":3667:3689   */\n      add\n        /* \"#utility.yul\":3646:3699   */\n      tag_160\n      jump\t// in\n    tag_254:\n        /* \"#utility.yul\":3636:3699   */\n      swap2\n      pop\n        /* \"#utility.yul\":3591:3709   */\n      pop\n        /* \"#utility.yul\":3062:3716   */\n      swap3\n      pop\n      swap3\n      swap1\n      pop\n      jump\t// out\n        /* \"#utility.yul\":3722:3812   */\n    tag_161:\n        /* \"#utility.yul\":3756:3763   */\n      0x00\n        /* \"#utility.yul\":3799:3804   */\n      dup2\n        /* \"#utility.yul\":3792:3805   */\n      iszero\n        /* \"#utility.yul\":3785:3806   */\n      iszero\n        /* \"#utility.yul\":3774:3806   */\n      swap1\n      pop\n        /* \"#utility.yul\":3722:3812   */\n      swap2\n      swap1\n      pop\n      jump\t// out\n        /* \"#utility.yul\":3818:3927   */\n    tag_162:\n        /* \"#utility.yul\":3899:3920   */\n      tag_257\n        /* \"#utility.yul\":3914:3919   */\n      dup2\n        /* \"#utility.yul\":3899:3920   */\n      tag_161\n      jump\t// in\n    tag_257:\n        /* \"#utility.yul\":3894:3897   */\n      dup3\n        /* \"#utility.yul\":3887:3921   */\n      mstore\n        /* \"#utility.yul\":3818:3927   */\n      pop\n      pop\n      jump\t// out\n        /* \"#utility.yul\":3933:4143   */\n    tag_18:\n        /* \"#utility.yul\":4020:4024   */\n      0x00\n        /* \"#utility.yul\":4058:4060   */\n      0x20\n        /* \"#utility.yul\":4047:4056   */\n      dup3\n        /* \"#utility.yul\":4043:4061   */\n      add\n        /* \"#utility.yul\":4035:4061   */\n      swap1\n      pop\n        /* \"#utility.yul\":4071:4136   */\n      tag_259\n        /* \"#utility.yul\":4133:4134   */\n      0x00\n        /* \"#utility.yul\":4122:4131   */\n      dup4\n        /* \"#utility.yul\":4118:4135   */\n      add\n        /* \"#utility.yul\":4109:4115   */\n      dup5\n        /* \"#utility.yul\":4071:4136   */\n      tag_162\n      jump\t// in\n    tag_259:\n        /* \"#utility.yul\":3933:4143   */\n      swap3\n      swap2\n      pop\n      pop\n      jump\t// out\n        /* \"#utility.yul\":4149:4226   */\n    tag_163:\n        /* \"#utility.yul\":4186:4193   */\n      0x00\n        /* \"#utility.yul\":4215:4220   */\n      dup2\n        /* \"#utility.yul\":4204:4220   */\n      swap1\n      pop\n        /* \"#utility.yul\":4149:4226   */\n      swap2\n      swap1\n      pop\n      jump\t// out\n        /* \"#utility.yul\":4232:4350   */\n    tag_164:\n        /* \"#utility.yul\":4319:4343   */\n      tag_262\n        /* \"#utility.yul\":4337:4342   */\n      dup2\n        /* \"#utility.yul\":4319:4343   */\n      tag_163\n      jump\t// in\n    tag_262:\n        /* \"#utility.yul\":4314:4317   */\n      dup3\n        /* \"#utility.yul\":4307:4344   */\n      mstore\n        /* \"#utility.yul\":4232:4350   */\n      pop\n      pop\n      jump\t// out\n        /* \"#utility.yul\":4356:4578   */\n    tag_23:\n        /* \"#utility.yul\":4449:4453   */\n      0x00\n        /* \"#utility.yul\":4487:4489   */\n      0x20\n        /* \"#utility.yul\":4476:4485   */\n      dup3\n        /* \"#utility.yul\":4472:4490   */\n      add\n        /* \"#utility.yul\":4464:4490   */\n      swap1\n      pop\n        /* \"#utility.yul\":4500:4571   */\n      tag_264\n        /* \"#utility.yul\":4568:4569   */\n      0x00\n        /* \"#utility.yul\":4557:4566   */\n      dup4\n        /* \"#utility.yul\":4553:4570   */\n      add\n        /* \"#utility.yul\":4544:4550   */\n      dup5\n        /* \"#utility.yul\":4500:4571   */\n      tag_164\n      jump\t// in\n    tag_264:\n        /* \"#utility.yul\":4356:4578   */\n      swap3\n      swap2\n      pop\n      pop\n      jump\t// out\n        /* \"#utility.yul\":4584:4701   */\n    tag_165:\n        /* \"#utility.yul\":4693:4694   */\n      0x00\n        /* \"#utility.yul\":4690:4691   */\n      0x00\n        /* \"#utility.yul\":4683:4695   */\n      revert\n        /* \"#utility.yul\":4707:4824   */\n    tag_166:\n        /* \"#utility.yul\":4816:4817   */\n      0x00\n        /* \"#utility.yul\":4813:4814   */\n      0x00\n        /* \"#utility.yul\":4806:4818   */\n      revert\n        /* \"#utility.yul\":4844:5397   */\n    tag_167:\n        /* \"#utility.yul\":4902:4910   */\n      0x00\n        /* \"#utility.yul\":4912:4918   */\n      0x00\n        /* \"#utility.yul\":4962:4965   */\n      dup4\n        /* \"#utility.yul\":4955:4959   */\n      0x1f\n        /* \"#utility.yul\":4947:4953   */\n      dup5\n        /* \"#utility.yul\":4943:4960   */\n      add\n        /* \"#utility.yul\":4939:4966   */\n      slt\n        /* \"#utility.yul\":4929:5051   */\n      tag_268\n      jumpi\n        /* \"#utility.yul\":4970:5049   */\n      tag_269\n      tag_147\n      jump\t// in\n    tag_269:\n        /* \"#utility.yul\":4929:5051   */\n    tag_268:\n        /* \"#utility.yul\":5083:5089   */\n      dup3\n        /* \"#utility.yul\":5070:5090   */\n      calldataload\n        /* \"#utility.yul\":5060:5090   */\n      swap1\n      pop\n        /* \"#utility.yul\":5113:5131   */\n      0xffffffffffffffff\n        /* \"#utility.yul\":5105:5111   */\n      dup2\n        /* \"#utility.yul\":5102:5132   */\n      gt\n        /* \"#utility.yul\":5099:5216   */\n      iszero\n      tag_270\n      jumpi\n        /* \"#utility.yul\":5135:5214   */\n      tag_271\n      tag_165\n      jump\t// in\n    tag_271:\n        /* \"#utility.yul\":5099:5216   */\n    tag_270:\n        /* \"#utility.yul\":5249:5253   */\n      0x20\n        /* \"#utility.yul\":5241:5247   */\n      dup4\n        /* \"#utility.yul\":5237:5254   */\n      add\n        /* \"#utility.yul\":5225:5254   */\n      swap2\n      pop\n        /* \"#utility.yul\":5303:5306   */\n      dup4\n        /* \"#utility.yul\":5295:5299   */\n      0x01\n        /* \"#utility.yul\":5287:5293   */\n      dup3\n        /* \"#utility.yul\":5283:5300   */\n      mul\n        /* \"#utility.yul\":5273:5281   */\n      dup4\n        /* \"#utility.yul\":5269:5301   */\n      add\n        /* \"#utility.yul\":5266:5307   */\n      gt\n        /* \"#utility.yul\":5263:5391   */\n      iszero\n      tag_272\n      jumpi\n        /* \"#utility.yul\":5310:5389   */\n      tag_273\n      tag_166\n      jump\t// in\n    tag_273:\n        /* \"#utility.yul\":5263:5391   */\n    tag_272:\n        /* \"#utility.yul\":4844:5397   */\n      swap3\n      pop\n      swap3\n      swap1\n      pop\n      jump\t// out\n        /* \"#utility.yul\":5403:5932   */\n    tag_29:\n        /* \"#utility.yul\":5474:5480   */\n      0x00\n        /* \"#utility.yul\":5482:5488   */\n      0x00\n        /* \"#utility.yul\":5531:5533   */\n      0x20\n        /* \"#utility.yul\":5519:5528   */\n      dup4\n        /* \"#utility.yul\":5510:5517   */\n      dup6\n        /* \"#utility.yul\":5506:5529   */\n      sub\n        /* \"#utility.yul\":5502:5534   */\n      slt\n        /* \"#utility.yul\":5499:5618   */\n      iszero\n      tag_275\n      jumpi\n        /* \"#utility.yul\":5537:5616   */\n      tag_276\n      tag_145\n      jump\t// in\n    tag_276:\n        /* \"#utility.yul\":5499:5618   */\n    tag_275:\n        /* \"#utility.yul\":5685:5686   */\n      0x00\n        /* \"#utility.yul\":5674:5683   */\n      dup4\n        /* \"#utility.yul\":5670:5687   */\n      add\n        /* \"#utility.yul\":5657:5688   */\n      calldataload\n        /* \"#utility.yul\":5715:5733   */\n      0xffffffffffffffff\n        /* \"#utility.yul\":5707:5713   */\n      dup2\n        /* \"#utility.yul\":5704:5734   */\n      gt\n        /* \"#utility.yul\":5701:5818   */\n      iszero\n      tag_277\n      jumpi\n        /* \"#utility.yul\":5737:5816   */\n      tag_278\n      tag_146\n      jump\t// in\n    tag_278:\n        /* \"#utility.yul\":5701:5818   */\n    tag_277:\n        /* \"#utility.yul\":5850:5915   */\n      tag_279\n        /* \"#utility.yul\":5907:5914   */\n      dup6\n        /* \"#utility.yul\":5898:5904   */\n      dup3\n        /* \"#utility.yul\":5887:5896   */\n      dup7\n        /* \"#utility.yul\":5883:5905   */\n      add\n        /* \"#utility.yul\":5850:5915   */\n      tag_167\n      jump\t// in\n    tag_279:\n        /* \"#utility.yul\":5832:5915   */\n      swap3\n      pop\n      swap3\n      pop\n        /* \"#utility.yul\":5628:5925   */\n      pop\n        /* \"#utility.yul\":5403:5932   */\n      swap3\n      pop\n      swap3\n      swap1\n      pop\n      jump\t// out\n        /* \"#utility.yul\":5938:6060   */\n    tag_168:\n        /* \"#utility.yul\":6011:6035   */\n      tag_281\n        /* \"#utility.yul\":6029:6034   */\n      dup2\n        /* \"#utility.yul\":6011:6035   */\n      tag_163\n      jump\t// in\n    tag_281:\n        /* \"#utility.yul\":6004:6009   */\n      dup2\n        /* \"#utility.yul\":6001:6036   */\n      eq\n        /* \"#utility.yul\":5991:6054   */\n      tag_282\n      jumpi\n        /* \"#utility.yul\":6050:6051   */\n      0x00\n        /* \"#utility.yul\":6047:6048   */\n      0x00\n        /* \"#utility.yul\":6040:6052   */\n      revert\n        /* \"#utility.yul\":5991:6054   */\n    tag_282:\n        /* \"#utility.yul\":5938:6060   */\n      pop\n      jump\t// out\n        /* \"#utility.yul\":6066:6205   */\n    tag_169:\n        /* \"#utility.yul\":6112:6117   */\n      0x00\n        /* \"#utility.yul\":6150:6156   */\n      dup2\n        /* \"#utility.yul\":6137:6157   */\n      calldataload\n        /* \"#utility.yul\":6128:6157   */\n      swap1\n      pop\n        /* \"#utility.yul\":6166:6199   */\n      tag_284\n        /* \"#utility.yul\":6193:6198   */\n      dup2\n        /* \"#utility.yul\":6166:6199   */\n      tag_168\n      jump\t// in\n    tag_284:\n        /* \"#utility.yul\":6066:6205   */\n      swap3\n      swap2\n      pop\n      pop\n      jump\t// out\n        /* \"#utility.yul\":6211:6885   */\n    tag_34:\n        /* \"#utility.yul\":6291:6297   */\n      0x00\n        /* \"#utility.yul\":6299:6305   */\n      0x00\n        /* \"#utility.yul\":6307:6313   */\n      0x00\n        /* \"#utility.yul\":6356:6358   */\n      0x40\n        /* \"#utility.yul\":6344:6353   */\n      dup5\n        /* \"#utility.yul\":6335:6342   */\n      dup7\n        /* \"#utility.yul\":6331:6354   */\n      sub\n        /* \"#utility.yul\":6327:6359   */\n      slt\n        /* \"#utility.yul\":6324:6443   */\n      iszero\n      tag_286\n      jumpi\n        /* \"#utility.yul\":6362:6441   */\n      tag_287\n      tag_145\n      jump\t// in\n    tag_287:\n        /* \"#utility.yul\":6324:6443   */\n    tag_286:\n        /* \"#utility.yul\":6510:6511   */\n      0x00\n        /* \"#utility.yul\":6499:6508   */\n      dup5\n        /* \"#utility.yul\":6495:6512   */\n      add\n        /* \"#utility.yul\":6482:6513   */\n      calldataload\n        /* \"#utility.yul\":6540:6558   */\n      0xffffffffffffffff\n        /* \"#utility.yul\":6532:6538   */\n      dup2\n        /* \"#utility.yul\":6529:6559   */\n      gt\n        /* \"#utility.yul\":6526:6643   */\n      iszero\n      tag_288\n      jumpi\n        /* \"#utility.yul\":6562:6641   */\n      tag_289\n      tag_146\n      jump\t// in\n    tag_289:\n        /* \"#utility.yul\":6526:6643   */\n    tag_288:\n        /* \"#utility.yul\":6675:6740   */\n      tag_290\n        /* \"#utility.yul\":6732:6739   */\n      dup7\n        /* \"#utility.yul\":6723:6729   */\n      dup3\n        /* \"#utility.yul\":6712:6721   */\n      dup8\n        /* \"#utility.yul\":6708:6730   */\n      add\n        /* \"#utility.yul\":6675:6740   */\n      tag_167\n      jump\t// in\n    tag_290:\n        /* \"#utility.yul\":6657:6740   */\n      swap4\n      pop\n      swap4\n      pop\n        /* \"#utility.yul\":6453:6750   */\n      pop\n        /* \"#utility.yul\":6789:6791   */\n      0x20\n        /* \"#utility.yul\":6815:6868   */\n      tag_291\n        /* \"#utility.yul\":6860:6867   */\n      dup7\n        /* \"#utility.yul\":6851:6857   */\n      dup3\n        /* \"#utility.yul\":6840:6849   */\n      dup8\n        /* \"#utility.yul\":6836:6858   */\n      add\n        /* \"#utility.yul\":6815:6868   */\n      tag_169\n      jump\t// in\n    tag_291:\n        /* \"#utility.yul\":6805:6868   */\n      swap2\n      pop\n        /* \"#utility.yul\":6760:6878   */\n      pop\n        /* \"#utility.yul\":6211:6885   */\n      swap3\n      pop\n      swap3\n      pop\n      swap3\n      jump\t// out\n        /* \"#utility.yul\":6891:6990   */\n    tag_170:\n        /* \"#utility.yul\":6943:6949   */\n      0x00\n        /* \"#utility.yul\":6977:6982   */\n      dup2\n        /* \"#utility.yul\":6971:6983   */\n      mload\n        /* \"#utility.yul\":6961:6983   */\n      swap1\n      pop\n        /* \"#utility.yul\":6891:6990   */\n      swap2\n      swap1\n      pop\n      jump\t// out\n        /* \"#utility.yul\":6996:7155   */\n    tag_171:\n        /* \"#utility.yul\":7070:7081   */\n      0x00\n        /* \"#utility.yul\":7104:7110   */\n      dup3\n        /* \"#utility.yul\":7099:7102   */\n      dup3\n        /* \"#utility.yul\":7092:7111   */\n      mstore\n        /* \"#utility.yul\":7144:7148   */\n      0x20\n        /* \"#utility.yul\":7139:7142   */\n      dup3\n        /* \"#utility.yul\":7135:7149   */\n      add\n        /* \"#utility.yul\":7120:7149   */\n      swap1\n      pop\n        /* \"#utility.yul\":6996:7155   */\n      swap3\n      swap2\n      pop\n      pop\n      jump\t// out\n        /* \"#utility.yul\":7161:7300   */\n    tag_172:\n        /* \"#utility.yul\":7250:7256   */\n      dup3\n        /* \"#utility.yul\":7245:7248   */\n      dup2\n        /* \"#utility.yul\":7240:7243   */\n      dup4\n        /* \"#utility.yul\":7234:7257   */\n      mcopy\n        /* \"#utility.yul\":7291:7292   */\n      0x00\n        /* \"#utility.yul\":7282:7288   */\n      dup4\n        /* \"#utility.yul\":7277:7280   */\n      dup4\n        /* \"#utility.yul\":7273:7289   */\n      add\n        /* \"#utility.yul\":7266:7293   */\n      mstore\n        /* \"#utility.yul\":7161:7300   */\n      pop\n      pop\n      pop\n      jump\t// out\n        /* \"#utility.yul\":7306:7663   */\n    tag_173:\n        /* \"#utility.yul\":7384:7387   */\n      0x00\n        /* \"#utility.yul\":7412:7451   */\n      tag_296\n        /* \"#utility.yul\":7445:7450   */\n      dup3\n        /* \"#utility.yul\":7412:7451   */\n      tag_170\n      jump\t// in\n    tag_296:\n        /* \"#utility.yul\":7467:7528   */\n      tag_297\n        /* \"#utility.yul\":7521:7527   */\n      dup2\n        /* \"#utility.yul\":7516:7519   */\n      dup6\n        /* \"#utility.yul\":7467:7528   */\n      tag_171\n      jump\t// in\n    tag_297:\n        /* \"#utility.yul\":7460:7528   */\n      swap4\n      pop\n        /* \"#utility.yul\":7537:7602   */\n      tag_298\n        /* \"#utility.yul\":7595:7601   */\n      dup2\n        /* \"#utility.yul\":7590:7593   */\n      dup6\n        /* \"#utility.yul\":7583:7587   */\n      0x20\n        /* \"#utility.yul\":7576:7581   */\n      dup7\n        /* \"#utility.yul\":7572:7588   */\n      add\n        /* \"#utility.yul\":7537:7602   */\n      tag_172\n      jump\t// in\n    tag_298:\n        /* \"#utility.yul\":7627:7656   */\n      tag_299\n        /* \"#utility.yul\":7649:7655   */\n      dup2\n        /* \"#utility.yul\":7627:7656   */\n      tag_149\n      jump\t// in\n    tag_299:\n        /* \"#utility.yul\":7622:7625   */\n      dup5\n        /* \"#utility.yul\":7618:7657   */\n      add\n        /* \"#utility.yul\":7611:7657   */\n      swap2\n      pop\n        /* \"#utility.yul\":7388:7663   */\n      pop\n        /* \"#utility.yul\":7306:7663   */\n      swap3\n      swap2\n      pop\n      pop\n      jump\t// out\n        /* \"#utility.yul\":7669:7777   */\n    tag_174:\n        /* \"#utility.yul\":7746:7770   */\n      tag_301\n        /* \"#utility.yul\":7764:7769   */\n      dup2\n        /* \"#utility.yul\":7746:7770   */\n      tag_158\n      jump\t// in\n    tag_301:\n        /* \"#utility.yul\":7741:7744   */\n      dup3\n        /* \"#utility.yul\":7734:7771   */\n      mstore\n        /* \"#utility.yul\":7669:7777   */\n      pop\n      pop\n      jump\t// out\n        /* \"#utility.yul\":7783:7891   */\n    tag_175:\n        /* \"#utility.yul\":7860:7884   */\n      tag_303\n        /* \"#utility.yul\":7878:7883   */\n      dup2\n        /* \"#utility.yul\":7860:7884   */\n      tag_163\n      jump\t// in\n    tag_303:\n        /* \"#utility.yul\":7855:7858   */\n      dup3\n        /* \"#utility.yul\":7848:7885   */\n      mstore\n        /* \"#utility.yul\":7783:7891   */\n      pop\n      pop\n      jump\t// out\n        /* \"#utility.yul\":7953:8901   */\n    tag_176:\n        /* \"#utility.yul\":8062:8065   */\n      0x00\n        /* \"#utility.yul\":8098:8102   */\n      0x80\n        /* \"#utility.yul\":8093:8096   */\n      dup4\n        /* \"#utility.yul\":8089:8103   */\n      add\n        /* \"#utility.yul\":8184:8188   */\n      0x00\n        /* \"#utility.yul\":8177:8182   */\n      dup4\n        /* \"#utility.yul\":8173:8189   */\n      add\n        /* \"#utility.yul\":8167:8190   */\n      mload\n        /* \"#utility.yul\":8237:8240   */\n      dup5\n        /* \"#utility.yul\":8231:8235   */\n      dup3\n        /* \"#utility.yul\":8227:8241   */\n      sub\n        /* \"#utility.yul\":8220:8224   */\n      0x00\n        /* \"#utility.yul\":8215:8218   */\n      dup7\n        /* \"#utility.yul\":8211:8225   */\n      add\n        /* \"#utility.yul\":8204:8242   */\n      mstore\n        /* \"#utility.yul\":8263:8336   */\n      tag_305\n        /* \"#utility.yul\":8331:8335   */\n      dup3\n        /* \"#utility.yul\":8317:8329   */\n      dup3\n        /* \"#utility.yul\":8263:8336   */\n      tag_173\n      jump\t// in\n    tag_305:\n        /* \"#utility.yul\":8255:8336   */\n      swap2\n      pop\n        /* \"#utility.yul\":8113:8347   */\n      pop\n        /* \"#utility.yul\":8430:8434   */\n      0x20\n        /* \"#utility.yul\":8423:8428   */\n      dup4\n        /* \"#utility.yul\":8419:8435   */\n      add\n        /* \"#utility.yul\":8413:8436   */\n      mload\n        /* \"#utility.yul\":8449:8512   */\n      tag_306\n        /* \"#utility.yul\":8506:8510   */\n      0x20\n        /* \"#utility.yul\":8501:8504   */\n      dup7\n        /* \"#utility.yul\":8497:8511   */\n      add\n        /* \"#utility.yul\":8483:8495   */\n      dup3\n        /* \"#utility.yul\":8449:8512   */\n      tag_174\n      jump\t// in\n    tag_306:\n        /* \"#utility.yul\":8357:8522   */\n      pop\n        /* \"#utility.yul\":8603:8607   */\n      0x40\n        /* \"#utility.yul\":8596:8601   */\n      dup4\n        /* \"#utility.yul\":8592:8608   */\n      add\n        /* \"#utility.yul\":8586:8609   */\n      mload\n        /* \"#utility.yul\":8622:8685   */\n      tag_307\n        /* \"#utility.yul\":8679:8683   */\n      0x40\n        /* \"#utility.yul\":8674:8677   */\n      dup7\n        /* \"#utility.yul\":8670:8684   */\n      add\n        /* \"#utility.yul\":8656:8668   */\n      dup3\n        /* \"#utility.yul\":8622:8685   */\n      tag_175\n      jump\t// in\n    tag_307:\n        /* \"#utility.yul\":8532:8695   */\n      pop\n        /* \"#utility.yul\":8782:8786   */\n      0x60\n        /* \"#utility.yul\":8775:8780   */\n      dup4\n        /* \"#utility.yul\":8771:8787   */\n      add\n        /* \"#utility.yul\":8765:8788   */\n      mload\n        /* \"#utility.yul\":8801:8864   */\n      tag_308\n        /* \"#utility.yul\":8858:8862   */\n      0x60\n        /* \"#utility.yul\":8853:8856   */\n      dup7\n        /* \"#utility.yul\":8849:8863   */\n      add\n        /* \"#utility.yul\":8835:8847   */\n      dup3\n        /* \"#utility.yul\":8801:8864   */\n      tag_175\n      jump\t// in\n    tag_308:\n        /* \"#utility.yul\":8705:8874   */\n      pop\n        /* \"#utility.yul\":8891:8895   */\n      dup1\n        /* \"#utility.yul\":8884:8895   */\n      swap2\n      pop\n        /* \"#utility.yul\":8067:8901   */\n      pop\n        /* \"#utility.yul\":7953:8901   */\n      swap3\n      swap2\n      pop\n      pop\n      jump\t// out\n        /* \"#utility.yul\":8907:9260   */\n    tag_41:\n        /* \"#utility.yul\":9040:9044   */\n      0x00\n        /* \"#utility.yul\":9078:9080   */\n      0x20\n        /* \"#utility.yul\":9067:9076   */\n      dup3\n        /* \"#utility.yul\":9063:9081   */\n      add\n        /* \"#utility.yul\":9055:9081   */\n      swap1\n      pop\n        /* \"#utility.yul\":9127:9136   */\n      dup2\n        /* \"#utility.yul\":9121:9125   */\n      dup2\n        /* \"#utility.yul\":9117:9137   */\n      sub\n        /* \"#utility.yul\":9113:9114   */\n      0x00\n        /* \"#utility.yul\":9102:9111   */\n      dup4\n        /* \"#utility.yul\":9098:9115   */\n      add\n        /* \"#utility.yul\":9091:9138   */\n      mstore\n        /* \"#utility.yul\":9155:9253   */\n      tag_310\n        /* \"#utility.yul\":9248:9252   */\n      dup2\n        /* \"#utility.yul\":9239:9245   */\n      dup5\n        /* \"#utility.yul\":9155:9253   */\n      tag_176\n      jump\t// in\n    tag_310:\n        /* \"#utility.yul\":9147:9253   */\n      swap1\n      pop\n        /* \"#utility.yul\":8907:9260   */\n      swap3\n      swap2\n      pop\n      pop\n      jump\t// out\n        /* \"#utility.yul\":9266:9384   */\n    tag_177:\n        /* \"#utility.yul\":9353:9377   */\n      tag_312\n        /* \"#utility.yul\":9371:9376   */\n      dup2\n        /* \"#utility.yul\":9353:9377   */\n      tag_158\n      jump\t// in\n    tag_312:\n        /* \"#utility.yul\":9348:9351   */\n      dup3\n        /* \"#utility.yul\":9341:9378   */\n      mstore\n        /* \"#utility.yul\":9266:9384   */\n      pop\n      pop\n      jump\t// out\n        /* \"#utility.yul\":9390:9612   */\n    tag_50:\n        /* \"#utility.yul\":9483:9487   */\n      0x00\n        /* \"#utility.yul\":9521:9523   */\n      0x20\n        /* \"#utility.yul\":9510:9519   */\n      dup3\n        /* \"#utility.yul\":9506:9524   */\n      add\n        /* \"#utility.yul\":9498:9524   */\n      swap1\n      pop\n        /* \"#utility.yul\":9534:9605   */\n      tag_314\n        /* \"#utility.yul\":9602:9603   */\n      0x00\n        /* \"#utility.yul\":9591:9600   */\n      dup4\n        /* \"#utility.yul\":9587:9604   */\n      add\n        /* \"#utility.yul\":9578:9584   */\n      dup5\n        /* \"#utility.yul\":9534:9605   */\n      tag_177\n      jump\t// in\n    tag_314:\n        /* \"#utility.yul\":9390:9612   */\n      swap3\n      swap2\n      pop\n      pop\n      jump\t// out\n        /* \"#utility.yul\":9618:10637   */\n    tag_54:\n        /* \"#utility.yul\":9719:9725   */\n      0x00\n        /* \"#utility.yul\":9727:9733   */\n      0x00\n        /* \"#utility.yul\":9735:9741   */\n      0x00\n        /* \"#utility.yul\":9743:9749   */\n      0x00\n        /* \"#utility.yul\":9751:9757   */\n      0x00\n        /* \"#utility.yul\":9800:9802   */\n      0x60\n        /* \"#utility.yul\":9788:9797   */\n      dup7\n        /* \"#utility.yul\":9779:9786   */\n      dup9\n        /* \"#utility.yul\":9775:9798   */\n      sub\n        /* \"#utility.yul\":9771:9803   */\n      slt\n        /* \"#utility.yul\":9768:9887   */\n      iszero\n      tag_316\n      jumpi\n        /* \"#utility.yul\":9806:9885   */\n      tag_317\n      tag_145\n      jump\t// in\n    tag_317:\n        /* \"#utility.yul\":9768:9887   */\n    tag_316:\n        /* \"#utility.yul\":9954:9955   */\n      0x00\n        /* \"#utility.yul\":9943:9952   */\n      dup7\n        /* \"#utility.yul\":9939:9956   */\n      add\n        /* \"#utility.yul\":9926:9957   */\n      calldataload\n        /* \"#utility.yul\":9984:10002   */\n      0xffffffffffffffff\n        /* \"#utility.yul\":9976:9982   */\n      dup2\n        /* \"#utility.yul\":9973:10003   */\n      gt\n        /* \"#utility.yul\":9970:10087   */\n      iszero\n      tag_318\n      jumpi\n        /* \"#utility.yul\":10006:10085   */\n      tag_319\n      tag_146\n      jump\t// in\n    tag_319:\n        /* \"#utility.yul\":9970:10087   */\n    tag_318:\n        /* \"#utility.yul\":10119:10184   */\n      tag_320\n        /* \"#utility.yul\":10176:10183   */\n      dup9\n        /* \"#utility.yul\":10167:10173   */\n      dup3\n        /* \"#utility.yul\":10156:10165   */\n      dup10\n        /* \"#utility.yul\":10152:10174   */\n      add\n        /* \"#utility.yul\":10119:10184   */\n      tag_167\n      jump\t// in\n    tag_320:\n        /* \"#utility.yul\":10101:10184   */\n      swap6\n      pop\n      swap6\n      pop\n        /* \"#utility.yul\":9897:10194   */\n      pop\n        /* \"#utility.yul\":10261:10263   */\n      0x20\n        /* \"#utility.yul\":10250:10259   */\n      dup7\n        /* \"#utility.yul\":10246:10264   */\n      add\n        /* \"#utility.yul\":10233:10265   */\n      calldataload\n        /* \"#utility.yul\":10292:10310   */\n      0xffffffffffffffff\n        /* \"#utility.yul\":10284:10290   */\n      dup2\n        /* \"#utility.yul\":10281:10311   */\n      gt\n        /* \"#utility.yul\":10278:10395   */\n      iszero\n      tag_321\n      jumpi\n        /* \"#utility.yul\":10314:10393   */\n      tag_322\n      tag_146\n      jump\t// in\n    tag_322:\n        /* \"#utility.yul\":10278:10395   */\n    tag_321:\n        /* \"#utility.yul\":10427:10492   */\n      tag_323\n        /* \"#utility.yul\":10484:10491   */\n      dup9\n        /* \"#utility.yul\":10475:10481   */\n      dup3\n        /* \"#utility.yul\":10464:10473   */\n      dup10\n        /* \"#utility.yul\":10460:10482   */\n      add\n        /* \"#utility.yul\":10427:10492   */\n      tag_167\n      jump\t// in\n    tag_323:\n        /* \"#utility.yul\":10409:10492   */\n      swap4\n      pop\n      swap4\n      pop\n        /* \"#utility.yul\":10204:10502   */\n      pop\n        /* \"#utility.yul\":10541:10543   */\n      0x40\n        /* \"#utility.yul\":10567:10620   */\n      tag_324\n        /* \"#utility.yul\":10612:10619   */\n      dup9\n        /* \"#utility.yul\":10603:10609   */\n      dup3\n        /* \"#utility.yul\":10592:10601   */\n      dup10\n        /* \"#utility.yul\":10588:10610   */\n      add\n        /* \"#utility.yul\":10567:10620   */\n      tag_169\n      jump\t// in\n    tag_324:\n        /* \"#utility.yul\":10557:10620   */\n      swap2\n      pop\n        /* \"#utility.yul\":10512:10630   */\n      pop\n        /* \"#utility.yul\":9618:10637   */\n      swap3\n      swap6\n      pop\n      swap3\n      swap6\n      swap1\n      swap4\n      pop\n      jump\t// out\n        /* \"#utility.yul\":10643:10812   */\n    tag_178:\n        /* \"#utility.yul\":10727:10738   */\n      0x00\n        /* \"#utility.yul\":10761:10767   */\n      dup3\n        /* \"#utility.yul\":10756:10759   */\n      dup3\n        /* \"#utility.yul\":10749:10768   */\n      mstore\n        /* \"#utility.yul\":10801:10805   */\n      0x20\n        /* \"#utility.yul\":10796:10799   */\n      dup3\n        /* \"#utility.yul\":10792:10806   */\n      add\n        /* \"#utility.yul\":10777:10806   */\n      swap1\n      pop\n        /* \"#utility.yul\":10643:10812   */\n      swap3\n      swap2\n      pop\n      pop\n      jump\t// out\n        /* \"#utility.yul\":10818:11041   */\n    tag_179:\n        /* \"#utility.yul\":10958:10992   */\n      0x596f7520646f6e2774207065726d697373696f6e20666f722074686973206163\n        /* \"#utility.yul\":10954:10955   */\n      0x00\n        /* \"#utility.yul\":10946:10952   */\n      dup3\n        /* \"#utility.yul\":10942:10956   */\n      add\n        /* \"#utility.yul\":10935:10993   */\n      mstore\n        /* \"#utility.yul\":11027:11033   */\n      0x74696f6e00000000000000000000000000000000000000000000000000000000\n        /* \"#utility.yul\":11022:11024   */\n      0x20\n        /* \"#utility.yul\":11014:11020   */\n      dup3\n        /* \"#utility.yul\":11010:11025   */\n      add\n        /* \"#utility.yul\":11003:11034   */\n      mstore\n        /* \"#utility.yul\":10818:11041   */\n      pop\n      jump\t// out\n        /* \"#utility.yul\":11047:11413   */\n    tag_180:\n        /* \"#utility.yul\":11189:11192   */\n      0x00\n        /* \"#utility.yul\":11210:11277   */\n      tag_328\n        /* \"#utility.yul\":11274:11276   */\n      0x24\n        /* \"#utility.yul\":11269:11272   */\n      dup4\n        /* \"#utility.yul\":11210:11277   */\n      tag_178\n      jump\t// in\n    tag_328:\n        /* \"#utility.yul\":11203:11277   */\n      swap2\n      pop\n        /* \"#utility.yul\":11286:11379   */\n      tag_329\n        /* \"#utility.yul\":11375:11378   */\n      dup3\n        /* \"#utility.yul\":11286:11379   */\n      tag_179\n      jump\t// in\n    tag_329:\n        /* \"#utility.yul\":11404:11406   */\n      0x40\n        /* \"#utility.yul\":11399:11402   */\n      dup3\n        /* \"#utility.yul\":11395:11407   */\n      add\n        /* \"#utility.yul\":11388:11407   */\n      swap1\n      pop\n        /* \"#utility.yul\":11047:11413   */\n      swap2\n      swap1\n      pop\n      jump\t// out\n        /* \"#utility.yul\":11419:11838   */\n    tag_59:\n        /* \"#utility.yul\":11585:11589   */\n      0x00\n        /* \"#utility.yul\":11623:11625   */\n      0x20\n        /* \"#utility.yul\":11612:11621   */\n      dup3\n        /* \"#utility.yul\":11608:11626   */\n      add\n        /* \"#utility.yul\":11600:11626   */\n      swap1\n      pop\n        /* \"#utility.yul\":11672:11681   */\n      dup2\n        /* \"#utility.yul\":11666:11670   */\n      dup2\n        /* \"#utility.yul\":11662:11682   */\n      sub\n        /* \"#utility.yul\":11658:11659   */\n      0x00\n        /* \"#utility.yul\":11647:11656   */\n      dup4\n        /* \"#utility.yul\":11643:11660   */\n      add\n        /* \"#utility.yul\":11636:11683   */\n      mstore\n        /* \"#utility.yul\":11700:11831   */\n      tag_331\n        /* \"#utility.yul\":11826:11830   */\n      dup2\n        /* \"#utility.yul\":11700:11831   */\n      tag_180\n      jump\t// in\n    tag_331:\n        /* \"#utility.yul\":11692:11831   */\n      swap1\n      pop\n        /* \"#utility.yul\":11419:11838   */\n      swap2\n      swap1\n      pop\n      jump\t// out\n        /* \"#utility.yul\":11844:11992   */\n    tag_181:\n        /* \"#utility.yul\":11946:11957   */\n      0x00\n        /* \"#utility.yul\":11983:11986   */\n      dup2\n        /* \"#utility.yul\":11968:11986   */\n      swap1\n      pop\n        /* \"#utility.yul\":11844:11992   */\n      swap3\n      swap2\n      pop\n      pop\n      jump\t// out\n        /* \"#utility.yul\":12022:12352   */\n    tag_182:\n        /* \"#utility.yul\":12138:12141   */\n      0x00\n        /* \"#utility.yul\":12159:12248   */\n      tag_334\n        /* \"#utility.yul\":12241:12247   */\n      dup4\n        /* \"#utility.yul\":12236:12239   */\n      dup6\n        /* \"#utility.yul\":12159:12248   */\n      tag_181\n      jump\t// in\n    tag_334:\n        /* \"#utility.yul\":12152:12248   */\n      swap4\n      pop\n        /* \"#utility.yul\":12258:12314   */\n      tag_335\n        /* \"#utility.yul\":12307:12313   */\n      dup4\n        /* \"#utility.yul\":12302:12305   */\n      dup6\n        /* \"#utility.yul\":12295:12300   */\n      dup5\n        /* \"#utility.yul\":12258:12314   */\n      tag_154\n      jump\t// in\n    tag_335:\n        /* \"#utility.yul\":12339:12345   */\n      dup3\n        /* \"#utility.yul\":12334:12337   */\n      dup5\n        /* \"#utility.yul\":12330:12346   */\n      add\n        /* \"#utility.yul\":12323:12346   */\n      swap1\n      pop\n        /* \"#utility.yul\":12022:12352   */\n      swap4\n      swap3\n      pop\n      pop\n      pop\n      jump\t// out\n        /* \"#utility.yul\":12358:12653   */\n    tag_64:\n        /* \"#utility.yul\":12500:12503   */\n      0x00\n        /* \"#utility.yul\":12522:12627   */\n      tag_337\n        /* \"#utility.yul\":12623:12626   */\n      dup3\n        /* \"#utility.yul\":12614:12620   */\n      dup5\n        /* \"#utility.yul\":12606:12612   */\n      dup7\n        /* \"#utility.yul\":12522:12627   */\n      tag_182\n      jump\t// in\n    tag_337:\n        /* \"#utility.yul\":12515:12627   */\n      swap2\n      pop\n        /* \"#utility.yul\":12644:12647   */\n      dup2\n        /* \"#utility.yul\":12637:12647   */\n      swap1\n      pop\n        /* \"#utility.yul\":12358:12653   */\n      swap4\n      swap3\n      pop\n      pop\n      pop\n      jump\t// out\n        /* \"#utility.yul\":12659:12839   */\n    tag_183:\n        /* \"#utility.yul\":12707:12784   */\n      0x4e487b7100000000000000000000000000000000000000000000000000000000\n        /* \"#utility.yul\":12704:12705   */\n      0x00\n        /* \"#utility.yul\":12697:12785   */\n      mstore\n        /* \"#utility.yul\":12804:12808   */\n      0x22\n        /* \"#utility.yul\":12801:12802   */\n      0x04\n        /* \"#utility.yul\":12794:12809   */\n      mstore\n        /* \"#utility.yul\":12828:12832   */\n      0x24\n        /* \"#utility.yul\":12825:12826   */\n      0x00\n        /* \"#utility.yul\":12818:12833   */\n      revert\n        /* \"#utility.yul\":12845:13165   */\n    tag_66:\n        /* \"#utility.yul\":12889:12895   */\n      0x00\n        /* \"#utility.yul\":12926:12927   */\n      0x02\n        /* \"#utility.yul\":12920:12924   */\n      dup3\n        /* \"#utility.yul\":12916:12928   */\n      div\n        /* \"#utility.yul\":12906:12928   */\n      swap1\n      pop\n        /* \"#utility.yul\":12973:12974   */\n      0x01\n        /* \"#utility.yul\":12967:12971   */\n      dup3\n        /* \"#utility.yul\":12963:12975   */\n      and\n        /* \"#utility.yul\":12994:13012   */\n      dup1\n        /* \"#utility.yul\":12984:13065   */\n      tag_340\n      jumpi\n        /* \"#utility.yul\":13050:13054   */\n      0x7f\n        /* \"#utility.yul\":13042:13048   */\n      dup3\n        /* \"#utility.yul\":13038:13055   */\n      and\n        /* \"#utility.yul\":13028:13055   */\n      swap2\n      pop\n        /* \"#utility.yul\":12984:13065   */\n    tag_340:\n        /* \"#utility.yul\":13112:13114   */\n      0x20\n        /* \"#utility.yul\":13104:13110   */\n      dup3\n        /* \"#utility.yul\":13101:13115   */\n      lt\n        /* \"#utility.yul\":13081:13099   */\n      dup2\n        /* \"#utility.yul\":13078:13116   */\n      sub\n        /* \"#utility.yul\":13075:13159   */\n      tag_341\n      jumpi\n        /* \"#utility.yul\":13131:13149   */\n      tag_342\n      tag_183\n      jump\t// in\n    tag_342:\n        /* \"#utility.yul\":13075:13159   */\n    tag_341:\n        /* \"#utility.yul\":12896:13165   */\n      pop\n        /* \"#utility.yul\":12845:13165   */\n      swap2\n      swap1\n      pop\n      jump\t// out\n        /* \"#utility.yul\":13171:13335   */\n    tag_184:\n        /* \"#utility.yul\":13311:13327   */\n      0x4c696e6b206e6f7420666f756e64000000000000000000000000000000000000\n        /* \"#utility.yul\":13307:13308   */\n      0x00\n        /* \"#utility.yul\":13299:13305   */\n      dup3\n        /* \"#utility.yul\":13295:13309   */\n      add\n        /* \"#utility.yul\":13288:13328   */\n      mstore\n        /* \"#utility.yul\":13171:13335   */\n      pop\n      jump\t// out\n        /* \"#utility.yul\":13341:13707   */\n    tag_185:\n        /* \"#utility.yul\":13483:13486   */\n      0x00\n        /* \"#utility.yul\":13504:13571   */\n      tag_345\n        /* \"#utility.yul\":13568:13570   */\n      0x0e\n        /* \"#utility.yul\":13563:13566   */\n      dup4\n        /* \"#utility.yul\":13504:13571   */\n      tag_178\n      jump\t// in\n    tag_345:\n        /* \"#utility.yul\":13497:13571   */\n      swap2\n      pop\n        /* \"#utility.yul\":13580:13673   */\n      tag_346\n        /* \"#utility.yul\":13669:13672   */\n      dup3\n        /* \"#utility.yul\":13580:13673   */\n      tag_184\n      jump\t// in\n    tag_346:\n        /* \"#utility.yul\":13698:13700   */\n      0x20\n        /* \"#utility.yul\":13693:13696   */\n      dup3\n        /* \"#utility.yul\":13689:13701   */\n      add\n        /* \"#utility.yul\":13682:13701   */\n      swap1\n      pop\n        /* \"#utility.yul\":13341:13707   */\n      swap2\n      swap1\n      pop\n      jump\t// out\n        /* \"#utility.yul\":13713:14132   */\n    tag_73:\n        /* \"#utility.yul\":13879:13883   */\n      0x00\n        /* \"#utility.yul\":13917:13919   */\n      0x20\n        /* \"#utility.yul\":13906:13915   */\n      dup3\n        /* \"#utility.yul\":13902:13920   */\n      add\n        /* \"#utility.yul\":13894:13920   */\n      swap1\n      pop\n        /* \"#utility.yul\":13966:13975   */\n      dup2\n        /* \"#utility.yul\":13960:13964   */\n      dup2\n        /* \"#utility.yul\":13956:13976   */\n      sub\n        /* \"#utility.yul\":13952:13953   */\n      0x00\n        /* \"#utility.yul\":13941:13950   */\n      dup4\n        /* \"#utility.yul\":13937:13954   */\n      add\n        /* \"#utility.yul\":13930:13977   */\n      mstore\n        /* \"#utility.yul\":13994:14125   */\n      tag_348\n        /* \"#utility.yul\":14120:14124   */\n      dup2\n        /* \"#utility.yul\":13994:14125   */\n      tag_185\n      jump\t// in\n    tag_348:\n        /* \"#utility.yul\":13986:14125   */\n      swap1\n      pop\n        /* \"#utility.yul\":13713:14132   */\n      swap2\n      swap1\n      pop\n      jump\t// out\n        /* \"#utility.yul\":14138:14309   */\n    tag_186:\n        /* \"#utility.yul\":14278:14301   */\n      0x596f7520616c7265647920686173206163636573730000000000000000000000\n        /* \"#utility.yul\":14274:14275   */\n      0x00\n        /* \"#utility.yul\":14266:14272   */\n      dup3\n        /* \"#utility.yul\":14262:14276   */\n      add\n        /* \"#utility.yul\":14255:14302   */\n      mstore\n        /* \"#utility.yul\":14138:14309   */\n      pop\n      jump\t// out\n        /* \"#utility.yul\":14315:14681   */\n    tag_187:\n        /* \"#utility.yul\":14457:14460   */\n      0x00\n        /* \"#utility.yul\":14478:14545   */\n      tag_351\n        /* \"#utility.yul\":14542:14544   */\n      0x15\n        /* \"#utility.yul\":14537:14540   */\n      dup4\n        /* \"#utility.yul\":14478:14545   */\n      tag_178\n      jump\t// in\n    tag_351:\n        /* \"#utility.yul\":14471:14545   */\n      swap2\n      pop\n        /* \"#utility.yul\":14554:14647   */\n      tag_352\n        /* \"#utility.yul\":14643:14646   */\n      dup3\n        /* \"#utility.yul\":14554:14647   */\n      tag_186\n      jump\t// in\n    tag_352:\n        /* \"#utility.yul\":14672:14674   */\n      0x20\n        /* \"#utility.yul\":14667:14670   */\n      dup3\n        /* \"#utility.yul\":14663:14675   */\n      add\n        /* \"#utility.yul\":14656:14675   */\n      swap1\n      pop\n        /* \"#utility.yul\":14315:14681   */\n      swap2\n      swap1\n      pop\n      jump\t// out\n        /* \"#utility.yul\":14687:15106   */\n    tag_77:\n        /* \"#utility.yul\":14853:14857   */\n      0x00\n        /* \"#utility.yul\":14891:14893   */\n      0x20\n        /* \"#utility.yul\":14880:14889   */\n      dup3\n        /* \"#utility.yul\":14876:14894   */\n      add\n        /* \"#utility.yul\":14868:14894   */\n      swap1\n      pop\n        /* \"#utility.yul\":14940:14949   */\n      dup2\n        /* \"#utility.yul\":14934:14938   */\n      dup2\n        /* \"#utility.yul\":14930:14950   */\n      sub\n        /* \"#utility.yul\":14926:14927   */\n      0x00\n        /* \"#utility.yul\":14915:14924   */\n      dup4\n        /* \"#utility.yul\":14911:14928   */\n      add\n        /* \"#utility.yul\":14904:14951   */\n      mstore\n        /* \"#utility.yul\":14968:15099   */\n      tag_354\n        /* \"#utility.yul\":15094:15098   */\n      dup2\n        /* \"#utility.yul\":14968:15099   */\n      tag_187\n      jump\t// in\n    tag_354:\n        /* \"#utility.yul\":14960:15099   */\n      swap1\n      pop\n        /* \"#utility.yul\":14687:15106   */\n      swap2\n      swap1\n      pop\n      jump\t// out\n        /* \"#utility.yul\":15112:15281   */\n    tag_188:\n        /* \"#utility.yul\":15252:15273   */\n      0x496e737566696369656e74207061796d656e7400000000000000000000000000\n        /* \"#utility.yul\":15248:15249   */\n      0x00\n        /* \"#utility.yul\":15240:15246   */\n      dup3\n        /* \"#utility.yul\":15236:15250   */\n      add\n        /* \"#utility.yul\":15229:15274   */\n      mstore\n        /* \"#utility.yul\":15112:15281   */\n      pop\n      jump\t// out\n        /* \"#utility.yul\":15287:15653   */\n    tag_189:\n        /* \"#utility.yul\":15429:15432   */\n      0x00\n        /* \"#utility.yul\":15450:15517   */\n      tag_357\n        /* \"#utility.yul\":15514:15516   */\n      0x13\n        /* \"#utility.yul\":15509:15512   */\n      dup4\n        /* \"#utility.yul\":15450:15517   */\n      tag_178\n      jump\t// in\n    tag_357:\n        /* \"#utility.yul\":15443:15517   */\n      swap2\n      pop\n        /* \"#utility.yul\":15526:15619   */\n      tag_358\n        /* \"#utility.yul\":15615:15618   */\n      dup3\n        /* \"#utility.yul\":15526:15619   */\n      tag_188\n      jump\t// in\n    tag_358:\n        /* \"#utility.yul\":15644:15646   */\n      0x20\n        /* \"#utility.yul\":15639:15642   */\n      dup3\n        /* \"#utility.yul\":15635:15647   */\n      add\n        /* \"#utility.yul\":15628:15647   */\n      swap1\n      pop\n        /* \"#utility.yul\":15287:15653   */\n      swap2\n      swap1\n      pop\n      jump\t// out\n        /* \"#utility.yul\":15659:16078   */\n    tag_80:\n        /* \"#utility.yul\":15825:15829   */\n      0x00\n        /* \"#utility.yul\":15863:15865   */\n      0x20\n        /* \"#utility.yul\":15852:15861   */\n      dup3\n        /* \"#utility.yul\":15848:15866   */\n      add\n        /* \"#utility.yul\":15840:15866   */\n      swap1\n      pop\n        /* \"#utility.yul\":15912:15921   */\n      dup2\n        /* \"#utility.yul\":15906:15910   */\n      dup2\n        /* \"#utility.yul\":15902:15922   */\n      sub\n        /* \"#utility.yul\":15898:15899   */\n      0x00\n        /* \"#utility.yul\":15887:15896   */\n      dup4\n        /* \"#utility.yul\":15883:15900   */\n      add\n        /* \"#utility.yul\":15876:15923   */\n      mstore\n        /* \"#utility.yul\":15940:16071   */\n      tag_360\n        /* \"#utility.yul\":16066:16070   */\n      dup2\n        /* \"#utility.yul\":15940:16071   */\n      tag_189\n      jump\t// in\n    tag_360:\n        /* \"#utility.yul\":15932:16071   */\n      swap1\n      pop\n        /* \"#utility.yul\":15659:16078   */\n      swap2\n      swap1\n      pop\n      jump\t// out\n        /* \"#utility.yul\":16084:16264   */\n    tag_190:\n        /* \"#utility.yul\":16132:16209   */\n      0x4e487b7100000000000000000000000000000000000000000000000000000000\n        /* \"#utility.yul\":16129:16130   */\n      0x00\n        /* \"#utility.yul\":16122:16210   */\n      mstore\n        /* \"#utility.yul\":16229:16233   */\n      0x11\n        /* \"#utility.yul\":16226:16227   */\n      0x04\n        /* \"#utility.yul\":16219:16234   */\n      mstore\n        /* \"#utility.yul\":16253:16257   */\n      0x24\n        /* \"#utility.yul\":16250:16251   */\n      0x00\n        /* \"#utility.yul\":16243:16258   */\n      revert\n        /* \"#utility.yul\":16270:16464   */\n    tag_83:\n        /* \"#utility.yul\":16310:16314   */\n      0x00\n        /* \"#utility.yul\":16330:16350   */\n      tag_363\n        /* \"#utility.yul\":16348:16349   */\n      dup3\n        /* \"#utility.yul\":16330:16350   */\n      tag_163\n      jump\t// in\n    tag_363:\n        /* \"#utility.yul\":16325:16350   */\n      swap2\n      pop\n        /* \"#utility.yul\":16364:16384   */\n      tag_364\n        /* \"#utility.yul\":16382:16383   */\n      dup4\n        /* \"#utility.yul\":16364:16384   */\n      tag_163\n      jump\t// in\n    tag_364:\n        /* \"#utility.yul\":16359:16384   */\n      swap3\n      pop\n        /* \"#utility.yul\":16408:16409   */\n      dup3\n        /* \"#utility.yul\":16405:16406   */\n      dup3\n        /* \"#utility.yul\":16401:16410   */\n      sub\n        /* \"#utility.yul\":16393:16410   */\n      swap1\n      pop\n        /* \"#utility.yul\":16432:16433   */\n      dup2\n        /* \"#utility.yul\":16426:16430   */\n      dup2\n        /* \"#utility.yul\":16423:16434   */\n      gt\n        /* \"#utility.yul\":16420:16457   */\n      iszero\n      tag_365\n      jumpi\n        /* \"#utility.yul\":16437:16455   */\n      tag_366\n      tag_190\n      jump\t// in\n    tag_366:\n        /* \"#utility.yul\":16420:16457   */\n    tag_365:\n        /* \"#utility.yul\":16270:16464   */\n      swap3\n      swap2\n      pop\n      pop\n      jump\t// out\n        /* \"#utility.yul\":16470:16651   */\n    tag_191:\n        /* \"#utility.yul\":16610:16643   */\n      0x54686973206c696e6b496420616c726561642068617320616e206f776e657200\n        /* \"#utility.yul\":16606:16607   */\n      0x00\n        /* \"#utility.yul\":16598:16604   */\n      dup3\n        /* \"#utility.yul\":16594:16608   */\n      add\n        /* \"#utility.yul\":16587:16644   */\n      mstore\n        /* \"#utility.yul\":16470:16651   */\n      pop\n      jump\t// out\n        /* \"#utility.yul\":16657:17023   */\n    tag_192:\n        /* \"#utility.yul\":16799:16802   */\n      0x00\n        /* \"#utility.yul\":16820:16887   */\n      tag_369\n        /* \"#utility.yul\":16884:16886   */\n      0x1f\n        /* \"#utility.yul\":16879:16882   */\n      dup4\n        /* \"#utility.yul\":16820:16887   */\n      tag_178\n      jump\t// in\n    tag_369:\n        /* \"#utility.yul\":16813:16887   */\n      swap2\n      pop\n        /* \"#utility.yul\":16896:16989   */\n      tag_370\n        /* \"#utility.yul\":16985:16988   */\n      dup3\n        /* \"#utility.yul\":16896:16989   */\n      tag_191\n      jump\t// in\n    tag_370:\n        /* \"#utility.yul\":17014:17016   */\n      0x20\n        /* \"#utility.yul\":17009:17012   */\n      dup3\n        /* \"#utility.yul\":17005:17017   */\n      add\n        /* \"#utility.yul\":16998:17017   */\n      swap1\n      pop\n        /* \"#utility.yul\":16657:17023   */\n      swap2\n      swap1\n      pop\n      jump\t// out\n        /* \"#utility.yul\":17029:17448   */\n    tag_128:\n        /* \"#utility.yul\":17195:17199   */\n      0x00\n        /* \"#utility.yul\":17233:17235   */\n      0x20\n        /* \"#utility.yul\":17222:17231   */\n      dup3\n        /* \"#utility.yul\":17218:17236   */\n      add\n        /* \"#utility.yul\":17210:17236   */\n      swap1\n      pop\n        /* \"#utility.yul\":17282:17291   */\n      dup2\n        /* \"#utility.yul\":17276:17280   */\n      dup2\n        /* \"#utility.yul\":17272:17292   */\n      sub\n        /* \"#utility.yul\":17268:17269   */\n      0x00\n        /* \"#utility.yul\":17257:17266   */\n      dup4\n        /* \"#utility.yul\":17253:17270   */\n      add\n        /* \"#utility.yul\":17246:17293   */\n      mstore\n        /* \"#utility.yul\":17310:17441   */\n      tag_372\n        /* \"#utility.yul\":17436:17440   */\n      dup2\n        /* \"#utility.yul\":17310:17441   */\n      tag_192\n      jump\t// in\n    tag_372:\n        /* \"#utility.yul\":17302:17441   */\n      swap1\n      pop\n        /* \"#utility.yul\":17029:17448   */\n      swap2\n      swap1\n      pop\n      jump\t// out\n        /* \"#utility.yul\":17454:17615   */\n    tag_193:\n        /* \"#utility.yul\":17594:17607   */\n      0x46656520746f6f206c6f77000000000000000000000000000000000000000000\n        /* \"#utility.yul\":17590:17591   */\n      0x00\n        /* \"#utility.yul\":17582:17588   */\n      dup3\n        /* \"#utility.yul\":17578:17592   */\n      add\n        /* \"#utility.yul\":17571:17608   */\n      mstore\n        /* \"#utility.yul\":17454:17615   */\n      pop\n      jump\t// out\n        /* \"#utility.yul\":17621:17987   */\n    tag_194:\n        /* \"#utility.yul\":17763:17766   */\n      0x00\n        /* \"#utility.yul\":17784:17851   */\n      tag_375\n        /* \"#utility.yul\":17848:17850   */\n      0x0b\n        /* \"#utility.yul\":17843:17846   */\n      dup4\n        /* \"#utility.yul\":17784:17851   */\n      tag_178\n      jump\t// in\n    tag_375:\n        /* \"#utility.yul\":17777:17851   */\n      swap2\n      pop\n        /* \"#utility.yul\":17860:17953   */\n      tag_376\n        /* \"#utility.yul\":17949:17952   */\n      dup3\n        /* \"#utility.yul\":17860:17953   */\n      tag_193\n      jump\t// in\n    tag_376:\n        /* \"#utility.yul\":17978:17980   */\n      0x20\n        /* \"#utility.yul\":17973:17976   */\n      dup3\n        /* \"#utility.yul\":17969:17981   */\n      add\n        /* \"#utility.yul\":17962:17981   */\n      swap1\n      pop\n        /* \"#utility.yul\":17621:17987   */\n      swap2\n      swap1\n      pop\n      jump\t// out\n        /* \"#utility.yul\":17993:18412   */\n    tag_132:\n        /* \"#utility.yul\":18159:18163   */\n      0x00\n        /* \"#utility.yul\":18197:18199   */\n      0x20\n        /* \"#utility.yul\":18186:18195   */\n      dup3\n        /* \"#utility.yul\":18182:18200   */\n      add\n        /* \"#utility.yul\":18174:18200   */\n      swap1\n      pop\n        /* \"#utility.yul\":18246:18255   */\n      dup2\n        /* \"#utility.yul\":18240:18244   */\n      dup2\n        /* \"#utility.yul\":18236:18256   */\n      sub\n        /* \"#utility.yul\":18232:18233   */\n      0x00\n        /* \"#utility.yul\":18221:18230   */\n      dup4\n        /* \"#utility.yul\":18217:18234   */\n      add\n        /* \"#utility.yul\":18210:18257   */\n      mstore\n        /* \"#utility.yul\":18274:18405   */\n      tag_378\n        /* \"#utility.yul\":18400:18404   */\n      dup2\n        /* \"#utility.yul\":18274:18405   */\n      tag_194\n      jump\t// in\n    tag_378:\n        /* \"#utility.yul\":18266:18405   */\n      swap1\n      pop\n        /* \"#utility.yul\":17993:18412   */\n      swap2\n      swap1\n      pop\n      jump\t// out\n        /* \"#utility.yul\":18418:18559   */\n    tag_195:\n        /* \"#utility.yul\":18467:18471   */\n      0x00\n        /* \"#utility.yul\":18490:18493   */\n      dup2\n        /* \"#utility.yul\":18482:18493   */\n      swap1\n      pop\n        /* \"#utility.yul\":18513:18516   */\n      dup2\n        /* \"#utility.yul\":18510:18511   */\n      0x00\n        /* \"#utility.yul\":18503:18517   */\n      mstore\n        /* \"#utility.yul\":18547:18551   */\n      0x20\n        /* \"#utility.yul\":18544:18545   */\n      0x00\n        /* \"#utility.yul\":18534:18552   */\n      keccak256\n        /* \"#utility.yul\":18526:18552   */\n      swap1\n      pop\n        /* \"#utility.yul\":18418:18559   */\n      swap2\n      swap1\n      pop\n      jump\t// out\n        /* \"#utility.yul\":18565:18658   */\n    tag_196:\n        /* \"#utility.yul\":18602:18608   */\n      0x00\n        /* \"#utility.yul\":18649:18651   */\n      0x20\n        /* \"#utility.yul\":18644:18646   */\n      0x1f\n        /* \"#utility.yul\":18637:18642   */\n      dup4\n        /* \"#utility.yul\":18633:18647   */\n      add\n        /* \"#utility.yul\":18629:18652   */\n      div\n        /* \"#utility.yul\":18619:18652   */\n      swap1\n      pop\n        /* \"#utility.yul\":18565:18658   */\n      swap2\n      swap1\n      pop\n      jump\t// out\n        /* \"#utility.yul\":18664:18771   */\n    tag_197:\n        /* \"#utility.yul\":18708:18716   */\n      0x00\n        /* \"#utility.yul\":18758:18763   */\n      dup3\n        /* \"#utility.yul\":18752:18756   */\n      dup3\n        /* \"#utility.yul\":18748:18764   */\n      shl\n        /* \"#utility.yul\":18727:18764   */\n      swap1\n      pop\n        /* \"#utility.yul\":18664:18771   */\n      swap3\n      swap2\n      pop\n      pop\n      jump\t// out\n        /* \"#utility.yul\":18777:19170   */\n    tag_198:\n        /* \"#utility.yul\":18846:18852   */\n      0x00\n        /* \"#utility.yul\":18896:18897   */\n      0x08\n        /* \"#utility.yul\":18884:18894   */\n      dup4\n        /* \"#utility.yul\":18880:18898   */\n      mul\n        /* \"#utility.yul\":18919:19016   */\n      tag_383\n        /* \"#utility.yul\":18949:19015   */\n      0xffffffffffffffffffffffffffffffffffffffffffffffffffffffffffffffff\n        /* \"#utility.yul\":18938:18947   */\n      dup3\n        /* \"#utility.yul\":18919:19016   */\n      tag_197\n      jump\t// in\n    tag_383:\n        /* \"#utility.yul\":19037:19076   */\n      tag_384\n        /* \"#utility.yul\":19067:19075   */\n      dup7\n        /* \"#utility.yul\":19056:19065   */\n      dup4\n        /* \"#utility.yul\":19037:19076   */\n      tag_197\n      jump\t// in\n    tag_384:\n        /* \"#utility.yul\":19025:19076   */\n      swap6\n      pop\n        /* \"#utility.yul\":19109:19113   */\n      dup1\n        /* \"#utility.yul\":19105:19114   */\n      not\n        /* \"#utility.yul\":19098:19103   */\n      dup5\n        /* \"#utility.yul\":19094:19115   */\n      and\n        /* \"#utility.yul\":19085:19115   */\n      swap4\n      pop\n        /* \"#utility.yul\":19158:19162   */\n      dup1\n        /* \"#utility.yul\":19148:19156   */\n      dup7\n        /* \"#utility.yul\":19144:19163   */\n      and\n        /* \"#utility.yul\":19137:19142   */\n      dup5\n        /* \"#utility.yul\":19134:19164   */\n      or\n        /* \"#utility.yul\":19124:19164   */\n      swap3\n      pop\n        /* \"#utility.yul\":18853:19170   */\n      pop\n      pop\n        /* \"#utility.yul\":18777:19170   */\n      swap4\n      swap3\n      pop\n      pop\n      pop\n      jump\t// out\n        /* \"#utility.yul\":19176:19236   */\n    tag_199:\n        /* \"#utility.yul\":19204:19207   */\n      0x00\n        /* \"#utility.yul\":19225:19230   */\n      dup2\n        /* \"#utility.yul\":19218:19230   */\n      swap1\n      pop\n        /* \"#utility.yul\":19176:19236   */\n      swap2\n      swap1\n      pop\n      jump\t// out\n        /* \"#utility.yul\":19242:19384   */\n    tag_200:\n        /* \"#utility.yul\":19292:19301   */\n      0x00\n        /* \"#utility.yul\":19325:19378   */\n      tag_387\n        /* \"#utility.yul\":19343:19377   */\n      tag_388\n        /* \"#utility.yul\":19352:19376   */\n      tag_389\n        /* \"#utility.yul\":19370:19375   */\n      dup5\n        /* \"#utility.yul\":19352:19376   */\n      tag_163\n      jump\t// in\n    tag_389:\n        /* \"#utility.yul\":19343:19377   */\n      tag_199\n      jump\t// in\n    tag_388:\n        /* \"#utility.yul\":19325:19378   */\n      tag_163\n      jump\t// in\n    tag_387:\n        /* \"#utility.yul\":19312:19378   */\n      swap1\n      pop\n        /* \"#utility.yul\":19242:19384   */\n      swap2\n      swap1\n      pop\n      jump\t// out\n        /* \"#utility.yul\":19390:19465   */\n    tag_201:\n        /* \"#utility.yul\":19433:19436   */\n      0x00\n        /* \"#utility.yul\":19454:19459   */\n      dup2\n        /* \"#utility.yul\":19447:19459   */\n      swap1\n      pop\n        /* \"#utility.yul\":19390:19465   */\n      swap2\n      swap1\n      pop\n      jump\t// out\n        /* \"#utility.yul\":19471:19740   */\n    tag_202:\n        /* \"#utility.yul\":19581:19620   */\n      tag_392\n        /* \"#utility.yul\":19612:19619   */\n      dup4\n        /* \"#utility.yul\":19581:19620   */\n      tag_200\n      jump\t// in\n    tag_392:\n        /* \"#utility.yul\":19642:19733   */\n      tag_393\n        /* \"#utility.yul\":19691:19732   */\n      tag_394\n        /* \"#utility.yul\":19715:19731   */\n      dup3\n        /* \"#utility.yul\":19691:19732   */\n      tag_201\n      jump\t// in\n    tag_394:\n        /* \"#utility.yul\":19683:19689   */\n      dup5\n        /* \"#utility.yul\":19676:19680   */\n      dup5\n        /* \"#utility.yul\":19670:19681   */\n      sload\n        /* \"#utility.yul\":19642:19733   */\n      tag_198\n      jump\t// in\n    tag_393:\n        /* \"#utility.yul\":19636:19640   */\n      dup3\n        /* \"#utility.yul\":19629:19734   */\n      sstore\n        /* \"#utility.yul\":19547:19740   */\n      pop\n        /* \"#utility.yul\":19471:19740   */\n      pop\n      pop\n      pop\n      jump\t// out\n        /* \"#utility.yul\":19746:19819   */\n    tag_203:\n        /* \"#utility.yul\":19791:19794   */\n      0x00\n        /* \"#utility.yul\":19812:19813   */\n      0x00\n        /* \"#utility.yul\":19805:19813   */\n      swap1\n      pop\n        /* \"#utility.yul\":19746:19819   */\n      swap1\n      jump\t// out\n        /* \"#utility.yul\":19825:20014   */\n    tag_204:\n        /* \"#utility.yul\":19902:19934   */\n      tag_397\n      tag_203\n      jump\t// in\n    tag_397:\n        /* \"#utility.yul\":19943:20008   */\n      tag_398\n        /* \"#utility.yul\":20001:20007   */\n      dup2\n        /* \"#utility.yul\":19993:19999   */\n      dup5\n        /* \"#utility.yul\":19987:19991   */\n      dup5\n        /* \"#utility.yul\":19943:20008   */\n      tag_202\n      jump\t// in\n    tag_398:\n        /* \"#utility.yul\":19878:20014   */\n      pop\n        /* \"#utility.yul\":19825:20014   */\n      pop\n      pop\n      jump\t// out\n        /* \"#utility.yul\":20020:20206   */\n    tag_205:\n        /* \"#utility.yul\":20080:20200   */\n    tag_400:\n        /* \"#utility.yul\":20097:20100   */\n      dup2\n        /* \"#utility.yul\":20090:20095   */\n      dup2\n        /* \"#utility.yul\":20087:20101   */\n      lt\n        /* \"#utility.yul\":20080:20200   */\n      iszero\n      tag_402\n      jumpi\n        /* \"#utility.yul\":20151:20190   */\n      tag_403\n        /* \"#utility.yul\":20188:20189   */\n      0x00\n        /* \"#utility.yul\":20181:20186   */\n      dup3\n        /* \"#utility.yul\":20151:20190   */\n      tag_204\n      jump\t// in\n    tag_403:\n        /* \"#utility.yul\":20124:20125   */\n      0x01\n        /* \"#utility.yul\":20117:20122   */\n      dup2\n        /* \"#utility.yul\":20113:20126   */\n      add\n        /* \"#utility.yul\":20104:20126   */\n      swap1\n      pop\n        /* \"#utility.yul\":20080:20200   */\n      jump(tag_400)\n    tag_402:\n        /* \"#utility.yul\":20020:20206   */\n      pop\n      pop\n      jump\t// out\n        /* \"#utility.yul\":20212:20755   */\n    tag_206:\n        /* \"#utility.yul\":20313:20315   */\n      0x1f\n        /* \"#utility.yul\":20308:20311   */\n      dup3\n        /* \"#utility.yul\":20305:20316   */\n      gt\n        /* \"#utility.yul\":20302:20748   */\n      iszero\n      tag_405\n      jumpi\n        /* \"#utility.yul\":20347:20385   */\n      tag_406\n        /* \"#utility.yul\":20379:20384   */\n      dup2\n        /* \"#utility.yul\":20347:20385   */\n      tag_195\n      jump\t// in\n    tag_406:\n        /* \"#utility.yul\":20431:20460   */\n      tag_407\n        /* \"#utility.yul\":20449:20459   */\n      dup5\n        /* \"#utility.yul\":20431:20460   */\n      tag_196\n      jump\t// in\n    tag_407:\n        /* \"#utility.yul\":20421:20429   */\n      dup2\n        /* \"#utility.yul\":20417:20461   */\n      add\n        /* \"#utility.yul\":20614:20616   */\n      0x20\n        /* \"#utility.yul\":20602:20612   */\n      dup6\n        /* \"#utility.yul\":20599:20617   */\n      lt\n        /* \"#utility.yul\":20596:20645   */\n      iszero\n      tag_408\n      jumpi\n        /* \"#utility.yul\":20635:20643   */\n      dup2\n        /* \"#utility.yul\":20620:20643   */\n      swap1\n      pop\n        /* \"#utility.yul\":20596:20645   */\n    tag_408:\n        /* \"#utility.yul\":20658:20738   */\n      tag_409\n        /* \"#utility.yul\":20714:20736   */\n      tag_410\n        /* \"#utility.yul\":20732:20735   */\n      dup6\n        /* \"#utility.yul\":20714:20736   */\n      tag_196\n      jump\t// in\n    tag_410:\n        /* \"#utility.yul\":20704:20712   */\n      dup4\n        /* \"#utility.yul\":20700:20737   */\n      add\n        /* \"#utility.yul\":20687:20698   */\n      dup3\n        /* \"#utility.yul\":20658:20738   */\n      tag_205\n      jump\t// in\n    tag_409:\n        /* \"#utility.yul\":20317:20748   */\n      pop\n      pop\n        /* \"#utility.yul\":20302:20748   */\n    tag_405:\n        /* \"#utility.yul\":20212:20755   */\n      pop\n      pop\n      pop\n      jump\t// out\n        /* \"#utility.yul\":20761:20878   */\n    tag_207:\n        /* \"#utility.yul\":20815:20823   */\n      0x00\n        /* \"#utility.yul\":20865:20870   */\n      dup3\n        /* \"#utility.yul\":20859:20863   */\n      dup3\n        /* \"#utility.yul\":20855:20871   */\n      shr\n        /* \"#utility.yul\":20834:20871   */\n      swap1\n      pop\n        /* \"#utility.yul\":20761:20878   */\n      swap3\n      swap2\n      pop\n      pop\n      jump\t// out\n        /* \"#utility.yul\":20884:21053   */\n    tag_208:\n        /* \"#utility.yul\":20928:20934   */\n      0x00\n        /* \"#utility.yul\":20961:21012   */\n      tag_413\n        /* \"#utility.yul\":21009:21010   */\n      0x00\n        /* \"#utility.yul\":21005:21011   */\n      not\n        /* \"#utility.yul\":20997:21002   */\n      dup5\n        /* \"#utility.yul\":20994:20995   */\n      0x08\n        /* \"#utility.yul\":20990:21003   */\n      mul\n        /* \"#utility.yul\":20961:21012   */\n      tag_207\n      jump\t// in\n    tag_413:\n        /* \"#utility.yul\":20957:21013   */\n      not\n        /* \"#utility.yul\":21042:21046   */\n      dup1\n        /* \"#utility.yul\":21036:21040   */\n      dup4\n        /* \"#utility.yul\":21032:21047   */\n      and\n        /* \"#utility.yul\":21022:21047   */\n      swap2\n      pop\n        /* \"#utility.yul\":20935:21053   */\n      pop\n        /* \"#utility.yul\":20884:21053   */\n      swap3\n      swap2\n      pop\n      pop\n      jump\t// out\n        /* \"#utility.yul\":21058:21353   */\n    tag_209:\n        /* \"#utility.yul\":21134:21138   */\n      0x00\n        /* \"#utility.yul\":21280:21309   */\n      tag_415\n        /* \"#utility.yul\":21305:21308   */\n      dup4\n        /* \"#utility.yul\":21299:21303   */\n      dup4\n        /* \"#utility.yul\":21280:21309   */\n      tag_208\n      jump\t// in\n    tag_415:\n        /* \"#utility.yul\":21272:21309   */\n      swap2\n      pop\n        /* \"#utility.yul\":21342:21345   */\n      dup3\n        /* \"#utility.yul\":21339:21340   */\n      0x02\n        /* \"#utility.yul\":21335:21346   */\n      mul\n        /* \"#utility.yul\":21329:21333   */\n      dup3\n        /* \"#utility.yul\":21326:21347   */\n      or\n        /* \"#utility.yul\":21318:21347   */\n      swap1\n      pop\n        /* \"#utility.yul\":21058:21353   */\n      swap3\n      swap2\n      pop\n      pop\n      jump\t// out\n        /* \"#utility.yul\":21358:22753   */\n    tag_135:\n        /* \"#utility.yul\":21475:21512   */\n      tag_417\n        /* \"#utility.yul\":21508:21511   */\n      dup3\n        /* \"#utility.yul\":21475:21512   */\n      tag_170\n      jump\t// in\n    tag_417:\n        /* \"#utility.yul\":21577:21595   */\n      0xffffffffffffffff\n        /* \"#utility.yul\":21569:21575   */\n      dup2\n        /* \"#utility.yul\":21566:21596   */\n      gt\n        /* \"#utility.yul\":21563:21619   */\n      iszero\n      tag_418\n      jumpi\n        /* \"#utility.yul\":21599:21617   */\n      tag_419\n      tag_150\n      jump\t// in\n    tag_419:\n        /* \"#utility.yul\":21563:21619   */\n    tag_418:\n        /* \"#utility.yul\":21643:21681   */\n      tag_420\n        /* \"#utility.yul\":21675:21679   */\n      dup3\n        /* \"#utility.yul\":21669:21680   */\n      sload\n        /* \"#utility.yul\":21643:21681   */\n      tag_66\n      jump\t// in\n    tag_420:\n        /* \"#utility.yul\":21728:21795   */\n      tag_421\n        /* \"#utility.yul\":21788:21794   */\n      dup3\n        /* \"#utility.yul\":21780:21786   */\n      dup3\n        /* \"#utility.yul\":21774:21778   */\n      dup6\n        /* \"#utility.yul\":21728:21795   */\n      tag_206\n      jump\t// in\n    tag_421:\n        /* \"#utility.yul\":21822:21823   */\n      0x00\n        /* \"#utility.yul\":21846:21850   */\n      0x20\n        /* \"#utility.yul\":21833:21850   */\n      swap1\n      pop\n        /* \"#utility.yul\":21878:21880   */\n      0x1f\n        /* \"#utility.yul\":21870:21876   */\n      dup4\n        /* \"#utility.yul\":21867:21881   */\n      gt\n        /* \"#utility.yul\":21895:21896   */\n      0x01\n        /* \"#utility.yul\":21890:22508   */\n      dup2\n      eq\n      tag_423\n      jumpi\n        /* \"#utility.yul\":22552:22553   */\n      0x00\n        /* \"#utility.yul\":22569:22575   */\n      dup5\n        /* \"#utility.yul\":22566:22643   */\n      iszero\n      tag_424\n      jumpi\n        /* \"#utility.yul\":22618:22627   */\n      dup3\n        /* \"#utility.yul\":22613:22616   */\n      dup8\n        /* \"#utility.yul\":22609:22628   */\n      add\n        /* \"#utility.yul\":22603:22629   */\n      mload\n        /* \"#utility.yul\":22594:22629   */\n      swap1\n      pop\n        /* \"#utility.yul\":22566:22643   */\n    tag_424:\n        /* \"#utility.yul\":22669:22736   */\n      tag_425\n        /* \"#utility.yul\":22729:22735   */\n      dup6\n        /* \"#utility.yul\":22722:22727   */\n      dup3\n        /* \"#utility.yul\":22669:22736   */\n      tag_209\n      jump\t// in\n    tag_425:\n        /* \"#utility.yul\":22663:22667   */\n      dup7\n        /* \"#utility.yul\":22656:22737   */\n      sstore\n        /* \"#utility.yul\":22525:22747   */\n      pop\n        /* \"#utility.yul\":21860:22747   */\n      jump(tag_422)\n        /* \"#utility.yul\":21890:22508   */\n    tag_423:\n        /* \"#utility.yul\":21942:21946   */\n      0x1f\n        /* \"#utility.yul\":21938:21947   */\n      not\n        /* \"#utility.yul\":21930:21936   */\n      dup5\n        /* \"#utility.yul\":21926:21948   */\n      and\n        /* \"#utility.yul\":21976:22013   */\n      tag_426\n        /* \"#utility.yul\":22008:22012   */\n      dup7\n        /* \"#utility.yul\":21976:22013   */\n      tag_195\n      jump\t// in\n    tag_426:\n        /* \"#utility.yul\":22035:22036   */\n      0x00\n        /* \"#utility.yul\":22049:22257   */\n    tag_427:\n        /* \"#utility.yul\":22063:22070   */\n      dup3\n        /* \"#utility.yul\":22060:22061   */\n      dup2\n        /* \"#utility.yul\":22057:22071   */\n      lt\n        /* \"#utility.yul\":22049:22257   */\n      iszero\n      tag_429\n      jumpi\n        /* \"#utility.yul\":22142:22151   */\n      dup5\n        /* \"#utility.yul\":22137:22140   */\n      dup10\n        /* \"#utility.yul\":22133:22152   */\n      add\n        /* \"#utility.yul\":22127:22153   */\n      mload\n        /* \"#utility.yul\":22119:22125   */\n      dup3\n        /* \"#utility.yul\":22112:22154   */\n      sstore\n        /* \"#utility.yul\":22193:22194   */\n      0x01\n        /* \"#utility.yul\":22185:22191   */\n      dup3\n        /* \"#utility.yul\":22181:22195   */\n      add\n        /* \"#utility.yul\":22171:22195   */\n      swap2\n      pop\n        /* \"#utility.yul\":22240:22242   */\n      0x20\n        /* \"#utility.yul\":22229:22238   */\n      dup6\n        /* \"#utility.yul\":22225:22243   */\n      add\n        /* \"#utility.yul\":22212:22243   */\n      swap5\n      pop\n        /* \"#utility.yul\":22086:22090   */\n      0x20\n        /* \"#utility.yul\":22083:22084   */\n      dup2\n        /* \"#utility.yul\":22079:22091   */\n      add\n        /* \"#utility.yul\":22074:22091   */\n      swap1\n      pop\n        /* \"#utility.yul\":22049:22257   */\n      jump(tag_427)\n    tag_429:\n        /* \"#utility.yul\":22285:22291   */\n      dup7\n        /* \"#utility.yul\":22276:22283   */\n      dup4\n        /* \"#utility.yul\":22273:22292   */\n      lt\n        /* \"#utility.yul\":22270:22449   */\n      iszero\n      tag_430\n      jumpi\n        /* \"#utility.yul\":22343:22352   */\n      dup5\n        /* \"#utility.yul\":22338:22341   */\n      dup10\n        /* \"#utility.yul\":22334:22353   */\n      add\n        /* \"#utility.yul\":22328:22354   */\n      mload\n        /* \"#utility.yul\":22386:22434   */\n      tag_431\n        /* \"#utility.yul\":22428:22432   */\n      0x1f\n        /* \"#utility.yul\":22420:22426   */\n      dup10\n        /* \"#utility.yul\":22416:22433   */\n      and\n        /* \"#utility.yul\":22405:22414   */\n      dup3\n        /* \"#utility.yul\":22386:22434   */\n      tag_208\n      jump\t// in\n    tag_431:\n        /* \"#utility.yul\":22378:22384   */\n      dup4\n        /* \"#utility.yul\":22371:22435   */\n      sstore\n        /* \"#utility.yul\":22293:22449   */\n      pop\n        /* \"#utility.yul\":22270:22449   */\n    tag_430:\n        /* \"#utility.yul\":22495:22496   */\n      0x01\n        /* \"#utility.yul\":22491:22492   */\n      0x02\n        /* \"#utility.yul\":22483:22489   */\n      dup9\n        /* \"#utility.yul\":22479:22493   */\n      mul\n        /* \"#utility.yul\":22475:22497   */\n      add\n        /* \"#utility.yul\":22469:22473   */\n      dup9\n        /* \"#utility.yul\":22462:22498   */\n      sstore\n        /* \"#utility.yul\":21897:22508   */\n      pop\n      pop\n      pop\n        /* \"#utility.yul\":21860:22747   */\n    tag_422:\n      pop\n        /* \"#utility.yul\":21450:22753   */\n      pop\n      pop\n      pop\n        /* \"#utility.yul\":21358:22753   */\n      pop\n      pop\n      jump\t// out\n\n    auxdata: 0xa2646970667358221220ce5b113209a9c06d69850a3fcc66d93c17c52ac036315fef814e02d0a081facb64736f6c634300081e0033\n}\n",
				"bytecode": {
					"linkReferences": {},
					"object": "60a060405260015f553480156012575f5ffd5b503373ffffffffffffffffffffffffffffffffffffffff1660808173ffffffffffffffffffffffffffffffffffffffff1681525050608051611c4961006d5f395f8181610248015281816102da0152610c370152611c495ff3fe608060405260043610610085575f3560e01c8063721b72b011610058578063721b72b0146101215780637476452a14610149578063b6dfd6f114610185578063f851a440146101ad578063fc5f2b78146101d757610085565b806313bd20e2146100895780633a4b4532146100c55780633ccfd60b146100ef578063429cad8614610105575b5f5ffd5b348015610094575f5ffd5b506100af60048036038101906100aa9190611257565b6101ff565b6040516100bc91906112cb565b60405180910390f35b3480156100d0575f5ffd5b506100d9610241565b6040516100e691906112fc565b60405180910390f35b3480156100fa575f5ffd5b50610103610246565b005b61011f600480360381019061011a9190611372565b61033f565b005b34801561012c575f5ffd5b50610147600480360381019061014291906113e7565b610697565b005b348015610154575f5ffd5b5061016f600480360381019061016a9190611372565b6107eb565b60405161017c9190611522565b60405180910390f35b348015610190575f5ffd5b506101ab60048036038101906101a69190611372565b6109c1565b005b3480156101b8575f5ffd5b506101c1610c35565b6040516101ce9190611551565b60405180910390f35b3480156101e2575f5ffd5b506101fd60048036038101906101f8919061156a565b610c59565b005b600282805160208101820180518482526020830160208501208183528095505050505050602052805f5260405f205f915091509054906101000a900460ff1681565b5f5481565b7f000000000000000000000000000000000000000000000000000000000000000073ffffffffffffffffffffffffffffffffffffffff163373ffffffffffffffffffffffffffffffffffffffff16146102d4576040517f08c379a00000000000000000000000000000000000000000000000000000000081526004016102cb9061167b565b60405180910390fd5b5f4790507f000000000000000000000000000000000000000000000000000000000000000073ffffffffffffffffffffffffffffffffffffffff166108fc8290811502906040515f60405180830381858888f1935050505015801561033b573d5f5f3e3d5ffd5b5050565b5f600183836040516103529291906116c7565b90815260200160405180910390206040518060800160405290815f8201805461037a9061170c565b80601f01602080910402602001604051908101604052809291908181526020018280546103a69061170c565b80156103f15780601f106103c8576101008083540402835291602001916103f1565b820191905f5260205f20905b8154815290600101906020018083116103d457829003601f168201915b50505050508152602001600182015f9054906101000a900473ffffffffffffffffffffffffffffffffffffffff1673ffffffffffffffffffffffffffffffffffffffff1673ffffffffffffffffffffffffffffffffffffffff1681526020016002820154815260200160038201548152505090505f73ffffffffffffffffffffffffffffffffffffffff16816020015173ffffffffffffffffffffffffffffffffffffffff16036104d7576040517f08c379a00000000000000000000000000000000000000000000000000000000081526004016104ce90611786565b60405180910390fd5b5f1515600284846040516104ec9291906116c7565b90815260200160405180910390205f3373ffffffffffffffffffffffffffffffffffffffff1673ffffffffffffffffffffffffffffffffffffffff1681526020019081526020015f205f9054906101000a900460ff16151514610584576040517f08c379a000000000000000000000000000000000000000000000000000000000815260040161057b906117ee565b60405180910390fd5b80604001513410156105cb576040517f08c379a00000000000000000000000000000000000000000000000000000000081526004016105c290611856565b60405180910390fd5b6001600284846040516105df9291906116c7565b90815260200160405180910390205f3373ffffffffffffffffffffffffffffffffffffffff1673ffffffffffffffffffffffffffffffffffffffff1681526020019081526020015f205f6101000a81548160ff021916908315150217905550806020015173ffffffffffffffffffffffffffffffffffffffff166108fc5f543461066991906118a1565b90811502906040515f60405180830381858888f19350505050158015610691573d5f5f3e3d5ffd5b50505050565b5f600184846040516106aa9291906116c7565b908152602001604051809103902090505f73ffffffffffffffffffffffffffffffffffffffff16816001015f9054906101000a900473ffffffffffffffffffffffffffffffffffffffff1673ffffffffffffffffffffffffffffffffffffffff160361074b576040517f08c379a000000000000000000000000000000000000000000000000000000000815260040161074290611786565b60405180910390fd5b3373ffffffffffffffffffffffffffffffffffffffff16816001015f9054906101000a900473ffffffffffffffffffffffffffffffffffffffff1673ffffffffffffffffffffffffffffffffffffffff16146107dc576040517f08c379a00000000000000000000000000000000000000000000000000000000081526004016107d39061167b565b60405180910390fd5b81816002018190555050505050565b6107f361101d565b5f600184846040516108069291906116c7565b90815260200160405180910390206040518060800160405290815f8201805461082e9061170c565b80601f016020809104026020016040519081016040528092919081815260200182805461085a9061170c565b80156108a55780601f1061087c576101008083540402835291602001916108a5565b820191905f5260205f20905b81548152906001019060200180831161088857829003601f168201915b50505050508152602001600182015f9054906101000a900473ffffffffffffffffffffffffffffffffffffffff1673ffffffffffffffffffffffffffffffffffffffff1673ffffffffffffffffffffffffffffffffffffffff1681526020016002820154815260200160038201548152505090505f81604001510361092d57809150506109bb565b5f1515600285856040516109429291906116c7565b90815260200160405180910390205f3373ffffffffffffffffffffffffffffffffffffffff1673ffffffffffffffffffffffffffffffffffffffff1681526020019081526020015f205f9054906101000a900460ff161515036109b65760405180602001604052805f815250815f01819052505b809150505b92915050565b5f600183836040516109d49291906116c7565b90815260200160405180910390206040518060800160405290815f820180546109fc9061170c565b80601f0160208091040260200160405190810160405280929190818152602001828054610a289061170c565b8015610a735780601f10610a4a57610100808354040283529160200191610a73565b820191905f5260205f20905b815481529060010190602001808311610a5657829003601f168201915b50505050508152602001600182015f9054906101000a900473ffffffffffffffffffffffffffffffffffffffff1673ffffffffffffffffffffffffffffffffffffffff1673ffffffffffffffffffffffffffffffffffffffff1681526020016002820154815260200160038201548152505090505f73ffffffffffffffffffffffffffffffffffffffff16816020015173ffffffffffffffffffffffffffffffffffffffff1603610b59576040517f08c379a0000000000000000000000000000000000000000000000000000000008152600401610b5090611786565b60405180910390fd5b3373ffffffffffffffffffffffffffffffffffffffff16816020015173ffffffffffffffffffffffffffffffffffffffff1614610bcb576040517f08c379a0000000000000000000000000000000000000000000000000000000008152600401610bc29061167b565b60405180910390fd5b60018383604051610bdd9291906116c7565b90815260200160405180910390205f5f82015f610bfa9190611058565b600182015f6101000a81549073ffffffffffffffffffffffffffffffffffffffff0219169055600282015f9055600382015f90555050505050565b7f000000000000000000000000000000000000000000000000000000000000000081565b5f60018484604051610c6c9291906116c7565b90815260200160405180910390206040518060800160405290815f82018054610c949061170c565b80601f0160208091040260200160405190810160405280929190818152602001828054610cc09061170c565b8015610d0b5780601f10610ce257610100808354040283529160200191610d0b565b820191905f5260205f20905b815481529060010190602001808311610cee57829003601f168201915b50505050508152602001600182015f9054906101000a900473ffffffffffffffffffffffffffffffffffffffff1673ffffffffffffffffffffffffffffffffffffffff1673ffffffffffffffffffffffffffffffffffffffff1681526020016002820154815260200160038201548152505090505f73ffffffffffffffffffffffffffffffffffffffff16816020015173ffffffffffffffffffffffffffffffffffffffff161480610dec57503373ffffffffffffffffffffffffffffffffffffffff16816020015173ffffffffffffffffffffffffffffffffffffffff16145b610e2b576040517f08c379a0000000000000000000000000000000000000000000000000000000008152600401610e229061191e565b60405180910390fd5b5f821480610e3a57505f548210155b610e79576040517f08c379a0000000000000000000000000000000000000000000000000000000008152600401610e7090611986565b60405180910390fd5b85858080601f0160208091040260200160405190810160405280939291908181526020018383808284375f81840152601f19601f82011690508083019250505050505050815f01819052508181604001818152505033816020019073ffffffffffffffffffffffffffffffffffffffff16908173ffffffffffffffffffffffffffffffffffffffff1681525050428160600181815250508060018585604051610f239291906116c7565b90815260200160405180910390205f820151815f019081610f449190611b44565b506020820151816001015f6101000a81548173ffffffffffffffffffffffffffffffffffffffff021916908373ffffffffffffffffffffffffffffffffffffffff1602179055506040820151816002015560608201518160030155905050600160028585604051610fb69291906116c7565b90815260200160405180910390205f3373ffffffffffffffffffffffffffffffffffffffff1673ffffffffffffffffffffffffffffffffffffffff1681526020019081526020015f205f6101000a81548160ff021916908315150217905550505050505050565b6040518060800160405280606081526020015f73ffffffffffffffffffffffffffffffffffffffff1681526020015f81526020015f81525090565b5080546110649061170c565b5f825580601f106110755750611092565b601f0160209004905f5260205f20908101906110919190611095565b5b50565b5b808211156110ac575f815f905550600101611096565b5090565b5f604051905090565b5f5ffd5b5f5ffd5b5f5ffd5b5f5ffd5b5f601f19601f8301169050919050565b7f4e487b71000000000000000000000000000000000000000000000000000000005f52604160045260245ffd5b61110f826110c9565b810181811067ffffffffffffffff8211171561112e5761112d6110d9565b5b80604052505050565b5f6111406110b0565b905061114c8282611106565b919050565b5f67ffffffffffffffff82111561116b5761116a6110d9565b5b611174826110c9565b9050602081019050919050565b828183375f83830152505050565b5f6111a161119c84611151565b611137565b9050828152602081018484840111156111bd576111bc6110c5565b5b6111c8848285611181565b509392505050565b5f82601f8301126111e4576111e36110c1565b5b81356111f484826020860161118f565b91505092915050565b5f73ffffffffffffffffffffffffffffffffffffffff82169050919050565b5f611226826111fd565b9050919050565b6112368161121c565b8114611240575f5ffd5b50565b5f813590506112518161122d565b92915050565b5f5f6040838503121561126d5761126c6110b9565b5b5f83013567ffffffffffffffff81111561128a576112896110bd565b5b611296858286016111d0565b92505060206112a785828601611243565b9150509250929050565b5f8115159050919050565b6112c5816112b1565b82525050565b5f6020820190506112de5f8301846112bc565b92915050565b5f819050919050565b6112f6816112e4565b82525050565b5f60208201905061130f5f8301846112ed565b92915050565b5f5ffd5b5f5ffd5b5f5f83601f840112611332576113316110c1565b5b8235905067ffffffffffffffff81111561134f5761134e611315565b5b60208301915083600182028301111561136b5761136a611319565b5b9250929050565b5f5f60208385031215611388576113876110b9565b5b5f83013567ffffffffffffffff8111156113a5576113a46110bd565b5b6113b18582860161131d565b92509250509250929050565b6113c6816112e4565b81146113d0575f5ffd5b50565b5f813590506113e1816113bd565b92915050565b5f5f5f604084860312156113fe576113fd6110b9565b5b5f84013567ffffffffffffffff81111561141b5761141a6110bd565b5b6114278682870161131d565b9350935050602061143a868287016113d3565b9150509250925092565b5f81519050919050565b5f82825260208201905092915050565b8281835e5f83830152505050565b5f61147682611444565b611480818561144e565b935061149081856020860161145e565b611499816110c9565b840191505092915050565b6114ad8161121c565b82525050565b6114bc816112e4565b82525050565b5f608083015f8301518482035f8601526114dc828261146c565b91505060208301516114f160208601826114a4565b50604083015161150460408601826114b3565b50606083015161151760608601826114b3565b508091505092915050565b5f6020820190508181035f83015261153a81846114c2565b905092915050565b61154b8161121c565b82525050565b5f6020820190506115645f830184611542565b92915050565b5f5f5f5f5f60608688031215611583576115826110b9565b5b5f86013567ffffffffffffffff8111156115a05761159f6110bd565b5b6115ac8882890161131d565b9550955050602086013567ffffffffffffffff8111156115cf576115ce6110bd565b5b6115db8882890161131d565b935093505060406115ee888289016113d3565b9150509295509295909350565b5f82825260208201905092915050565b7f596f7520646f6e2774207065726d697373696f6e20666f7220746869732061635f8201527f74696f6e00000000000000000000000000000000000000000000000000000000602082015250565b5f6116656024836115fb565b91506116708261160b565b604082019050919050565b5f6020820190508181035f83015261169281611659565b9050919050565b5f81905092915050565b5f6116ae8385611699565b93506116bb838584611181565b82840190509392505050565b5f6116d38284866116a3565b91508190509392505050565b7f4e487b71000000000000000000000000000000000000000000000000000000005f52602260045260245ffd5b5f600282049050600182168061172357607f821691505b602082108103611736576117356116df565b5b50919050565b7f4c696e6b206e6f7420666f756e640000000000000000000000000000000000005f82015250565b5f611770600e836115fb565b915061177b8261173c565b602082019050919050565b5f6020820190508181035f83015261179d81611764565b9050919050565b7f596f7520616c72656479206861732061636365737300000000000000000000005f82015250565b5f6117d86015836115fb565b91506117e3826117a4565b602082019050919050565b5f6020820190508181035f830152611805816117cc565b9050919050565b7f496e737566696369656e74207061796d656e74000000000000000000000000005f82015250565b5f6118406013836115fb565b915061184b8261180c565b602082019050919050565b5f6020820190508181035f83015261186d81611834565b9050919050565b7f4e487b71000000000000000000000000000000000000000000000000000000005f52601160045260245ffd5b5f6118ab826112e4565b91506118b6836112e4565b92508282039050818111156118ce576118cd611874565b5b92915050565b7f54686973206c696e6b496420616c726561642068617320616e206f776e6572005f82015250565b5f611908601f836115fb565b9150611913826118d4565b602082019050919050565b5f6020820190508181035f830152611935816118fc565b9050919050565b7f46656520746f6f206c6f770000000000000000000000000000000000000000005f82015250565b5f611970600b836115fb565b915061197b8261193c565b602082019050919050565b5f6020820190508181035f83015261199d81611964565b9050919050565b5f819050815f5260205f209050919050565b5f6020601f8301049050919050565b5f82821b905092915050565b5f60088302611a007fffffffffffffffffffffffffffffffffffffffffffffffffffffffffffffffff826119c5565b611a0a86836119c5565b95508019841693508086168417925050509392505050565b5f819050919050565b5f611a45611a40611a3b846112e4565b611a22565b6112e4565b9050919050565b5f819050919050565b611a5e83611a2b565b611a72611a6a82611a4c565b8484546119d1565b825550505050565b5f5f905090565b611a89611a7a565b611a94818484611a55565b505050565b5b81811015611ab757611aac5f82611a81565b600181019050611a9a565b5050565b601f821115611afc57611acd816119a4565b611ad6846119b6565b81016020851015611ae5578190505b611af9611af1856119b6565b830182611a99565b50505b505050565b5f82821c905092915050565b5f611b1c5f1984600802611b01565b1980831691505092915050565b5f611b348383611b0d565b9150826002028217905092915050565b611b4d82611444565b67ffffffffffffffff811115611b6657611b656110d9565b5b611b70825461170c565b611b7b828285611abb565b5f60209050601f831160018114611bac575f8415611b9a578287015190505b611ba48582611b29565b865550611c0b565b601f198416611bba866119a4565b5f5b82811015611be157848901518255600182019150602085019450602081019050611bbc565b86831015611bfe5784890151611bfa601f891682611b0d565b8355505b6001600288020188555050505b50505050505056fea2646970667358221220ce5b113209a9c06d69850a3fcc66d93c17c52ac036315fef814e02d0a081facb64736f6c634300081e0033",
					"opcodes": "PUSH1 0xA0 PUSH1 0x40 MSTORE PUSH1 0x1 PUSH0 SSTORE CALLVALUE DUP1 ISZERO PUSH1 0x12 JUMPI PUSH0 PUSH0 REVERT JUMPDEST POP CALLER PUSH20 0xFFFFFFFFFFFFFFFFFFFFFFFFFFFFFFFFFFFFFFFF AND PUSH1 0x80 DUP2 PUSH20 0xFFFFFFFFFFFFFFFFFFFFFFFFFFFFFFFFFFFFFFFF AND DUP2 MSTORE POP POP PUSH1 0x80 MLOAD PUSH2 0x1C49 PUSH2 0x6D PUSH0 CODECOPY PUSH0 DUP2 DUP2 PUSH2 0x248 ADD MSTORE DUP2 DUP2 PUSH2 0x2DA ADD MSTORE PUSH2 0xC37 ADD MSTORE PUSH2 0x1C49 PUSH0 RETURN INVALID PUSH1 0x80 PUSH1 0x40 MSTORE PUSH1 0x4 CALLDATASIZE LT PUSH2 0x85 JUMPI PUSH0 CALLDATALOAD PUSH1 0xE0 SHR DUP1 PUSH4 0x721B72B0 GT PUSH2 0x58 JUMPI DUP1 PUSH4 0x721B72B0 EQ PUSH2 0x121 JUMPI DUP1 PUSH4 0x7476452A EQ PUSH2 0x149 JUMPI DUP1 PUSH4 0xB6DFD6F1 EQ PUSH2 0x185 JUMPI DUP1 PUSH4 0xF851A440 EQ PUSH2 0x1AD JUMPI DUP1 PUSH4 0xFC5F2B78 EQ PUSH2 0x1D7 JUMPI PUSH2 0x85 JUMP JUMPDEST DUP1 PUSH4 0x13BD20E2 EQ PUSH2 0x89 JUMPI DUP1 PUSH4 0x3A4B4532 EQ PUSH2 0xC5 JUMPI DUP1 PUSH4 0x3CCFD60B EQ PUSH2 0xEF JUMPI DUP1 PUSH4 0x429CAD86 EQ PUSH2 0x105 JUMPI JUMPDEST PUSH0 PUSH0 REVERT JUMPDEST CALLVALUE DUP1 ISZERO PUSH2 0x94 JUMPI PUSH0 PUSH0 REVERT JUMPDEST POP PUSH2 0xAF PUSH1 0x4 DUP1 CALLDATASIZE SUB DUP2 ADD SWAP1 PUSH2 0xAA SWAP2 SWAP1 PUSH2 0x1257 JUMP JUMPDEST PUSH2 0x1FF JUMP JUMPDEST PUSH1 0x40 MLOAD PUSH2 0xBC SWAP2 SWAP1 PUSH2 0x12CB JUMP JUMPDEST PUSH1 0x40 MLOAD DUP1 SWAP2 SUB SWAP1 RETURN JUMPDEST CALLVALUE DUP1 ISZERO PUSH2 0xD0 JUMPI PUSH0 PUSH0 REVERT JUMPDEST POP PUSH2 0xD9 PUSH2 0x241 JUMP JUMPDEST PUSH1 0x40 MLOAD PUSH2 0xE6 SWAP2 SWAP1 PUSH2 0x12FC JUMP JUMPDEST PUSH1 0x40 MLOAD DUP1 SWAP2 SUB SWAP1 RETURN JUMPDEST CALLVALUE DUP1 ISZERO PUSH2 0xFA JUMPI PUSH0 PUSH0 REVERT JUMPDEST POP PUSH2 0x103 PUSH2 0x246 JUMP JUMPDEST STOP JUMPDEST PUSH2 0x11F PUSH1 0x4 DUP1 CALLDATASIZE SUB DUP2 ADD SWAP1 PUSH2 0x11A SWAP2 SWAP1 PUSH2 0x1372 JUMP JUMPDEST PUSH2 0x33F JUMP JUMPDEST STOP JUMPDEST CALLVALUE DUP1 ISZERO PUSH2 0x12C JUMPI PUSH0 PUSH0 REVERT JUMPDEST POP PUSH2 0x147 PUSH1 0x4 DUP1 CALLDATASIZE SUB DUP2 ADD SWAP1 PUSH2 0x142 SWAP2 SWAP1 PUSH2 0x13E7 JUMP JUMPDEST PUSH2 0x697 JUMP JUMPDEST STOP JUMPDEST CALLVALUE DUP1 ISZERO PUSH2 0x154 JUMPI PUSH0 PUSH0 REVERT JUMPDEST POP PUSH2 0x16F PUSH1 0x4 DUP1 CALLDATASIZE SUB DUP2 ADD SWAP1 PUSH2 0x16A SWAP2 SWAP1 PUSH2 0x1372 JUMP JUMPDEST PUSH2 0x7EB JUMP JUMPDEST PUSH1 0x40 MLOAD PUSH2 0x17C SWAP2 SWAP1 PUSH2 0x1522 JUMP JUMPDEST PUSH1 0x40 MLOAD DUP1 SWAP2 SUB SWAP1 RETURN JUMPDEST CALLVALUE DUP1 ISZERO PUSH2 0x190 JUMPI PUSH0 PUSH0 REVERT JUMPDEST POP PUSH2 0x1AB PUSH1 0x4 DUP1 CALLDATASIZE SUB DUP2 ADD SWAP1 PUSH2 0x1A6 SWAP2 SWAP1 PUSH2 0x1372 JUMP JUMPDEST PUSH2 0x9C1 JUMP JUMPDEST STOP JUMPDEST CALLVALUE DUP1 ISZERO PUSH2 0x1B8 JUMPI PUSH0 PUSH0 REVERT JUMPDEST POP PUSH2 0x1C1 PUSH2 0xC35 JUMP JUMPDEST PUSH1 0x40 MLOAD PUSH2 0x1CE SWAP2 SWAP1 PUSH2 0x1551 JUMP JUMPDEST PUSH1 0x40 MLOAD DUP1 SWAP2 SUB SWAP1 RETURN JUMPDEST CALLVALUE DUP1 ISZERO PUSH2 0x1E2 JUMPI PUSH0 PUSH0 REVERT JUMPDEST POP PUSH2 0x1FD PUSH1 0x4 DUP1 CALLDATASIZE SUB DUP2 ADD SWAP1 PUSH2 0x1F8 SWAP2 SWAP1 PUSH2 0x156A JUMP JUMPDEST PUSH2 0xC59 JUMP JUMPDEST STOP JUMPDEST PUSH1 0x2 DUP3 DUP1 MLOAD PUSH1 0x20 DUP2 ADD DUP3 ADD DUP1 MLOAD DUP5 DUP3 MSTORE PUSH1 0x20 DUP4 ADD PUSH1 0x20 DUP6 ADD KECCAK256 DUP2 DUP4 MSTORE DUP1 SWAP6 POP POP POP POP POP POP PUSH1 0x20 MSTORE DUP1 PUSH0 MSTORE PUSH1 0x40 PUSH0 KECCAK256 PUSH0 SWAP2 POP SWAP2 POP SWAP1 SLOAD SWAP1 PUSH2 0x100 EXP SWAP1 DIV PUSH1 0xFF AND DUP2 JUMP JUMPDEST PUSH0 SLOAD DUP2 JUMP JUMPDEST PUSH32 0x0 PUSH20 0xFFFFFFFFFFFFFFFFFFFFFFFFFFFFFFFFFFFFFFFF AND CALLER PUSH20 0xFFFFFFFFFFFFFFFFFFFFFFFFFFFFFFFFFFFFFFFF AND EQ PUSH2 0x2D4 JUMPI PUSH1 0x40 MLOAD PUSH32 0x8C379A000000000000000000000000000000000000000000000000000000000 DUP2 MSTORE PUSH1 0x4 ADD PUSH2 0x2CB SWAP1 PUSH2 0x167B JUMP JUMPDEST PUSH1 0x40 MLOAD DUP1 SWAP2 SUB SWAP1 REVERT JUMPDEST PUSH0 SELFBALANCE SWAP1 POP PUSH32 0x0 PUSH20 0xFFFFFFFFFFFFFFFFFFFFFFFFFFFFFFFFFFFFFFFF AND PUSH2 0x8FC DUP3 SWAP1 DUP2 ISZERO MUL SWAP1 PUSH1 0x40 MLOAD PUSH0 PUSH1 0x40 MLOAD DUP1 DUP4 SUB DUP2 DUP6 DUP9 DUP9 CALL SWAP4 POP POP POP POP ISZERO DUP1 ISZERO PUSH2 0x33B JUMPI RETURNDATASIZE PUSH0 PUSH0 RETURNDATACOPY RETURNDATASIZE PUSH0 REVERT JUMPDEST POP POP JUMP JUMPDEST PUSH0 PUSH1 0x1 DUP4 DUP4 PUSH1 0x40 MLOAD PUSH2 0x352 SWAP3 SWAP2 SWAP1 PUSH2 0x16C7 JUMP JUMPDEST SWAP1 DUP2 MSTORE PUSH1 0x20 ADD PUSH1 0x40 MLOAD DUP1 SWAP2 SUB SWAP1 KECCAK256 PUSH1 0x40 MLOAD DUP1 PUSH1 0x80 ADD PUSH1 0x40 MSTORE SWAP1 DUP2 PUSH0 DUP3 ADD DUP1 SLOAD PUSH2 0x37A SWAP1 PUSH2 0x170C JUMP JUMPDEST DUP1 PUSH1 0x1F ADD PUSH1 0x20 DUP1 SWAP2 DIV MUL PUSH1 0x20 ADD PUSH1 0x40 MLOAD SWAP1 DUP2 ADD PUSH1 0x40 MSTORE DUP1 SWAP3 SWAP2 SWAP1 DUP2 DUP2 MSTORE PUSH1 0x20 ADD DUP3 DUP1 SLOAD PUSH2 0x3A6 SWAP1 PUSH2 0x170C JUMP JUMPDEST DUP1 ISZERO PUSH2 0x3F1 JUMPI DUP1 PUSH1 0x1F LT PUSH2 0x3C8 JUMPI PUSH2 0x100 DUP1 DUP4 SLOAD DIV MUL DUP4 MSTORE SWAP2 PUSH1 0x20 ADD SWAP2 PUSH2 0x3F1 JUMP JUMPDEST DUP3 ADD SWAP2 SWAP1 PUSH0 MSTORE PUSH1 0x20 PUSH0 KECCAK256 SWAP1 JUMPDEST DUP2 SLOAD DUP2 MSTORE SWAP1 PUSH1 0x1 ADD SWAP1 PUSH1 0x20 ADD DUP1 DUP4 GT PUSH2 0x3D4 JUMPI DUP3 SWAP1 SUB PUSH1 0x1F AND DUP3 ADD SWAP2 JUMPDEST POP POP POP POP POP DUP2 MSTORE PUSH1 0x20 ADD PUSH1 0x1 DUP3 ADD PUSH0 SWAP1 SLOAD SWAP1 PUSH2 0x100 EXP SWAP1 DIV PUSH20 0xFFFFFFFFFFFFFFFFFFFFFFFFFFFFFFFFFFFFFFFF AND PUSH20 0xFFFFFFFFFFFFFFFFFFFFFFFFFFFFFFFFFFFFFFFF AND PUSH20 0xFFFFFFFFFFFFFFFFFFFFFFFFFFFFFFFFFFFFFFFF AND DUP2 MSTORE PUSH1 0x20 ADD PUSH1 0x2 DUP3 ADD SLOAD DUP2 MSTORE PUSH1 0x20 ADD PUSH1 0x3 DUP3 ADD SLOAD DUP2 MSTORE POP POP SWAP1 POP PUSH0 PUSH20 0xFFFFFFFFFFFFFFFFFFFFFFFFFFFFFFFFFFFFFFFF AND DUP2 PUSH1 0x20 ADD MLOAD PUSH20 0xFFFFFFFFFFFFFFFFFFFFFFFFFFFFFFFFFFFFFFFF AND SUB PUSH2 0x4D7 JUMPI PUSH1 0x40 MLOAD PUSH32 0x8C379A000000000000000000000000000000000000000000000000000000000 DUP2 MSTORE PUSH1 0x4 ADD PUSH2 0x4CE SWAP1 PUSH2 0x1786 JUMP JUMPDEST PUSH1 0x40 MLOAD DUP1 SWAP2 SUB SWAP1 REVERT JUMPDEST PUSH0 ISZERO ISZERO PUSH1 0x2 DUP5 DUP5 PUSH1 0x40 MLOAD PUSH2 0x4EC SWAP3 SWAP2 SWAP1 PUSH2 0x16C7 JUMP JUMPDEST SWAP1 DUP2 MSTORE PUSH1 0x20 ADD PUSH1 0x40 MLOAD DUP1 SWAP2 SUB SWAP1 KECCAK256 PUSH0 CALLER PUSH20 0xFFFFFFFFFFFFFFFFFFFFFFFFFFFFFFFFFFFFFFFF AND PUSH20 0xFFFFFFFFFFFFFFFFFFFFFFFFFFFFFFFFFFFFFFFF AND DUP2 MSTORE PUSH1 0x20 ADD SWAP1 DUP2 MSTORE PUSH1 0x20 ADD PUSH0 KECCAK256 PUSH0 SWAP1 SLOAD SWAP1 PUSH2 0x100 EXP SWAP1 DIV PUSH1 0xFF AND ISZERO ISZERO EQ PUSH2 0x584 JUMPI PUSH1 0x40 MLOAD PUSH32 0x8C379A000000000000000000000000000000000000000000000000000000000 DUP2 MSTORE PUSH1 0x4 ADD PUSH2 0x57B SWAP1 PUSH2 0x17EE JUMP JUMPDEST PUSH1 0x40 MLOAD DUP1 SWAP2 SUB SWAP1 REVERT JUMPDEST DUP1 PUSH1 0x40 ADD MLOAD CALLVALUE LT ISZERO PUSH2 0x5CB JUMPI PUSH1 0x40 MLOAD PUSH32 0x8C379A000000000000000000000000000000000000000000000000000000000 DUP2 MSTORE PUSH1 0x4 ADD PUSH2 0x5C2 SWAP1 PUSH2 0x1856 JUMP JUMPDEST PUSH1 0x40 MLOAD DUP1 SWAP2 SUB SWAP1 REVERT JUMPDEST PUSH1 0x1 PUSH1 0x2 DUP5 DUP5 PUSH1 0x40 MLOAD PUSH2 0x5DF SWAP3 SWAP2 SWAP1 PUSH2 0x16C7 JUMP JUMPDEST SWAP1 DUP2 MSTORE PUSH1 0x20 ADD PUSH1 0x40 MLOAD DUP1 SWAP2 SUB SWAP1 KECCAK256 PUSH0 CALLER PUSH20 0xFFFFFFFFFFFFFFFFFFFFFFFFFFFFFFFFFFFFFFFF AND PUSH20 0xFFFFFFFFFFFFFFFFFFFFFFFFFFFFFFFFFFFFFFFF AND DUP2 MSTORE PUSH1 0x20 ADD SWAP1 DUP2 MSTORE PUSH1 0x20 ADD PUSH0 KECCAK256 PUSH0 PUSH2 0x100 EXP DUP2 SLOAD DUP2 PUSH1 0xFF MUL NOT AND SWAP1 DUP4 ISZERO ISZERO MUL OR SWAP1 SSTORE POP DUP1 PUSH1 0x20 ADD MLOAD PUSH20 0xFFFFFFFFFFFFFFFFFFFFFFFFFFFFFFFFFFFFFFFF AND PUSH2 0x8FC PUSH0 SLOAD CALLVALUE PUSH2 0x669 SWAP2 SWAP1 PUSH2 0x18A1 JUMP JUMPDEST SWAP1 DUP2 ISZERO MUL SWAP1 PUSH1 0x40 MLOAD PUSH0 PUSH1 0x40 MLOAD DUP1 DUP4 SUB DUP2 DUP6 DUP9 DUP9 CALL SWAP4 POP POP POP POP ISZERO DUP1 ISZERO PUSH2 0x691 JUMPI RETURNDATASIZE PUSH0 PUSH0 RETURNDATACOPY RETURNDATASIZE PUSH0 REVERT JUMPDEST POP POP POP POP JUMP JUMPDEST PUSH0 PUSH1 0x1 DUP5 DUP5 PUSH1 0x40 MLOAD PUSH2 0x6AA SWAP3 SWAP2 SWAP1 PUSH2 0x16C7 JUMP JUMPDEST SWAP1 DUP2 MSTORE PUSH1 0x20 ADD PUSH1 0x40 MLOAD DUP1 SWAP2 SUB SWAP1 KECCAK256 SWAP1 POP PUSH0 PUSH20 0xFFFFFFFFFFFFFFFFFFFFFFFFFFFFFFFFFFFFFFFF AND DUP2 PUSH1 0x1 ADD PUSH0 SWAP1 SLOAD SWAP1 PUSH2 0x100 EXP SWAP1 DIV PUSH20 0xFFFFFFFFFFFFFFFFFFFFFFFFFFFFFFFFFFFFFFFF AND PUSH20 0xFFFFFFFFFFFFFFFFFFFFFFFFFFFFFFFFFFFFFFFF AND SUB PUSH2 0x74B JUMPI PUSH1 0x40 MLOAD PUSH32 0x8C379A000000000000000000000000000000000000000000000000000000000 DUP2 MSTORE PUSH1 0x4 ADD PUSH2 0x742 SWAP1 PUSH2 0x1786 JUMP JUMPDEST PUSH1 0x40 MLOAD DUP1 SWAP2 SUB SWAP1 REVERT JUMPDEST CALLER PUSH20 0xFFFFFFFFFFFFFFFFFFFFFFFFFFFFFFFFFFFFFFFF AND DUP2 PUSH1 0x1 ADD PUSH0 SWAP1 SLOAD SWAP1 PUSH2 0x100 EXP SWAP1 DIV PUSH20 0xFFFFFFFFFFFFFFFFFFFFFFFFFFFFFFFFFFFFFFFF AND PUSH20 0xFFFFFFFFFFFFFFFFFFFFFFFFFFFFFFFFFFFFFFFF AND EQ PUSH2 0x7DC JUMPI PUSH1 0x40 MLOAD PUSH32 0x8C379A000000000000000000000000000000000000000000000000000000000 DUP2 MSTORE PUSH1 0x4 ADD PUSH2 0x7D3 SWAP1 PUSH2 0x167B JUMP JUMPDEST PUSH1 0x40 MLOAD DUP1 SWAP2 SUB SWAP1 REVERT JUMPDEST DUP2 DUP2 PUSH1 0x2 ADD DUP2 SWAP1 SSTORE POP POP POP POP POP JUMP JUMPDEST PUSH2 0x7F3 PUSH2 0x101D JUMP JUMPDEST PUSH0 PUSH1 0x1 DUP5 DUP5 PUSH1 0x40 MLOAD PUSH2 0x806 SWAP3 SWAP2 SWAP1 PUSH2 0x16C7 JUMP JUMPDEST SWAP1 DUP2 MSTORE PUSH1 0x20 ADD PUSH1 0x40 MLOAD DUP1 SWAP2 SUB SWAP1 KECCAK256 PUSH1 0x40 MLOAD DUP1 PUSH1 0x80 ADD PUSH1 0x40 MSTORE SWAP1 DUP2 PUSH0 DUP3 ADD DUP1 SLOAD PUSH2 0x82E SWAP1 PUSH2 0x170C JUMP JUMPDEST DUP1 PUSH1 0x1F ADD PUSH1 0x20 DUP1 SWAP2 DIV MUL PUSH1 0x20 ADD PUSH1 0x40 MLOAD SWAP1 DUP2 ADD PUSH1 0x40 MSTORE DUP1 SWAP3 SWAP2 SWAP1 DUP2 DUP2 MSTORE PUSH1 0x20 ADD DUP3 DUP1 SLOAD PUSH2 0x85A SWAP1 PUSH2 0x170C JUMP JUMPDEST DUP1 ISZERO PUSH2 0x8A5 JUMPI DUP1 PUSH1 0x1F LT PUSH2 0x87C JUMPI PUSH2 0x100 DUP1 DUP4 SLOAD DIV MUL DUP4 MSTORE SWAP2 PUSH1 0x20 ADD SWAP2 PUSH2 0x8A5 JUMP JUMPDEST DUP3 ADD SWAP2 SWAP1 PUSH0 MSTORE PUSH1 0x20 PUSH0 KECCAK256 SWAP1 JUMPDEST DUP2 SLOAD DUP2 MSTORE SWAP1 PUSH1 0x1 ADD SWAP1 PUSH1 0x20 ADD DUP1 DUP4 GT PUSH2 0x888 JUMPI DUP3 SWAP1 SUB PUSH1 0x1F AND DUP3 ADD SWAP2 JUMPDEST POP POP POP POP POP DUP2 MSTORE PUSH1 0x20 ADD PUSH1 0x1 DUP3 ADD PUSH0 SWAP1 SLOAD SWAP1 PUSH2 0x100 EXP SWAP1 DIV PUSH20 0xFFFFFFFFFFFFFFFFFFFFFFFFFFFFFFFFFFFFFFFF AND PUSH20 0xFFFFFFFFFFFFFFFFFFFFFFFFFFFFFFFFFFFFFFFF AND PUSH20 0xFFFFFFFFFFFFFFFFFFFFFFFFFFFFFFFFFFFFFFFF AND DUP2 MSTORE PUSH1 0x20 ADD PUSH1 0x2 DUP3 ADD SLOAD DUP2 MSTORE PUSH1 0x20 ADD PUSH1 0x3 DUP3 ADD SLOAD DUP2 MSTORE POP POP SWAP1 POP PUSH0 DUP2 PUSH1 0x40 ADD MLOAD SUB PUSH2 0x92D JUMPI DUP1 SWAP2 POP POP PUSH2 0x9BB JUMP JUMPDEST PUSH0 ISZERO ISZERO PUSH1 0x2 DUP6 DUP6 PUSH1 0x40 MLOAD PUSH2 0x942 SWAP3 SWAP2 SWAP1 PUSH2 0x16C7 JUMP JUMPDEST SWAP1 DUP2 MSTORE PUSH1 0x20 ADD PUSH1 0x40 MLOAD DUP1 SWAP2 SUB SWAP1 KECCAK256 PUSH0 CALLER PUSH20 0xFFFFFFFFFFFFFFFFFFFFFFFFFFFFFFFFFFFFFFFF AND PUSH20 0xFFFFFFFFFFFFFFFFFFFFFFFFFFFFFFFFFFFFFFFF AND DUP2 MSTORE PUSH1 0x20 ADD SWAP1 DUP2 MSTORE PUSH1 0x20 ADD PUSH0 KECCAK256 PUSH0 SWAP1 SLOAD SWAP1 PUSH2 0x100 EXP SWAP1 DIV PUSH1 0xFF AND ISZERO ISZERO SUB PUSH2 0x9B6 JUMPI PUSH1 0x40 MLOAD DUP1 PUSH1 0x20 ADD PUSH1 0x40 MSTORE DUP1 PUSH0 DUP2 MSTORE POP DUP2 PUSH0 ADD DUP2 SWAP1 MSTORE POP JUMPDEST DUP1 SWAP2 POP POP JUMPDEST SWAP3 SWAP2 POP POP JUMP JUMPDEST PUSH0 PUSH1 0x1 DUP4 DUP4 PUSH1 0x40 MLOAD PUSH2 0x9D4 SWAP3 SWAP2 SWAP1 PUSH2 0x16C7 JUMP JUMPDEST SWAP1 DUP2 MSTORE PUSH1 0x20 ADD PUSH1 0x40 MLOAD DUP1 SWAP2 SUB SWAP1 KECCAK256 PUSH1 0x40 MLOAD DUP1 PUSH1 0x80 ADD PUSH1 0x40 MSTORE SWAP1 DUP2 PUSH0 DUP3 ADD DUP1 SLOAD PUSH2 0x9FC SWAP1 PUSH2 0x170C JUMP JUMPDEST DUP1 PUSH1 0x1F ADD PUSH1 0x20 DUP1 SWAP2 DIV MUL PUSH1 0x20 ADD PUSH1 0x40 MLOAD SWAP1 DUP2 ADD PUSH1 0x40 MSTORE DUP1 SWAP3 SWAP2 SWAP1 DUP2 DUP2 MSTORE PUSH1 0x20 ADD DUP3 DUP1 SLOAD PUSH2 0xA28 SWAP1 PUSH2 0x170C JUMP JUMPDEST DUP1 ISZERO PUSH2 0xA73 JUMPI DUP1 PUSH1 0x1F LT PUSH2 0xA4A JUMPI PUSH2 0x100 DUP1 DUP4 SLOAD DIV MUL DUP4 MSTORE SWAP2 PUSH1 0x20 ADD SWAP2 PUSH2 0xA73 JUMP JUMPDEST DUP3 ADD SWAP2 SWAP1 PUSH0 MSTORE PUSH1 0x20 PUSH0 KECCAK256 SWAP1 JUMPDEST DUP2 SLOAD DUP2 MSTORE SWAP1 PUSH1 0x1 ADD SWAP1 PUSH1 0x20 ADD DUP1 DUP4 GT PUSH2 0xA56 JUMPI DUP3 SWAP1 SUB PUSH1 0x1F AND DUP3 ADD SWAP2 JUMPDEST POP POP POP POP POP DUP2 MSTORE PUSH1 0x20 ADD PUSH1 0x1 DUP3 ADD PUSH0 SWAP1 SLOAD SWAP1 PUSH2 0x100 EXP SWAP1 DIV PUSH20 0xFFFFFFFFFFFFFFFFFFFFFFFFFFFFFFFFFFFFFFFF AND PUSH20 0xFFFFFFFFFFFFFFFFFFFFFFFFFFFFFFFFFFFFFFFF AND PUSH20 0xFFFFFFFFFFFFFFFFFFFFFFFFFFFFFFFFFFFFFFFF AND DUP2 MSTORE PUSH1 0x20 ADD PUSH1 0x2 DUP3 ADD SLOAD DUP2 MSTORE PUSH1 0x20 ADD PUSH1 0x3 DUP3 ADD SLOAD DUP2 MSTORE POP POP SWAP1 POP PUSH0 PUSH20 0xFFFFFFFFFFFFFFFFFFFFFFFFFFFFFFFFFFFFFFFF AND DUP2 PUSH1 0x20 ADD MLOAD PUSH20 0xFFFFFFFFFFFFFFFFFFFFFFFFFFFFFFFFFFFFFFFF AND SUB PUSH2 0xB59 JUMPI PUSH1 0x40 MLOAD PUSH32 0x8C379A000000000000000000000000000000000000000000000000000000000 DUP2 MSTORE PUSH1 0x4 ADD PUSH2 0xB50 SWAP1 PUSH2 0x1786 JUMP JUMPDEST PUSH1 0x40 MLOAD DUP1 SWAP2 SUB SWAP1 REVERT JUMPDEST CALLER PUSH20 0xFFFFFFFFFFFFFFFFFFFFFFFFFFFFFFFFFFFFFFFF AND DUP2 PUSH1 0x20 ADD MLOAD PUSH20 0xFFFFFFFFFFFFFFFFFFFFFFFFFFFFFFFFFFFFFFFF AND EQ PUSH2 0xBCB JUMPI PUSH1 0x40 MLOAD PUSH32 0x8C379A000000000000000000000000000000000000000000000000000000000 DUP2 MSTORE PUSH1 0x4 ADD PUSH2 0xBC2 SWAP1 PUSH2 0x167B JUMP JUMPDEST PUSH1 0x40 MLOAD DUP1 SWAP2 SUB SWAP1 REVERT JUMPDEST PUSH1 0x1 DUP4 DUP4 PUSH1 0x40 MLOAD PUSH2 0xBDD SWAP3 SWAP2 SWAP1 PUSH2 0x16C7 JUMP JUMPDEST SWAP1 DUP2 MSTORE PUSH1 0x20 ADD PUSH1 0x40 MLOAD DUP1 SWAP2 SUB SWAP1 KECCAK256 PUSH0 PUSH0 DUP3 ADD PUSH0 PUSH2 0xBFA SWAP2 SWAP1 PUSH2 0x1058 JUMP JUMPDEST PUSH1 0x1 DUP3 ADD PUSH0 PUSH2 0x100 EXP DUP2 SLOAD SWAP1 PUSH20 0xFFFFFFFFFFFFFFFFFFFFFFFFFFFFFFFFFFFFFFFF MUL NOT AND SWAP1 SSTORE PUSH1 0x2 DUP3 ADD PUSH0 SWAP1 SSTORE PUSH1 0x3 DUP3 ADD PUSH0 SWAP1 SSTORE POP POP POP POP POP JUMP JUMPDEST PUSH32 0x0 DUP2 JUMP JUMPDEST PUSH0 PUSH1 0x1 DUP5 DUP5 PUSH1 0x40 MLOAD PUSH2 0xC6C SWAP3 SWAP2 SWAP1 PUSH2 0x16C7 JUMP JUMPDEST SWAP1 DUP2 MSTORE PUSH1 0x20 ADD PUSH1 0x40 MLOAD DUP1 SWAP2 SUB SWAP1 KECCAK256 PUSH1 0x40 MLOAD DUP1 PUSH1 0x80 ADD PUSH1 0x40 MSTORE SWAP1 DUP2 PUSH0 DUP3 ADD DUP1 SLOAD PUSH2 0xC94 SWAP1 PUSH2 0x170C JUMP JUMPDEST DUP1 PUSH1 0x1F ADD PUSH1 0x20 DUP1 SWAP2 DIV MUL PUSH1 0x20 ADD PUSH1 0x40 MLOAD SWAP1 DUP2 ADD PUSH1 0x40 MSTORE DUP1 SWAP3 SWAP2 SWAP1 DUP2 DUP2 MSTORE PUSH1 0x20 ADD DUP3 DUP1 SLOAD PUSH2 0xCC0 SWAP1 PUSH2 0x170C JUMP JUMPDEST DUP1 ISZERO PUSH2 0xD0B JUMPI DUP1 PUSH1 0x1F LT PUSH2 0xCE2 JUMPI PUSH2 0x100 DUP1 DUP4 SLOAD DIV MUL DUP4 MSTORE SWAP2 PUSH1 0x20 ADD SWAP2 PUSH2 0xD0B JUMP JUMPDEST DUP3 ADD SWAP2 SWAP1 PUSH0 MSTORE PUSH1 0x20 PUSH0 KECCAK256 SWAP1 JUMPDEST DUP2 SLOAD DUP2 MSTORE SWAP1 PUSH1 0x1 ADD SWAP1 PUSH1 0x20 ADD DUP1 DUP4 GT PUSH2 0xCEE JUMPI DUP3 SWAP1 SUB PUSH1 0x1F AND DUP3 ADD SWAP2 JUMPDEST POP POP POP POP POP DUP2 MSTORE PUSH1 0x20 ADD PUSH1 0x1 DUP3 ADD PUSH0 SWAP1 SLOAD SWAP1 PUSH2 0x100 EXP SWAP1 DIV PUSH20 0xFFFFFFFFFFFFFFFFFFFFFFFFFFFFFFFFFFFFFFFF AND PUSH20 0xFFFFFFFFFFFFFFFFFFFFFFFFFFFFFFFFFFFFFFFF AND PUSH20 0xFFFFFFFFFFFFFFFFFFFFFFFFFFFFFFFFFFFFFFFF AND DUP2 MSTORE PUSH1 0x20 ADD PUSH1 0x2 DUP3 ADD SLOAD DUP2 MSTORE PUSH1 0x20 ADD PUSH1 0x3 DUP3 ADD SLOAD DUP2 MSTORE POP POP SWAP1 POP PUSH0 PUSH20 0xFFFFFFFFFFFFFFFFFFFFFFFFFFFFFFFFFFFFFFFF AND DUP2 PUSH1 0x20 ADD MLOAD PUSH20 0xFFFFFFFFFFFFFFFFFFFFFFFFFFFFFFFFFFFFFFFF AND EQ DUP1 PUSH2 0xDEC JUMPI POP CALLER PUSH20 0xFFFFFFFFFFFFFFFFFFFFFFFFFFFFFFFFFFFFFFFF AND DUP2 PUSH1 0x20 ADD MLOAD PUSH20 0xFFFFFFFFFFFFFFFFFFFFFFFFFFFFFFFFFFFFFFFF AND EQ JUMPDEST PUSH2 0xE2B JUMPI PUSH1 0x40 MLOAD PUSH32 0x8C379A000000000000000000000000000000000000000000000000000000000 DUP2 MSTORE PUSH1 0x4 ADD PUSH2 0xE22 SWAP1 PUSH2 0x191E JUMP JUMPDEST PUSH1 0x40 MLOAD DUP1 SWAP2 SUB SWAP1 REVERT JUMPDEST PUSH0 DUP3 EQ DUP1 PUSH2 0xE3A JUMPI POP PUSH0 SLOAD DUP3 LT ISZERO JUMPDEST PUSH2 0xE79 JUMPI PUSH1 0x40 MLOAD PUSH32 0x8C379A000000000000000000000000000000000000000000000000000000000 DUP2 MSTORE PUSH1 0x4 ADD PUSH2 0xE70 SWAP1 PUSH2 0x1986 JUMP JUMPDEST PUSH1 0x40 MLOAD DUP1 SWAP2 SUB SWAP1 REVERT JUMPDEST DUP6 DUP6 DUP1 DUP1 PUSH1 0x1F ADD PUSH1 0x20 DUP1 SWAP2 DIV MUL PUSH1 0x20 ADD PUSH1 0x40 MLOAD SWAP1 DUP2 ADD PUSH1 0x40 MSTORE DUP1 SWAP4 SWAP3 SWAP2 SWAP1 DUP2 DUP2 MSTORE PUSH1 0x20 ADD DUP4 DUP4 DUP1 DUP3 DUP5 CALLDATACOPY PUSH0 DUP2 DUP5 ADD MSTORE PUSH1 0x1F NOT PUSH1 0x1F DUP3 ADD AND SWAP1 POP DUP1 DUP4 ADD SWAP3 POP POP POP POP POP POP POP DUP2 PUSH0 ADD DUP2 SWAP1 MSTORE POP DUP2 DUP2 PUSH1 0x40 ADD DUP2 DUP2 MSTORE POP POP CALLER DUP2 PUSH1 0x20 ADD SWAP1 PUSH20 0xFFFFFFFFFFFFFFFFFFFFFFFFFFFFFFFFFFFFFFFF AND SWAP1 DUP2 PUSH20 0xFFFFFFFFFFFFFFFFFFFFFFFFFFFFFFFFFFFFFFFF AND DUP2 MSTORE POP POP TIMESTAMP DUP2 PUSH1 0x60 ADD DUP2 DUP2 MSTORE POP POP DUP1 PUSH1 0x1 DUP6 DUP6 PUSH1 0x40 MLOAD PUSH2 0xF23 SWAP3 SWAP2 SWAP1 PUSH2 0x16C7 JUMP JUMPDEST SWAP1 DUP2 MSTORE PUSH1 0x20 ADD PUSH1 0x40 MLOAD DUP1 SWAP2 SUB SWAP1 KECCAK256 PUSH0 DUP3 ADD MLOAD DUP2 PUSH0 ADD SWAP1 DUP2 PUSH2 0xF44 SWAP2 SWAP1 PUSH2 0x1B44 JUMP JUMPDEST POP PUSH1 0x20 DUP3 ADD MLOAD DUP2 PUSH1 0x1 ADD PUSH0 PUSH2 0x100 EXP DUP2 SLOAD DUP2 PUSH20 0xFFFFFFFFFFFFFFFFFFFFFFFFFFFFFFFFFFFFFFFF MUL NOT AND SWAP1 DUP4 PUSH20 0xFFFFFFFFFFFFFFFFFFFFFFFFFFFFFFFFFFFFFFFF AND MUL OR SWAP1 SSTORE POP PUSH1 0x40 DUP3 ADD MLOAD DUP2 PUSH1 0x2 ADD SSTORE PUSH1 0x60 DUP3 ADD MLOAD DUP2 PUSH1 0x3 ADD SSTORE SWAP1 POP POP PUSH1 0x1 PUSH1 0x2 DUP6 DUP6 PUSH1 0x40 MLOAD PUSH2 0xFB6 SWAP3 SWAP2 SWAP1 PUSH2 0x16C7 JUMP JUMPDEST SWAP1 DUP2 MSTORE PUSH1 0x20 ADD PUSH1 0x40 MLOAD DUP1 SWAP2 SUB SWAP1 KECCAK256 PUSH0 CALLER PUSH20 0xFFFFFFFFFFFFFFFFFFFFFFFFFFFFFFFFFFFFFFFF AND PUSH20 0xFFFFFFFFFFFFFFFFFFFFFFFFFFFFFFFFFFFFFFFF AND DUP2 MSTORE PUSH1 0x20 ADD SWAP1 DUP2 MSTORE PUSH1 0x20 ADD PUSH0 KECCAK256 PUSH0 PUSH2 0x100 EXP DUP2 SLOAD DUP2 PUSH1 0xFF MUL NOT AND SWAP1 DUP4 ISZERO ISZERO MUL OR SWAP1 SSTORE POP POP POP POP POP POP POP JUMP JUMPDEST PUSH1 0x40 MLOAD DUP1 PUSH1 0x80 ADD PUSH1 0x40 MSTORE DUP1 PUSH1 0x60 DUP2 MSTORE PUSH1 0x20 ADD PUSH0 PUSH20 0xFFFFFFFFFFFFFFFFFFFFFFFFFFFFFFFFFFFFFFFF AND DUP2 MSTORE PUSH1 0x20 ADD PUSH0 DUP2 MSTORE PUSH1 0x20 ADD PUSH0 DUP2 MSTORE POP SWAP1 JUMP JUMPDEST POP DUP1 SLOAD PUSH2 0x1064 SWAP1 PUSH2 0x170C JUMP JUMPDEST PUSH0 DUP3 SSTORE DUP1 PUSH1 0x1F LT PUSH2 0x1075 JUMPI POP PUSH2 0x1092 JUMP JUMPDEST PUSH1 0x1F ADD PUSH1 0x20 SWAP1 DIV SWAP1 PUSH0 MSTORE PUSH1 0x20 PUSH0 KECCAK256 SWAP1 DUP2 ADD SWAP1 PUSH2 0x1091 SWAP2 SWAP1 PUSH2 0x1095 JUMP JUMPDEST JUMPDEST POP JUMP JUMPDEST JUMPDEST DUP1 DUP3 GT ISZERO PUSH2 0x10AC JUMPI PUSH0 DUP2 PUSH0 SWAP1 SSTORE POP PUSH1 0x1 ADD PUSH2 0x1096 JUMP JUMPDEST POP SWAP1 JUMP JUMPDEST PUSH0 PUSH1 0x40 MLOAD SWAP1 POP SWAP1 JUMP JUMPDEST PUSH0 PUSH0 REVERT JUMPDEST PUSH0 PUSH0 REVERT JUMPDEST PUSH0 PUSH0 REVERT JUMPDEST PUSH0 PUSH0 REVERT JUMPDEST PUSH0 PUSH1 0x1F NOT PUSH1 0x1F DUP4 ADD AND SWAP1 POP SWAP2 SWAP1 POP JUMP JUMPDEST PUSH32 0x4E487B7100000000000000000000000000000000000000000000000000000000 PUSH0 MSTORE PUSH1 0x41 PUSH1 0x4 MSTORE PUSH1 0x24 PUSH0 REVERT JUMPDEST PUSH2 0x110F DUP3 PUSH2 0x10C9 JUMP JUMPDEST DUP2 ADD DUP2 DUP2 LT PUSH8 0xFFFFFFFFFFFFFFFF DUP3 GT OR ISZERO PUSH2 0x112E JUMPI PUSH2 0x112D PUSH2 0x10D9 JUMP JUMPDEST JUMPDEST DUP1 PUSH1 0x40 MSTORE POP POP POP JUMP JUMPDEST PUSH0 PUSH2 0x1140 PUSH2 0x10B0 JUMP JUMPDEST SWAP1 POP PUSH2 0x114C DUP3 DUP3 PUSH2 0x1106 JUMP JUMPDEST SWAP2 SWAP1 POP JUMP JUMPDEST PUSH0 PUSH8 0xFFFFFFFFFFFFFFFF DUP3 GT ISZERO PUSH2 0x116B JUMPI PUSH2 0x116A PUSH2 0x10D9 JUMP JUMPDEST JUMPDEST PUSH2 0x1174 DUP3 PUSH2 0x10C9 JUMP JUMPDEST SWAP1 POP PUSH1 0x20 DUP2 ADD SWAP1 POP SWAP2 SWAP1 POP JUMP JUMPDEST DUP3 DUP2 DUP4 CALLDATACOPY PUSH0 DUP4 DUP4 ADD MSTORE POP POP POP JUMP JUMPDEST PUSH0 PUSH2 0x11A1 PUSH2 0x119C DUP5 PUSH2 0x1151 JUMP JUMPDEST PUSH2 0x1137 JUMP JUMPDEST SWAP1 POP DUP3 DUP2 MSTORE PUSH1 0x20 DUP2 ADD DUP5 DUP5 DUP5 ADD GT ISZERO PUSH2 0x11BD JUMPI PUSH2 0x11BC PUSH2 0x10C5 JUMP JUMPDEST JUMPDEST PUSH2 0x11C8 DUP5 DUP3 DUP6 PUSH2 0x1181 JUMP JUMPDEST POP SWAP4 SWAP3 POP POP POP JUMP JUMPDEST PUSH0 DUP3 PUSH1 0x1F DUP4 ADD SLT PUSH2 0x11E4 JUMPI PUSH2 0x11E3 PUSH2 0x10C1 JUMP JUMPDEST JUMPDEST DUP2 CALLDATALOAD PUSH2 0x11F4 DUP5 DUP3 PUSH1 0x20 DUP7 ADD PUSH2 0x118F JUMP JUMPDEST SWAP2 POP POP SWAP3 SWAP2 POP POP JUMP JUMPDEST PUSH0 PUSH20 0xFFFFFFFFFFFFFFFFFFFFFFFFFFFFFFFFFFFFFFFF DUP3 AND SWAP1 POP SWAP2 SWAP1 POP JUMP JUMPDEST PUSH0 PUSH2 0x1226 DUP3 PUSH2 0x11FD JUMP JUMPDEST SWAP1 POP SWAP2 SWAP1 POP JUMP JUMPDEST PUSH2 0x1236 DUP2 PUSH2 0x121C JUMP JUMPDEST DUP2 EQ PUSH2 0x1240 JUMPI PUSH0 PUSH0 REVERT JUMPDEST POP JUMP JUMPDEST PUSH0 DUP2 CALLDATALOAD SWAP1 POP PUSH2 0x1251 DUP2 PUSH2 0x122D JUMP JUMPDEST SWAP3 SWAP2 POP POP JUMP JUMPDEST PUSH0 PUSH0 PUSH1 0x40 DUP4 DUP6 SUB SLT ISZERO PUSH2 0x126D JUMPI PUSH2 0x126C PUSH2 0x10B9 JUMP JUMPDEST JUMPDEST PUSH0 DUP4 ADD CALLDATALOAD PUSH8 0xFFFFFFFFFFFFFFFF DUP2 GT ISZERO PUSH2 0x128A JUMPI PUSH2 0x1289 PUSH2 0x10BD JUMP JUMPDEST JUMPDEST PUSH2 0x1296 DUP6 DUP3 DUP7 ADD PUSH2 0x11D0 JUMP JUMPDEST SWAP3 POP POP PUSH1 0x20 PUSH2 0x12A7 DUP6 DUP3 DUP7 ADD PUSH2 0x1243 JUMP JUMPDEST SWAP2 POP POP SWAP3 POP SWAP3 SWAP1 POP JUMP JUMPDEST PUSH0 DUP2 ISZERO ISZERO SWAP1 POP SWAP2 SWAP1 POP JUMP JUMPDEST PUSH2 0x12C5 DUP2 PUSH2 0x12B1 JUMP JUMPDEST DUP3 MSTORE POP POP JUMP JUMPDEST PUSH0 PUSH1 0x20 DUP3 ADD SWAP1 POP PUSH2 0x12DE PUSH0 DUP4 ADD DUP5 PUSH2 0x12BC JUMP JUMPDEST SWAP3 SWAP2 POP POP JUMP JUMPDEST PUSH0 DUP2 SWAP1 POP SWAP2 SWAP1 POP JUMP JUMPDEST PUSH2 0x12F6 DUP2 PUSH2 0x12E4 JUMP JUMPDEST DUP3 MSTORE POP POP JUMP JUMPDEST PUSH0 PUSH1 0x20 DUP3 ADD SWAP1 POP PUSH2 0x130F PUSH0 DUP4 ADD DUP5 PUSH2 0x12ED JUMP JUMPDEST SWAP3 SWAP2 POP POP JUMP JUMPDEST PUSH0 PUSH0 REVERT JUMPDEST PUSH0 PUSH0 REVERT JUMPDEST PUSH0 PUSH0 DUP4 PUSH1 0x1F DUP5 ADD SLT PUSH2 0x1332 JUMPI PUSH2 0x1331 PUSH2 0x10C1 JUMP JUMPDEST JUMPDEST DUP3 CALLDATALOAD SWAP1 POP PUSH8 0xFFFFFFFFFFFFFFFF DUP2 GT ISZERO PUSH2 0x134F JUMPI PUSH2 0x134E PUSH2 0x1315 JUMP JUMPDEST JUMPDEST PUSH1 0x20 DUP4 ADD SWAP2 POP DUP4 PUSH1 0x1 DUP3 MUL DUP4 ADD GT ISZERO PUSH2 0x136B JUMPI PUSH2 0x136A PUSH2 0x1319 JUMP JUMPDEST JUMPDEST SWAP3 POP SWAP3 SWAP1 POP JUMP JUMPDEST PUSH0 PUSH0 PUSH1 0x20 DUP4 DUP6 SUB SLT ISZERO PUSH2 0x1388 JUMPI PUSH2 0x1387 PUSH2 0x10B9 JUMP JUMPDEST JUMPDEST PUSH0 DUP4 ADD CALLDATALOAD PUSH8 0xFFFFFFFFFFFFFFFF DUP2 GT ISZERO PUSH2 0x13A5 JUMPI PUSH2 0x13A4 PUSH2 0x10BD JUMP JUMPDEST JUMPDEST PUSH2 0x13B1 DUP6 DUP3 DUP7 ADD PUSH2 0x131D JUMP JUMPDEST SWAP3 POP SWAP3 POP POP SWAP3 POP SWAP3 SWAP1 POP JUMP JUMPDEST PUSH2 0x13C6 DUP2 PUSH2 0x12E4 JUMP JUMPDEST DUP2 EQ PUSH2 0x13D0 JUMPI PUSH0 PUSH0 REVERT JUMPDEST POP JUMP JUMPDEST PUSH0 DUP2 CALLDATALOAD SWAP1 POP PUSH2 0x13E1 DUP2 PUSH2 0x13BD JUMP JUMPDEST SWAP3 SWAP2 POP POP JUMP JUMPDEST PUSH0 PUSH0 PUSH0 PUSH1 0x40 DUP5 DUP7 SUB SLT ISZERO PUSH2 0x13FE JUMPI PUSH2 0x13FD PUSH2 0x10B9 JUMP JUMPDEST JUMPDEST PUSH0 DUP5 ADD CALLDATALOAD PUSH8 0xFFFFFFFFFFFFFFFF DUP2 GT ISZERO PUSH2 0x141B JUMPI PUSH2 0x141A PUSH2 0x10BD JUMP JUMPDEST JUMPDEST PUSH2 0x1427 DUP7 DUP3 DUP8 ADD PUSH2 0x131D JUMP JUMPDEST SWAP4 POP SWAP4 POP POP PUSH1 0x20 PUSH2 0x143A DUP7 DUP3 DUP8 ADD PUSH2 0x13D3 JUMP JUMPDEST SWAP2 POP POP SWAP3 POP SWAP3 POP SWAP3 JUMP JUMPDEST PUSH0 DUP2 MLOAD SWAP1 POP SWAP2 SWAP1 POP JUMP JUMPDEST PUSH0 DUP3 DUP3 MSTORE PUSH1 0x20 DUP3 ADD SWAP1 POP SWAP3 SWAP2 POP POP JUMP JUMPDEST DUP3 DUP2 DUP4 MCOPY PUSH0 DUP4 DUP4 ADD MSTORE POP POP POP JUMP JUMPDEST PUSH0 PUSH2 0x1476 DUP3 PUSH2 0x1444 JUMP JUMPDEST PUSH2 0x1480 DUP2 DUP6 PUSH2 0x144E JUMP JUMPDEST SWAP4 POP PUSH2 0x1490 DUP2 DUP6 PUSH1 0x20 DUP7 ADD PUSH2 0x145E JUMP JUMPDEST PUSH2 0x1499 DUP2 PUSH2 0x10C9 JUMP JUMPDEST DUP5 ADD SWAP2 POP POP SWAP3 SWAP2 POP POP JUMP JUMPDEST PUSH2 0x14AD DUP2 PUSH2 0x121C JUMP JUMPDEST DUP3 MSTORE POP POP JUMP JUMPDEST PUSH2 0x14BC DUP2 PUSH2 0x12E4 JUMP JUMPDEST DUP3 MSTORE POP POP JUMP JUMPDEST PUSH0 PUSH1 0x80 DUP4 ADD PUSH0 DUP4 ADD MLOAD DUP5 DUP3 SUB PUSH0 DUP7 ADD MSTORE PUSH2 0x14DC DUP3 DUP3 PUSH2 0x146C JUMP JUMPDEST SWAP2 POP POP PUSH1 0x20 DUP4 ADD MLOAD PUSH2 0x14F1 PUSH1 0x20 DUP7 ADD DUP3 PUSH2 0x14A4 JUMP JUMPDEST POP PUSH1 0x40 DUP4 ADD MLOAD PUSH2 0x1504 PUSH1 0x40 DUP7 ADD DUP3 PUSH2 0x14B3 JUMP JUMPDEST POP PUSH1 0x60 DUP4 ADD MLOAD PUSH2 0x1517 PUSH1 0x60 DUP7 ADD DUP3 PUSH2 0x14B3 JUMP JUMPDEST POP DUP1 SWAP2 POP POP SWAP3 SWAP2 POP POP JUMP JUMPDEST PUSH0 PUSH1 0x20 DUP3 ADD SWAP1 POP DUP2 DUP2 SUB PUSH0 DUP4 ADD MSTORE PUSH2 0x153A DUP2 DUP5 PUSH2 0x14C2 JUMP JUMPDEST SWAP1 POP SWAP3 SWAP2 POP POP JUMP JUMPDEST PUSH2 0x154B DUP2 PUSH2 0x121C JUMP JUMPDEST DUP3 MSTORE POP POP JUMP JUMPDEST PUSH0 PUSH1 0x20 DUP3 ADD SWAP1 POP PUSH2 0x1564 PUSH0 DUP4 ADD DUP5 PUSH2 0x1542 JUMP JUMPDEST SWAP3 SWAP2 POP POP JUMP JUMPDEST PUSH0 PUSH0 PUSH0 PUSH0 PUSH0 PUSH1 0x60 DUP7 DUP9 SUB SLT ISZERO PUSH2 0x1583 JUMPI PUSH2 0x1582 PUSH2 0x10B9 JUMP JUMPDEST JUMPDEST PUSH0 DUP7 ADD CALLDATALOAD PUSH8 0xFFFFFFFFFFFFFFFF DUP2 GT ISZERO PUSH2 0x15A0 JUMPI PUSH2 0x159F PUSH2 0x10BD JUMP JUMPDEST JUMPDEST PUSH2 0x15AC DUP9 DUP3 DUP10 ADD PUSH2 0x131D JUMP JUMPDEST SWAP6 POP SWAP6 POP POP PUSH1 0x20 DUP7 ADD CALLDATALOAD PUSH8 0xFFFFFFFFFFFFFFFF DUP2 GT ISZERO PUSH2 0x15CF JUMPI PUSH2 0x15CE PUSH2 0x10BD JUMP JUMPDEST JUMPDEST PUSH2 0x15DB DUP9 DUP3 DUP10 ADD PUSH2 0x131D JUMP JUMPDEST SWAP4 POP SWAP4 POP POP PUSH1 0x40 PUSH2 0x15EE DUP9 DUP3 DUP10 ADD PUSH2 0x13D3 JUMP JUMPDEST SWAP2 POP POP SWAP3 SWAP6 POP SWAP3 SWAP6 SWAP1 SWAP4 POP JUMP JUMPDEST PUSH0 DUP3 DUP3 MSTORE PUSH1 0x20 DUP3 ADD SWAP1 POP SWAP3 SWAP2 POP POP JUMP JUMPDEST PUSH32 0x596F7520646F6E2774207065726D697373696F6E20666F722074686973206163 PUSH0 DUP3 ADD MSTORE PUSH32 0x74696F6E00000000000000000000000000000000000000000000000000000000 PUSH1 0x20 DUP3 ADD MSTORE POP JUMP JUMPDEST PUSH0 PUSH2 0x1665 PUSH1 0x24 DUP4 PUSH2 0x15FB JUMP JUMPDEST SWAP2 POP PUSH2 0x1670 DUP3 PUSH2 0x160B JUMP JUMPDEST PUSH1 0x40 DUP3 ADD SWAP1 POP SWAP2 SWAP1 POP JUMP JUMPDEST PUSH0 PUSH1 0x20 DUP3 ADD SWAP1 POP DUP2 DUP2 SUB PUSH0 DUP4 ADD MSTORE PUSH2 0x1692 DUP2 PUSH2 0x1659 JUMP JUMPDEST SWAP1 POP SWAP2 SWAP1 POP JUMP JUMPDEST PUSH0 DUP2 SWAP1 POP SWAP3 SWAP2 POP POP JUMP JUMPDEST PUSH0 PUSH2 0x16AE DUP4 DUP6 PUSH2 0x1699 JUMP JUMPDEST SWAP4 POP PUSH2 0x16BB DUP4 DUP6 DUP5 PUSH2 0x1181 JUMP JUMPDEST DUP3 DUP5 ADD SWAP1 POP SWAP4 SWAP3 POP POP POP JUMP JUMPDEST PUSH0 PUSH2 0x16D3 DUP3 DUP5 DUP7 PUSH2 0x16A3 JUMP JUMPDEST SWAP2 POP DUP2 SWAP1 POP SWAP4 SWAP3 POP POP POP JUMP JUMPDEST PUSH32 0x4E487B7100000000000000000000000000000000000000000000000000000000 PUSH0 MSTORE PUSH1 0x22 PUSH1 0x4 MSTORE PUSH1 0x24 PUSH0 REVERT JUMPDEST PUSH0 PUSH1 0x2 DUP3 DIV SWAP1 POP PUSH1 0x1 DUP3 AND DUP1 PUSH2 0x1723 JUMPI PUSH1 0x7F DUP3 AND SWAP2 POP JUMPDEST PUSH1 0x20 DUP3 LT DUP2 SUB PUSH2 0x1736 JUMPI PUSH2 0x1735 PUSH2 0x16DF JUMP JUMPDEST JUMPDEST POP SWAP2 SWAP1 POP JUMP JUMPDEST PUSH32 0x4C696E6B206E6F7420666F756E64000000000000000000000000000000000000 PUSH0 DUP3 ADD MSTORE POP JUMP JUMPDEST PUSH0 PUSH2 0x1770 PUSH1 0xE DUP4 PUSH2 0x15FB JUMP JUMPDEST SWAP2 POP PUSH2 0x177B DUP3 PUSH2 0x173C JUMP JUMPDEST PUSH1 0x20 DUP3 ADD SWAP1 POP SWAP2 SWAP1 POP JUMP JUMPDEST PUSH0 PUSH1 0x20 DUP3 ADD SWAP1 POP DUP2 DUP2 SUB PUSH0 DUP4 ADD MSTORE PUSH2 0x179D DUP2 PUSH2 0x1764 JUMP JUMPDEST SWAP1 POP SWAP2 SWAP1 POP JUMP JUMPDEST PUSH32 0x596F7520616C7265647920686173206163636573730000000000000000000000 PUSH0 DUP3 ADD MSTORE POP JUMP JUMPDEST PUSH0 PUSH2 0x17D8 PUSH1 0x15 DUP4 PUSH2 0x15FB JUMP JUMPDEST SWAP2 POP PUSH2 0x17E3 DUP3 PUSH2 0x17A4 JUMP JUMPDEST PUSH1 0x20 DUP3 ADD SWAP1 POP SWAP2 SWAP1 POP JUMP JUMPDEST PUSH0 PUSH1 0x20 DUP3 ADD SWAP1 POP DUP2 DUP2 SUB PUSH0 DUP4 ADD MSTORE PUSH2 0x1805 DUP2 PUSH2 0x17CC JUMP JUMPDEST SWAP1 POP SWAP2 SWAP1 POP JUMP JUMPDEST PUSH32 0x496E737566696369656E74207061796D656E7400000000000000000000000000 PUSH0 DUP3 ADD MSTORE POP JUMP JUMPDEST PUSH0 PUSH2 0x1840 PUSH1 0x13 DUP4 PUSH2 0x15FB JUMP JUMPDEST SWAP2 POP PUSH2 0x184B DUP3 PUSH2 0x180C JUMP JUMPDEST PUSH1 0x20 DUP3 ADD SWAP1 POP SWAP2 SWAP1 POP JUMP JUMPDEST PUSH0 PUSH1 0x20 DUP3 ADD SWAP1 POP DUP2 DUP2 SUB PUSH0 DUP4 ADD MSTORE PUSH2 0x186D DUP2 PUSH2 0x1834 JUMP JUMPDEST SWAP1 POP SWAP2 SWAP1 POP JUMP JUMPDEST PUSH32 0x4E487B7100000000000000000000000000000000000000000000000000000000 PUSH0 MSTORE PUSH1 0x11 PUSH1 0x4 MSTORE PUSH1 0x24 PUSH0 REVERT JUMPDEST PUSH0 PUSH2 0x18AB DUP3 PUSH2 0x12E4 JUMP JUMPDEST SWAP2 POP PUSH2 0x18B6 DUP4 PUSH2 0x12E4 JUMP JUMPDEST SWAP3 POP DUP3 DUP3 SUB SWAP1 POP DUP2 DUP2 GT ISZERO PUSH2 0x18CE JUMPI PUSH2 0x18CD PUSH2 0x1874 JUMP JUMPDEST JUMPDEST SWAP3 SWAP2 POP POP JUMP JUMPDEST PUSH32 0x54686973206C696E6B496420616C726561642068617320616E206F776E657200 PUSH0 DUP3 ADD MSTORE POP JUMP JUMPDEST PUSH0 PUSH2 0x1908 PUSH1 0x1F DUP4 PUSH2 0x15FB JUMP JUMPDEST SWAP2 POP PUSH2 0x1913 DUP3 PUSH2 0x18D4 JUMP JUMPDEST PUSH1 0x20 DUP3 ADD SWAP1 POP SWAP2 SWAP1 POP JUMP JUMPDEST PUSH0 PUSH1 0x20 DUP3 ADD SWAP1 POP DUP2 DUP2 SUB PUSH0 DUP4 ADD MSTORE PUSH2 0x1935 DUP2 PUSH2 0x18FC JUMP JUMPDEST SWAP1 POP SWAP2 SWAP1 POP JUMP JUMPDEST PUSH32 0x46656520746F6F206C6F77000000000000000000000000000000000000000000 PUSH0 DUP3 ADD MSTORE POP JUMP JUMPDEST PUSH0 PUSH2 0x1970 PUSH1 0xB DUP4 PUSH2 0x15FB JUMP JUMPDEST SWAP2 POP PUSH2 0x197B DUP3 PUSH2 0x193C JUMP JUMPDEST PUSH1 0x20 DUP3 ADD SWAP1 POP SWAP2 SWAP1 POP JUMP JUMPDEST PUSH0 PUSH1 0x20 DUP3 ADD SWAP1 POP DUP2 DUP2 SUB PUSH0 DUP4 ADD MSTORE PUSH2 0x199D DUP2 PUSH2 0x1964 JUMP JUMPDEST SWAP1 POP SWAP2 SWAP1 POP JUMP JUMPDEST PUSH0 DUP2 SWAP1 POP DUP2 PUSH0 MSTORE PUSH1 0x20 PUSH0 KECCAK256 SWAP1 POP SWAP2 SWAP1 POP JUMP JUMPDEST PUSH0 PUSH1 0x20 PUSH1 0x1F DUP4 ADD DIV SWAP1 POP SWAP2 SWAP1 POP JUMP JUMPDEST PUSH0 DUP3 DUP3 SHL SWAP1 POP SWAP3 SWAP2 POP POP JUMP JUMPDEST PUSH0 PUSH1 0x8 DUP4 MUL PUSH2 0x1A00 PUSH32 0xFFFFFFFFFFFFFFFFFFFFFFFFFFFFFFFFFFFFFFFFFFFFFFFFFFFFFFFFFFFFFFFF DUP3 PUSH2 0x19C5 JUMP JUMPDEST PUSH2 0x1A0A DUP7 DUP4 PUSH2 0x19C5 JUMP JUMPDEST SWAP6 POP DUP1 NOT DUP5 AND SWAP4 POP DUP1 DUP7 AND DUP5 OR SWAP3 POP POP POP SWAP4 SWAP3 POP POP POP JUMP JUMPDEST PUSH0 DUP2 SWAP1 POP SWAP2 SWAP1 POP JUMP JUMPDEST PUSH0 PUSH2 0x1A45 PUSH2 0x1A40 PUSH2 0x1A3B DUP5 PUSH2 0x12E4 JUMP JUMPDEST PUSH2 0x1A22 JUMP JUMPDEST PUSH2 0x12E4 JUMP JUMPDEST SWAP1 POP SWAP2 SWAP1 POP JUMP JUMPDEST PUSH0 DUP2 SWAP1 POP SWAP2 SWAP1 POP JUMP JUMPDEST PUSH2 0x1A5E DUP4 PUSH2 0x1A2B JUMP JUMPDEST PUSH2 0x1A72 PUSH2 0x1A6A DUP3 PUSH2 0x1A4C JUMP JUMPDEST DUP5 DUP5 SLOAD PUSH2 0x19D1 JUMP JUMPDEST DUP3 SSTORE POP POP POP POP JUMP JUMPDEST PUSH0 PUSH0 SWAP1 POP SWAP1 JUMP JUMPDEST PUSH2 0x1A89 PUSH2 0x1A7A JUMP JUMPDEST PUSH2 0x1A94 DUP2 DUP5 DUP5 PUSH2 0x1A55 JUMP JUMPDEST POP POP POP JUMP JUMPDEST JUMPDEST DUP2 DUP2 LT ISZERO PUSH2 0x1AB7 JUMPI PUSH2 0x1AAC PUSH0 DUP3 PUSH2 0x1A81 JUMP JUMPDEST PUSH1 0x1 DUP2 ADD SWAP1 POP PUSH2 0x1A9A JUMP JUMPDEST POP POP JUMP JUMPDEST PUSH1 0x1F DUP3 GT ISZERO PUSH2 0x1AFC JUMPI PUSH2 0x1ACD DUP2 PUSH2 0x19A4 JUMP JUMPDEST PUSH2 0x1AD6 DUP5 PUSH2 0x19B6 JUMP JUMPDEST DUP2 ADD PUSH1 0x20 DUP6 LT ISZERO PUSH2 0x1AE5 JUMPI DUP2 SWAP1 POP JUMPDEST PUSH2 0x1AF9 PUSH2 0x1AF1 DUP6 PUSH2 0x19B6 JUMP JUMPDEST DUP4 ADD DUP3 PUSH2 0x1A99 JUMP JUMPDEST POP POP JUMPDEST POP POP POP JUMP JUMPDEST PUSH0 DUP3 DUP3 SHR SWAP1 POP SWAP3 SWAP2 POP POP JUMP JUMPDEST PUSH0 PUSH2 0x1B1C PUSH0 NOT DUP5 PUSH1 0x8 MUL PUSH2 0x1B01 JUMP JUMPDEST NOT DUP1 DUP4 AND SWAP2 POP POP SWAP3 SWAP2 POP POP JUMP JUMPDEST PUSH0 PUSH2 0x1B34 DUP4 DUP4 PUSH2 0x1B0D JUMP JUMPDEST SWAP2 POP DUP3 PUSH1 0x2 MUL DUP3 OR SWAP1 POP SWAP3 SWAP2 POP POP JUMP JUMPDEST PUSH2 0x1B4D DUP3 PUSH2 0x1444 JUMP JUMPDEST PUSH8 0xFFFFFFFFFFFFFFFF DUP2 GT ISZERO PUSH2 0x1B66 JUMPI PUSH2 0x1B65 PUSH2 0x10D9 JUMP JUMPDEST JUMPDEST PUSH2 0x1B70 DUP3 SLOAD PUSH2 0x170C JUMP JUMPDEST PUSH2 0x1B7B DUP3 DUP3 DUP6 PUSH2 0x1ABB JUMP JUMPDEST PUSH0 PUSH1 0x20 SWAP1 POP PUSH1 0x1F DUP4 GT PUSH1 0x1 DUP2 EQ PUSH2 0x1BAC JUMPI PUSH0 DUP5 ISZERO PUSH2 0x1B9A JUMPI DUP3 DUP8 ADD MLOAD SWAP1 POP JUMPDEST PUSH2 0x1BA4 DUP6 DUP3 PUSH2 0x1B29 JUMP JUMPDEST DUP7 SSTORE POP PUSH2 0x1C0B JUMP JUMPDEST PUSH1 0x1F NOT DUP5 AND PUSH2 0x1BBA DUP7 PUSH2 0x19A4 JUMP JUMPDEST PUSH0 JUMPDEST DUP3 DUP2 LT ISZERO PUSH2 0x1BE1 JUMPI DUP5 DUP10 ADD MLOAD DUP3 SSTORE PUSH1 0x1 DUP3 ADD SWAP2 POP PUSH1 0x20 DUP6 ADD SWAP5 POP PUSH1 0x20 DUP2 ADD SWAP1 POP PUSH2 0x1BBC JUMP JUMPDEST DUP7 DUP4 LT ISZERO PUSH2 0x1BFE JUMPI DUP5 DUP10 ADD MLOAD PUSH2 0x1BFA PUSH1 0x1F DUP10 AND DUP3 PUSH2 0x1B0D JUMP JUMPDEST DUP4 SSTORE POP JUMPDEST PUSH1 0x1 PUSH1 0x2 DUP9 MUL ADD DUP9 SSTORE POP POP POP JUMPDEST POP POP POP POP POP POP JUMP INVALID LOG2 PUSH5 0x6970667358 0x22 SLT KECCAK256 0xCE JUMPDEST GT ORIGIN MULMOD 0xA9 0xC0 PUSH14 0x69850A3FCC66D93C17C52AC03631 PUSH0 0xEF DUP2 0x4E MUL 0xD0 LOG0 DUP2 STATICCALL 0xCB PUSH5 0x736F6C6343 STOP ADDMOD 0x1E STOP CALLER "
				},
				"gasEstimates": {
					"creation": {
						"codeDepositCost": "1448200",
						"executionCost": "infinite",
						"totalCost": "infinite"
					},
					"external": {
						"addLink(string,string,uint256)": "infinite",
						"admin()": "infinite",
						"comission()": "2447",
						"deleteLink(string)": "infinite",
						"editComission(string,uint256)": "infinite",
						"getLink(string)": "infinite",
						"hasAccess(string,address)": "infinite",
						"payLink(string)": "infinite",
						"withdraw()": "infinite"
					}
				},
				"methodIdentifiers": {
					"addLink(string,string,uint256)": "fc5f2b78",
					"admin()": "f851a440",
					"comission()": "3a4b4532",
					"deleteLink(string)": "b6dfd6f1",
					"editComission(string,uint256)": "721b72b0",
					"getLink(string)": "7476452a",
					"hasAccess(string,address)": "13bd20e2",
					"payLink(string)": "429cad86",
					"withdraw()": "3ccfd60b"
				}
			},
			"storageLayout": {
				"storage": [
					{
						"astId": 13,
						"contract": "contracts/LinkShield.sol:LinkShield",
						"label": "comission",
						"offset": 0,
						"slot": "0",
						"type": "t_uint256"
					},
					{
						"astId": 29,
						"contract": "contracts/LinkShield.sol:LinkShield",
						"label": "links",
						"offset": 0,
						"slot": "1",
						"type": "t_mapping(t_string_memory_ptr,t_struct(Link)10_storage)"
					},
					{
						"astId": 35,
						"contract": "contracts/LinkShield.sol:LinkShield",
						"label": "hasAccess",
						"offset": 0,
						"slot": "2",
						"type": "t_mapping(t_string_memory_ptr,t_mapping(t_address,t_bool))"
					}
				],
				"types": {
					"t_address": {
						"encoding": "inplace",
						"label": "address",
						"numberOfBytes": "20"
					},
					"t_bool": {
						"encoding": "inplace",
						"label": "bool",
						"numberOfBytes": "1"
					},
					"t_mapping(t_address,t_bool)": {
						"encoding": "mapping",
						"key": "t_address",
						"label": "mapping(address => bool)",
						"numberOfBytes": "32",
						"value": "t_bool"
					},
					"t_mapping(t_string_memory_ptr,t_mapping(t_address,t_bool))": {
						"encoding": "mapping",
						"key": "t_string_memory_ptr",
						"label": "mapping(string => mapping(address => bool))",
						"numberOfBytes": "32",
						"value": "t_mapping(t_address,t_bool)"
					},
					"t_mapping(t_string_memory_ptr,t_struct(Link)10_storage)": {
						"encoding": "mapping",
						"key": "t_string_memory_ptr",
						"label": "mapping(string => struct LinkShield.Link)",
						"numberOfBytes": "32",
						"value": "t_struct(Link)10_storage"
					},
					"t_string_memory_ptr": {
						"encoding": "bytes",
						"label": "string",
						"numberOfBytes": "32"
					},
					"t_string_storage": {
						"encoding": "bytes",
						"label": "string",
						"numberOfBytes": "32"
					},
					"t_struct(Link)10_storage": {
						"encoding": "inplace",
						"label": "struct LinkShield.Link",
						"members": [
							{
								"astId": 3,
								"contract": "contracts/LinkShield.sol:LinkShield",
								"label": "url",
								"offset": 0,
								"slot": "0",
								"type": "t_string_storage"
							},
							{
								"astId": 5,
								"contract": "contracts/LinkShield.sol:LinkShield",
								"label": "owner",
								"offset": 0,
								"slot": "1",
								"type": "t_address"
							},
							{
								"astId": 7,
								"contract": "contracts/LinkShield.sol:LinkShield",
								"label": "fee",
								"offset": 0,
								"slot": "2",
								"type": "t_uint256"
							},
							{
								"astId": 9,
								"contract": "contracts/LinkShield.sol:LinkShield",
								"label": "timestamp",
								"offset": 0,
								"slot": "3",
								"type": "t_uint256"
							}
						],
						"numberOfBytes": "128"
					},
					"t_uint256": {
						"encoding": "inplace",
						"label": "uint256",
						"numberOfBytes": "32"
					}
				}
			},
			"userdoc": {
				"kind": "user",
				"methods": {},
				"version": 1
			}
		}
	}
}